{"src/contracts/Taskon.sol":{"Taskon":{"abi":[{"inputs":[],"stateMutability":"nonpayable","type":"constructor"},{"anonymous":false,"inputs":[{"indexed":false,"internalType":"uint256","name":"id","type":"uint256"},{"indexed":true,"internalType":"address","name":"creator","type":"address"}],"name":"CampaignCreated","type":"event"},{"anonymous":false,"inputs":[{"indexed":false,"internalType":"uint256","name":"id","type":"uint256"},{"indexed":true,"internalType":"address","name":"host","type":"address"}],"name":"EventCreated","type":"event"},{"anonymous":false,"inputs":[{"indexed":true,"internalType":"uint256","name":"campaignId","type":"uint256"},{"indexed":true,"internalType":"address","name":"user","type":"address"}],"name":"JoinedCampaign","type":"event"},{"anonymous":false,"inputs":[{"indexed":true,"internalType":"uint256","name":"eventId","type":"uint256"},{"indexed":true,"internalType":"address","name":"user","type":"address"}],"name":"JoinedEvent","type":"event"},{"anonymous":false,"inputs":[{"indexed":true,"internalType":"uint256","name":"spaceId","type":"uint256"},{"indexed":true,"internalType":"address","name":"user","type":"address"}],"name":"JoinedSpace","type":"event"},{"anonymous":false,"inputs":[{"indexed":false,"internalType":"uint256","name":"id","type":"uint256"},{"indexed":true,"internalType":"address","name":"creator","type":"address"}],"name":"SpaceCreated","type":"event"},{"anonymous":false,"inputs":[{"indexed":true,"internalType":"address","name":"userAddress","type":"address"},{"indexed":false,"internalType":"string","name":"name","type":"string"}],"name":"UserRegistered","type":"event"},{"anonymous":false,"inputs":[{"indexed":true,"internalType":"address","name":"userAddress","type":"address"},{"indexed":false,"internalType":"string","name":"name","type":"string"}],"name":"UserUpdated","type":"event"},{"inputs":[],"name":"campaignCount","outputs":[{"internalType":"uint256","name":"","type":"uint256"}],"stateMutability":"view","type":"function"},{"inputs":[{"internalType":"uint256","name":"","type":"uint256"},{"internalType":"uint256","name":"","type":"uint256"}],"name":"campaignInSpace","outputs":[{"internalType":"bool","name":"","type":"bool"}],"stateMutability":"view","type":"function"},{"inputs":[{"internalType":"uint256","name":"","type":"uint256"}],"name":"campaigns","outputs":[{"internalType":"uint256","name":"id","type":"uint256"},{"internalType":"address","name":"creator","type":"address"},{"internalType":"string","name":"name","type":"string"},{"internalType":"uint256","name":"startTimestamp","type":"uint256"},{"internalType":"uint256","name":"endTimestamp","type":"uint256"},{"internalType":"string","name":"image","type":"string"},{"internalType":"string","name":"description","type":"string"},{"internalType":"uint256","name":"tokenReward","type":"uint256"},{"internalType":"uint256","name":"points","type":"uint256"},{"internalType":"uint256","name":"minimumLevel","type":"uint256"},{"internalType":"uint256","name":"minimumBalance","type":"uint256"},{"internalType":"uint256","name":"numberOfWinners","type":"uint256"},{"internalType":"string","name":"tasksURL","type":"string"},{"internalType":"bool","name":"tasks","type":"bool"},{"internalType":"bool","name":"visibility","type":"bool"},{"internalType":"uint256","name":"randomnessBlockNumber","type":"uint256"}],"stateMutability":"view","type":"function"},{"inputs":[{"internalType":"string","name":"name","type":"string"},{"internalType":"uint256","name":"startTimestamp","type":"uint256"},{"internalType":"uint256","name":"endTimestamp","type":"uint256"},{"internalType":"string","name":"image","type":"string"},{"internalType":"string","name":"description","type":"string"},{"internalType":"uint256","name":"tokenReward","type":"uint256"},{"internalType":"uint256","name":"points","type":"uint256"},{"internalType":"uint256","name":"minimumLevel","type":"uint256"},{"internalType":"uint256","name":"minimumBalance","type":"uint256"},{"internalType":"uint256","name":"numberOfWinners","type":"uint256"},{"internalType":"string","name":"tasksURL","type":"string"},{"internalType":"bool","name":"visibility","type":"bool"}],"name":"createCampaign","outputs":[],"stateMutability":"nonpayable","type":"function"},{"inputs":[{"internalType":"string","name":"name","type":"string"},{"internalType":"uint256","name":"startTimestamp","type":"uint256"},{"internalType":"uint256","name":"endTimestamp","type":"uint256"},{"internalType":"string","name":"image","type":"string"},{"internalType":"string","name":"description","type":"string"},{"internalType":"uint256","name":"tokenReward","type":"uint256"},{"internalType":"uint256","name":"points","type":"uint256"},{"internalType":"uint256","name":"minimumCampaign","type":"uint256"},{"internalType":"uint256","name":"numberOfWinners","type":"uint256"},{"internalType":"uint256[]","name":"campaignIds","type":"uint256[]"}],"name":"createEvent","outputs":[],"stateMutability":"nonpayable","type":"function"},{"inputs":[{"internalType":"string","name":"name","type":"string"},{"internalType":"string","name":"image","type":"string"},{"internalType":"enum Taskon.ProjectCategory","name":"category","type":"uint8"},{"internalType":"string","name":"officialWebsite","type":"string"},{"internalType":"string","name":"discordLink","type":"string"},{"internalType":"string","name":"telegramLink","type":"string"},{"internalType":"string","name":"description","type":"string"},{"internalType":"uint256[]","name":"campaignIds","type":"uint256[]"},{"internalType":"uint256[]","name":"eventIds","type":"uint256[]"}],"name":"createSpace","outputs":[],"stateMutability":"nonpayable","type":"function"},{"inputs":[],"name":"deposit","outputs":[],"stateMutability":"payable","type":"function"},{"inputs":[{"internalType":"uint256","name":"campaignId","type":"uint256"},{"internalType":"string","name":"newName","type":"string"},{"internalType":"string","name":"newImage","type":"string"},{"internalType":"string","name":"newDescription","type":"string"},{"internalType":"uint256","name":"newTokenReward","type":"uint256"},{"internalType":"uint256","name":"newPoints","type":"uint256"},{"internalType":"uint256","name":"newMinimumLevel","type":"uint256"},{"internalType":"uint256","name":"newMinimumBalance","type":"uint256"},{"internalType":"uint256","name":"newNumberOfWinners","type":"uint256"},{"internalType":"string","name":"newTasksURL","type":"string"},{"internalType":"bool","name":"newVisibility","type":"bool"}],"name":"editCampaign","outputs":[],"stateMutability":"nonpayable","type":"function"},{"inputs":[{"internalType":"uint256","name":"eventId","type":"uint256"},{"internalType":"string","name":"newName","type":"string"},{"internalType":"string","name":"newImage","type":"string"},{"internalType":"string","name":"newDescription","type":"string"},{"internalType":"uint256","name":"newTokenReward","type":"uint256"},{"internalType":"uint256","name":"newPoints","type":"uint256"},{"internalType":"uint256","name":"newMinimumCampaign","type":"uint256"},{"internalType":"uint256","name":"newNumberOfWinners","type":"uint256"},{"internalType":"uint256[]","name":"newCampaignIds","type":"uint256[]"}],"name":"editEvent","outputs":[],"stateMutability":"nonpayable","type":"function"},{"inputs":[],"name":"eventCount","outputs":[{"internalType":"uint256","name":"","type":"uint256"}],"stateMutability":"view","type":"function"},{"inputs":[{"internalType":"uint256","name":"","type":"uint256"},{"internalType":"uint256","name":"","type":"uint256"}],"name":"eventInSpace","outputs":[{"internalType":"bool","name":"","type":"bool"}],"stateMutability":"view","type":"function"},{"inputs":[{"internalType":"uint256","name":"","type":"uint256"}],"name":"events","outputs":[{"internalType":"uint256","name":"id","type":"uint256"},{"internalType":"address","name":"host","type":"address"},{"internalType":"string","name":"name","type":"string"},{"internalType":"uint256","name":"startTimestamp","type":"uint256"},{"internalType":"uint256","name":"endTimestamp","type":"uint256"},{"internalType":"string","name":"image","type":"string"},{"internalType":"string","name":"description","type":"string"},{"internalType":"uint256","name":"tokenReward","type":"uint256"},{"internalType":"uint256","name":"points","type":"uint256"},{"internalType":"uint256","name":"minimumCampaign","type":"uint256"},{"internalType":"uint256","name":"numberOfWinners","type":"uint256"}],"stateMutability":"view","type":"function"},{"inputs":[],"name":"getAllCampaignIDs","outputs":[{"internalType":"uint256[]","name":"","type":"uint256[]"}],"stateMutability":"view","type":"function"},{"inputs":[],"name":"getAllEventIDs","outputs":[{"internalType":"uint256[]","name":"","type":"uint256[]"}],"stateMutability":"view","type":"function"},{"inputs":[],"name":"getAllSpaceIDs","outputs":[{"internalType":"uint256[]","name":"","type":"uint256[]"}],"stateMutability":"view","type":"function"},{"inputs":[{"internalType":"uint256","name":"campaignId","type":"uint256"}],"name":"getCampaign","outputs":[{"components":[{"internalType":"uint256","name":"id","type":"uint256"},{"internalType":"address","name":"creator","type":"address"},{"internalType":"string","name":"name","type":"string"},{"internalType":"uint256","name":"startTimestamp","type":"uint256"},{"internalType":"uint256","name":"endTimestamp","type":"uint256"},{"internalType":"string","name":"image","type":"string"},{"internalType":"string","name":"description","type":"string"},{"internalType":"uint256","name":"tokenReward","type":"uint256"},{"internalType":"uint256","name":"points","type":"uint256"},{"internalType":"uint256","name":"minimumLevel","type":"uint256"},{"internalType":"uint256","name":"minimumBalance","type":"uint256"},{"internalType":"uint256","name":"numberOfWinners","type":"uint256"},{"internalType":"string","name":"tasksURL","type":"string"},{"internalType":"bool","name":"tasks","type":"bool"},{"internalType":"bool","name":"visibility","type":"bool"},{"internalType":"address[]","name":"participants","type":"address[]"},{"internalType":"uint256","name":"randomnessBlockNumber","type":"uint256"}],"internalType":"struct Taskon.Campaign","name":"","type":"tuple"},{"internalType":"address[]","name":"","type":"address[]"}],"stateMutability":"view","type":"function"},{"inputs":[{"internalType":"uint256","name":"campaignId","type":"uint256"}],"name":"getCampaignParticipants","outputs":[{"internalType":"address[]","name":"","type":"address[]"}],"stateMutability":"view","type":"function"},{"inputs":[{"internalType":"uint256","name":"eventId","type":"uint256"}],"name":"getEvent","outputs":[{"components":[{"internalType":"uint256","name":"id","type":"uint256"},{"internalType":"address","name":"host","type":"address"},{"internalType":"string","name":"name","type":"string"},{"internalType":"uint256","name":"startTimestamp","type":"uint256"},{"internalType":"uint256","name":"endTimestamp","type":"uint256"},{"internalType":"string","name":"image","type":"string"},{"internalType":"string","name":"description","type":"string"},{"internalType":"uint256","name":"tokenReward","type":"uint256"},{"internalType":"uint256","name":"points","type":"uint256"},{"internalType":"uint256","name":"minimumCampaign","type":"uint256"},{"internalType":"uint256","name":"numberOfWinners","type":"uint256"},{"internalType":"uint256[]","name":"campaignIds","type":"uint256[]"},{"internalType":"address[]","name":"participants","type":"address[]"}],"internalType":"struct Taskon.Event","name":"","type":"tuple"},{"internalType":"uint256[]","name":"","type":"uint256[]"},{"internalType":"address[]","name":"","type":"address[]"}],"stateMutability":"view","type":"function"},{"inputs":[{"internalType":"uint256","name":"eventId","type":"uint256"}],"name":"getEventParticipants","outputs":[{"internalType":"address[]","name":"","type":"address[]"}],"stateMutability":"view","type":"function"},{"inputs":[{"internalType":"uint256","name":"spaceId","type":"uint256"},{"internalType":"address","name":"userAddress","type":"address"}],"name":"getLeaderboardEntry","outputs":[{"components":[{"internalType":"uint256","name":"campaignsJoined","type":"uint256"},{"internalType":"uint256","name":"eventsJoined","type":"uint256"},{"internalType":"uint256","name":"totalPoints","type":"uint256"}],"internalType":"struct Taskon.LeaderboardEntry","name":"","type":"tuple"}],"stateMutability":"view","type":"function"},{"inputs":[{"internalType":"uint256","name":"spaceId","type":"uint256"}],"name":"getSpace","outputs":[{"components":[{"internalType":"string","name":"name","type":"string"},{"internalType":"address","name":"creator","type":"address"},{"internalType":"string","name":"image","type":"string"},{"internalType":"enum Taskon.ProjectCategory","name":"category","type":"uint8"},{"internalType":"string","name":"officialWebsite","type":"string"},{"internalType":"string","name":"discordLink","type":"string"},{"internalType":"string","name":"telegramLink","type":"string"},{"internalType":"string","name":"description","type":"string"},{"internalType":"address[]","name":"followers","type":"address[]"},{"internalType":"uint256[]","name":"campaigns","type":"uint256[]"},{"internalType":"uint256[]","name":"events","type":"uint256[]"}],"internalType":"struct Taskon.Space","name":"","type":"tuple"},{"internalType":"address[]","name":"","type":"address[]"},{"internalType":"uint256[]","name":"","type":"uint256[]"},{"internalType":"uint256[]","name":"","type":"uint256[]"}],"stateMutability":"view","type":"function"},{"inputs":[],"name":"getTotalCounts","outputs":[{"internalType":"uint256","name":"","type":"uint256"},{"internalType":"uint256","name":"","type":"uint256"},{"internalType":"uint256","name":"","type":"uint256"}],"stateMutability":"view","type":"function"},{"inputs":[{"internalType":"address","name":"userAddress","type":"address"}],"name":"getUser","outputs":[{"components":[{"internalType":"address","name":"userAddress","type":"address"},{"internalType":"string","name":"name","type":"string"},{"internalType":"uint256","name":"assets","type":"uint256"},{"internalType":"uint256","name":"points","type":"uint256"},{"internalType":"uint256","name":"level","type":"uint256"},{"internalType":"uint256[]","name":"spaceJoined","type":"uint256[]"},{"internalType":"uint256[]","name":"campaignsJoined","type":"uint256[]"},{"internalType":"uint256[]","name":"eventsJoined","type":"uint256[]"}],"internalType":"struct Taskon.User","name":"","type":"tuple"}],"stateMutability":"view","type":"function"},{"inputs":[{"internalType":"uint256","name":"campaignId","type":"uint256"}],"name":"joinCampaign","outputs":[],"stateMutability":"nonpayable","type":"function"},{"inputs":[{"internalType":"uint256","name":"eventId","type":"uint256"}],"name":"joinEvent","outputs":[],"stateMutability":"nonpayable","type":"function"},{"inputs":[{"internalType":"uint256","name":"spaceId","type":"uint256"}],"name":"joinSpace","outputs":[],"stateMutability":"nonpayable","type":"function"},{"inputs":[],"name":"spaceCount","outputs":[{"internalType":"uint256","name":"","type":"uint256"}],"stateMutability":"view","type":"function"},{"inputs":[{"internalType":"uint256","name":"","type":"uint256"},{"internalType":"address","name":"","type":"address"}],"name":"spaceLeaderboard","outputs":[{"internalType":"uint256","name":"campaignsJoined","type":"uint256"},{"internalType":"uint256","name":"eventsJoined","type":"uint256"},{"internalType":"uint256","name":"totalPoints","type":"uint256"}],"stateMutability":"view","type":"function"},{"inputs":[{"internalType":"uint256","name":"","type":"uint256"}],"name":"spaces","outputs":[{"internalType":"string","name":"name","type":"string"},{"internalType":"address","name":"creator","type":"address"},{"internalType":"string","name":"image","type":"string"},{"internalType":"enum Taskon.ProjectCategory","name":"category","type":"uint8"},{"internalType":"string","name":"officialWebsite","type":"string"},{"internalType":"string","name":"discordLink","type":"string"},{"internalType":"string","name":"telegramLink","type":"string"},{"internalType":"string","name":"description","type":"string"}],"stateMutability":"view","type":"function"},{"inputs":[{"internalType":"string","name":"newName","type":"string"}],"name":"updateUserName","outputs":[],"stateMutability":"nonpayable","type":"function"},{"inputs":[{"internalType":"address","name":"","type":"address"},{"internalType":"uint256","name":"","type":"uint256"}],"name":"userJoinedCampaign","outputs":[{"internalType":"bool","name":"","type":"bool"}],"stateMutability":"view","type":"function"},{"inputs":[{"internalType":"address","name":"","type":"address"},{"internalType":"uint256","name":"","type":"uint256"}],"name":"userJoinedEvent","outputs":[{"internalType":"bool","name":"","type":"bool"}],"stateMutability":"view","type":"function"},{"inputs":[{"internalType":"address","name":"","type":"address"},{"internalType":"uint256","name":"","type":"uint256"}],"name":"userJoinedSpace","outputs":[{"internalType":"bool","name":"","type":"bool"}],"stateMutability":"view","type":"function"},{"inputs":[{"internalType":"address","name":"","type":"address"}],"name":"users","outputs":[{"internalType":"address","name":"userAddress","type":"address"},{"internalType":"string","name":"name","type":"string"},{"internalType":"uint256","name":"assets","type":"uint256"},{"internalType":"uint256","name":"points","type":"uint256"},{"internalType":"uint256","name":"level","type":"uint256"}],"stateMutability":"view","type":"function"},{"inputs":[{"internalType":"uint256","name":"amount","type":"uint256"}],"name":"withdraw","outputs":[],"stateMutability":"nonpayable","type":"function"},{"stateMutability":"payable","type":"receive"}],"evm":{"bytecode":{"linkReferences":{},"object":"6080806040523461001657613f9d908161001b8239f35b5f80fdfe6080806040526004361015610024575b50361561001a575f80fd5b610022613894565b005b5f3560e01c90816303986a31146134d157508063045af334146134a05780630b791430146133b9578063141961bc1461327957806316dc287a146132305780632e1a7d4d14613127578063319ae4b21461310a57806338d361e214612ea4578063467069eb146129f8578063488793c7146122395780635598f8cc14611f7b5780635710d6c014611f475780635e9df36c14611eb55780636d1884e014611c5c5780636f77926b14611af457806370e104311461183257806371be2e4a146118155780637274e30d146117f857806374bb1272146117c45780637586353b146116c45780637f3a4b3d14611667578063834e415c146116025780638b903d57146115a55780638be9e3c81461149c5780638c6ab23814611470578063a87430ba146113f0578063af9036a114611235578063b50e0182146111f4578063c9e4f14114610e57578063cf40759514610e0e578063d0e30db014610dfb578063d4a82a5814610be1578063dafaba4f14610775578063e2b08208146106fa5763ff76154f146101b1575f61000f565b346106f6576101803660031901126106f6576004356001600160401b0381116106f6576101e290369060040161373a565b6064356001600160401b0381116106f65761020190369060040161373a565b906084356001600160401b0381116106f65761022190369060040161373a565b90610144356001600160401b0381116106f65761024290369060040161373a565b9061016435151561016435036106f657610260426024351015613a3a565b61026f60243560443511613a85565b335f52600260205260a435600260405f200154106106a257335f526002602052600260405f20016102a360a4358254613a2d565b90556102b0600a54613adb565b9081600a55815f525f60205260405f2091825560018201336001600160601b0360a01b8254161790558051906001600160401b03821161052a578190610306826102fd6002870154613541565b60028701613b25565b602090601f8311600114610634575f92610629575b50508160011b915f199060031b1c19161760028201555b6024356003820155604435600482015583516001600160401b03811161052a5761036c816103636005850154613541565b60058501613b25565b6020601f82116001146105be5781929394955f926105b3575b50508160011b915f199060031b1c19161760058201555b82516001600160401b03811161052a576103c6816103bd6006850154613541565b60068501613b25565b6020601f821160011461054957819293945f9261053e575b50508160011b915f199060031b1c19161760068201555b60a435600782015560c435600882015560e435600982015561010435600a82015561012435600b820155600c810182516001600160401b03811161052a57610447816104418454613541565b84613b25565b6020601f82116001146104c857819293945f926104bd575b50508160011b915f199060031b1c19161790555b600d8101805461ff00191661016435151560081b61ff0016179055546040519081527f633109eec20320eded000fc1e2634211aa7e92ba3f5b15faf6dcdafca05094e460203392a2005b015190505f8061045f565b601f19821690835f5260205f20915f5b818110610512575095836001959697106104fa575b505050811b019055610473565b01515f1960f88460031b161c191690555f80806104ed565b9192602060018192868b0151815501940192016104d8565b634e487b7160e01b5f52604160045260245ffd5b015190505f806103de565b600683015f5260205f20905f5b601f198416811061059b5750600193949583601f19811610610583575b505050811b0160068201556103f5565b01515f1960f88460031b161c191690555f8080610573565b9091602060018192858a015181550193019101610556565b015190505f80610385565b600583015f5260205f20905f5b601f1984168110610611575060019394959683601f198116106105f9575b505050811b01600582015561039c565b01515f1960f88460031b161c191690555f80806105e9565b9091602060018192858b0151815501930191016105cb565b015190505f8061031b565b9250600284015f5260205f20905f935b601f1984168510610687576001945083601f1981161061066f575b505050811b016002820155610332565b01515f1960f88460031b161c191690555f808061065f565b81810151835560209485019460019093019290910190610644565b60405162461bcd60e51b815260206004820152602660248201527f496e73756666696369656e742061737365747320746f2063726561746520636160448201526536b830b4b3b760d11b6064820152608490fd5b5f80fd5b346106f6575f3660031901126106f657600a5461071681613ce7565b9060015b8181111561073c576040516020808252819061073890820186613847565b0390f35b5f19810190808211610761578061075661075c9386613b68565b52613adb565b61071a565b634e487b7160e01b5f52601160045260245ffd5b346106f6576101603660031901126106f6576001600160401b03602480358281116106f6576107a890369060040161373a565b906044358381116106f6576107c190369060040161373a565b906064358481116106f6576107da90369060040161373a565b92610124358581116106f6576107f490369060040161373a565b93610144359485151586036106f6576004355f526020915f835260405f209560019460018060a01b0386890154163303610b8d57805160028901918b8211610b7a57819061084c826108468654613541565b86613b25565b8790601f8311600114610b1b575f92610b10575b50505f19600383901b1c191690871b1790555b805160058801918a8211610afd578190610891826108468654613541565b8690601f8311600114610a9e575f92610a93575b50505f19600383901b1c191690861b1790555b80516006870191898211610a805781906108d6826108468654613541565b8590601f8311600114610a21575f92610a16575b50505f19600383901b1c191690851b1790555b608435600786015560a435600886015560c435600986015560e435600a86015561010435600b860155600c8501938151978811610a035750610943876108468654613541565b81601f881160011461099957509580600d9594938193610022995f9461098e575b50501b915f199060031b1c19161790555b019061ff00825491151560081b169061ff001916179055565b015192508980610964565b9190601f198816855f52835f20935f905b8282106109ec57505091600d9695949391896100229a94106109d4575b505050811b019055610975565b01515f1960f88460031b161c191690558780806109c7565b8087869782949787015181550196019401906109aa565b634e487b7160e01b5f9081526041600452fd5b015190508a806108ea565b90879350601f19831691855f52875f20925f5b89828210610a6a5750508411610a52575b505050811b0190556108fd565b01515f1960f88460031b161c191690558a8080610a45565b8385015186558b97909501949384019301610a34565b86634e487b7160e01b5f5260416004525ffd5b015190508b806108a5565b90889350601f19831691855f52885f20925f5b8a828210610ae75750508411610acf575b505050811b0190556108b8565b01515f1960f88460031b161c191690558b8080610ac2565b8385015186558c97909501949384019301610ab1565b87634e487b7160e01b5f5260416004525ffd5b015190508c80610860565b90899350601f19831691855f52895f20925f5b8b828210610b645750508411610b4c575b505050811b019055610873565b01515f1960f88460031b161c191690558c8080610b3f565b8385015186558d97909501949384019301610b2e565b88634e487b7160e01b5f5260416004525ffd5b60405162461bcd60e51b8152600481018690526027818901527f4f6e6c79207468652063726561746f722063616e20656469742074686973206360448201526630b6b830b4b3b760c91b6064820152608490fd5b346106f6576020806003193601126106f65760043590815f525f8152610c2260405f20610c1a6004600383015492015491421015613bd9565b421115613c25565b335f526002808252610c5460018060a01b038060405f20541615610ded575b335f5282845260405f2054161515613c6a565b335f526006825260405f20835f52825260ff60405f205416610da857825f525f825260405f20335f52818352600460405f200154600982015411610d6e57610cbc90335f52828452610cb28360405f200154600a83015411156139ea565b600e339101613cac565b335f52808252610cd283600660405f2001613ba5565b610cdb83613e3a565b80610d2a575b5050335f526006815260405f2090825f525260405f20600160ff1982541617905533907f0a8cb7ec996af5cd17d263f3dcdf80ca63fb4cef1b4312a18c70c8f533597f3b5f80a3005b5f526009825260405f20335f528252610d6560405f2091610d4b8354613adb565b8355845f525f8452600860405f2001549201918254613887565b90558280610ce1565b60405162461bcd60e51b815260048101849052601260248201527155736572206c6576656c20746f6f206c6f7760701b6044820152606490fd5b60405162461bcd60e51b815260048101839052601c60248201527f416c7265616479206a6f696e656420746869732063616d706169676e000000006044820152606490fd5b610df633613d19565b610c41565b5f3660031901126106f657610022613894565b346106f65760403660031901126106f6576001600160a01b03610e2f613515565b165f52600860205260405f206024355f52602052602060ff60405f2054166040519015158152f35b346106f6576101203660031901126106f65760246001600160401b0381358181116106f657610e8a90369060040161373a565b916044358281116106f657610ea390369060040161373a565b6064358381116106f657610ebb90369060040161373a565b93610104358481116106f657610ed5903690600401613797565b906004355f5260019560209387855260405f209260018060a01b03898501541633036111a65780516002850191898211610b7a578190610f19826108468654613541565b8890601f831160011461113e575f92611133575b50505f19600383901b1c1916908a1b1790555b80516005840191888211610afd578190610f5e826108468654613541565b8790601f83116001146110d4575f926110c9575b50505f19600383901b1c191690891b1790555b80516006830191878211610a8057610fa782610fa18554613541565b85613b25565b8590601f831160011461106557600b949392915f918361105a575b50505f19600383901b1c191690891b1790555b608435600782015560a435600882015560c435600982015560e435600a82015501928151948511610a0357600160401b8511610a0357508190835485855580861061103f575b5001915f52805f205f5b84811061102e57005b835182820155928201928501611025565b61105490855f5286845f209182019101613ae9565b8661101b565b015190508a80610fc2565b9392918991601f19821690845f52885f20915f5b8a8282106110b35750509683600b981061109b575b505050811b019055610fd5565b01515f1960f88460031b161c191690558a808061108e565b838a015185558e96909401939283019201611079565b015190508a80610f72565b908b9350601f19831691855f52895f20925f5b8b82821061111d5750508411611105575b505050811b019055610f85565b01515f1960f88460031b161c191690558a80806110f8565b8385015186558f979095019493840193016110e7565b015190508b80610f2d565b908c9350601f19831691855f528a5f20925f5b8c828210611187575050841161116f575b505050811b019055610f40565b01515f1960f88460031b161c191690558b8080611162565b91929395968291958786015181550195019301908e9594939291611151565b60405162461bcd60e51b8152600481018790526021818901527f4f6e6c792074686520686f73742063616e20656469742074686973206576656e6044820152601d60fa1b6064820152608490fd5b346106f65760203660031901126106f6576004355f526001602052610738611221600c60405f2001613ec6565b6040519182916020835260208301906137f5565b346106f6576020806003193601126106f6576001600160401b036004358181116106f65761126790369060040161373a565b335f908152600284526040902054611289906001600160a01b03161515613c6a565b8051156113ab57335f526002835260018060405f200190825193841161052a576112b7846104418454613541565b84601f8511600114611328579380806113189594937fd6136f3cad7c60bfc24bbf1548f39f766ca8bce104bf9adde3deb6237dec51df975f9361131d575b501b915f199060031b1c19161790555b60405191829185835233958301906136e1565b0390a2005b8601519250896112f5565b601f19851690835f52865f20915f5b888282106113975750509186917fd6136f3cad7c60bfc24bbf1548f39f766ca8bce104bf9adde3deb6237dec51df97611318979695941061137f575b5050811b019055611305565b8501515f1960f88460031b161c191690558780611373565b878401518555938501939283019201611337565b60405162461bcd60e51b815260048101849052601860248201527f4e6577206e616d652063616e6e6f7420626520656d70747900000000000000006044820152606490fd5b346106f65760203660031901126106f6576001600160a01b0380611412613515565b165f52600260205260405f209081541661142e60018301613640565b91600281015490600460038201549101549061145c604051958695865260a0602087015260a08601906136e1565b926040850152606084015260808301520390f35b346106f65760203660031901126106f6576004355f525f602052610738611221600e60405f2001613ec6565b346106f6576020806003193601126106f65760043590335f52600281526114d060018060a01b0360405f2054161515613c6a565b335f526008815260405f20825f52815260ff60405f20541661156157815f526003815261150333600860405f2001613cac565b335f526002815261151a82600560405f2001613ba5565b335f526008815260405f2090825f525260405f20600160ff1982541617905533907f54b395d5e852d463801b391aac280c017d177c680b3b860fe2b47266a86bcb5f5f80a3005b6064906040519062461bcd60e51b82526004820152601960248201527f416c7265616479206a6f696e65642074686973207370616365000000000000006044820152fd5b346106f6575f3660031901126106f657600c546115c181613ce7565b9060015b818111156115e3576040516020808252819061073890820186613847565b5f1981019080821161076157806107566115fd9386613b68565b6115c5565b346106f65760403660031901126106f65761161b61352b565b6004355f52600960205260405f209060018060a01b03165f5260205260405f20805461073860026001840154930154604051938493846040919493926060820195825260208201520152565b346106f6575f3660031901126106f657600b5461168381613ce7565b9060015b818111156116a5576040516020808252819061073890820186613847565b5f1981019080821161076157806107566116bf9386613b68565b611687565b346106f65760203660031901126106f6576004355f52600360205260405f206116ec81613640565b60018201546001600160a01b03169161170760028201613640565b90600381015460ff166004820161171d90613640565b61172960058401613640565b9161173660068501613640565b9360070161174390613640565b94604051978897610100808a52890161175b916136e1565b9060208901528781036040890152611772916136e1565b90606087016117809161387a565b8581036080870152611791916136e1565b84810360a08601526117a2916136e1565b83810360c08501526117b3916136e1565b82810360e0840152610738916136e1565b346106f6576117d236613831565b905f52600460205260405f20905f52602052602060ff60405f2054166040519015158152f35b346106f6575f3660031901126106f6576020600a54604051908152f35b346106f6575f3660031901126106f6576020600b54604051908152f35b346106f65760203660031901126106f6576060610140604051611854816135e8565b8281525f60208201528260408201525f838201528260808201528260a08201528260c08201528260e0820152826101008201528261012082015201526004355f52600360205260405f206040516118aa816135e8565b6118b382613640565b815260018201546001600160a01b031660208201526118d460028301613640565b604082015260ff600383015416600d811015611ae057611ab69261073891606084015261190360048201613640565b608084015261191460058201613640565b60a084015261192560068201613640565b60c084015261193660078201613640565b60e084015261194760088201613ec6565b61010084015261195960098201613f1b565b61012084015261196b600a8201613f1b565b610140840152611ad261198060088301613ec6565b91611ac461199c600a61199560098501613f1b565b9301613f1b565b9360405197889760808952610140611aa1611a89611a71611a588d611a41611a2a611a016119d88a5161016060808701526101e08601906136e1565b60208b01516001600160a01b031660a086015260408b0151858203607f190160c08701526136e1565b611a1360608b015160e086019061387a565b60808a0151848203607f19016101008601526136e1565b60a0890151838203607f19016101208501526136e1565b9060c08801519087607f19828503019101526136e1565b8d60e087015190610160607f19828503019101526136e1565b6101008501518d8203607f19016101808f01526137f5565b6101208401518c8203607f19016101a08e0152613847565b910151898203607f19016101c08b0152613847565b9087820360208901526137f5565b908582036040870152613847565b908382036060850152613847565b634e487b7160e01b5f52602160045260245ffd5b346106f6576020806003193601126106f657611b0e613515565b61073860e0604051611b1f816135cc565b5f8152606091818387819401525f60408201525f838201525f60808201528260a08201528260c0820152015260018060a01b038093165f526002845260405f2090604051611b6c816135cc565b848354168152611c4c611b8160018501613640565b93878301948552611c3b60028201549460408501958652600383015481860190815260048401549060808701918252611bbc60058601613f1b565b9260a08801938452611c14611be66007611bd860068a01613f1b565b9860c08c01998a5201613f1b565b9a60e08a019b8c526040519e8f9e8f9b828d525116908b0152516101206101009a8b604082015201906136e1565b9851908c01525160808b01525160a08a01525194601f1995868a83030160c08b0152613847565b9051848883030160e0890152613847565b9251918584030190850152613847565b346106f65760203660031901126106f6576060610180604051611c7e816135b0565b5f81525f60208201528260408201525f838201525f60808201528260a08201528260c08201525f60e08201525f6101008201525f6101208201525f6101408201528261016082015201526004355f526001602052611e9960405f2061073860405191611ce9836135b0565b8054835260018101546001600160a01b03166020840152611d0c60028201613640565b60408401526003810154606084015260048101546080840152611d3160058201613640565b60a0840152611d4260068201613640565b60c0840152600781015460e084015260088101546101008401526009810154610120840152600a810154610140840152611d7e600b8201613f1b565b610160840152611d90600c8201613ec6565b610180840152611ea7611db1600c611daa600b8501613f1b565b9301613ec6565b91604051958695606087528051606088015260018060a01b036020820151166080880152610180611e84611e3f611e28611dfd8b6101a060a060408901519201526102008d01906136e1565b606086015160c08d0152608086015160e08d015260a08601518c8203605f19016101008e01526136e1565b60c08501518b8203605f19016101208d01526136e1565b60e08401516101408b01526101008401516101608b0152610120840151838b01526101408401516101a08b0152610160840151605f198b8303016101c08c0152613847565b910151878203605f19016101e08901526137f5565b908582036020870152613847565b9083820360408501526137f5565b346106f65760403660031901126106f657611ece61352b565b5f60408051611edc81613595565b82815282602082015201526004355f52600960205260405f209060018060a01b03165f52602052606060405f20604051611f1581613595565b815491828252604060026001830154926020850193845201549201918252604051928352516020830152516040820152f35b346106f657611f5536613831565b905f52600560205260405f20905f52602052602060ff60405f2054166040519015158152f35b346106f65760203660031901126106f6575f610200604051611f9c81613579565b82815282602082015260606040820152826060820152826080820152606060a0820152606060c08201528260e0820152826101008201528261012082015282610140820152826101608201526060610180820152826101a0820152826101c082015260606101e082015201526004355f525f60205260405f2061210d600e6040519261202784613579565b8054845260018101546001600160a01b0316602085015261204a60028201613640565b6040850152600381015460608501526004810154608085015261206f60058201613640565b60a085015261208060068201613640565b60c0850152600781015460e085015260088101546101008501526009810154610120850152600a810154610140850152600b8101546101608501526120c7600c8201613640565b61018085015260ff600d82015481811615156101a087015260081c1615156101c08501526120f6828201613ec6565b6101e0850152600f81015461020085015201613ec6565b610738604051928392604084528151604085015260018060a01b0360208301511660608501526102006122236121f161219e61218761215d604088015161022060808c01526102608b01906136e1565b606088015160a08b0152608088015160c08b015260a0880151603f198b83030160e08c01526136e1565b60c0870151898203603f19016101008b01526136e1565b60e08601516101208901526101008601516101408901526101208601516101608901526101408601516101808901526101608601516101a0890152610180860151603f19898303016101c08a01526136e1565b6101a085015115156101e08801526101c08501511515838801526101e0850151603f19888303016102208901526137f5565b92015161024085015283820360208501526137f5565b346106f6576101203660031901126106f6576004356001600160401b0381116106f65761226a90369060040161373a565b6024356001600160401b0381116106f65761228990369060040161373a565b90600d60443510156106f6576064356001600160401b0381116106f6576122b490369060040161373a565b916084356001600160401b0381116106f6576122d490369060040161373a565b9260a4356001600160401b0381116106f6576122f490369060040161373a565b60c4356001600160401b0381116106f65761231390369060040161373a565b9460e4356001600160401b0381116106f657612333903690600401613797565b92610104356001600160401b0381116106f657612354903690600401613797565b94612360600c54613adb565b80600c555f52600360205260405f20968051906001600160401b03821161052a578190612397826123918c54613541565b8c613b25565b602090601f8311600114612990575f92612985575b50508160011b915f199060031b1c19161787555b6001870180546001600160a01b031916331790558051906001600160401b03821161052a578190612401826123f860028c0154613541565b60028c01613b25565b602090601f8311600114612917575f9261290c575b50508160011b915f199060031b1c19161760028701555b60ff1960038701541660ff604435161760038701558051906001600160401b03821161052a57819061246f8261246660048b0154613541565b60048b01613b25565b602090601f831160011461289e575f92612893575b50508160011b915f199060031b1c19161760048601555b8051906001600160401b03821161052a5781906124c8826124bf60058a0154613541565b60058a01613b25565b602090601f8311600114612825575f9261281a575b50508160011b915f199060031b1c19161760058501555b8051906001600160401b03821161052a578190612521826125186006890154613541565b60068901613b25565b602090601f83116001146127ac575f926127a1575b50508160011b915f199060031b1c19161760068401555b83516001600160401b03811161052a576125778161256e6007870154613541565b60078701613b25565b6020601f82116001146127335781929394955f92612728575b50508160011b915f199060031b1c19161760078401559190915b60098201925f5b8251811015612675576125c48184613b68565b515f525f6020523360018060a01b03600160405f200154160361263057806125f96125f261262b9386613b68565b5187613ba5565b600c545f52600460205260405f206126118286613b68565b515f5260205260405f20600160ff19825416179055613adb565b6125b1565b60405162461bcd60e51b815260206004820152601c60248201527f43616e20616464206f6e6c79206f776e65642063616d706169676e73000000006044820152606490fd5b50600a8301905f5b8151811015610022576126908183613b68565b515f5260016020523360018060a01b03600160405f20015416036126e357806126c66126bf6126de9385613b68565b5185613ba5565b600c545f52600560205260405f206126118285613b68565b61267d565b60405162461bcd60e51b815260206004820152601960248201527f43616e20616464206f6e6c79206f776e6564206576656e7473000000000000006044820152606490fd5b015190508580612590565b600785015f5260205f20905f5b601f1984168110612789575060019394959683601f19811610612771575b505050811b0160078401559190916125aa565b01515f1960f88460031b161c1916905585808061275e565b9091602060018192858b015181550193019101612740565b015190508680612536565b9250600686015f5260205f20905f935b601f19841685106127ff576001945083601f198116106127e7575b505050811b01600684015561254d565b01515f1960f88460031b161c191690558680806127d7565b818101518355602094850194600190930192909101906127bc565b0151905087806124dd565b9250600587015f5260205f20905f935b601f1984168510612878576001945083601f19811610612860575b505050811b0160058501556124f4565b01515f1960f88460031b161c19169055878080612850565b81810151835560209485019460019093019290910190612835565b015190508880612484565b9250600488015f5260205f20905f935b601f19841685106128f1576001945083601f198116106128d9575b505050811b01600486015561249b565b01515f1960f88460031b161c191690558880806128c9565b818101518355602094850194600190930192909101906128ae565b015190508980612416565b9250600289015f5260205f20905f935b601f198416851061296a576001945083601f19811610612952575b505050811b01600287015561242d565b01515f1960f88460031b161c19169055898080612942565b81810151835560209485019460019093019290910190612927565b015190508a806123ac565b9250895f5260205f20905f935b601f19841685106129dd576001945083601f198116106129c5575b505050811b0187556123c0565b01515f1960f88460031b161c191690558a80806129b8565b8181015183556020948501946001909301929091019061299d565b346106f6576101403660031901126106f6576004356001600160401b0381116106f657612a2990369060040161373a565b6064356001600160401b0381116106f657612a4890369060040161373a565b906084356001600160401b0381116106f657612a6890369060040161373a565b90610124356001600160401b0381116106f657612a89903690600401613797565b612a97426024351015613a3a565b612aa660243560443511613a85565b335f52600260205260a435600260405f20015410612e5357335f526002602052600260405f2001612ada60a4358254613a2d565b9055612ae7600b54613adb565b9182600b55825f52600160205260405f2092835560018301336001600160601b0360a01b8254161790558051906001600160401b03821161052a578190612b3e82612b356002880154613541565b60028801613b25565b602090601f8311600114612de5575f92612dda575b50508160011b915f199060031b1c19161760028301555b6024356003830155604435600483015583516001600160401b03811161052a57612ba481612b9b6005860154613541565b60058601613b25565b6020601f8211600114612d6f5781929394955f92612d64575b50508160011b915f199060031b1c19161760058301555b82516001600160401b03811161052a57612bfe81612bf56006860154613541565b60068601613b25565b6020601f8211600114612cfa57819293945f92612cef575b50508160011b915f199060031b1c19161760068301555b60a435600783015560c435600883015560e435600983015561010435600a830155600b82018151916001600160401b03831161052a57600160401b831161052a576020908254848455808510612cd4575b5001905f5260205f205f5b838110612cc05784546040519081527fe43349c008949cf6b65249356e6f918d4aaa0ca79f2b1166df4a4a98c9c16de260203392a2005b600190602084519401938184015501612c89565b612ce990845f5285845f209182019101613ae9565b85612c7e565b015190508480612c16565b600684015f5260205f20905f5b601f1984168110612d4c5750600193949583601f19811610612d34575b505050811b016006830155612c2d565b01515f1960f88460031b161c19169055848080612d24565b9091602060018192858a015181550193019101612d07565b015190508580612bbd565b600584015f5260205f20905f5b601f1984168110612dc2575060019394959683601f19811610612daa575b505050811b016005830155612bd4565b01515f1960f88460031b161c19169055858080612d9a565b9091602060018192858b015181550193019101612d7c565b015190508680612b53565b9250600285015f5260205f20905f935b601f1984168510612e38576001945083601f19811610612e20575b505050811b016002830155612b6a565b01515f1960f88460031b161c19169055868080612e10565b81810151835560209485019460019093019290910190612df5565b60405162461bcd60e51b815260206004820152602360248201527f496e73756666696369656e742061737365747320746f20637265617465206576604482015262195b9d60ea1b6064820152608490fd5b346106f6576020806003193601126106f65760043590815f526001815260405f20612ee0600391610c1a60048483015492015491421015613bd9565b335f526002825260018060a01b03612eff8160405f2054161515613c6a565b335f526007835260405f20845f52835260ff908160405f2054166130c557335f526002845260405f205416156130b7575b835f526001835260405f20915f915f91600b85018054935b84811061306857505050505060098201541161302357612f6c90600c339101613cac565b335f5260028152612f8382600760405f2001613ba5565b612f8c82613e83565b80612fda575b50335f526007815260405f2090825f525260405f20600160ff1982541617905533907ff11149736e591e4b965f3e9e625eaf62f393d637814b49899d9e8e0374cd0f9e5f80a3005b5f526009815260405f20335f52815260405f2060018101612ffb8154613adb565b9055825f526001825261301b6002600860405f2001549201918254613887565b905582612f92565b60405162461bcd60e51b815260048101839052601e60248201527f4e6f7420656e6f7567682063616d706169676e7320636f6d706c6574656400006044820152606490fd5b6130728183613b90565b905490841b1c335f526006895260405f20905f5288528360405f2054166130a2575b61309d90613adb565b612f48565b946130af61309d91613adb565b959050613094565b6130c033613d19565b612f30565b60405162461bcd60e51b815260048101859052601960248201527f416c7265616479206a6f696e65642074686973206576656e74000000000000006044820152606490fd5b346106f6575f3660031901126106f6576020600c54604051908152f35b346106f6576020806003193601126106f65760043580156131ed575f808080933382526002865261316181600260408520015410156139ea565b338252600286526002604083200161317a828254613a2d565b9055335af13d156131e8573d61318f8161371f565b9061319d604051928361361f565b81525f833d92013e5b156131ad57005b6064906040519062461bcd60e51b8252600482015260146024820152732330b4b632b2103a379039b2b7321022ba3432b960611b6044820152fd5b6131a6565b6064826040519062461bcd60e51b825280600483015260248201527f416d6f756e74206d7573742062652067726561746572207468616e207a65726f6044820152fd5b346106f65760403660031901126106f6576001600160a01b03613251613515565b165f52600760205260405f206024355f52602052602060ff60405f2054166040519015158152f35b346106f65760203660031901126106f6576004355f525f60205260405f20805490600160a01b6001900360018201541690600281016132b790613640565b92600382015490600483015490600584016132d190613640565b906132de60068601613640565b916007860154926008870154600988015491600a89015493600b8a015495600c8b0161330990613640565b98600d8c01549b600f01549a6040519e8f9e8f94855260208501526102008060408601528401613338916136e1565b926060015260808d01528b810360a08d0152613353916136e1565b8a810360c08c0152613364916136e1565b9460e08a0152610100890152610120880152610140870152610160860152848103610180860152613394916136e1565b9160ff811615156101a085015260081c60ff1615156101c08401526101e08301520390f35b346106f65760203660031901126106f6576004355f9081526001602081815260409092208054918101546001600160a01b03166133f860028301613640565b9160038101549261348460048301549461347661341760058601613640565b9161342460068701613640565b9260078701549861345e600889015497600a60098b01549a01549a6040519e8f9e8f908152015260408d61016091829101528d01906136e1565b9260608c015260808b015289820360a08b01526136e1565b9087820360c08901526136e1565b9360e08601526101008501526101208401526101408301520390f35b346106f6575f3660031901126106f657600a54600b54600c5460408051938452602084019290925290820152606090f35b346106f65760403660031901126106f6576020906001600160a01b036134f5613515565b165f526006825260405f206024355f52825260ff60405f20541615158152f35b600435906001600160a01b03821682036106f657565b602435906001600160a01b03821682036106f657565b90600182811c9216801561356f575b602083101461355b57565b634e487b7160e01b5f52602260045260245ffd5b91607f1691613550565b61022081019081106001600160401b0382111761052a57604052565b606081019081106001600160401b0382111761052a57604052565b6101a081019081106001600160401b0382111761052a57604052565b61010081019081106001600160401b0382111761052a57604052565b61016081019081106001600160401b0382111761052a57604052565b602081019081106001600160401b0382111761052a57604052565b90601f801991011681019081106001600160401b0382111761052a57604052565b9060405191825f82549261365384613541565b9081845260019485811690815f146136be575060011461367e575b505061367c9250038361361f565b565b909391505f52602090815f20935f915b8183106136a657505061367c93508201015f8061366e565b8554888401850152948501948794509183019161368e565b91505061367c94506020925060ff191682840152151560051b8201015f8061366e565b91908251928382525f5b84811061370b575050825f602080949584010152601f8019910116010190565b6020818301810151848301820152016136eb565b6001600160401b03811161052a57601f01601f191660200190565b81601f820112156106f6578035906137518261371f565b9261375f604051948561361f565b828452602083830101116106f657815f926020809301838601378301015290565b6001600160401b03811161052a5760051b60200190565b81601f820112156106f6578035916137ae83613780565b926137bc604051948561361f565b808452602092838086019260051b8201019283116106f6578301905b8282106137e6575050505090565b813581529083019083016137d8565b9081518082526020808093019301915f5b828110613814575050505090565b83516001600160a01b031685529381019392810192600101613806565b60409060031901126106f6576004359060243590565b9081518082526020808093019301915f5b828110613866575050505090565b835185529381019392810192600101613858565b90600d821015611ae05752565b9190820180921161076157565b335f90815260026020908152604080832080549093906001600160a01b03166139d5577f48cac28ad4dc618e15f4c2dd5e97751182f166de97b25618318b2112aa951a2f929350338152600284526007828220336001600160601b0360a01b8254161781555f6001820161391161390b8254613541565b82613aff565b553460028201558260038201556001600482015582845161393181613604565b52600581018054848255806139bd575b50835282845161395081613604565b52600681018054848255806139a5575b50835282845161396f81613604565b520180548282558061398d575b5081528151938085528401523392a2565b81835285832061399f91810190613ae9565b5f61397c565b8185528785206139b791810190613ae9565b5f613960565b8185528785206139cf91810190613ae9565b5f613941565b5050506002016139e6348254613887565b9055565b156139f157565b60405162461bcd60e51b8152602060048201526014602482015273496e73756666696369656e742062616c616e636560601b6044820152606490fd5b9190820391821161076157565b15613a4157565b606460405162461bcd60e51b815260206004820152602060248201527f53746172742074696d65206d75737420626520696e20746865206675747572656044820152fd5b15613a8c57565b60405162461bcd60e51b815260206004820152602160248201527f456e642074696d65206d7573742062652061667465722073746172742074696d6044820152606560f81b6064820152608490fd5b5f1981146107615760010190565b818110613af4575050565b5f8155600101613ae9565b90601f8111613b0c575050565b61367c915f52601f60205f20910160051c810190613ae9565b9190601f8111613b3457505050565b61367c925f5260205f20906020601f840160051c83019310613b5e575b601f0160051c0190613ae9565b9091508190613b51565b8051821015613b7c5760209160051b010190565b634e487b7160e01b5f52603260045260245ffd5b8054821015613b7c575f5260205f2001905f90565b8054600160401b81101561052a57613bc291600182018155613b90565b819291549060031b91821b915f19901b1916179055565b15613be057565b60405162461bcd60e51b815260206004820152601860248201527f5468697320686173206e6f7420737461727465642079657400000000000000006044820152606490fd5b15613c2c57565b60405162461bcd60e51b8152602060048201526016602482015275151a1a5cc81a185cc8185b1c9958591e48195b99195960521b6044820152606490fd5b15613c7157565b60405162461bcd60e51b8152602060048201526013602482015272155cd95c88191bd95cc81b9bdd08195e1a5cdd606a1b6044820152606490fd5b8054600160401b81101561052a57613cc991600182018155613b90565b819291549060031b9160018060a01b03809116831b921b1916179055565b90613cf182613780565b613cfe604051918261361f565b8281528092613d0f601f1991613780565b0190602036910137565b60018060a01b03167f48cac28ad4dc618e15f4c2dd5e97751182f166de97b25618318b2112aa951a2f5f8281526020600281526040916007838220866001600160601b0360a01b8254161781555f60018201613d7861390b8254613541565b5582600282015582600382015560016004820155828551613d9881613604565b5260058101805484825580613e22575b508352828551613db781613604565b5260068101805484825580613e0a575b508352828551613dd681613604565b5201805482825580613df2575b508152825191808352820152a2565b818352838320613e0491810190613ae9565b5f613de3565b818552858520613e1c91810190613ae9565b5f613dc7565b818552858520613e3491810190613ae9565b5f613da8565b600c549060015b82811115613e50575050505f90565b60ff5f828152602090600482526040918282209086835252205416613e7d57613e7890613adb565b613e41565b91505090565b600c549060015b82811115613e99575050505f90565b60ff5f828152602090600582526040918282209086835252205416613e7d57613ec190613adb565b613e8a565b906040519182815491828252602092838301915f52835f20935f905b828210613ef85750505061367c9250038361361f565b85546001600160a01b031684526001958601958895509381019390910190613ee2565b906040519182815491828252602092838301915f52835f20935f905b828210613f4d5750505061367c9250038361361f565b855484526001958601958895509381019390910190613f3756fea2646970667358221220d5ac690125b78ddbbbcf6fafbfd74b63a68db9c347e3d15f275d023f9b043fc164736f6c63430008140033","opcodes":"PUSH1 0x80 DUP1 PUSH1 0x40 MSTORE CALLVALUE PUSH2 0x16 JUMPI PUSH2 0x3F9D SWAP1 DUP2 PUSH2 0x1B DUP3 CODECOPY RETURN JUMPDEST PUSH0 DUP1 REVERT INVALID PUSH1 0x80 DUP1 PUSH1 0x40 MSTORE PUSH1 0x4 CALLDATASIZE LT ISZERO PUSH2 0x24 JUMPI JUMPDEST POP CALLDATASIZE ISZERO PUSH2 0x1A JUMPI PUSH0 DUP1 REVERT JUMPDEST PUSH2 0x22 PUSH2 0x3894 JUMP JUMPDEST STOP JUMPDEST PUSH0 CALLDATALOAD PUSH1 0xE0 SHR SWAP1 DUP2 PUSH4 0x3986A31 EQ PUSH2 0x34D1 JUMPI POP DUP1 PUSH4 0x45AF334 EQ PUSH2 0x34A0 JUMPI DUP1 PUSH4 0xB791430 EQ PUSH2 0x33B9 JUMPI DUP1 PUSH4 0x141961BC EQ PUSH2 0x3279 JUMPI DUP1 PUSH4 0x16DC287A EQ PUSH2 0x3230 JUMPI DUP1 PUSH4 0x2E1A7D4D EQ PUSH2 0x3127 JUMPI DUP1 PUSH4 0x319AE4B2 EQ PUSH2 0x310A JUMPI DUP1 PUSH4 0x38D361E2 EQ PUSH2 0x2EA4 JUMPI DUP1 PUSH4 0x467069EB EQ PUSH2 0x29F8 JUMPI DUP1 PUSH4 0x488793C7 EQ PUSH2 0x2239 JUMPI DUP1 PUSH4 0x5598F8CC EQ PUSH2 0x1F7B JUMPI DUP1 PUSH4 0x5710D6C0 EQ PUSH2 0x1F47 JUMPI DUP1 PUSH4 0x5E9DF36C EQ PUSH2 0x1EB5 JUMPI DUP1 PUSH4 0x6D1884E0 EQ PUSH2 0x1C5C JUMPI DUP1 PUSH4 0x6F77926B EQ PUSH2 0x1AF4 JUMPI DUP1 PUSH4 0x70E10431 EQ PUSH2 0x1832 JUMPI DUP1 PUSH4 0x71BE2E4A EQ PUSH2 0x1815 JUMPI DUP1 PUSH4 0x7274E30D EQ PUSH2 0x17F8 JUMPI DUP1 PUSH4 0x74BB1272 EQ PUSH2 0x17C4 JUMPI DUP1 PUSH4 0x7586353B EQ PUSH2 0x16C4 JUMPI DUP1 PUSH4 0x7F3A4B3D EQ PUSH2 0x1667 JUMPI DUP1 PUSH4 0x834E415C EQ PUSH2 0x1602 JUMPI DUP1 PUSH4 0x8B903D57 EQ PUSH2 0x15A5 JUMPI DUP1 PUSH4 0x8BE9E3C8 EQ PUSH2 0x149C JUMPI DUP1 PUSH4 0x8C6AB238 EQ PUSH2 0x1470 JUMPI DUP1 PUSH4 0xA87430BA EQ PUSH2 0x13F0 JUMPI DUP1 PUSH4 0xAF9036A1 EQ PUSH2 0x1235 JUMPI DUP1 PUSH4 0xB50E0182 EQ PUSH2 0x11F4 JUMPI DUP1 PUSH4 0xC9E4F141 EQ PUSH2 0xE57 JUMPI DUP1 PUSH4 0xCF407595 EQ PUSH2 0xE0E JUMPI DUP1 PUSH4 0xD0E30DB0 EQ PUSH2 0xDFB JUMPI DUP1 PUSH4 0xD4A82A58 EQ PUSH2 0xBE1 JUMPI DUP1 PUSH4 0xDAFABA4F EQ PUSH2 0x775 JUMPI DUP1 PUSH4 0xE2B08208 EQ PUSH2 0x6FA JUMPI PUSH4 0xFF76154F EQ PUSH2 0x1B1 JUMPI PUSH0 PUSH2 0xF JUMP JUMPDEST CALLVALUE PUSH2 0x6F6 JUMPI PUSH2 0x180 CALLDATASIZE PUSH1 0x3 NOT ADD SLT PUSH2 0x6F6 JUMPI PUSH1 0x4 CALLDATALOAD PUSH1 0x1 PUSH1 0x1 PUSH1 0x40 SHL SUB DUP2 GT PUSH2 0x6F6 JUMPI PUSH2 0x1E2 SWAP1 CALLDATASIZE SWAP1 PUSH1 0x4 ADD PUSH2 0x373A JUMP JUMPDEST PUSH1 0x64 CALLDATALOAD PUSH1 0x1 PUSH1 0x1 PUSH1 0x40 SHL SUB DUP2 GT PUSH2 0x6F6 JUMPI PUSH2 0x201 SWAP1 CALLDATASIZE SWAP1 PUSH1 0x4 ADD PUSH2 0x373A JUMP JUMPDEST SWAP1 PUSH1 0x84 CALLDATALOAD PUSH1 0x1 PUSH1 0x1 PUSH1 0x40 SHL SUB DUP2 GT PUSH2 0x6F6 JUMPI PUSH2 0x221 SWAP1 CALLDATASIZE SWAP1 PUSH1 0x4 ADD PUSH2 0x373A JUMP JUMPDEST SWAP1 PUSH2 0x144 CALLDATALOAD PUSH1 0x1 PUSH1 0x1 PUSH1 0x40 SHL SUB DUP2 GT PUSH2 0x6F6 JUMPI PUSH2 0x242 SWAP1 CALLDATASIZE SWAP1 PUSH1 0x4 ADD PUSH2 0x373A JUMP JUMPDEST SWAP1 PUSH2 0x164 CALLDATALOAD ISZERO ISZERO PUSH2 0x164 CALLDATALOAD SUB PUSH2 0x6F6 JUMPI PUSH2 0x260 TIMESTAMP PUSH1 0x24 CALLDATALOAD LT ISZERO PUSH2 0x3A3A JUMP JUMPDEST PUSH2 0x26F PUSH1 0x24 CALLDATALOAD PUSH1 0x44 CALLDATALOAD GT PUSH2 0x3A85 JUMP JUMPDEST CALLER PUSH0 MSTORE PUSH1 0x2 PUSH1 0x20 MSTORE PUSH1 0xA4 CALLDATALOAD PUSH1 0x2 PUSH1 0x40 PUSH0 KECCAK256 ADD SLOAD LT PUSH2 0x6A2 JUMPI CALLER PUSH0 MSTORE PUSH1 0x2 PUSH1 0x20 MSTORE PUSH1 0x2 PUSH1 0x40 PUSH0 KECCAK256 ADD PUSH2 0x2A3 PUSH1 0xA4 CALLDATALOAD DUP3 SLOAD PUSH2 0x3A2D JUMP JUMPDEST SWAP1 SSTORE PUSH2 0x2B0 PUSH1 0xA SLOAD PUSH2 0x3ADB JUMP JUMPDEST SWAP1 DUP2 PUSH1 0xA SSTORE DUP2 PUSH0 MSTORE PUSH0 PUSH1 0x20 MSTORE PUSH1 0x40 PUSH0 KECCAK256 SWAP2 DUP3 SSTORE PUSH1 0x1 DUP3 ADD CALLER PUSH1 0x1 PUSH1 0x1 PUSH1 0x60 SHL SUB PUSH1 0xA0 SHL DUP3 SLOAD AND OR SWAP1 SSTORE DUP1 MLOAD SWAP1 PUSH1 0x1 PUSH1 0x1 PUSH1 0x40 SHL SUB DUP3 GT PUSH2 0x52A JUMPI DUP2 SWAP1 PUSH2 0x306 DUP3 PUSH2 0x2FD PUSH1 0x2 DUP8 ADD SLOAD PUSH2 0x3541 JUMP JUMPDEST PUSH1 0x2 DUP8 ADD PUSH2 0x3B25 JUMP JUMPDEST PUSH1 0x20 SWAP1 PUSH1 0x1F DUP4 GT PUSH1 0x1 EQ PUSH2 0x634 JUMPI PUSH0 SWAP3 PUSH2 0x629 JUMPI JUMPDEST POP POP DUP2 PUSH1 0x1 SHL SWAP2 PUSH0 NOT SWAP1 PUSH1 0x3 SHL SHR NOT AND OR PUSH1 0x2 DUP3 ADD SSTORE JUMPDEST PUSH1 0x24 CALLDATALOAD PUSH1 0x3 DUP3 ADD SSTORE PUSH1 0x44 CALLDATALOAD PUSH1 0x4 DUP3 ADD SSTORE DUP4 MLOAD PUSH1 0x1 PUSH1 0x1 PUSH1 0x40 SHL SUB DUP2 GT PUSH2 0x52A JUMPI PUSH2 0x36C DUP2 PUSH2 0x363 PUSH1 0x5 DUP6 ADD SLOAD PUSH2 0x3541 JUMP JUMPDEST PUSH1 0x5 DUP6 ADD PUSH2 0x3B25 JUMP JUMPDEST PUSH1 0x20 PUSH1 0x1F DUP3 GT PUSH1 0x1 EQ PUSH2 0x5BE JUMPI DUP2 SWAP3 SWAP4 SWAP5 SWAP6 PUSH0 SWAP3 PUSH2 0x5B3 JUMPI JUMPDEST POP POP DUP2 PUSH1 0x1 SHL SWAP2 PUSH0 NOT SWAP1 PUSH1 0x3 SHL SHR NOT AND OR PUSH1 0x5 DUP3 ADD SSTORE JUMPDEST DUP3 MLOAD PUSH1 0x1 PUSH1 0x1 PUSH1 0x40 SHL SUB DUP2 GT PUSH2 0x52A JUMPI PUSH2 0x3C6 DUP2 PUSH2 0x3BD PUSH1 0x6 DUP6 ADD SLOAD PUSH2 0x3541 JUMP JUMPDEST PUSH1 0x6 DUP6 ADD PUSH2 0x3B25 JUMP JUMPDEST PUSH1 0x20 PUSH1 0x1F DUP3 GT PUSH1 0x1 EQ PUSH2 0x549 JUMPI DUP2 SWAP3 SWAP4 SWAP5 PUSH0 SWAP3 PUSH2 0x53E JUMPI JUMPDEST POP POP DUP2 PUSH1 0x1 SHL SWAP2 PUSH0 NOT SWAP1 PUSH1 0x3 SHL SHR NOT AND OR PUSH1 0x6 DUP3 ADD SSTORE JUMPDEST PUSH1 0xA4 CALLDATALOAD PUSH1 0x7 DUP3 ADD SSTORE PUSH1 0xC4 CALLDATALOAD PUSH1 0x8 DUP3 ADD SSTORE PUSH1 0xE4 CALLDATALOAD PUSH1 0x9 DUP3 ADD SSTORE PUSH2 0x104 CALLDATALOAD PUSH1 0xA DUP3 ADD SSTORE PUSH2 0x124 CALLDATALOAD PUSH1 0xB DUP3 ADD SSTORE PUSH1 0xC DUP2 ADD DUP3 MLOAD PUSH1 0x1 PUSH1 0x1 PUSH1 0x40 SHL SUB DUP2 GT PUSH2 0x52A JUMPI PUSH2 0x447 DUP2 PUSH2 0x441 DUP5 SLOAD PUSH2 0x3541 JUMP JUMPDEST DUP5 PUSH2 0x3B25 JUMP JUMPDEST PUSH1 0x20 PUSH1 0x1F DUP3 GT PUSH1 0x1 EQ PUSH2 0x4C8 JUMPI DUP2 SWAP3 SWAP4 SWAP5 PUSH0 SWAP3 PUSH2 0x4BD JUMPI JUMPDEST POP POP DUP2 PUSH1 0x1 SHL SWAP2 PUSH0 NOT SWAP1 PUSH1 0x3 SHL SHR NOT AND OR SWAP1 SSTORE JUMPDEST PUSH1 0xD DUP2 ADD DUP1 SLOAD PUSH2 0xFF00 NOT AND PUSH2 0x164 CALLDATALOAD ISZERO ISZERO PUSH1 0x8 SHL PUSH2 0xFF00 AND OR SWAP1 SSTORE SLOAD PUSH1 0x40 MLOAD SWAP1 DUP2 MSTORE PUSH32 0x633109EEC20320EDED000FC1E2634211AA7E92BA3F5B15FAF6DCDAFCA05094E4 PUSH1 0x20 CALLER SWAP3 LOG2 STOP JUMPDEST ADD MLOAD SWAP1 POP PUSH0 DUP1 PUSH2 0x45F JUMP JUMPDEST PUSH1 0x1F NOT DUP3 AND SWAP1 DUP4 PUSH0 MSTORE PUSH1 0x20 PUSH0 KECCAK256 SWAP2 PUSH0 JUMPDEST DUP2 DUP2 LT PUSH2 0x512 JUMPI POP SWAP6 DUP4 PUSH1 0x1 SWAP6 SWAP7 SWAP8 LT PUSH2 0x4FA JUMPI JUMPDEST POP POP POP DUP2 SHL ADD SWAP1 SSTORE PUSH2 0x473 JUMP JUMPDEST ADD MLOAD PUSH0 NOT PUSH1 0xF8 DUP5 PUSH1 0x3 SHL AND SHR NOT AND SWAP1 SSTORE PUSH0 DUP1 DUP1 PUSH2 0x4ED JUMP JUMPDEST SWAP2 SWAP3 PUSH1 0x20 PUSH1 0x1 DUP2 SWAP3 DUP7 DUP12 ADD MLOAD DUP2 SSTORE ADD SWAP5 ADD SWAP3 ADD PUSH2 0x4D8 JUMP JUMPDEST PUSH4 0x4E487B71 PUSH1 0xE0 SHL PUSH0 MSTORE PUSH1 0x41 PUSH1 0x4 MSTORE PUSH1 0x24 PUSH0 REVERT JUMPDEST ADD MLOAD SWAP1 POP PUSH0 DUP1 PUSH2 0x3DE JUMP JUMPDEST PUSH1 0x6 DUP4 ADD PUSH0 MSTORE PUSH1 0x20 PUSH0 KECCAK256 SWAP1 PUSH0 JUMPDEST PUSH1 0x1F NOT DUP5 AND DUP2 LT PUSH2 0x59B JUMPI POP PUSH1 0x1 SWAP4 SWAP5 SWAP6 DUP4 PUSH1 0x1F NOT DUP2 AND LT PUSH2 0x583 JUMPI JUMPDEST POP POP POP DUP2 SHL ADD PUSH1 0x6 DUP3 ADD SSTORE PUSH2 0x3F5 JUMP JUMPDEST ADD MLOAD PUSH0 NOT PUSH1 0xF8 DUP5 PUSH1 0x3 SHL AND SHR NOT AND SWAP1 SSTORE PUSH0 DUP1 DUP1 PUSH2 0x573 JUMP JUMPDEST SWAP1 SWAP2 PUSH1 0x20 PUSH1 0x1 DUP2 SWAP3 DUP6 DUP11 ADD MLOAD DUP2 SSTORE ADD SWAP4 ADD SWAP2 ADD PUSH2 0x556 JUMP JUMPDEST ADD MLOAD SWAP1 POP PUSH0 DUP1 PUSH2 0x385 JUMP JUMPDEST PUSH1 0x5 DUP4 ADD PUSH0 MSTORE PUSH1 0x20 PUSH0 KECCAK256 SWAP1 PUSH0 JUMPDEST PUSH1 0x1F NOT DUP5 AND DUP2 LT PUSH2 0x611 JUMPI POP PUSH1 0x1 SWAP4 SWAP5 SWAP6 SWAP7 DUP4 PUSH1 0x1F NOT DUP2 AND LT PUSH2 0x5F9 JUMPI JUMPDEST POP POP POP DUP2 SHL ADD PUSH1 0x5 DUP3 ADD SSTORE PUSH2 0x39C JUMP JUMPDEST ADD MLOAD PUSH0 NOT PUSH1 0xF8 DUP5 PUSH1 0x3 SHL AND SHR NOT AND SWAP1 SSTORE PUSH0 DUP1 DUP1 PUSH2 0x5E9 JUMP JUMPDEST SWAP1 SWAP2 PUSH1 0x20 PUSH1 0x1 DUP2 SWAP3 DUP6 DUP12 ADD MLOAD DUP2 SSTORE ADD SWAP4 ADD SWAP2 ADD PUSH2 0x5CB JUMP JUMPDEST ADD MLOAD SWAP1 POP PUSH0 DUP1 PUSH2 0x31B JUMP JUMPDEST SWAP3 POP PUSH1 0x2 DUP5 ADD PUSH0 MSTORE PUSH1 0x20 PUSH0 KECCAK256 SWAP1 PUSH0 SWAP4 JUMPDEST PUSH1 0x1F NOT DUP5 AND DUP6 LT PUSH2 0x687 JUMPI PUSH1 0x1 SWAP5 POP DUP4 PUSH1 0x1F NOT DUP2 AND LT PUSH2 0x66F JUMPI JUMPDEST POP POP POP DUP2 SHL ADD PUSH1 0x2 DUP3 ADD SSTORE PUSH2 0x332 JUMP JUMPDEST ADD MLOAD PUSH0 NOT PUSH1 0xF8 DUP5 PUSH1 0x3 SHL AND SHR NOT AND SWAP1 SSTORE PUSH0 DUP1 DUP1 PUSH2 0x65F JUMP JUMPDEST DUP2 DUP2 ADD MLOAD DUP4 SSTORE PUSH1 0x20 SWAP5 DUP6 ADD SWAP5 PUSH1 0x1 SWAP1 SWAP4 ADD SWAP3 SWAP1 SWAP2 ADD SWAP1 PUSH2 0x644 JUMP JUMPDEST PUSH1 0x40 MLOAD PUSH3 0x461BCD PUSH1 0xE5 SHL DUP2 MSTORE PUSH1 0x20 PUSH1 0x4 DUP3 ADD MSTORE PUSH1 0x26 PUSH1 0x24 DUP3 ADD MSTORE PUSH32 0x496E73756666696369656E742061737365747320746F20637265617465206361 PUSH1 0x44 DUP3 ADD MSTORE PUSH6 0x36B830B4B3B7 PUSH1 0xD1 SHL PUSH1 0x64 DUP3 ADD MSTORE PUSH1 0x84 SWAP1 REVERT JUMPDEST PUSH0 DUP1 REVERT JUMPDEST CALLVALUE PUSH2 0x6F6 JUMPI PUSH0 CALLDATASIZE PUSH1 0x3 NOT ADD SLT PUSH2 0x6F6 JUMPI PUSH1 0xA SLOAD PUSH2 0x716 DUP2 PUSH2 0x3CE7 JUMP JUMPDEST SWAP1 PUSH1 0x1 JUMPDEST DUP2 DUP2 GT ISZERO PUSH2 0x73C JUMPI PUSH1 0x40 MLOAD PUSH1 0x20 DUP1 DUP3 MSTORE DUP2 SWAP1 PUSH2 0x738 SWAP1 DUP3 ADD DUP7 PUSH2 0x3847 JUMP JUMPDEST SUB SWAP1 RETURN JUMPDEST PUSH0 NOT DUP2 ADD SWAP1 DUP1 DUP3 GT PUSH2 0x761 JUMPI DUP1 PUSH2 0x756 PUSH2 0x75C SWAP4 DUP7 PUSH2 0x3B68 JUMP JUMPDEST MSTORE PUSH2 0x3ADB JUMP JUMPDEST PUSH2 0x71A JUMP JUMPDEST PUSH4 0x4E487B71 PUSH1 0xE0 SHL PUSH0 MSTORE PUSH1 0x11 PUSH1 0x4 MSTORE PUSH1 0x24 PUSH0 REVERT JUMPDEST CALLVALUE PUSH2 0x6F6 JUMPI PUSH2 0x160 CALLDATASIZE PUSH1 0x3 NOT ADD SLT PUSH2 0x6F6 JUMPI PUSH1 0x1 PUSH1 0x1 PUSH1 0x40 SHL SUB PUSH1 0x24 DUP1 CALLDATALOAD DUP3 DUP2 GT PUSH2 0x6F6 JUMPI PUSH2 0x7A8 SWAP1 CALLDATASIZE SWAP1 PUSH1 0x4 ADD PUSH2 0x373A JUMP JUMPDEST SWAP1 PUSH1 0x44 CALLDATALOAD DUP4 DUP2 GT PUSH2 0x6F6 JUMPI PUSH2 0x7C1 SWAP1 CALLDATASIZE SWAP1 PUSH1 0x4 ADD PUSH2 0x373A JUMP JUMPDEST SWAP1 PUSH1 0x64 CALLDATALOAD DUP5 DUP2 GT PUSH2 0x6F6 JUMPI PUSH2 0x7DA SWAP1 CALLDATASIZE SWAP1 PUSH1 0x4 ADD PUSH2 0x373A JUMP JUMPDEST SWAP3 PUSH2 0x124 CALLDATALOAD DUP6 DUP2 GT PUSH2 0x6F6 JUMPI PUSH2 0x7F4 SWAP1 CALLDATASIZE SWAP1 PUSH1 0x4 ADD PUSH2 0x373A JUMP JUMPDEST SWAP4 PUSH2 0x144 CALLDATALOAD SWAP5 DUP6 ISZERO ISZERO DUP7 SUB PUSH2 0x6F6 JUMPI PUSH1 0x4 CALLDATALOAD PUSH0 MSTORE PUSH1 0x20 SWAP2 PUSH0 DUP4 MSTORE PUSH1 0x40 PUSH0 KECCAK256 SWAP6 PUSH1 0x1 SWAP5 PUSH1 0x1 DUP1 PUSH1 0xA0 SHL SUB DUP7 DUP10 ADD SLOAD AND CALLER SUB PUSH2 0xB8D JUMPI DUP1 MLOAD PUSH1 0x2 DUP10 ADD SWAP2 DUP12 DUP3 GT PUSH2 0xB7A JUMPI DUP2 SWAP1 PUSH2 0x84C DUP3 PUSH2 0x846 DUP7 SLOAD PUSH2 0x3541 JUMP JUMPDEST DUP7 PUSH2 0x3B25 JUMP JUMPDEST DUP8 SWAP1 PUSH1 0x1F DUP4 GT PUSH1 0x1 EQ PUSH2 0xB1B JUMPI PUSH0 SWAP3 PUSH2 0xB10 JUMPI JUMPDEST POP POP PUSH0 NOT PUSH1 0x3 DUP4 SWAP1 SHL SHR NOT AND SWAP1 DUP8 SHL OR SWAP1 SSTORE JUMPDEST DUP1 MLOAD PUSH1 0x5 DUP9 ADD SWAP2 DUP11 DUP3 GT PUSH2 0xAFD JUMPI DUP2 SWAP1 PUSH2 0x891 DUP3 PUSH2 0x846 DUP7 SLOAD PUSH2 0x3541 JUMP JUMPDEST DUP7 SWAP1 PUSH1 0x1F DUP4 GT PUSH1 0x1 EQ PUSH2 0xA9E JUMPI PUSH0 SWAP3 PUSH2 0xA93 JUMPI JUMPDEST POP POP PUSH0 NOT PUSH1 0x3 DUP4 SWAP1 SHL SHR NOT AND SWAP1 DUP7 SHL OR SWAP1 SSTORE JUMPDEST DUP1 MLOAD PUSH1 0x6 DUP8 ADD SWAP2 DUP10 DUP3 GT PUSH2 0xA80 JUMPI DUP2 SWAP1 PUSH2 0x8D6 DUP3 PUSH2 0x846 DUP7 SLOAD PUSH2 0x3541 JUMP JUMPDEST DUP6 SWAP1 PUSH1 0x1F DUP4 GT PUSH1 0x1 EQ PUSH2 0xA21 JUMPI PUSH0 SWAP3 PUSH2 0xA16 JUMPI JUMPDEST POP POP PUSH0 NOT PUSH1 0x3 DUP4 SWAP1 SHL SHR NOT AND SWAP1 DUP6 SHL OR SWAP1 SSTORE JUMPDEST PUSH1 0x84 CALLDATALOAD PUSH1 0x7 DUP7 ADD SSTORE PUSH1 0xA4 CALLDATALOAD PUSH1 0x8 DUP7 ADD SSTORE PUSH1 0xC4 CALLDATALOAD PUSH1 0x9 DUP7 ADD SSTORE PUSH1 0xE4 CALLDATALOAD PUSH1 0xA DUP7 ADD SSTORE PUSH2 0x104 CALLDATALOAD PUSH1 0xB DUP7 ADD SSTORE PUSH1 0xC DUP6 ADD SWAP4 DUP2 MLOAD SWAP8 DUP9 GT PUSH2 0xA03 JUMPI POP PUSH2 0x943 DUP8 PUSH2 0x846 DUP7 SLOAD PUSH2 0x3541 JUMP JUMPDEST DUP2 PUSH1 0x1F DUP9 GT PUSH1 0x1 EQ PUSH2 0x999 JUMPI POP SWAP6 DUP1 PUSH1 0xD SWAP6 SWAP5 SWAP4 DUP2 SWAP4 PUSH2 0x22 SWAP10 PUSH0 SWAP5 PUSH2 0x98E JUMPI JUMPDEST POP POP SHL SWAP2 PUSH0 NOT SWAP1 PUSH1 0x3 SHL SHR NOT AND OR SWAP1 SSTORE JUMPDEST ADD SWAP1 PUSH2 0xFF00 DUP3 SLOAD SWAP2 ISZERO ISZERO PUSH1 0x8 SHL AND SWAP1 PUSH2 0xFF00 NOT AND OR SWAP1 SSTORE JUMP JUMPDEST ADD MLOAD SWAP3 POP DUP10 DUP1 PUSH2 0x964 JUMP JUMPDEST SWAP2 SWAP1 PUSH1 0x1F NOT DUP9 AND DUP6 PUSH0 MSTORE DUP4 PUSH0 KECCAK256 SWAP4 PUSH0 SWAP1 JUMPDEST DUP3 DUP3 LT PUSH2 0x9EC JUMPI POP POP SWAP2 PUSH1 0xD SWAP7 SWAP6 SWAP5 SWAP4 SWAP2 DUP10 PUSH2 0x22 SWAP11 SWAP5 LT PUSH2 0x9D4 JUMPI JUMPDEST POP POP POP DUP2 SHL ADD SWAP1 SSTORE PUSH2 0x975 JUMP JUMPDEST ADD MLOAD PUSH0 NOT PUSH1 0xF8 DUP5 PUSH1 0x3 SHL AND SHR NOT AND SWAP1 SSTORE DUP8 DUP1 DUP1 PUSH2 0x9C7 JUMP JUMPDEST DUP1 DUP8 DUP7 SWAP8 DUP3 SWAP5 SWAP8 DUP8 ADD MLOAD DUP2 SSTORE ADD SWAP7 ADD SWAP5 ADD SWAP1 PUSH2 0x9AA JUMP JUMPDEST PUSH4 0x4E487B71 PUSH1 0xE0 SHL PUSH0 SWAP1 DUP2 MSTORE PUSH1 0x41 PUSH1 0x4 MSTORE REVERT JUMPDEST ADD MLOAD SWAP1 POP DUP11 DUP1 PUSH2 0x8EA JUMP JUMPDEST SWAP1 DUP8 SWAP4 POP PUSH1 0x1F NOT DUP4 AND SWAP2 DUP6 PUSH0 MSTORE DUP8 PUSH0 KECCAK256 SWAP3 PUSH0 JUMPDEST DUP10 DUP3 DUP3 LT PUSH2 0xA6A JUMPI POP POP DUP5 GT PUSH2 0xA52 JUMPI JUMPDEST POP POP POP DUP2 SHL ADD SWAP1 SSTORE PUSH2 0x8FD JUMP JUMPDEST ADD MLOAD PUSH0 NOT PUSH1 0xF8 DUP5 PUSH1 0x3 SHL AND SHR NOT AND SWAP1 SSTORE DUP11 DUP1 DUP1 PUSH2 0xA45 JUMP JUMPDEST DUP4 DUP6 ADD MLOAD DUP7 SSTORE DUP12 SWAP8 SWAP1 SWAP6 ADD SWAP5 SWAP4 DUP5 ADD SWAP4 ADD PUSH2 0xA34 JUMP JUMPDEST DUP7 PUSH4 0x4E487B71 PUSH1 0xE0 SHL PUSH0 MSTORE PUSH1 0x41 PUSH1 0x4 MSTORE PUSH0 REVERT JUMPDEST ADD MLOAD SWAP1 POP DUP12 DUP1 PUSH2 0x8A5 JUMP JUMPDEST SWAP1 DUP9 SWAP4 POP PUSH1 0x1F NOT DUP4 AND SWAP2 DUP6 PUSH0 MSTORE DUP9 PUSH0 KECCAK256 SWAP3 PUSH0 JUMPDEST DUP11 DUP3 DUP3 LT PUSH2 0xAE7 JUMPI POP POP DUP5 GT PUSH2 0xACF JUMPI JUMPDEST POP POP POP DUP2 SHL ADD SWAP1 SSTORE PUSH2 0x8B8 JUMP JUMPDEST ADD MLOAD PUSH0 NOT PUSH1 0xF8 DUP5 PUSH1 0x3 SHL AND SHR NOT AND SWAP1 SSTORE DUP12 DUP1 DUP1 PUSH2 0xAC2 JUMP JUMPDEST DUP4 DUP6 ADD MLOAD DUP7 SSTORE DUP13 SWAP8 SWAP1 SWAP6 ADD SWAP5 SWAP4 DUP5 ADD SWAP4 ADD PUSH2 0xAB1 JUMP JUMPDEST DUP8 PUSH4 0x4E487B71 PUSH1 0xE0 SHL PUSH0 MSTORE PUSH1 0x41 PUSH1 0x4 MSTORE PUSH0 REVERT JUMPDEST ADD MLOAD SWAP1 POP DUP13 DUP1 PUSH2 0x860 JUMP JUMPDEST SWAP1 DUP10 SWAP4 POP PUSH1 0x1F NOT DUP4 AND SWAP2 DUP6 PUSH0 MSTORE DUP10 PUSH0 KECCAK256 SWAP3 PUSH0 JUMPDEST DUP12 DUP3 DUP3 LT PUSH2 0xB64 JUMPI POP POP DUP5 GT PUSH2 0xB4C JUMPI JUMPDEST POP POP POP DUP2 SHL ADD SWAP1 SSTORE PUSH2 0x873 JUMP JUMPDEST ADD MLOAD PUSH0 NOT PUSH1 0xF8 DUP5 PUSH1 0x3 SHL AND SHR NOT AND SWAP1 SSTORE DUP13 DUP1 DUP1 PUSH2 0xB3F JUMP JUMPDEST DUP4 DUP6 ADD MLOAD DUP7 SSTORE DUP14 SWAP8 SWAP1 SWAP6 ADD SWAP5 SWAP4 DUP5 ADD SWAP4 ADD PUSH2 0xB2E JUMP JUMPDEST DUP9 PUSH4 0x4E487B71 PUSH1 0xE0 SHL PUSH0 MSTORE PUSH1 0x41 PUSH1 0x4 MSTORE PUSH0 REVERT JUMPDEST PUSH1 0x40 MLOAD PUSH3 0x461BCD PUSH1 0xE5 SHL DUP2 MSTORE PUSH1 0x4 DUP2 ADD DUP7 SWAP1 MSTORE PUSH1 0x27 DUP2 DUP10 ADD MSTORE PUSH32 0x4F6E6C79207468652063726561746F722063616E206564697420746869732063 PUSH1 0x44 DUP3 ADD MSTORE PUSH7 0x30B6B830B4B3B7 PUSH1 0xC9 SHL PUSH1 0x64 DUP3 ADD MSTORE PUSH1 0x84 SWAP1 REVERT JUMPDEST CALLVALUE PUSH2 0x6F6 JUMPI PUSH1 0x20 DUP1 PUSH1 0x3 NOT CALLDATASIZE ADD SLT PUSH2 0x6F6 JUMPI PUSH1 0x4 CALLDATALOAD SWAP1 DUP2 PUSH0 MSTORE PUSH0 DUP2 MSTORE PUSH2 0xC22 PUSH1 0x40 PUSH0 KECCAK256 PUSH2 0xC1A PUSH1 0x4 PUSH1 0x3 DUP4 ADD SLOAD SWAP3 ADD SLOAD SWAP2 TIMESTAMP LT ISZERO PUSH2 0x3BD9 JUMP JUMPDEST TIMESTAMP GT ISZERO PUSH2 0x3C25 JUMP JUMPDEST CALLER PUSH0 MSTORE PUSH1 0x2 DUP1 DUP3 MSTORE PUSH2 0xC54 PUSH1 0x1 DUP1 PUSH1 0xA0 SHL SUB DUP1 PUSH1 0x40 PUSH0 KECCAK256 SLOAD AND ISZERO PUSH2 0xDED JUMPI JUMPDEST CALLER PUSH0 MSTORE DUP3 DUP5 MSTORE PUSH1 0x40 PUSH0 KECCAK256 SLOAD AND ISZERO ISZERO PUSH2 0x3C6A JUMP JUMPDEST CALLER PUSH0 MSTORE PUSH1 0x6 DUP3 MSTORE PUSH1 0x40 PUSH0 KECCAK256 DUP4 PUSH0 MSTORE DUP3 MSTORE PUSH1 0xFF PUSH1 0x40 PUSH0 KECCAK256 SLOAD AND PUSH2 0xDA8 JUMPI DUP3 PUSH0 MSTORE PUSH0 DUP3 MSTORE PUSH1 0x40 PUSH0 KECCAK256 CALLER PUSH0 MSTORE DUP2 DUP4 MSTORE PUSH1 0x4 PUSH1 0x40 PUSH0 KECCAK256 ADD SLOAD PUSH1 0x9 DUP3 ADD SLOAD GT PUSH2 0xD6E JUMPI PUSH2 0xCBC SWAP1 CALLER PUSH0 MSTORE DUP3 DUP5 MSTORE PUSH2 0xCB2 DUP4 PUSH1 0x40 PUSH0 KECCAK256 ADD SLOAD PUSH1 0xA DUP4 ADD SLOAD GT ISZERO PUSH2 0x39EA JUMP JUMPDEST PUSH1 0xE CALLER SWAP2 ADD PUSH2 0x3CAC JUMP JUMPDEST CALLER PUSH0 MSTORE DUP1 DUP3 MSTORE PUSH2 0xCD2 DUP4 PUSH1 0x6 PUSH1 0x40 PUSH0 KECCAK256 ADD PUSH2 0x3BA5 JUMP JUMPDEST PUSH2 0xCDB DUP4 PUSH2 0x3E3A JUMP JUMPDEST DUP1 PUSH2 0xD2A JUMPI JUMPDEST POP POP CALLER PUSH0 MSTORE PUSH1 0x6 DUP2 MSTORE PUSH1 0x40 PUSH0 KECCAK256 SWAP1 DUP3 PUSH0 MSTORE MSTORE PUSH1 0x40 PUSH0 KECCAK256 PUSH1 0x1 PUSH1 0xFF NOT DUP3 SLOAD AND OR SWAP1 SSTORE CALLER SWAP1 PUSH32 0xA8CB7EC996AF5CD17D263F3DCDF80CA63FB4CEF1B4312A18C70C8F533597F3B PUSH0 DUP1 LOG3 STOP JUMPDEST PUSH0 MSTORE PUSH1 0x9 DUP3 MSTORE PUSH1 0x40 PUSH0 KECCAK256 CALLER PUSH0 MSTORE DUP3 MSTORE PUSH2 0xD65 PUSH1 0x40 PUSH0 KECCAK256 SWAP2 PUSH2 0xD4B DUP4 SLOAD PUSH2 0x3ADB JUMP JUMPDEST DUP4 SSTORE DUP5 PUSH0 MSTORE PUSH0 DUP5 MSTORE PUSH1 0x8 PUSH1 0x40 PUSH0 KECCAK256 ADD SLOAD SWAP3 ADD SWAP2 DUP3 SLOAD PUSH2 0x3887 JUMP JUMPDEST SWAP1 SSTORE DUP3 DUP1 PUSH2 0xCE1 JUMP JUMPDEST PUSH1 0x40 MLOAD PUSH3 0x461BCD PUSH1 0xE5 SHL DUP2 MSTORE PUSH1 0x4 DUP2 ADD DUP5 SWAP1 MSTORE PUSH1 0x12 PUSH1 0x24 DUP3 ADD MSTORE PUSH18 0x55736572206C6576656C20746F6F206C6F77 PUSH1 0x70 SHL PUSH1 0x44 DUP3 ADD MSTORE PUSH1 0x64 SWAP1 REVERT JUMPDEST PUSH1 0x40 MLOAD PUSH3 0x461BCD PUSH1 0xE5 SHL DUP2 MSTORE PUSH1 0x4 DUP2 ADD DUP4 SWAP1 MSTORE PUSH1 0x1C PUSH1 0x24 DUP3 ADD MSTORE PUSH32 0x416C7265616479206A6F696E656420746869732063616D706169676E00000000 PUSH1 0x44 DUP3 ADD MSTORE PUSH1 0x64 SWAP1 REVERT JUMPDEST PUSH2 0xDF6 CALLER PUSH2 0x3D19 JUMP JUMPDEST PUSH2 0xC41 JUMP JUMPDEST PUSH0 CALLDATASIZE PUSH1 0x3 NOT ADD SLT PUSH2 0x6F6 JUMPI PUSH2 0x22 PUSH2 0x3894 JUMP JUMPDEST CALLVALUE PUSH2 0x6F6 JUMPI PUSH1 0x40 CALLDATASIZE PUSH1 0x3 NOT ADD SLT PUSH2 0x6F6 JUMPI PUSH1 0x1 PUSH1 0x1 PUSH1 0xA0 SHL SUB PUSH2 0xE2F PUSH2 0x3515 JUMP JUMPDEST AND PUSH0 MSTORE PUSH1 0x8 PUSH1 0x20 MSTORE PUSH1 0x40 PUSH0 KECCAK256 PUSH1 0x24 CALLDATALOAD PUSH0 MSTORE PUSH1 0x20 MSTORE PUSH1 0x20 PUSH1 0xFF PUSH1 0x40 PUSH0 KECCAK256 SLOAD AND PUSH1 0x40 MLOAD SWAP1 ISZERO ISZERO DUP2 MSTORE RETURN JUMPDEST CALLVALUE PUSH2 0x6F6 JUMPI PUSH2 0x120 CALLDATASIZE PUSH1 0x3 NOT ADD SLT PUSH2 0x6F6 JUMPI PUSH1 0x24 PUSH1 0x1 PUSH1 0x1 PUSH1 0x40 SHL SUB DUP2 CALLDATALOAD DUP2 DUP2 GT PUSH2 0x6F6 JUMPI PUSH2 0xE8A SWAP1 CALLDATASIZE SWAP1 PUSH1 0x4 ADD PUSH2 0x373A JUMP JUMPDEST SWAP2 PUSH1 0x44 CALLDATALOAD DUP3 DUP2 GT PUSH2 0x6F6 JUMPI PUSH2 0xEA3 SWAP1 CALLDATASIZE SWAP1 PUSH1 0x4 ADD PUSH2 0x373A JUMP JUMPDEST PUSH1 0x64 CALLDATALOAD DUP4 DUP2 GT PUSH2 0x6F6 JUMPI PUSH2 0xEBB SWAP1 CALLDATASIZE SWAP1 PUSH1 0x4 ADD PUSH2 0x373A JUMP JUMPDEST SWAP4 PUSH2 0x104 CALLDATALOAD DUP5 DUP2 GT PUSH2 0x6F6 JUMPI PUSH2 0xED5 SWAP1 CALLDATASIZE SWAP1 PUSH1 0x4 ADD PUSH2 0x3797 JUMP JUMPDEST SWAP1 PUSH1 0x4 CALLDATALOAD PUSH0 MSTORE PUSH1 0x1 SWAP6 PUSH1 0x20 SWAP4 DUP8 DUP6 MSTORE PUSH1 0x40 PUSH0 KECCAK256 SWAP3 PUSH1 0x1 DUP1 PUSH1 0xA0 SHL SUB DUP10 DUP6 ADD SLOAD AND CALLER SUB PUSH2 0x11A6 JUMPI DUP1 MLOAD PUSH1 0x2 DUP6 ADD SWAP2 DUP10 DUP3 GT PUSH2 0xB7A JUMPI DUP2 SWAP1 PUSH2 0xF19 DUP3 PUSH2 0x846 DUP7 SLOAD PUSH2 0x3541 JUMP JUMPDEST DUP9 SWAP1 PUSH1 0x1F DUP4 GT PUSH1 0x1 EQ PUSH2 0x113E JUMPI PUSH0 SWAP3 PUSH2 0x1133 JUMPI JUMPDEST POP POP PUSH0 NOT PUSH1 0x3 DUP4 SWAP1 SHL SHR NOT AND SWAP1 DUP11 SHL OR SWAP1 SSTORE JUMPDEST DUP1 MLOAD PUSH1 0x5 DUP5 ADD SWAP2 DUP9 DUP3 GT PUSH2 0xAFD JUMPI DUP2 SWAP1 PUSH2 0xF5E DUP3 PUSH2 0x846 DUP7 SLOAD PUSH2 0x3541 JUMP JUMPDEST DUP8 SWAP1 PUSH1 0x1F DUP4 GT PUSH1 0x1 EQ PUSH2 0x10D4 JUMPI PUSH0 SWAP3 PUSH2 0x10C9 JUMPI JUMPDEST POP POP PUSH0 NOT PUSH1 0x3 DUP4 SWAP1 SHL SHR NOT AND SWAP1 DUP10 SHL OR SWAP1 SSTORE JUMPDEST DUP1 MLOAD PUSH1 0x6 DUP4 ADD SWAP2 DUP8 DUP3 GT PUSH2 0xA80 JUMPI PUSH2 0xFA7 DUP3 PUSH2 0xFA1 DUP6 SLOAD PUSH2 0x3541 JUMP JUMPDEST DUP6 PUSH2 0x3B25 JUMP JUMPDEST DUP6 SWAP1 PUSH1 0x1F DUP4 GT PUSH1 0x1 EQ PUSH2 0x1065 JUMPI PUSH1 0xB SWAP5 SWAP4 SWAP3 SWAP2 PUSH0 SWAP2 DUP4 PUSH2 0x105A JUMPI JUMPDEST POP POP PUSH0 NOT PUSH1 0x3 DUP4 SWAP1 SHL SHR NOT AND SWAP1 DUP10 SHL OR SWAP1 SSTORE JUMPDEST PUSH1 0x84 CALLDATALOAD PUSH1 0x7 DUP3 ADD SSTORE PUSH1 0xA4 CALLDATALOAD PUSH1 0x8 DUP3 ADD SSTORE PUSH1 0xC4 CALLDATALOAD PUSH1 0x9 DUP3 ADD SSTORE PUSH1 0xE4 CALLDATALOAD PUSH1 0xA DUP3 ADD SSTORE ADD SWAP3 DUP2 MLOAD SWAP5 DUP6 GT PUSH2 0xA03 JUMPI PUSH1 0x1 PUSH1 0x40 SHL DUP6 GT PUSH2 0xA03 JUMPI POP DUP2 SWAP1 DUP4 SLOAD DUP6 DUP6 SSTORE DUP1 DUP7 LT PUSH2 0x103F JUMPI JUMPDEST POP ADD SWAP2 PUSH0 MSTORE DUP1 PUSH0 KECCAK256 PUSH0 JUMPDEST DUP5 DUP2 LT PUSH2 0x102E JUMPI STOP JUMPDEST DUP4 MLOAD DUP3 DUP3 ADD SSTORE SWAP3 DUP3 ADD SWAP3 DUP6 ADD PUSH2 0x1025 JUMP JUMPDEST PUSH2 0x1054 SWAP1 DUP6 PUSH0 MSTORE DUP7 DUP5 PUSH0 KECCAK256 SWAP2 DUP3 ADD SWAP2 ADD PUSH2 0x3AE9 JUMP JUMPDEST DUP7 PUSH2 0x101B JUMP JUMPDEST ADD MLOAD SWAP1 POP DUP11 DUP1 PUSH2 0xFC2 JUMP JUMPDEST SWAP4 SWAP3 SWAP2 DUP10 SWAP2 PUSH1 0x1F NOT DUP3 AND SWAP1 DUP5 PUSH0 MSTORE DUP9 PUSH0 KECCAK256 SWAP2 PUSH0 JUMPDEST DUP11 DUP3 DUP3 LT PUSH2 0x10B3 JUMPI POP POP SWAP7 DUP4 PUSH1 0xB SWAP9 LT PUSH2 0x109B JUMPI JUMPDEST POP POP POP DUP2 SHL ADD SWAP1 SSTORE PUSH2 0xFD5 JUMP JUMPDEST ADD MLOAD PUSH0 NOT PUSH1 0xF8 DUP5 PUSH1 0x3 SHL AND SHR NOT AND SWAP1 SSTORE DUP11 DUP1 DUP1 PUSH2 0x108E JUMP JUMPDEST DUP4 DUP11 ADD MLOAD DUP6 SSTORE DUP15 SWAP7 SWAP1 SWAP5 ADD SWAP4 SWAP3 DUP4 ADD SWAP3 ADD PUSH2 0x1079 JUMP JUMPDEST ADD MLOAD SWAP1 POP DUP11 DUP1 PUSH2 0xF72 JUMP JUMPDEST SWAP1 DUP12 SWAP4 POP PUSH1 0x1F NOT DUP4 AND SWAP2 DUP6 PUSH0 MSTORE DUP10 PUSH0 KECCAK256 SWAP3 PUSH0 JUMPDEST DUP12 DUP3 DUP3 LT PUSH2 0x111D JUMPI POP POP DUP5 GT PUSH2 0x1105 JUMPI JUMPDEST POP POP POP DUP2 SHL ADD SWAP1 SSTORE PUSH2 0xF85 JUMP JUMPDEST ADD MLOAD PUSH0 NOT PUSH1 0xF8 DUP5 PUSH1 0x3 SHL AND SHR NOT AND SWAP1 SSTORE DUP11 DUP1 DUP1 PUSH2 0x10F8 JUMP JUMPDEST DUP4 DUP6 ADD MLOAD DUP7 SSTORE DUP16 SWAP8 SWAP1 SWAP6 ADD SWAP5 SWAP4 DUP5 ADD SWAP4 ADD PUSH2 0x10E7 JUMP JUMPDEST ADD MLOAD SWAP1 POP DUP12 DUP1 PUSH2 0xF2D JUMP JUMPDEST SWAP1 DUP13 SWAP4 POP PUSH1 0x1F NOT DUP4 AND SWAP2 DUP6 PUSH0 MSTORE DUP11 PUSH0 KECCAK256 SWAP3 PUSH0 JUMPDEST DUP13 DUP3 DUP3 LT PUSH2 0x1187 JUMPI POP POP DUP5 GT PUSH2 0x116F JUMPI JUMPDEST POP POP POP DUP2 SHL ADD SWAP1 SSTORE PUSH2 0xF40 JUMP JUMPDEST ADD MLOAD PUSH0 NOT PUSH1 0xF8 DUP5 PUSH1 0x3 SHL AND SHR NOT AND SWAP1 SSTORE DUP12 DUP1 DUP1 PUSH2 0x1162 JUMP JUMPDEST SWAP2 SWAP3 SWAP4 SWAP6 SWAP7 DUP3 SWAP2 SWAP6 DUP8 DUP7 ADD MLOAD DUP2 SSTORE ADD SWAP6 ADD SWAP4 ADD SWAP1 DUP15 SWAP6 SWAP5 SWAP4 SWAP3 SWAP2 PUSH2 0x1151 JUMP JUMPDEST PUSH1 0x40 MLOAD PUSH3 0x461BCD PUSH1 0xE5 SHL DUP2 MSTORE PUSH1 0x4 DUP2 ADD DUP8 SWAP1 MSTORE PUSH1 0x21 DUP2 DUP10 ADD MSTORE PUSH32 0x4F6E6C792074686520686F73742063616E20656469742074686973206576656E PUSH1 0x44 DUP3 ADD MSTORE PUSH1 0x1D PUSH1 0xFA SHL PUSH1 0x64 DUP3 ADD MSTORE PUSH1 0x84 SWAP1 REVERT JUMPDEST CALLVALUE PUSH2 0x6F6 JUMPI PUSH1 0x20 CALLDATASIZE PUSH1 0x3 NOT ADD SLT PUSH2 0x6F6 JUMPI PUSH1 0x4 CALLDATALOAD PUSH0 MSTORE PUSH1 0x1 PUSH1 0x20 MSTORE PUSH2 0x738 PUSH2 0x1221 PUSH1 0xC PUSH1 0x40 PUSH0 KECCAK256 ADD PUSH2 0x3EC6 JUMP JUMPDEST PUSH1 0x40 MLOAD SWAP2 DUP3 SWAP2 PUSH1 0x20 DUP4 MSTORE PUSH1 0x20 DUP4 ADD SWAP1 PUSH2 0x37F5 JUMP JUMPDEST CALLVALUE PUSH2 0x6F6 JUMPI PUSH1 0x20 DUP1 PUSH1 0x3 NOT CALLDATASIZE ADD SLT PUSH2 0x6F6 JUMPI PUSH1 0x1 PUSH1 0x1 PUSH1 0x40 SHL SUB PUSH1 0x4 CALLDATALOAD DUP2 DUP2 GT PUSH2 0x6F6 JUMPI PUSH2 0x1267 SWAP1 CALLDATASIZE SWAP1 PUSH1 0x4 ADD PUSH2 0x373A JUMP JUMPDEST CALLER PUSH0 SWAP1 DUP2 MSTORE PUSH1 0x2 DUP5 MSTORE PUSH1 0x40 SWAP1 KECCAK256 SLOAD PUSH2 0x1289 SWAP1 PUSH1 0x1 PUSH1 0x1 PUSH1 0xA0 SHL SUB AND ISZERO ISZERO PUSH2 0x3C6A JUMP JUMPDEST DUP1 MLOAD ISZERO PUSH2 0x13AB JUMPI CALLER PUSH0 MSTORE PUSH1 0x2 DUP4 MSTORE PUSH1 0x1 DUP1 PUSH1 0x40 PUSH0 KECCAK256 ADD SWAP1 DUP3 MLOAD SWAP4 DUP5 GT PUSH2 0x52A JUMPI PUSH2 0x12B7 DUP5 PUSH2 0x441 DUP5 SLOAD PUSH2 0x3541 JUMP JUMPDEST DUP5 PUSH1 0x1F DUP6 GT PUSH1 0x1 EQ PUSH2 0x1328 JUMPI SWAP4 DUP1 DUP1 PUSH2 0x1318 SWAP6 SWAP5 SWAP4 PUSH32 0xD6136F3CAD7C60BFC24BBF1548F39F766CA8BCE104BF9ADDE3DEB6237DEC51DF SWAP8 PUSH0 SWAP4 PUSH2 0x131D JUMPI JUMPDEST POP SHL SWAP2 PUSH0 NOT SWAP1 PUSH1 0x3 SHL SHR NOT AND OR SWAP1 SSTORE JUMPDEST PUSH1 0x40 MLOAD SWAP2 DUP3 SWAP2 DUP6 DUP4 MSTORE CALLER SWAP6 DUP4 ADD SWAP1 PUSH2 0x36E1 JUMP JUMPDEST SUB SWAP1 LOG2 STOP JUMPDEST DUP7 ADD MLOAD SWAP3 POP DUP10 PUSH2 0x12F5 JUMP JUMPDEST PUSH1 0x1F NOT DUP6 AND SWAP1 DUP4 PUSH0 MSTORE DUP7 PUSH0 KECCAK256 SWAP2 PUSH0 JUMPDEST DUP9 DUP3 DUP3 LT PUSH2 0x1397 JUMPI POP POP SWAP2 DUP7 SWAP2 PUSH32 0xD6136F3CAD7C60BFC24BBF1548F39F766CA8BCE104BF9ADDE3DEB6237DEC51DF SWAP8 PUSH2 0x1318 SWAP8 SWAP7 SWAP6 SWAP5 LT PUSH2 0x137F JUMPI JUMPDEST POP POP DUP2 SHL ADD SWAP1 SSTORE PUSH2 0x1305 JUMP JUMPDEST DUP6 ADD MLOAD PUSH0 NOT PUSH1 0xF8 DUP5 PUSH1 0x3 SHL AND SHR NOT AND SWAP1 SSTORE DUP8 DUP1 PUSH2 0x1373 JUMP JUMPDEST DUP8 DUP5 ADD MLOAD DUP6 SSTORE SWAP4 DUP6 ADD SWAP4 SWAP3 DUP4 ADD SWAP3 ADD PUSH2 0x1337 JUMP JUMPDEST PUSH1 0x40 MLOAD PUSH3 0x461BCD PUSH1 0xE5 SHL DUP2 MSTORE PUSH1 0x4 DUP2 ADD DUP5 SWAP1 MSTORE PUSH1 0x18 PUSH1 0x24 DUP3 ADD MSTORE PUSH32 0x4E6577206E616D652063616E6E6F7420626520656D7074790000000000000000 PUSH1 0x44 DUP3 ADD MSTORE PUSH1 0x64 SWAP1 REVERT JUMPDEST CALLVALUE PUSH2 0x6F6 JUMPI PUSH1 0x20 CALLDATASIZE PUSH1 0x3 NOT ADD SLT PUSH2 0x6F6 JUMPI PUSH1 0x1 PUSH1 0x1 PUSH1 0xA0 SHL SUB DUP1 PUSH2 0x1412 PUSH2 0x3515 JUMP JUMPDEST AND PUSH0 MSTORE PUSH1 0x2 PUSH1 0x20 MSTORE PUSH1 0x40 PUSH0 KECCAK256 SWAP1 DUP2 SLOAD AND PUSH2 0x142E PUSH1 0x1 DUP4 ADD PUSH2 0x3640 JUMP JUMPDEST SWAP2 PUSH1 0x2 DUP2 ADD SLOAD SWAP1 PUSH1 0x4 PUSH1 0x3 DUP3 ADD SLOAD SWAP2 ADD SLOAD SWAP1 PUSH2 0x145C PUSH1 0x40 MLOAD SWAP6 DUP7 SWAP6 DUP7 MSTORE PUSH1 0xA0 PUSH1 0x20 DUP8 ADD MSTORE PUSH1 0xA0 DUP7 ADD SWAP1 PUSH2 0x36E1 JUMP JUMPDEST SWAP3 PUSH1 0x40 DUP6 ADD MSTORE PUSH1 0x60 DUP5 ADD MSTORE PUSH1 0x80 DUP4 ADD MSTORE SUB SWAP1 RETURN JUMPDEST CALLVALUE PUSH2 0x6F6 JUMPI PUSH1 0x20 CALLDATASIZE PUSH1 0x3 NOT ADD SLT PUSH2 0x6F6 JUMPI PUSH1 0x4 CALLDATALOAD PUSH0 MSTORE PUSH0 PUSH1 0x20 MSTORE PUSH2 0x738 PUSH2 0x1221 PUSH1 0xE PUSH1 0x40 PUSH0 KECCAK256 ADD PUSH2 0x3EC6 JUMP JUMPDEST CALLVALUE PUSH2 0x6F6 JUMPI PUSH1 0x20 DUP1 PUSH1 0x3 NOT CALLDATASIZE ADD SLT PUSH2 0x6F6 JUMPI PUSH1 0x4 CALLDATALOAD SWAP1 CALLER PUSH0 MSTORE PUSH1 0x2 DUP2 MSTORE PUSH2 0x14D0 PUSH1 0x1 DUP1 PUSH1 0xA0 SHL SUB PUSH1 0x40 PUSH0 KECCAK256 SLOAD AND ISZERO ISZERO PUSH2 0x3C6A JUMP JUMPDEST CALLER PUSH0 MSTORE PUSH1 0x8 DUP2 MSTORE PUSH1 0x40 PUSH0 KECCAK256 DUP3 PUSH0 MSTORE DUP2 MSTORE PUSH1 0xFF PUSH1 0x40 PUSH0 KECCAK256 SLOAD AND PUSH2 0x1561 JUMPI DUP2 PUSH0 MSTORE PUSH1 0x3 DUP2 MSTORE PUSH2 0x1503 CALLER PUSH1 0x8 PUSH1 0x40 PUSH0 KECCAK256 ADD PUSH2 0x3CAC JUMP JUMPDEST CALLER PUSH0 MSTORE PUSH1 0x2 DUP2 MSTORE PUSH2 0x151A DUP3 PUSH1 0x5 PUSH1 0x40 PUSH0 KECCAK256 ADD PUSH2 0x3BA5 JUMP JUMPDEST CALLER PUSH0 MSTORE PUSH1 0x8 DUP2 MSTORE PUSH1 0x40 PUSH0 KECCAK256 SWAP1 DUP3 PUSH0 MSTORE MSTORE PUSH1 0x40 PUSH0 KECCAK256 PUSH1 0x1 PUSH1 0xFF NOT DUP3 SLOAD AND OR SWAP1 SSTORE CALLER SWAP1 PUSH32 0x54B395D5E852D463801B391AAC280C017D177C680B3B860FE2B47266A86BCB5F PUSH0 DUP1 LOG3 STOP JUMPDEST PUSH1 0x64 SWAP1 PUSH1 0x40 MLOAD SWAP1 PUSH3 0x461BCD PUSH1 0xE5 SHL DUP3 MSTORE PUSH1 0x4 DUP3 ADD MSTORE PUSH1 0x19 PUSH1 0x24 DUP3 ADD MSTORE PUSH32 0x416C7265616479206A6F696E6564207468697320737061636500000000000000 PUSH1 0x44 DUP3 ADD MSTORE REVERT JUMPDEST CALLVALUE PUSH2 0x6F6 JUMPI PUSH0 CALLDATASIZE PUSH1 0x3 NOT ADD SLT PUSH2 0x6F6 JUMPI PUSH1 0xC SLOAD PUSH2 0x15C1 DUP2 PUSH2 0x3CE7 JUMP JUMPDEST SWAP1 PUSH1 0x1 JUMPDEST DUP2 DUP2 GT ISZERO PUSH2 0x15E3 JUMPI PUSH1 0x40 MLOAD PUSH1 0x20 DUP1 DUP3 MSTORE DUP2 SWAP1 PUSH2 0x738 SWAP1 DUP3 ADD DUP7 PUSH2 0x3847 JUMP JUMPDEST PUSH0 NOT DUP2 ADD SWAP1 DUP1 DUP3 GT PUSH2 0x761 JUMPI DUP1 PUSH2 0x756 PUSH2 0x15FD SWAP4 DUP7 PUSH2 0x3B68 JUMP JUMPDEST PUSH2 0x15C5 JUMP JUMPDEST CALLVALUE PUSH2 0x6F6 JUMPI PUSH1 0x40 CALLDATASIZE PUSH1 0x3 NOT ADD SLT PUSH2 0x6F6 JUMPI PUSH2 0x161B PUSH2 0x352B JUMP JUMPDEST PUSH1 0x4 CALLDATALOAD PUSH0 MSTORE PUSH1 0x9 PUSH1 0x20 MSTORE PUSH1 0x40 PUSH0 KECCAK256 SWAP1 PUSH1 0x1 DUP1 PUSH1 0xA0 SHL SUB AND PUSH0 MSTORE PUSH1 0x20 MSTORE PUSH1 0x40 PUSH0 KECCAK256 DUP1 SLOAD PUSH2 0x738 PUSH1 0x2 PUSH1 0x1 DUP5 ADD SLOAD SWAP4 ADD SLOAD PUSH1 0x40 MLOAD SWAP4 DUP5 SWAP4 DUP5 PUSH1 0x40 SWAP2 SWAP5 SWAP4 SWAP3 PUSH1 0x60 DUP3 ADD SWAP6 DUP3 MSTORE PUSH1 0x20 DUP3 ADD MSTORE ADD MSTORE JUMP JUMPDEST CALLVALUE PUSH2 0x6F6 JUMPI PUSH0 CALLDATASIZE PUSH1 0x3 NOT ADD SLT PUSH2 0x6F6 JUMPI PUSH1 0xB SLOAD PUSH2 0x1683 DUP2 PUSH2 0x3CE7 JUMP JUMPDEST SWAP1 PUSH1 0x1 JUMPDEST DUP2 DUP2 GT ISZERO PUSH2 0x16A5 JUMPI PUSH1 0x40 MLOAD PUSH1 0x20 DUP1 DUP3 MSTORE DUP2 SWAP1 PUSH2 0x738 SWAP1 DUP3 ADD DUP7 PUSH2 0x3847 JUMP JUMPDEST PUSH0 NOT DUP2 ADD SWAP1 DUP1 DUP3 GT PUSH2 0x761 JUMPI DUP1 PUSH2 0x756 PUSH2 0x16BF SWAP4 DUP7 PUSH2 0x3B68 JUMP JUMPDEST PUSH2 0x1687 JUMP JUMPDEST CALLVALUE PUSH2 0x6F6 JUMPI PUSH1 0x20 CALLDATASIZE PUSH1 0x3 NOT ADD SLT PUSH2 0x6F6 JUMPI PUSH1 0x4 CALLDATALOAD PUSH0 MSTORE PUSH1 0x3 PUSH1 0x20 MSTORE PUSH1 0x40 PUSH0 KECCAK256 PUSH2 0x16EC DUP2 PUSH2 0x3640 JUMP JUMPDEST PUSH1 0x1 DUP3 ADD SLOAD PUSH1 0x1 PUSH1 0x1 PUSH1 0xA0 SHL SUB AND SWAP2 PUSH2 0x1707 PUSH1 0x2 DUP3 ADD PUSH2 0x3640 JUMP JUMPDEST SWAP1 PUSH1 0x3 DUP2 ADD SLOAD PUSH1 0xFF AND PUSH1 0x4 DUP3 ADD PUSH2 0x171D SWAP1 PUSH2 0x3640 JUMP JUMPDEST PUSH2 0x1729 PUSH1 0x5 DUP5 ADD PUSH2 0x3640 JUMP JUMPDEST SWAP2 PUSH2 0x1736 PUSH1 0x6 DUP6 ADD PUSH2 0x3640 JUMP JUMPDEST SWAP4 PUSH1 0x7 ADD PUSH2 0x1743 SWAP1 PUSH2 0x3640 JUMP JUMPDEST SWAP5 PUSH1 0x40 MLOAD SWAP8 DUP9 SWAP8 PUSH2 0x100 DUP1 DUP11 MSTORE DUP10 ADD PUSH2 0x175B SWAP2 PUSH2 0x36E1 JUMP JUMPDEST SWAP1 PUSH1 0x20 DUP10 ADD MSTORE DUP8 DUP2 SUB PUSH1 0x40 DUP10 ADD MSTORE PUSH2 0x1772 SWAP2 PUSH2 0x36E1 JUMP JUMPDEST SWAP1 PUSH1 0x60 DUP8 ADD PUSH2 0x1780 SWAP2 PUSH2 0x387A JUMP JUMPDEST DUP6 DUP2 SUB PUSH1 0x80 DUP8 ADD MSTORE PUSH2 0x1791 SWAP2 PUSH2 0x36E1 JUMP JUMPDEST DUP5 DUP2 SUB PUSH1 0xA0 DUP7 ADD MSTORE PUSH2 0x17A2 SWAP2 PUSH2 0x36E1 JUMP JUMPDEST DUP4 DUP2 SUB PUSH1 0xC0 DUP6 ADD MSTORE PUSH2 0x17B3 SWAP2 PUSH2 0x36E1 JUMP JUMPDEST DUP3 DUP2 SUB PUSH1 0xE0 DUP5 ADD MSTORE PUSH2 0x738 SWAP2 PUSH2 0x36E1 JUMP JUMPDEST CALLVALUE PUSH2 0x6F6 JUMPI PUSH2 0x17D2 CALLDATASIZE PUSH2 0x3831 JUMP JUMPDEST SWAP1 PUSH0 MSTORE PUSH1 0x4 PUSH1 0x20 MSTORE PUSH1 0x40 PUSH0 KECCAK256 SWAP1 PUSH0 MSTORE PUSH1 0x20 MSTORE PUSH1 0x20 PUSH1 0xFF PUSH1 0x40 PUSH0 KECCAK256 SLOAD AND PUSH1 0x40 MLOAD SWAP1 ISZERO ISZERO DUP2 MSTORE RETURN JUMPDEST CALLVALUE PUSH2 0x6F6 JUMPI PUSH0 CALLDATASIZE PUSH1 0x3 NOT ADD SLT PUSH2 0x6F6 JUMPI PUSH1 0x20 PUSH1 0xA SLOAD PUSH1 0x40 MLOAD SWAP1 DUP2 MSTORE RETURN JUMPDEST CALLVALUE PUSH2 0x6F6 JUMPI PUSH0 CALLDATASIZE PUSH1 0x3 NOT ADD SLT PUSH2 0x6F6 JUMPI PUSH1 0x20 PUSH1 0xB SLOAD PUSH1 0x40 MLOAD SWAP1 DUP2 MSTORE RETURN JUMPDEST CALLVALUE PUSH2 0x6F6 JUMPI PUSH1 0x20 CALLDATASIZE PUSH1 0x3 NOT ADD SLT PUSH2 0x6F6 JUMPI PUSH1 0x60 PUSH2 0x140 PUSH1 0x40 MLOAD PUSH2 0x1854 DUP2 PUSH2 0x35E8 JUMP JUMPDEST DUP3 DUP2 MSTORE PUSH0 PUSH1 0x20 DUP3 ADD MSTORE DUP3 PUSH1 0x40 DUP3 ADD MSTORE PUSH0 DUP4 DUP3 ADD MSTORE DUP3 PUSH1 0x80 DUP3 ADD MSTORE DUP3 PUSH1 0xA0 DUP3 ADD MSTORE DUP3 PUSH1 0xC0 DUP3 ADD MSTORE DUP3 PUSH1 0xE0 DUP3 ADD MSTORE DUP3 PUSH2 0x100 DUP3 ADD MSTORE DUP3 PUSH2 0x120 DUP3 ADD MSTORE ADD MSTORE PUSH1 0x4 CALLDATALOAD PUSH0 MSTORE PUSH1 0x3 PUSH1 0x20 MSTORE PUSH1 0x40 PUSH0 KECCAK256 PUSH1 0x40 MLOAD PUSH2 0x18AA DUP2 PUSH2 0x35E8 JUMP JUMPDEST PUSH2 0x18B3 DUP3 PUSH2 0x3640 JUMP JUMPDEST DUP2 MSTORE PUSH1 0x1 DUP3 ADD SLOAD PUSH1 0x1 PUSH1 0x1 PUSH1 0xA0 SHL SUB AND PUSH1 0x20 DUP3 ADD MSTORE PUSH2 0x18D4 PUSH1 0x2 DUP4 ADD PUSH2 0x3640 JUMP JUMPDEST PUSH1 0x40 DUP3 ADD MSTORE PUSH1 0xFF PUSH1 0x3 DUP4 ADD SLOAD AND PUSH1 0xD DUP2 LT ISZERO PUSH2 0x1AE0 JUMPI PUSH2 0x1AB6 SWAP3 PUSH2 0x738 SWAP2 PUSH1 0x60 DUP5 ADD MSTORE PUSH2 0x1903 PUSH1 0x4 DUP3 ADD PUSH2 0x3640 JUMP JUMPDEST PUSH1 0x80 DUP5 ADD MSTORE PUSH2 0x1914 PUSH1 0x5 DUP3 ADD PUSH2 0x3640 JUMP JUMPDEST PUSH1 0xA0 DUP5 ADD MSTORE PUSH2 0x1925 PUSH1 0x6 DUP3 ADD PUSH2 0x3640 JUMP JUMPDEST PUSH1 0xC0 DUP5 ADD MSTORE PUSH2 0x1936 PUSH1 0x7 DUP3 ADD PUSH2 0x3640 JUMP JUMPDEST PUSH1 0xE0 DUP5 ADD MSTORE PUSH2 0x1947 PUSH1 0x8 DUP3 ADD PUSH2 0x3EC6 JUMP JUMPDEST PUSH2 0x100 DUP5 ADD MSTORE PUSH2 0x1959 PUSH1 0x9 DUP3 ADD PUSH2 0x3F1B JUMP JUMPDEST PUSH2 0x120 DUP5 ADD MSTORE PUSH2 0x196B PUSH1 0xA DUP3 ADD PUSH2 0x3F1B JUMP JUMPDEST PUSH2 0x140 DUP5 ADD MSTORE PUSH2 0x1AD2 PUSH2 0x1980 PUSH1 0x8 DUP4 ADD PUSH2 0x3EC6 JUMP JUMPDEST SWAP2 PUSH2 0x1AC4 PUSH2 0x199C PUSH1 0xA PUSH2 0x1995 PUSH1 0x9 DUP6 ADD PUSH2 0x3F1B JUMP JUMPDEST SWAP4 ADD PUSH2 0x3F1B JUMP JUMPDEST SWAP4 PUSH1 0x40 MLOAD SWAP8 DUP9 SWAP8 PUSH1 0x80 DUP10 MSTORE PUSH2 0x140 PUSH2 0x1AA1 PUSH2 0x1A89 PUSH2 0x1A71 PUSH2 0x1A58 DUP14 PUSH2 0x1A41 PUSH2 0x1A2A PUSH2 0x1A01 PUSH2 0x19D8 DUP11 MLOAD PUSH2 0x160 PUSH1 0x80 DUP8 ADD MSTORE PUSH2 0x1E0 DUP7 ADD SWAP1 PUSH2 0x36E1 JUMP JUMPDEST PUSH1 0x20 DUP12 ADD MLOAD PUSH1 0x1 PUSH1 0x1 PUSH1 0xA0 SHL SUB AND PUSH1 0xA0 DUP7 ADD MSTORE PUSH1 0x40 DUP12 ADD MLOAD DUP6 DUP3 SUB PUSH1 0x7F NOT ADD PUSH1 0xC0 DUP8 ADD MSTORE PUSH2 0x36E1 JUMP JUMPDEST PUSH2 0x1A13 PUSH1 0x60 DUP12 ADD MLOAD PUSH1 0xE0 DUP7 ADD SWAP1 PUSH2 0x387A JUMP JUMPDEST PUSH1 0x80 DUP11 ADD MLOAD DUP5 DUP3 SUB PUSH1 0x7F NOT ADD PUSH2 0x100 DUP7 ADD MSTORE PUSH2 0x36E1 JUMP JUMPDEST PUSH1 0xA0 DUP10 ADD MLOAD DUP4 DUP3 SUB PUSH1 0x7F NOT ADD PUSH2 0x120 DUP6 ADD MSTORE PUSH2 0x36E1 JUMP JUMPDEST SWAP1 PUSH1 0xC0 DUP9 ADD MLOAD SWAP1 DUP8 PUSH1 0x7F NOT DUP3 DUP6 SUB ADD SWAP2 ADD MSTORE PUSH2 0x36E1 JUMP JUMPDEST DUP14 PUSH1 0xE0 DUP8 ADD MLOAD SWAP1 PUSH2 0x160 PUSH1 0x7F NOT DUP3 DUP6 SUB ADD SWAP2 ADD MSTORE PUSH2 0x36E1 JUMP JUMPDEST PUSH2 0x100 DUP6 ADD MLOAD DUP14 DUP3 SUB PUSH1 0x7F NOT ADD PUSH2 0x180 DUP16 ADD MSTORE PUSH2 0x37F5 JUMP JUMPDEST PUSH2 0x120 DUP5 ADD MLOAD DUP13 DUP3 SUB PUSH1 0x7F NOT ADD PUSH2 0x1A0 DUP15 ADD MSTORE PUSH2 0x3847 JUMP JUMPDEST SWAP2 ADD MLOAD DUP10 DUP3 SUB PUSH1 0x7F NOT ADD PUSH2 0x1C0 DUP12 ADD MSTORE PUSH2 0x3847 JUMP JUMPDEST SWAP1 DUP8 DUP3 SUB PUSH1 0x20 DUP10 ADD MSTORE PUSH2 0x37F5 JUMP JUMPDEST SWAP1 DUP6 DUP3 SUB PUSH1 0x40 DUP8 ADD MSTORE PUSH2 0x3847 JUMP JUMPDEST SWAP1 DUP4 DUP3 SUB PUSH1 0x60 DUP6 ADD MSTORE PUSH2 0x3847 JUMP JUMPDEST PUSH4 0x4E487B71 PUSH1 0xE0 SHL PUSH0 MSTORE PUSH1 0x21 PUSH1 0x4 MSTORE PUSH1 0x24 PUSH0 REVERT JUMPDEST CALLVALUE PUSH2 0x6F6 JUMPI PUSH1 0x20 DUP1 PUSH1 0x3 NOT CALLDATASIZE ADD SLT PUSH2 0x6F6 JUMPI PUSH2 0x1B0E PUSH2 0x3515 JUMP JUMPDEST PUSH2 0x738 PUSH1 0xE0 PUSH1 0x40 MLOAD PUSH2 0x1B1F DUP2 PUSH2 0x35CC JUMP JUMPDEST PUSH0 DUP2 MSTORE PUSH1 0x60 SWAP2 DUP2 DUP4 DUP8 DUP2 SWAP5 ADD MSTORE PUSH0 PUSH1 0x40 DUP3 ADD MSTORE PUSH0 DUP4 DUP3 ADD MSTORE PUSH0 PUSH1 0x80 DUP3 ADD MSTORE DUP3 PUSH1 0xA0 DUP3 ADD MSTORE DUP3 PUSH1 0xC0 DUP3 ADD MSTORE ADD MSTORE PUSH1 0x1 DUP1 PUSH1 0xA0 SHL SUB DUP1 SWAP4 AND PUSH0 MSTORE PUSH1 0x2 DUP5 MSTORE PUSH1 0x40 PUSH0 KECCAK256 SWAP1 PUSH1 0x40 MLOAD PUSH2 0x1B6C DUP2 PUSH2 0x35CC JUMP JUMPDEST DUP5 DUP4 SLOAD AND DUP2 MSTORE PUSH2 0x1C4C PUSH2 0x1B81 PUSH1 0x1 DUP6 ADD PUSH2 0x3640 JUMP JUMPDEST SWAP4 DUP8 DUP4 ADD SWAP5 DUP6 MSTORE PUSH2 0x1C3B PUSH1 0x2 DUP3 ADD SLOAD SWAP5 PUSH1 0x40 DUP6 ADD SWAP6 DUP7 MSTORE PUSH1 0x3 DUP4 ADD SLOAD DUP2 DUP7 ADD SWAP1 DUP2 MSTORE PUSH1 0x4 DUP5 ADD SLOAD SWAP1 PUSH1 0x80 DUP8 ADD SWAP2 DUP3 MSTORE PUSH2 0x1BBC PUSH1 0x5 DUP7 ADD PUSH2 0x3F1B JUMP JUMPDEST SWAP3 PUSH1 0xA0 DUP9 ADD SWAP4 DUP5 MSTORE PUSH2 0x1C14 PUSH2 0x1BE6 PUSH1 0x7 PUSH2 0x1BD8 PUSH1 0x6 DUP11 ADD PUSH2 0x3F1B JUMP JUMPDEST SWAP9 PUSH1 0xC0 DUP13 ADD SWAP10 DUP11 MSTORE ADD PUSH2 0x3F1B JUMP JUMPDEST SWAP11 PUSH1 0xE0 DUP11 ADD SWAP12 DUP13 MSTORE PUSH1 0x40 MLOAD SWAP15 DUP16 SWAP15 DUP16 SWAP12 DUP3 DUP14 MSTORE MLOAD AND SWAP1 DUP12 ADD MSTORE MLOAD PUSH2 0x120 PUSH2 0x100 SWAP11 DUP12 PUSH1 0x40 DUP3 ADD MSTORE ADD SWAP1 PUSH2 0x36E1 JUMP JUMPDEST SWAP9 MLOAD SWAP1 DUP13 ADD MSTORE MLOAD PUSH1 0x80 DUP12 ADD MSTORE MLOAD PUSH1 0xA0 DUP11 ADD MSTORE MLOAD SWAP5 PUSH1 0x1F NOT SWAP6 DUP7 DUP11 DUP4 SUB ADD PUSH1 0xC0 DUP12 ADD MSTORE PUSH2 0x3847 JUMP JUMPDEST SWAP1 MLOAD DUP5 DUP9 DUP4 SUB ADD PUSH1 0xE0 DUP10 ADD MSTORE PUSH2 0x3847 JUMP JUMPDEST SWAP3 MLOAD SWAP2 DUP6 DUP5 SUB ADD SWAP1 DUP6 ADD MSTORE PUSH2 0x3847 JUMP JUMPDEST CALLVALUE PUSH2 0x6F6 JUMPI PUSH1 0x20 CALLDATASIZE PUSH1 0x3 NOT ADD SLT PUSH2 0x6F6 JUMPI PUSH1 0x60 PUSH2 0x180 PUSH1 0x40 MLOAD PUSH2 0x1C7E DUP2 PUSH2 0x35B0 JUMP JUMPDEST PUSH0 DUP2 MSTORE PUSH0 PUSH1 0x20 DUP3 ADD MSTORE DUP3 PUSH1 0x40 DUP3 ADD MSTORE PUSH0 DUP4 DUP3 ADD MSTORE PUSH0 PUSH1 0x80 DUP3 ADD MSTORE DUP3 PUSH1 0xA0 DUP3 ADD MSTORE DUP3 PUSH1 0xC0 DUP3 ADD MSTORE PUSH0 PUSH1 0xE0 DUP3 ADD MSTORE PUSH0 PUSH2 0x100 DUP3 ADD MSTORE PUSH0 PUSH2 0x120 DUP3 ADD MSTORE PUSH0 PUSH2 0x140 DUP3 ADD MSTORE DUP3 PUSH2 0x160 DUP3 ADD MSTORE ADD MSTORE PUSH1 0x4 CALLDATALOAD PUSH0 MSTORE PUSH1 0x1 PUSH1 0x20 MSTORE PUSH2 0x1E99 PUSH1 0x40 PUSH0 KECCAK256 PUSH2 0x738 PUSH1 0x40 MLOAD SWAP2 PUSH2 0x1CE9 DUP4 PUSH2 0x35B0 JUMP JUMPDEST DUP1 SLOAD DUP4 MSTORE PUSH1 0x1 DUP2 ADD SLOAD PUSH1 0x1 PUSH1 0x1 PUSH1 0xA0 SHL SUB AND PUSH1 0x20 DUP5 ADD MSTORE PUSH2 0x1D0C PUSH1 0x2 DUP3 ADD PUSH2 0x3640 JUMP JUMPDEST PUSH1 0x40 DUP5 ADD MSTORE PUSH1 0x3 DUP2 ADD SLOAD PUSH1 0x60 DUP5 ADD MSTORE PUSH1 0x4 DUP2 ADD SLOAD PUSH1 0x80 DUP5 ADD MSTORE PUSH2 0x1D31 PUSH1 0x5 DUP3 ADD PUSH2 0x3640 JUMP JUMPDEST PUSH1 0xA0 DUP5 ADD MSTORE PUSH2 0x1D42 PUSH1 0x6 DUP3 ADD PUSH2 0x3640 JUMP JUMPDEST PUSH1 0xC0 DUP5 ADD MSTORE PUSH1 0x7 DUP2 ADD SLOAD PUSH1 0xE0 DUP5 ADD MSTORE PUSH1 0x8 DUP2 ADD SLOAD PUSH2 0x100 DUP5 ADD MSTORE PUSH1 0x9 DUP2 ADD SLOAD PUSH2 0x120 DUP5 ADD MSTORE PUSH1 0xA DUP2 ADD SLOAD PUSH2 0x140 DUP5 ADD MSTORE PUSH2 0x1D7E PUSH1 0xB DUP3 ADD PUSH2 0x3F1B JUMP JUMPDEST PUSH2 0x160 DUP5 ADD MSTORE PUSH2 0x1D90 PUSH1 0xC DUP3 ADD PUSH2 0x3EC6 JUMP JUMPDEST PUSH2 0x180 DUP5 ADD MSTORE PUSH2 0x1EA7 PUSH2 0x1DB1 PUSH1 0xC PUSH2 0x1DAA PUSH1 0xB DUP6 ADD PUSH2 0x3F1B JUMP JUMPDEST SWAP4 ADD PUSH2 0x3EC6 JUMP JUMPDEST SWAP2 PUSH1 0x40 MLOAD SWAP6 DUP7 SWAP6 PUSH1 0x60 DUP8 MSTORE DUP1 MLOAD PUSH1 0x60 DUP9 ADD MSTORE PUSH1 0x1 DUP1 PUSH1 0xA0 SHL SUB PUSH1 0x20 DUP3 ADD MLOAD AND PUSH1 0x80 DUP9 ADD MSTORE PUSH2 0x180 PUSH2 0x1E84 PUSH2 0x1E3F PUSH2 0x1E28 PUSH2 0x1DFD DUP12 PUSH2 0x1A0 PUSH1 0xA0 PUSH1 0x40 DUP10 ADD MLOAD SWAP3 ADD MSTORE PUSH2 0x200 DUP14 ADD SWAP1 PUSH2 0x36E1 JUMP JUMPDEST PUSH1 0x60 DUP7 ADD MLOAD PUSH1 0xC0 DUP14 ADD MSTORE PUSH1 0x80 DUP7 ADD MLOAD PUSH1 0xE0 DUP14 ADD MSTORE PUSH1 0xA0 DUP7 ADD MLOAD DUP13 DUP3 SUB PUSH1 0x5F NOT ADD PUSH2 0x100 DUP15 ADD MSTORE PUSH2 0x36E1 JUMP JUMPDEST PUSH1 0xC0 DUP6 ADD MLOAD DUP12 DUP3 SUB PUSH1 0x5F NOT ADD PUSH2 0x120 DUP14 ADD MSTORE PUSH2 0x36E1 JUMP JUMPDEST PUSH1 0xE0 DUP5 ADD MLOAD PUSH2 0x140 DUP12 ADD MSTORE PUSH2 0x100 DUP5 ADD MLOAD PUSH2 0x160 DUP12 ADD MSTORE PUSH2 0x120 DUP5 ADD MLOAD DUP4 DUP12 ADD MSTORE PUSH2 0x140 DUP5 ADD MLOAD PUSH2 0x1A0 DUP12 ADD MSTORE PUSH2 0x160 DUP5 ADD MLOAD PUSH1 0x5F NOT DUP12 DUP4 SUB ADD PUSH2 0x1C0 DUP13 ADD MSTORE PUSH2 0x3847 JUMP JUMPDEST SWAP2 ADD MLOAD DUP8 DUP3 SUB PUSH1 0x5F NOT ADD PUSH2 0x1E0 DUP10 ADD MSTORE PUSH2 0x37F5 JUMP JUMPDEST SWAP1 DUP6 DUP3 SUB PUSH1 0x20 DUP8 ADD MSTORE PUSH2 0x3847 JUMP JUMPDEST SWAP1 DUP4 DUP3 SUB PUSH1 0x40 DUP6 ADD MSTORE PUSH2 0x37F5 JUMP JUMPDEST CALLVALUE PUSH2 0x6F6 JUMPI PUSH1 0x40 CALLDATASIZE PUSH1 0x3 NOT ADD SLT PUSH2 0x6F6 JUMPI PUSH2 0x1ECE PUSH2 0x352B JUMP JUMPDEST PUSH0 PUSH1 0x40 DUP1 MLOAD PUSH2 0x1EDC DUP2 PUSH2 0x3595 JUMP JUMPDEST DUP3 DUP2 MSTORE DUP3 PUSH1 0x20 DUP3 ADD MSTORE ADD MSTORE PUSH1 0x4 CALLDATALOAD PUSH0 MSTORE PUSH1 0x9 PUSH1 0x20 MSTORE PUSH1 0x40 PUSH0 KECCAK256 SWAP1 PUSH1 0x1 DUP1 PUSH1 0xA0 SHL SUB AND PUSH0 MSTORE PUSH1 0x20 MSTORE PUSH1 0x60 PUSH1 0x40 PUSH0 KECCAK256 PUSH1 0x40 MLOAD PUSH2 0x1F15 DUP2 PUSH2 0x3595 JUMP JUMPDEST DUP2 SLOAD SWAP2 DUP3 DUP3 MSTORE PUSH1 0x40 PUSH1 0x2 PUSH1 0x1 DUP4 ADD SLOAD SWAP3 PUSH1 0x20 DUP6 ADD SWAP4 DUP5 MSTORE ADD SLOAD SWAP3 ADD SWAP2 DUP3 MSTORE PUSH1 0x40 MLOAD SWAP3 DUP4 MSTORE MLOAD PUSH1 0x20 DUP4 ADD MSTORE MLOAD PUSH1 0x40 DUP3 ADD MSTORE RETURN JUMPDEST CALLVALUE PUSH2 0x6F6 JUMPI PUSH2 0x1F55 CALLDATASIZE PUSH2 0x3831 JUMP JUMPDEST SWAP1 PUSH0 MSTORE PUSH1 0x5 PUSH1 0x20 MSTORE PUSH1 0x40 PUSH0 KECCAK256 SWAP1 PUSH0 MSTORE PUSH1 0x20 MSTORE PUSH1 0x20 PUSH1 0xFF PUSH1 0x40 PUSH0 KECCAK256 SLOAD AND PUSH1 0x40 MLOAD SWAP1 ISZERO ISZERO DUP2 MSTORE RETURN JUMPDEST CALLVALUE PUSH2 0x6F6 JUMPI PUSH1 0x20 CALLDATASIZE PUSH1 0x3 NOT ADD SLT PUSH2 0x6F6 JUMPI PUSH0 PUSH2 0x200 PUSH1 0x40 MLOAD PUSH2 0x1F9C DUP2 PUSH2 0x3579 JUMP JUMPDEST DUP3 DUP2 MSTORE DUP3 PUSH1 0x20 DUP3 ADD MSTORE PUSH1 0x60 PUSH1 0x40 DUP3 ADD MSTORE DUP3 PUSH1 0x60 DUP3 ADD MSTORE DUP3 PUSH1 0x80 DUP3 ADD MSTORE PUSH1 0x60 PUSH1 0xA0 DUP3 ADD MSTORE PUSH1 0x60 PUSH1 0xC0 DUP3 ADD MSTORE DUP3 PUSH1 0xE0 DUP3 ADD MSTORE DUP3 PUSH2 0x100 DUP3 ADD MSTORE DUP3 PUSH2 0x120 DUP3 ADD MSTORE DUP3 PUSH2 0x140 DUP3 ADD MSTORE DUP3 PUSH2 0x160 DUP3 ADD MSTORE PUSH1 0x60 PUSH2 0x180 DUP3 ADD MSTORE DUP3 PUSH2 0x1A0 DUP3 ADD MSTORE DUP3 PUSH2 0x1C0 DUP3 ADD MSTORE PUSH1 0x60 PUSH2 0x1E0 DUP3 ADD MSTORE ADD MSTORE PUSH1 0x4 CALLDATALOAD PUSH0 MSTORE PUSH0 PUSH1 0x20 MSTORE PUSH1 0x40 PUSH0 KECCAK256 PUSH2 0x210D PUSH1 0xE PUSH1 0x40 MLOAD SWAP3 PUSH2 0x2027 DUP5 PUSH2 0x3579 JUMP JUMPDEST DUP1 SLOAD DUP5 MSTORE PUSH1 0x1 DUP2 ADD SLOAD PUSH1 0x1 PUSH1 0x1 PUSH1 0xA0 SHL SUB AND PUSH1 0x20 DUP6 ADD MSTORE PUSH2 0x204A PUSH1 0x2 DUP3 ADD PUSH2 0x3640 JUMP JUMPDEST PUSH1 0x40 DUP6 ADD MSTORE PUSH1 0x3 DUP2 ADD SLOAD PUSH1 0x60 DUP6 ADD MSTORE PUSH1 0x4 DUP2 ADD SLOAD PUSH1 0x80 DUP6 ADD MSTORE PUSH2 0x206F PUSH1 0x5 DUP3 ADD PUSH2 0x3640 JUMP JUMPDEST PUSH1 0xA0 DUP6 ADD MSTORE PUSH2 0x2080 PUSH1 0x6 DUP3 ADD PUSH2 0x3640 JUMP JUMPDEST PUSH1 0xC0 DUP6 ADD MSTORE PUSH1 0x7 DUP2 ADD SLOAD PUSH1 0xE0 DUP6 ADD MSTORE PUSH1 0x8 DUP2 ADD SLOAD PUSH2 0x100 DUP6 ADD MSTORE PUSH1 0x9 DUP2 ADD SLOAD PUSH2 0x120 DUP6 ADD MSTORE PUSH1 0xA DUP2 ADD SLOAD PUSH2 0x140 DUP6 ADD MSTORE PUSH1 0xB DUP2 ADD SLOAD PUSH2 0x160 DUP6 ADD MSTORE PUSH2 0x20C7 PUSH1 0xC DUP3 ADD PUSH2 0x3640 JUMP JUMPDEST PUSH2 0x180 DUP6 ADD MSTORE PUSH1 0xFF PUSH1 0xD DUP3 ADD SLOAD DUP2 DUP2 AND ISZERO ISZERO PUSH2 0x1A0 DUP8 ADD MSTORE PUSH1 0x8 SHR AND ISZERO ISZERO PUSH2 0x1C0 DUP6 ADD MSTORE PUSH2 0x20F6 DUP3 DUP3 ADD PUSH2 0x3EC6 JUMP JUMPDEST PUSH2 0x1E0 DUP6 ADD MSTORE PUSH1 0xF DUP2 ADD SLOAD PUSH2 0x200 DUP6 ADD MSTORE ADD PUSH2 0x3EC6 JUMP JUMPDEST PUSH2 0x738 PUSH1 0x40 MLOAD SWAP3 DUP4 SWAP3 PUSH1 0x40 DUP5 MSTORE DUP2 MLOAD PUSH1 0x40 DUP6 ADD MSTORE PUSH1 0x1 DUP1 PUSH1 0xA0 SHL SUB PUSH1 0x20 DUP4 ADD MLOAD AND PUSH1 0x60 DUP6 ADD MSTORE PUSH2 0x200 PUSH2 0x2223 PUSH2 0x21F1 PUSH2 0x219E PUSH2 0x2187 PUSH2 0x215D PUSH1 0x40 DUP9 ADD MLOAD PUSH2 0x220 PUSH1 0x80 DUP13 ADD MSTORE PUSH2 0x260 DUP12 ADD SWAP1 PUSH2 0x36E1 JUMP JUMPDEST PUSH1 0x60 DUP9 ADD MLOAD PUSH1 0xA0 DUP12 ADD MSTORE PUSH1 0x80 DUP9 ADD MLOAD PUSH1 0xC0 DUP12 ADD MSTORE PUSH1 0xA0 DUP9 ADD MLOAD PUSH1 0x3F NOT DUP12 DUP4 SUB ADD PUSH1 0xE0 DUP13 ADD MSTORE PUSH2 0x36E1 JUMP JUMPDEST PUSH1 0xC0 DUP8 ADD MLOAD DUP10 DUP3 SUB PUSH1 0x3F NOT ADD PUSH2 0x100 DUP12 ADD MSTORE PUSH2 0x36E1 JUMP JUMPDEST PUSH1 0xE0 DUP7 ADD MLOAD PUSH2 0x120 DUP10 ADD MSTORE PUSH2 0x100 DUP7 ADD MLOAD PUSH2 0x140 DUP10 ADD MSTORE PUSH2 0x120 DUP7 ADD MLOAD PUSH2 0x160 DUP10 ADD MSTORE PUSH2 0x140 DUP7 ADD MLOAD PUSH2 0x180 DUP10 ADD MSTORE PUSH2 0x160 DUP7 ADD MLOAD PUSH2 0x1A0 DUP10 ADD MSTORE PUSH2 0x180 DUP7 ADD MLOAD PUSH1 0x3F NOT DUP10 DUP4 SUB ADD PUSH2 0x1C0 DUP11 ADD MSTORE PUSH2 0x36E1 JUMP JUMPDEST PUSH2 0x1A0 DUP6 ADD MLOAD ISZERO ISZERO PUSH2 0x1E0 DUP9 ADD MSTORE PUSH2 0x1C0 DUP6 ADD MLOAD ISZERO ISZERO DUP4 DUP9 ADD MSTORE PUSH2 0x1E0 DUP6 ADD MLOAD PUSH1 0x3F NOT DUP9 DUP4 SUB ADD PUSH2 0x220 DUP10 ADD MSTORE PUSH2 0x37F5 JUMP JUMPDEST SWAP3 ADD MLOAD PUSH2 0x240 DUP6 ADD MSTORE DUP4 DUP3 SUB PUSH1 0x20 DUP6 ADD MSTORE PUSH2 0x37F5 JUMP JUMPDEST CALLVALUE PUSH2 0x6F6 JUMPI PUSH2 0x120 CALLDATASIZE PUSH1 0x3 NOT ADD SLT PUSH2 0x6F6 JUMPI PUSH1 0x4 CALLDATALOAD PUSH1 0x1 PUSH1 0x1 PUSH1 0x40 SHL SUB DUP2 GT PUSH2 0x6F6 JUMPI PUSH2 0x226A SWAP1 CALLDATASIZE SWAP1 PUSH1 0x4 ADD PUSH2 0x373A JUMP JUMPDEST PUSH1 0x24 CALLDATALOAD PUSH1 0x1 PUSH1 0x1 PUSH1 0x40 SHL SUB DUP2 GT PUSH2 0x6F6 JUMPI PUSH2 0x2289 SWAP1 CALLDATASIZE SWAP1 PUSH1 0x4 ADD PUSH2 0x373A JUMP JUMPDEST SWAP1 PUSH1 0xD PUSH1 0x44 CALLDATALOAD LT ISZERO PUSH2 0x6F6 JUMPI PUSH1 0x64 CALLDATALOAD PUSH1 0x1 PUSH1 0x1 PUSH1 0x40 SHL SUB DUP2 GT PUSH2 0x6F6 JUMPI PUSH2 0x22B4 SWAP1 CALLDATASIZE SWAP1 PUSH1 0x4 ADD PUSH2 0x373A JUMP JUMPDEST SWAP2 PUSH1 0x84 CALLDATALOAD PUSH1 0x1 PUSH1 0x1 PUSH1 0x40 SHL SUB DUP2 GT PUSH2 0x6F6 JUMPI PUSH2 0x22D4 SWAP1 CALLDATASIZE SWAP1 PUSH1 0x4 ADD PUSH2 0x373A JUMP JUMPDEST SWAP3 PUSH1 0xA4 CALLDATALOAD PUSH1 0x1 PUSH1 0x1 PUSH1 0x40 SHL SUB DUP2 GT PUSH2 0x6F6 JUMPI PUSH2 0x22F4 SWAP1 CALLDATASIZE SWAP1 PUSH1 0x4 ADD PUSH2 0x373A JUMP JUMPDEST PUSH1 0xC4 CALLDATALOAD PUSH1 0x1 PUSH1 0x1 PUSH1 0x40 SHL SUB DUP2 GT PUSH2 0x6F6 JUMPI PUSH2 0x2313 SWAP1 CALLDATASIZE SWAP1 PUSH1 0x4 ADD PUSH2 0x373A JUMP JUMPDEST SWAP5 PUSH1 0xE4 CALLDATALOAD PUSH1 0x1 PUSH1 0x1 PUSH1 0x40 SHL SUB DUP2 GT PUSH2 0x6F6 JUMPI PUSH2 0x2333 SWAP1 CALLDATASIZE SWAP1 PUSH1 0x4 ADD PUSH2 0x3797 JUMP JUMPDEST SWAP3 PUSH2 0x104 CALLDATALOAD PUSH1 0x1 PUSH1 0x1 PUSH1 0x40 SHL SUB DUP2 GT PUSH2 0x6F6 JUMPI PUSH2 0x2354 SWAP1 CALLDATASIZE SWAP1 PUSH1 0x4 ADD PUSH2 0x3797 JUMP JUMPDEST SWAP5 PUSH2 0x2360 PUSH1 0xC SLOAD PUSH2 0x3ADB JUMP JUMPDEST DUP1 PUSH1 0xC SSTORE PUSH0 MSTORE PUSH1 0x3 PUSH1 0x20 MSTORE PUSH1 0x40 PUSH0 KECCAK256 SWAP7 DUP1 MLOAD SWAP1 PUSH1 0x1 PUSH1 0x1 PUSH1 0x40 SHL SUB DUP3 GT PUSH2 0x52A JUMPI DUP2 SWAP1 PUSH2 0x2397 DUP3 PUSH2 0x2391 DUP13 SLOAD PUSH2 0x3541 JUMP JUMPDEST DUP13 PUSH2 0x3B25 JUMP JUMPDEST PUSH1 0x20 SWAP1 PUSH1 0x1F DUP4 GT PUSH1 0x1 EQ PUSH2 0x2990 JUMPI PUSH0 SWAP3 PUSH2 0x2985 JUMPI JUMPDEST POP POP DUP2 PUSH1 0x1 SHL SWAP2 PUSH0 NOT SWAP1 PUSH1 0x3 SHL SHR NOT AND OR DUP8 SSTORE JUMPDEST PUSH1 0x1 DUP8 ADD DUP1 SLOAD PUSH1 0x1 PUSH1 0x1 PUSH1 0xA0 SHL SUB NOT AND CALLER OR SWAP1 SSTORE DUP1 MLOAD SWAP1 PUSH1 0x1 PUSH1 0x1 PUSH1 0x40 SHL SUB DUP3 GT PUSH2 0x52A JUMPI DUP2 SWAP1 PUSH2 0x2401 DUP3 PUSH2 0x23F8 PUSH1 0x2 DUP13 ADD SLOAD PUSH2 0x3541 JUMP JUMPDEST PUSH1 0x2 DUP13 ADD PUSH2 0x3B25 JUMP JUMPDEST PUSH1 0x20 SWAP1 PUSH1 0x1F DUP4 GT PUSH1 0x1 EQ PUSH2 0x2917 JUMPI PUSH0 SWAP3 PUSH2 0x290C JUMPI JUMPDEST POP POP DUP2 PUSH1 0x1 SHL SWAP2 PUSH0 NOT SWAP1 PUSH1 0x3 SHL SHR NOT AND OR PUSH1 0x2 DUP8 ADD SSTORE JUMPDEST PUSH1 0xFF NOT PUSH1 0x3 DUP8 ADD SLOAD AND PUSH1 0xFF PUSH1 0x44 CALLDATALOAD AND OR PUSH1 0x3 DUP8 ADD SSTORE DUP1 MLOAD SWAP1 PUSH1 0x1 PUSH1 0x1 PUSH1 0x40 SHL SUB DUP3 GT PUSH2 0x52A JUMPI DUP2 SWAP1 PUSH2 0x246F DUP3 PUSH2 0x2466 PUSH1 0x4 DUP12 ADD SLOAD PUSH2 0x3541 JUMP JUMPDEST PUSH1 0x4 DUP12 ADD PUSH2 0x3B25 JUMP JUMPDEST PUSH1 0x20 SWAP1 PUSH1 0x1F DUP4 GT PUSH1 0x1 EQ PUSH2 0x289E JUMPI PUSH0 SWAP3 PUSH2 0x2893 JUMPI JUMPDEST POP POP DUP2 PUSH1 0x1 SHL SWAP2 PUSH0 NOT SWAP1 PUSH1 0x3 SHL SHR NOT AND OR PUSH1 0x4 DUP7 ADD SSTORE JUMPDEST DUP1 MLOAD SWAP1 PUSH1 0x1 PUSH1 0x1 PUSH1 0x40 SHL SUB DUP3 GT PUSH2 0x52A JUMPI DUP2 SWAP1 PUSH2 0x24C8 DUP3 PUSH2 0x24BF PUSH1 0x5 DUP11 ADD SLOAD PUSH2 0x3541 JUMP JUMPDEST PUSH1 0x5 DUP11 ADD PUSH2 0x3B25 JUMP JUMPDEST PUSH1 0x20 SWAP1 PUSH1 0x1F DUP4 GT PUSH1 0x1 EQ PUSH2 0x2825 JUMPI PUSH0 SWAP3 PUSH2 0x281A JUMPI JUMPDEST POP POP DUP2 PUSH1 0x1 SHL SWAP2 PUSH0 NOT SWAP1 PUSH1 0x3 SHL SHR NOT AND OR PUSH1 0x5 DUP6 ADD SSTORE JUMPDEST DUP1 MLOAD SWAP1 PUSH1 0x1 PUSH1 0x1 PUSH1 0x40 SHL SUB DUP3 GT PUSH2 0x52A JUMPI DUP2 SWAP1 PUSH2 0x2521 DUP3 PUSH2 0x2518 PUSH1 0x6 DUP10 ADD SLOAD PUSH2 0x3541 JUMP JUMPDEST PUSH1 0x6 DUP10 ADD PUSH2 0x3B25 JUMP JUMPDEST PUSH1 0x20 SWAP1 PUSH1 0x1F DUP4 GT PUSH1 0x1 EQ PUSH2 0x27AC JUMPI PUSH0 SWAP3 PUSH2 0x27A1 JUMPI JUMPDEST POP POP DUP2 PUSH1 0x1 SHL SWAP2 PUSH0 NOT SWAP1 PUSH1 0x3 SHL SHR NOT AND OR PUSH1 0x6 DUP5 ADD SSTORE JUMPDEST DUP4 MLOAD PUSH1 0x1 PUSH1 0x1 PUSH1 0x40 SHL SUB DUP2 GT PUSH2 0x52A JUMPI PUSH2 0x2577 DUP2 PUSH2 0x256E PUSH1 0x7 DUP8 ADD SLOAD PUSH2 0x3541 JUMP JUMPDEST PUSH1 0x7 DUP8 ADD PUSH2 0x3B25 JUMP JUMPDEST PUSH1 0x20 PUSH1 0x1F DUP3 GT PUSH1 0x1 EQ PUSH2 0x2733 JUMPI DUP2 SWAP3 SWAP4 SWAP5 SWAP6 PUSH0 SWAP3 PUSH2 0x2728 JUMPI JUMPDEST POP POP DUP2 PUSH1 0x1 SHL SWAP2 PUSH0 NOT SWAP1 PUSH1 0x3 SHL SHR NOT AND OR PUSH1 0x7 DUP5 ADD SSTORE SWAP2 SWAP1 SWAP2 JUMPDEST PUSH1 0x9 DUP3 ADD SWAP3 PUSH0 JUMPDEST DUP3 MLOAD DUP2 LT ISZERO PUSH2 0x2675 JUMPI PUSH2 0x25C4 DUP2 DUP5 PUSH2 0x3B68 JUMP JUMPDEST MLOAD PUSH0 MSTORE PUSH0 PUSH1 0x20 MSTORE CALLER PUSH1 0x1 DUP1 PUSH1 0xA0 SHL SUB PUSH1 0x1 PUSH1 0x40 PUSH0 KECCAK256 ADD SLOAD AND SUB PUSH2 0x2630 JUMPI DUP1 PUSH2 0x25F9 PUSH2 0x25F2 PUSH2 0x262B SWAP4 DUP7 PUSH2 0x3B68 JUMP JUMPDEST MLOAD DUP8 PUSH2 0x3BA5 JUMP JUMPDEST PUSH1 0xC SLOAD PUSH0 MSTORE PUSH1 0x4 PUSH1 0x20 MSTORE PUSH1 0x40 PUSH0 KECCAK256 PUSH2 0x2611 DUP3 DUP7 PUSH2 0x3B68 JUMP JUMPDEST MLOAD PUSH0 MSTORE PUSH1 0x20 MSTORE PUSH1 0x40 PUSH0 KECCAK256 PUSH1 0x1 PUSH1 0xFF NOT DUP3 SLOAD AND OR SWAP1 SSTORE PUSH2 0x3ADB JUMP JUMPDEST PUSH2 0x25B1 JUMP JUMPDEST PUSH1 0x40 MLOAD PUSH3 0x461BCD PUSH1 0xE5 SHL DUP2 MSTORE PUSH1 0x20 PUSH1 0x4 DUP3 ADD MSTORE PUSH1 0x1C PUSH1 0x24 DUP3 ADD MSTORE PUSH32 0x43616E20616464206F6E6C79206F776E65642063616D706169676E7300000000 PUSH1 0x44 DUP3 ADD MSTORE PUSH1 0x64 SWAP1 REVERT JUMPDEST POP PUSH1 0xA DUP4 ADD SWAP1 PUSH0 JUMPDEST DUP2 MLOAD DUP2 LT ISZERO PUSH2 0x22 JUMPI PUSH2 0x2690 DUP2 DUP4 PUSH2 0x3B68 JUMP JUMPDEST MLOAD PUSH0 MSTORE PUSH1 0x1 PUSH1 0x20 MSTORE CALLER PUSH1 0x1 DUP1 PUSH1 0xA0 SHL SUB PUSH1 0x1 PUSH1 0x40 PUSH0 KECCAK256 ADD SLOAD AND SUB PUSH2 0x26E3 JUMPI DUP1 PUSH2 0x26C6 PUSH2 0x26BF PUSH2 0x26DE SWAP4 DUP6 PUSH2 0x3B68 JUMP JUMPDEST MLOAD DUP6 PUSH2 0x3BA5 JUMP JUMPDEST PUSH1 0xC SLOAD PUSH0 MSTORE PUSH1 0x5 PUSH1 0x20 MSTORE PUSH1 0x40 PUSH0 KECCAK256 PUSH2 0x2611 DUP3 DUP6 PUSH2 0x3B68 JUMP JUMPDEST PUSH2 0x267D JUMP JUMPDEST PUSH1 0x40 MLOAD PUSH3 0x461BCD PUSH1 0xE5 SHL DUP2 MSTORE PUSH1 0x20 PUSH1 0x4 DUP3 ADD MSTORE PUSH1 0x19 PUSH1 0x24 DUP3 ADD MSTORE PUSH32 0x43616E20616464206F6E6C79206F776E6564206576656E747300000000000000 PUSH1 0x44 DUP3 ADD MSTORE PUSH1 0x64 SWAP1 REVERT JUMPDEST ADD MLOAD SWAP1 POP DUP6 DUP1 PUSH2 0x2590 JUMP JUMPDEST PUSH1 0x7 DUP6 ADD PUSH0 MSTORE PUSH1 0x20 PUSH0 KECCAK256 SWAP1 PUSH0 JUMPDEST PUSH1 0x1F NOT DUP5 AND DUP2 LT PUSH2 0x2789 JUMPI POP PUSH1 0x1 SWAP4 SWAP5 SWAP6 SWAP7 DUP4 PUSH1 0x1F NOT DUP2 AND LT PUSH2 0x2771 JUMPI JUMPDEST POP POP POP DUP2 SHL ADD PUSH1 0x7 DUP5 ADD SSTORE SWAP2 SWAP1 SWAP2 PUSH2 0x25AA JUMP JUMPDEST ADD MLOAD PUSH0 NOT PUSH1 0xF8 DUP5 PUSH1 0x3 SHL AND SHR NOT AND SWAP1 SSTORE DUP6 DUP1 DUP1 PUSH2 0x275E JUMP JUMPDEST SWAP1 SWAP2 PUSH1 0x20 PUSH1 0x1 DUP2 SWAP3 DUP6 DUP12 ADD MLOAD DUP2 SSTORE ADD SWAP4 ADD SWAP2 ADD PUSH2 0x2740 JUMP JUMPDEST ADD MLOAD SWAP1 POP DUP7 DUP1 PUSH2 0x2536 JUMP JUMPDEST SWAP3 POP PUSH1 0x6 DUP7 ADD PUSH0 MSTORE PUSH1 0x20 PUSH0 KECCAK256 SWAP1 PUSH0 SWAP4 JUMPDEST PUSH1 0x1F NOT DUP5 AND DUP6 LT PUSH2 0x27FF JUMPI PUSH1 0x1 SWAP5 POP DUP4 PUSH1 0x1F NOT DUP2 AND LT PUSH2 0x27E7 JUMPI JUMPDEST POP POP POP DUP2 SHL ADD PUSH1 0x6 DUP5 ADD SSTORE PUSH2 0x254D JUMP JUMPDEST ADD MLOAD PUSH0 NOT PUSH1 0xF8 DUP5 PUSH1 0x3 SHL AND SHR NOT AND SWAP1 SSTORE DUP7 DUP1 DUP1 PUSH2 0x27D7 JUMP JUMPDEST DUP2 DUP2 ADD MLOAD DUP4 SSTORE PUSH1 0x20 SWAP5 DUP6 ADD SWAP5 PUSH1 0x1 SWAP1 SWAP4 ADD SWAP3 SWAP1 SWAP2 ADD SWAP1 PUSH2 0x27BC JUMP JUMPDEST ADD MLOAD SWAP1 POP DUP8 DUP1 PUSH2 0x24DD JUMP JUMPDEST SWAP3 POP PUSH1 0x5 DUP8 ADD PUSH0 MSTORE PUSH1 0x20 PUSH0 KECCAK256 SWAP1 PUSH0 SWAP4 JUMPDEST PUSH1 0x1F NOT DUP5 AND DUP6 LT PUSH2 0x2878 JUMPI PUSH1 0x1 SWAP5 POP DUP4 PUSH1 0x1F NOT DUP2 AND LT PUSH2 0x2860 JUMPI JUMPDEST POP POP POP DUP2 SHL ADD PUSH1 0x5 DUP6 ADD SSTORE PUSH2 0x24F4 JUMP JUMPDEST ADD MLOAD PUSH0 NOT PUSH1 0xF8 DUP5 PUSH1 0x3 SHL AND SHR NOT AND SWAP1 SSTORE DUP8 DUP1 DUP1 PUSH2 0x2850 JUMP JUMPDEST DUP2 DUP2 ADD MLOAD DUP4 SSTORE PUSH1 0x20 SWAP5 DUP6 ADD SWAP5 PUSH1 0x1 SWAP1 SWAP4 ADD SWAP3 SWAP1 SWAP2 ADD SWAP1 PUSH2 0x2835 JUMP JUMPDEST ADD MLOAD SWAP1 POP DUP9 DUP1 PUSH2 0x2484 JUMP JUMPDEST SWAP3 POP PUSH1 0x4 DUP9 ADD PUSH0 MSTORE PUSH1 0x20 PUSH0 KECCAK256 SWAP1 PUSH0 SWAP4 JUMPDEST PUSH1 0x1F NOT DUP5 AND DUP6 LT PUSH2 0x28F1 JUMPI PUSH1 0x1 SWAP5 POP DUP4 PUSH1 0x1F NOT DUP2 AND LT PUSH2 0x28D9 JUMPI JUMPDEST POP POP POP DUP2 SHL ADD PUSH1 0x4 DUP7 ADD SSTORE PUSH2 0x249B JUMP JUMPDEST ADD MLOAD PUSH0 NOT PUSH1 0xF8 DUP5 PUSH1 0x3 SHL AND SHR NOT AND SWAP1 SSTORE DUP9 DUP1 DUP1 PUSH2 0x28C9 JUMP JUMPDEST DUP2 DUP2 ADD MLOAD DUP4 SSTORE PUSH1 0x20 SWAP5 DUP6 ADD SWAP5 PUSH1 0x1 SWAP1 SWAP4 ADD SWAP3 SWAP1 SWAP2 ADD SWAP1 PUSH2 0x28AE JUMP JUMPDEST ADD MLOAD SWAP1 POP DUP10 DUP1 PUSH2 0x2416 JUMP JUMPDEST SWAP3 POP PUSH1 0x2 DUP10 ADD PUSH0 MSTORE PUSH1 0x20 PUSH0 KECCAK256 SWAP1 PUSH0 SWAP4 JUMPDEST PUSH1 0x1F NOT DUP5 AND DUP6 LT PUSH2 0x296A JUMPI PUSH1 0x1 SWAP5 POP DUP4 PUSH1 0x1F NOT DUP2 AND LT PUSH2 0x2952 JUMPI JUMPDEST POP POP POP DUP2 SHL ADD PUSH1 0x2 DUP8 ADD SSTORE PUSH2 0x242D JUMP JUMPDEST ADD MLOAD PUSH0 NOT PUSH1 0xF8 DUP5 PUSH1 0x3 SHL AND SHR NOT AND SWAP1 SSTORE DUP10 DUP1 DUP1 PUSH2 0x2942 JUMP JUMPDEST DUP2 DUP2 ADD MLOAD DUP4 SSTORE PUSH1 0x20 SWAP5 DUP6 ADD SWAP5 PUSH1 0x1 SWAP1 SWAP4 ADD SWAP3 SWAP1 SWAP2 ADD SWAP1 PUSH2 0x2927 JUMP JUMPDEST ADD MLOAD SWAP1 POP DUP11 DUP1 PUSH2 0x23AC JUMP JUMPDEST SWAP3 POP DUP10 PUSH0 MSTORE PUSH1 0x20 PUSH0 KECCAK256 SWAP1 PUSH0 SWAP4 JUMPDEST PUSH1 0x1F NOT DUP5 AND DUP6 LT PUSH2 0x29DD JUMPI PUSH1 0x1 SWAP5 POP DUP4 PUSH1 0x1F NOT DUP2 AND LT PUSH2 0x29C5 JUMPI JUMPDEST POP POP POP DUP2 SHL ADD DUP8 SSTORE PUSH2 0x23C0 JUMP JUMPDEST ADD MLOAD PUSH0 NOT PUSH1 0xF8 DUP5 PUSH1 0x3 SHL AND SHR NOT AND SWAP1 SSTORE DUP11 DUP1 DUP1 PUSH2 0x29B8 JUMP JUMPDEST DUP2 DUP2 ADD MLOAD DUP4 SSTORE PUSH1 0x20 SWAP5 DUP6 ADD SWAP5 PUSH1 0x1 SWAP1 SWAP4 ADD SWAP3 SWAP1 SWAP2 ADD SWAP1 PUSH2 0x299D JUMP JUMPDEST CALLVALUE PUSH2 0x6F6 JUMPI PUSH2 0x140 CALLDATASIZE PUSH1 0x3 NOT ADD SLT PUSH2 0x6F6 JUMPI PUSH1 0x4 CALLDATALOAD PUSH1 0x1 PUSH1 0x1 PUSH1 0x40 SHL SUB DUP2 GT PUSH2 0x6F6 JUMPI PUSH2 0x2A29 SWAP1 CALLDATASIZE SWAP1 PUSH1 0x4 ADD PUSH2 0x373A JUMP JUMPDEST PUSH1 0x64 CALLDATALOAD PUSH1 0x1 PUSH1 0x1 PUSH1 0x40 SHL SUB DUP2 GT PUSH2 0x6F6 JUMPI PUSH2 0x2A48 SWAP1 CALLDATASIZE SWAP1 PUSH1 0x4 ADD PUSH2 0x373A JUMP JUMPDEST SWAP1 PUSH1 0x84 CALLDATALOAD PUSH1 0x1 PUSH1 0x1 PUSH1 0x40 SHL SUB DUP2 GT PUSH2 0x6F6 JUMPI PUSH2 0x2A68 SWAP1 CALLDATASIZE SWAP1 PUSH1 0x4 ADD PUSH2 0x373A JUMP JUMPDEST SWAP1 PUSH2 0x124 CALLDATALOAD PUSH1 0x1 PUSH1 0x1 PUSH1 0x40 SHL SUB DUP2 GT PUSH2 0x6F6 JUMPI PUSH2 0x2A89 SWAP1 CALLDATASIZE SWAP1 PUSH1 0x4 ADD PUSH2 0x3797 JUMP JUMPDEST PUSH2 0x2A97 TIMESTAMP PUSH1 0x24 CALLDATALOAD LT ISZERO PUSH2 0x3A3A JUMP JUMPDEST PUSH2 0x2AA6 PUSH1 0x24 CALLDATALOAD PUSH1 0x44 CALLDATALOAD GT PUSH2 0x3A85 JUMP JUMPDEST CALLER PUSH0 MSTORE PUSH1 0x2 PUSH1 0x20 MSTORE PUSH1 0xA4 CALLDATALOAD PUSH1 0x2 PUSH1 0x40 PUSH0 KECCAK256 ADD SLOAD LT PUSH2 0x2E53 JUMPI CALLER PUSH0 MSTORE PUSH1 0x2 PUSH1 0x20 MSTORE PUSH1 0x2 PUSH1 0x40 PUSH0 KECCAK256 ADD PUSH2 0x2ADA PUSH1 0xA4 CALLDATALOAD DUP3 SLOAD PUSH2 0x3A2D JUMP JUMPDEST SWAP1 SSTORE PUSH2 0x2AE7 PUSH1 0xB SLOAD PUSH2 0x3ADB JUMP JUMPDEST SWAP2 DUP3 PUSH1 0xB SSTORE DUP3 PUSH0 MSTORE PUSH1 0x1 PUSH1 0x20 MSTORE PUSH1 0x40 PUSH0 KECCAK256 SWAP3 DUP4 SSTORE PUSH1 0x1 DUP4 ADD CALLER PUSH1 0x1 PUSH1 0x1 PUSH1 0x60 SHL SUB PUSH1 0xA0 SHL DUP3 SLOAD AND OR SWAP1 SSTORE DUP1 MLOAD SWAP1 PUSH1 0x1 PUSH1 0x1 PUSH1 0x40 SHL SUB DUP3 GT PUSH2 0x52A JUMPI DUP2 SWAP1 PUSH2 0x2B3E DUP3 PUSH2 0x2B35 PUSH1 0x2 DUP9 ADD SLOAD PUSH2 0x3541 JUMP JUMPDEST PUSH1 0x2 DUP9 ADD PUSH2 0x3B25 JUMP JUMPDEST PUSH1 0x20 SWAP1 PUSH1 0x1F DUP4 GT PUSH1 0x1 EQ PUSH2 0x2DE5 JUMPI PUSH0 SWAP3 PUSH2 0x2DDA JUMPI JUMPDEST POP POP DUP2 PUSH1 0x1 SHL SWAP2 PUSH0 NOT SWAP1 PUSH1 0x3 SHL SHR NOT AND OR PUSH1 0x2 DUP4 ADD SSTORE JUMPDEST PUSH1 0x24 CALLDATALOAD PUSH1 0x3 DUP4 ADD SSTORE PUSH1 0x44 CALLDATALOAD PUSH1 0x4 DUP4 ADD SSTORE DUP4 MLOAD PUSH1 0x1 PUSH1 0x1 PUSH1 0x40 SHL SUB DUP2 GT PUSH2 0x52A JUMPI PUSH2 0x2BA4 DUP2 PUSH2 0x2B9B PUSH1 0x5 DUP7 ADD SLOAD PUSH2 0x3541 JUMP JUMPDEST PUSH1 0x5 DUP7 ADD PUSH2 0x3B25 JUMP JUMPDEST PUSH1 0x20 PUSH1 0x1F DUP3 GT PUSH1 0x1 EQ PUSH2 0x2D6F JUMPI DUP2 SWAP3 SWAP4 SWAP5 SWAP6 PUSH0 SWAP3 PUSH2 0x2D64 JUMPI JUMPDEST POP POP DUP2 PUSH1 0x1 SHL SWAP2 PUSH0 NOT SWAP1 PUSH1 0x3 SHL SHR NOT AND OR PUSH1 0x5 DUP4 ADD SSTORE JUMPDEST DUP3 MLOAD PUSH1 0x1 PUSH1 0x1 PUSH1 0x40 SHL SUB DUP2 GT PUSH2 0x52A JUMPI PUSH2 0x2BFE DUP2 PUSH2 0x2BF5 PUSH1 0x6 DUP7 ADD SLOAD PUSH2 0x3541 JUMP JUMPDEST PUSH1 0x6 DUP7 ADD PUSH2 0x3B25 JUMP JUMPDEST PUSH1 0x20 PUSH1 0x1F DUP3 GT PUSH1 0x1 EQ PUSH2 0x2CFA JUMPI DUP2 SWAP3 SWAP4 SWAP5 PUSH0 SWAP3 PUSH2 0x2CEF JUMPI JUMPDEST POP POP DUP2 PUSH1 0x1 SHL SWAP2 PUSH0 NOT SWAP1 PUSH1 0x3 SHL SHR NOT AND OR PUSH1 0x6 DUP4 ADD SSTORE JUMPDEST PUSH1 0xA4 CALLDATALOAD PUSH1 0x7 DUP4 ADD SSTORE PUSH1 0xC4 CALLDATALOAD PUSH1 0x8 DUP4 ADD SSTORE PUSH1 0xE4 CALLDATALOAD PUSH1 0x9 DUP4 ADD SSTORE PUSH2 0x104 CALLDATALOAD PUSH1 0xA DUP4 ADD SSTORE PUSH1 0xB DUP3 ADD DUP2 MLOAD SWAP2 PUSH1 0x1 PUSH1 0x1 PUSH1 0x40 SHL SUB DUP4 GT PUSH2 0x52A JUMPI PUSH1 0x1 PUSH1 0x40 SHL DUP4 GT PUSH2 0x52A JUMPI PUSH1 0x20 SWAP1 DUP3 SLOAD DUP5 DUP5 SSTORE DUP1 DUP6 LT PUSH2 0x2CD4 JUMPI JUMPDEST POP ADD SWAP1 PUSH0 MSTORE PUSH1 0x20 PUSH0 KECCAK256 PUSH0 JUMPDEST DUP4 DUP2 LT PUSH2 0x2CC0 JUMPI DUP5 SLOAD PUSH1 0x40 MLOAD SWAP1 DUP2 MSTORE PUSH32 0xE43349C008949CF6B65249356E6F918D4AAA0CA79F2B1166DF4A4A98C9C16DE2 PUSH1 0x20 CALLER SWAP3 LOG2 STOP JUMPDEST PUSH1 0x1 SWAP1 PUSH1 0x20 DUP5 MLOAD SWAP5 ADD SWAP4 DUP2 DUP5 ADD SSTORE ADD PUSH2 0x2C89 JUMP JUMPDEST PUSH2 0x2CE9 SWAP1 DUP5 PUSH0 MSTORE DUP6 DUP5 PUSH0 KECCAK256 SWAP2 DUP3 ADD SWAP2 ADD PUSH2 0x3AE9 JUMP JUMPDEST DUP6 PUSH2 0x2C7E JUMP JUMPDEST ADD MLOAD SWAP1 POP DUP5 DUP1 PUSH2 0x2C16 JUMP JUMPDEST PUSH1 0x6 DUP5 ADD PUSH0 MSTORE PUSH1 0x20 PUSH0 KECCAK256 SWAP1 PUSH0 JUMPDEST PUSH1 0x1F NOT DUP5 AND DUP2 LT PUSH2 0x2D4C JUMPI POP PUSH1 0x1 SWAP4 SWAP5 SWAP6 DUP4 PUSH1 0x1F NOT DUP2 AND LT PUSH2 0x2D34 JUMPI JUMPDEST POP POP POP DUP2 SHL ADD PUSH1 0x6 DUP4 ADD SSTORE PUSH2 0x2C2D JUMP JUMPDEST ADD MLOAD PUSH0 NOT PUSH1 0xF8 DUP5 PUSH1 0x3 SHL AND SHR NOT AND SWAP1 SSTORE DUP5 DUP1 DUP1 PUSH2 0x2D24 JUMP JUMPDEST SWAP1 SWAP2 PUSH1 0x20 PUSH1 0x1 DUP2 SWAP3 DUP6 DUP11 ADD MLOAD DUP2 SSTORE ADD SWAP4 ADD SWAP2 ADD PUSH2 0x2D07 JUMP JUMPDEST ADD MLOAD SWAP1 POP DUP6 DUP1 PUSH2 0x2BBD JUMP JUMPDEST PUSH1 0x5 DUP5 ADD PUSH0 MSTORE PUSH1 0x20 PUSH0 KECCAK256 SWAP1 PUSH0 JUMPDEST PUSH1 0x1F NOT DUP5 AND DUP2 LT PUSH2 0x2DC2 JUMPI POP PUSH1 0x1 SWAP4 SWAP5 SWAP6 SWAP7 DUP4 PUSH1 0x1F NOT DUP2 AND LT PUSH2 0x2DAA JUMPI JUMPDEST POP POP POP DUP2 SHL ADD PUSH1 0x5 DUP4 ADD SSTORE PUSH2 0x2BD4 JUMP JUMPDEST ADD MLOAD PUSH0 NOT PUSH1 0xF8 DUP5 PUSH1 0x3 SHL AND SHR NOT AND SWAP1 SSTORE DUP6 DUP1 DUP1 PUSH2 0x2D9A JUMP JUMPDEST SWAP1 SWAP2 PUSH1 0x20 PUSH1 0x1 DUP2 SWAP3 DUP6 DUP12 ADD MLOAD DUP2 SSTORE ADD SWAP4 ADD SWAP2 ADD PUSH2 0x2D7C JUMP JUMPDEST ADD MLOAD SWAP1 POP DUP7 DUP1 PUSH2 0x2B53 JUMP JUMPDEST SWAP3 POP PUSH1 0x2 DUP6 ADD PUSH0 MSTORE PUSH1 0x20 PUSH0 KECCAK256 SWAP1 PUSH0 SWAP4 JUMPDEST PUSH1 0x1F NOT DUP5 AND DUP6 LT PUSH2 0x2E38 JUMPI PUSH1 0x1 SWAP5 POP DUP4 PUSH1 0x1F NOT DUP2 AND LT PUSH2 0x2E20 JUMPI JUMPDEST POP POP POP DUP2 SHL ADD PUSH1 0x2 DUP4 ADD SSTORE PUSH2 0x2B6A JUMP JUMPDEST ADD MLOAD PUSH0 NOT PUSH1 0xF8 DUP5 PUSH1 0x3 SHL AND SHR NOT AND SWAP1 SSTORE DUP7 DUP1 DUP1 PUSH2 0x2E10 JUMP JUMPDEST DUP2 DUP2 ADD MLOAD DUP4 SSTORE PUSH1 0x20 SWAP5 DUP6 ADD SWAP5 PUSH1 0x1 SWAP1 SWAP4 ADD SWAP3 SWAP1 SWAP2 ADD SWAP1 PUSH2 0x2DF5 JUMP JUMPDEST PUSH1 0x40 MLOAD PUSH3 0x461BCD PUSH1 0xE5 SHL DUP2 MSTORE PUSH1 0x20 PUSH1 0x4 DUP3 ADD MSTORE PUSH1 0x23 PUSH1 0x24 DUP3 ADD MSTORE PUSH32 0x496E73756666696369656E742061737365747320746F20637265617465206576 PUSH1 0x44 DUP3 ADD MSTORE PUSH3 0x195B9D PUSH1 0xEA SHL PUSH1 0x64 DUP3 ADD MSTORE PUSH1 0x84 SWAP1 REVERT JUMPDEST CALLVALUE PUSH2 0x6F6 JUMPI PUSH1 0x20 DUP1 PUSH1 0x3 NOT CALLDATASIZE ADD SLT PUSH2 0x6F6 JUMPI PUSH1 0x4 CALLDATALOAD SWAP1 DUP2 PUSH0 MSTORE PUSH1 0x1 DUP2 MSTORE PUSH1 0x40 PUSH0 KECCAK256 PUSH2 0x2EE0 PUSH1 0x3 SWAP2 PUSH2 0xC1A PUSH1 0x4 DUP5 DUP4 ADD SLOAD SWAP3 ADD SLOAD SWAP2 TIMESTAMP LT ISZERO PUSH2 0x3BD9 JUMP JUMPDEST CALLER PUSH0 MSTORE PUSH1 0x2 DUP3 MSTORE PUSH1 0x1 DUP1 PUSH1 0xA0 SHL SUB PUSH2 0x2EFF DUP2 PUSH1 0x40 PUSH0 KECCAK256 SLOAD AND ISZERO ISZERO PUSH2 0x3C6A JUMP JUMPDEST CALLER PUSH0 MSTORE PUSH1 0x7 DUP4 MSTORE PUSH1 0x40 PUSH0 KECCAK256 DUP5 PUSH0 MSTORE DUP4 MSTORE PUSH1 0xFF SWAP1 DUP2 PUSH1 0x40 PUSH0 KECCAK256 SLOAD AND PUSH2 0x30C5 JUMPI CALLER PUSH0 MSTORE PUSH1 0x2 DUP5 MSTORE PUSH1 0x40 PUSH0 KECCAK256 SLOAD AND ISZERO PUSH2 0x30B7 JUMPI JUMPDEST DUP4 PUSH0 MSTORE PUSH1 0x1 DUP4 MSTORE PUSH1 0x40 PUSH0 KECCAK256 SWAP2 PUSH0 SWAP2 PUSH0 SWAP2 PUSH1 0xB DUP6 ADD DUP1 SLOAD SWAP4 JUMPDEST DUP5 DUP2 LT PUSH2 0x3068 JUMPI POP POP POP POP POP PUSH1 0x9 DUP3 ADD SLOAD GT PUSH2 0x3023 JUMPI PUSH2 0x2F6C SWAP1 PUSH1 0xC CALLER SWAP2 ADD PUSH2 0x3CAC JUMP JUMPDEST CALLER PUSH0 MSTORE PUSH1 0x2 DUP2 MSTORE PUSH2 0x2F83 DUP3 PUSH1 0x7 PUSH1 0x40 PUSH0 KECCAK256 ADD PUSH2 0x3BA5 JUMP JUMPDEST PUSH2 0x2F8C DUP3 PUSH2 0x3E83 JUMP JUMPDEST DUP1 PUSH2 0x2FDA JUMPI JUMPDEST POP CALLER PUSH0 MSTORE PUSH1 0x7 DUP2 MSTORE PUSH1 0x40 PUSH0 KECCAK256 SWAP1 DUP3 PUSH0 MSTORE MSTORE PUSH1 0x40 PUSH0 KECCAK256 PUSH1 0x1 PUSH1 0xFF NOT DUP3 SLOAD AND OR SWAP1 SSTORE CALLER SWAP1 PUSH32 0xF11149736E591E4B965F3E9E625EAF62F393D637814B49899D9E8E0374CD0F9E PUSH0 DUP1 LOG3 STOP JUMPDEST PUSH0 MSTORE PUSH1 0x9 DUP2 MSTORE PUSH1 0x40 PUSH0 KECCAK256 CALLER PUSH0 MSTORE DUP2 MSTORE PUSH1 0x40 PUSH0 KECCAK256 PUSH1 0x1 DUP2 ADD PUSH2 0x2FFB DUP2 SLOAD PUSH2 0x3ADB JUMP JUMPDEST SWAP1 SSTORE DUP3 PUSH0 MSTORE PUSH1 0x1 DUP3 MSTORE PUSH2 0x301B PUSH1 0x2 PUSH1 0x8 PUSH1 0x40 PUSH0 KECCAK256 ADD SLOAD SWAP3 ADD SWAP2 DUP3 SLOAD PUSH2 0x3887 JUMP JUMPDEST SWAP1 SSTORE DUP3 PUSH2 0x2F92 JUMP JUMPDEST PUSH1 0x40 MLOAD PUSH3 0x461BCD PUSH1 0xE5 SHL DUP2 MSTORE PUSH1 0x4 DUP2 ADD DUP4 SWAP1 MSTORE PUSH1 0x1E PUSH1 0x24 DUP3 ADD MSTORE PUSH32 0x4E6F7420656E6F7567682063616D706169676E7320636F6D706C657465640000 PUSH1 0x44 DUP3 ADD MSTORE PUSH1 0x64 SWAP1 REVERT JUMPDEST PUSH2 0x3072 DUP2 DUP4 PUSH2 0x3B90 JUMP JUMPDEST SWAP1 SLOAD SWAP1 DUP5 SHL SHR CALLER PUSH0 MSTORE PUSH1 0x6 DUP10 MSTORE PUSH1 0x40 PUSH0 KECCAK256 SWAP1 PUSH0 MSTORE DUP9 MSTORE DUP4 PUSH1 0x40 PUSH0 KECCAK256 SLOAD AND PUSH2 0x30A2 JUMPI JUMPDEST PUSH2 0x309D SWAP1 PUSH2 0x3ADB JUMP JUMPDEST PUSH2 0x2F48 JUMP JUMPDEST SWAP5 PUSH2 0x30AF PUSH2 0x309D SWAP2 PUSH2 0x3ADB JUMP JUMPDEST SWAP6 SWAP1 POP PUSH2 0x3094 JUMP JUMPDEST PUSH2 0x30C0 CALLER PUSH2 0x3D19 JUMP JUMPDEST PUSH2 0x2F30 JUMP JUMPDEST PUSH1 0x40 MLOAD PUSH3 0x461BCD PUSH1 0xE5 SHL DUP2 MSTORE PUSH1 0x4 DUP2 ADD DUP6 SWAP1 MSTORE PUSH1 0x19 PUSH1 0x24 DUP3 ADD MSTORE PUSH32 0x416C7265616479206A6F696E65642074686973206576656E7400000000000000 PUSH1 0x44 DUP3 ADD MSTORE PUSH1 0x64 SWAP1 REVERT JUMPDEST CALLVALUE PUSH2 0x6F6 JUMPI PUSH0 CALLDATASIZE PUSH1 0x3 NOT ADD SLT PUSH2 0x6F6 JUMPI PUSH1 0x20 PUSH1 0xC SLOAD PUSH1 0x40 MLOAD SWAP1 DUP2 MSTORE RETURN JUMPDEST CALLVALUE PUSH2 0x6F6 JUMPI PUSH1 0x20 DUP1 PUSH1 0x3 NOT CALLDATASIZE ADD SLT PUSH2 0x6F6 JUMPI PUSH1 0x4 CALLDATALOAD DUP1 ISZERO PUSH2 0x31ED JUMPI PUSH0 DUP1 DUP1 DUP1 SWAP4 CALLER DUP3 MSTORE PUSH1 0x2 DUP7 MSTORE PUSH2 0x3161 DUP2 PUSH1 0x2 PUSH1 0x40 DUP6 KECCAK256 ADD SLOAD LT ISZERO PUSH2 0x39EA JUMP JUMPDEST CALLER DUP3 MSTORE PUSH1 0x2 DUP7 MSTORE PUSH1 0x2 PUSH1 0x40 DUP4 KECCAK256 ADD PUSH2 0x317A DUP3 DUP3 SLOAD PUSH2 0x3A2D JUMP JUMPDEST SWAP1 SSTORE CALLER GAS CALL RETURNDATASIZE ISZERO PUSH2 0x31E8 JUMPI RETURNDATASIZE PUSH2 0x318F DUP2 PUSH2 0x371F JUMP JUMPDEST SWAP1 PUSH2 0x319D PUSH1 0x40 MLOAD SWAP3 DUP4 PUSH2 0x361F JUMP JUMPDEST DUP2 MSTORE PUSH0 DUP4 RETURNDATASIZE SWAP3 ADD RETURNDATACOPY JUMPDEST ISZERO PUSH2 0x31AD JUMPI STOP JUMPDEST PUSH1 0x64 SWAP1 PUSH1 0x40 MLOAD SWAP1 PUSH3 0x461BCD PUSH1 0xE5 SHL DUP3 MSTORE PUSH1 0x4 DUP3 ADD MSTORE PUSH1 0x14 PUSH1 0x24 DUP3 ADD MSTORE PUSH20 0x2330B4B632B2103A379039B2B7321022BA3432B9 PUSH1 0x61 SHL PUSH1 0x44 DUP3 ADD MSTORE REVERT JUMPDEST PUSH2 0x31A6 JUMP JUMPDEST PUSH1 0x64 DUP3 PUSH1 0x40 MLOAD SWAP1 PUSH3 0x461BCD PUSH1 0xE5 SHL DUP3 MSTORE DUP1 PUSH1 0x4 DUP4 ADD MSTORE PUSH1 0x24 DUP3 ADD MSTORE PUSH32 0x416D6F756E74206D7573742062652067726561746572207468616E207A65726F PUSH1 0x44 DUP3 ADD MSTORE REVERT JUMPDEST CALLVALUE PUSH2 0x6F6 JUMPI PUSH1 0x40 CALLDATASIZE PUSH1 0x3 NOT ADD SLT PUSH2 0x6F6 JUMPI PUSH1 0x1 PUSH1 0x1 PUSH1 0xA0 SHL SUB PUSH2 0x3251 PUSH2 0x3515 JUMP JUMPDEST AND PUSH0 MSTORE PUSH1 0x7 PUSH1 0x20 MSTORE PUSH1 0x40 PUSH0 KECCAK256 PUSH1 0x24 CALLDATALOAD PUSH0 MSTORE PUSH1 0x20 MSTORE PUSH1 0x20 PUSH1 0xFF PUSH1 0x40 PUSH0 KECCAK256 SLOAD AND PUSH1 0x40 MLOAD SWAP1 ISZERO ISZERO DUP2 MSTORE RETURN JUMPDEST CALLVALUE PUSH2 0x6F6 JUMPI PUSH1 0x20 CALLDATASIZE PUSH1 0x3 NOT ADD SLT PUSH2 0x6F6 JUMPI PUSH1 0x4 CALLDATALOAD PUSH0 MSTORE PUSH0 PUSH1 0x20 MSTORE PUSH1 0x40 PUSH0 KECCAK256 DUP1 SLOAD SWAP1 PUSH1 0x1 PUSH1 0xA0 SHL PUSH1 0x1 SWAP1 SUB PUSH1 0x1 DUP3 ADD SLOAD AND SWAP1 PUSH1 0x2 DUP2 ADD PUSH2 0x32B7 SWAP1 PUSH2 0x3640 JUMP JUMPDEST SWAP3 PUSH1 0x3 DUP3 ADD SLOAD SWAP1 PUSH1 0x4 DUP4 ADD SLOAD SWAP1 PUSH1 0x5 DUP5 ADD PUSH2 0x32D1 SWAP1 PUSH2 0x3640 JUMP JUMPDEST SWAP1 PUSH2 0x32DE PUSH1 0x6 DUP7 ADD PUSH2 0x3640 JUMP JUMPDEST SWAP2 PUSH1 0x7 DUP7 ADD SLOAD SWAP3 PUSH1 0x8 DUP8 ADD SLOAD PUSH1 0x9 DUP9 ADD SLOAD SWAP2 PUSH1 0xA DUP10 ADD SLOAD SWAP4 PUSH1 0xB DUP11 ADD SLOAD SWAP6 PUSH1 0xC DUP12 ADD PUSH2 0x3309 SWAP1 PUSH2 0x3640 JUMP JUMPDEST SWAP9 PUSH1 0xD DUP13 ADD SLOAD SWAP12 PUSH1 0xF ADD SLOAD SWAP11 PUSH1 0x40 MLOAD SWAP15 DUP16 SWAP15 DUP16 SWAP5 DUP6 MSTORE PUSH1 0x20 DUP6 ADD MSTORE PUSH2 0x200 DUP1 PUSH1 0x40 DUP7 ADD MSTORE DUP5 ADD PUSH2 0x3338 SWAP2 PUSH2 0x36E1 JUMP JUMPDEST SWAP3 PUSH1 0x60 ADD MSTORE PUSH1 0x80 DUP14 ADD MSTORE DUP12 DUP2 SUB PUSH1 0xA0 DUP14 ADD MSTORE PUSH2 0x3353 SWAP2 PUSH2 0x36E1 JUMP JUMPDEST DUP11 DUP2 SUB PUSH1 0xC0 DUP13 ADD MSTORE PUSH2 0x3364 SWAP2 PUSH2 0x36E1 JUMP JUMPDEST SWAP5 PUSH1 0xE0 DUP11 ADD MSTORE PUSH2 0x100 DUP10 ADD MSTORE PUSH2 0x120 DUP9 ADD MSTORE PUSH2 0x140 DUP8 ADD MSTORE PUSH2 0x160 DUP7 ADD MSTORE DUP5 DUP2 SUB PUSH2 0x180 DUP7 ADD MSTORE PUSH2 0x3394 SWAP2 PUSH2 0x36E1 JUMP JUMPDEST SWAP2 PUSH1 0xFF DUP2 AND ISZERO ISZERO PUSH2 0x1A0 DUP6 ADD MSTORE PUSH1 0x8 SHR PUSH1 0xFF AND ISZERO ISZERO PUSH2 0x1C0 DUP5 ADD MSTORE PUSH2 0x1E0 DUP4 ADD MSTORE SUB SWAP1 RETURN JUMPDEST CALLVALUE PUSH2 0x6F6 JUMPI PUSH1 0x20 CALLDATASIZE PUSH1 0x3 NOT ADD SLT PUSH2 0x6F6 JUMPI PUSH1 0x4 CALLDATALOAD PUSH0 SWAP1 DUP2 MSTORE PUSH1 0x1 PUSH1 0x20 DUP2 DUP2 MSTORE PUSH1 0x40 SWAP1 SWAP3 KECCAK256 DUP1 SLOAD SWAP2 DUP2 ADD SLOAD PUSH1 0x1 PUSH1 0x1 PUSH1 0xA0 SHL SUB AND PUSH2 0x33F8 PUSH1 0x2 DUP4 ADD PUSH2 0x3640 JUMP JUMPDEST SWAP2 PUSH1 0x3 DUP2 ADD SLOAD SWAP3 PUSH2 0x3484 PUSH1 0x4 DUP4 ADD SLOAD SWAP5 PUSH2 0x3476 PUSH2 0x3417 PUSH1 0x5 DUP7 ADD PUSH2 0x3640 JUMP JUMPDEST SWAP2 PUSH2 0x3424 PUSH1 0x6 DUP8 ADD PUSH2 0x3640 JUMP JUMPDEST SWAP3 PUSH1 0x7 DUP8 ADD SLOAD SWAP9 PUSH2 0x345E PUSH1 0x8 DUP10 ADD SLOAD SWAP8 PUSH1 0xA PUSH1 0x9 DUP12 ADD SLOAD SWAP11 ADD SLOAD SWAP11 PUSH1 0x40 MLOAD SWAP15 DUP16 SWAP15 DUP16 SWAP1 DUP2 MSTORE ADD MSTORE PUSH1 0x40 DUP14 PUSH2 0x160 SWAP2 DUP3 SWAP2 ADD MSTORE DUP14 ADD SWAP1 PUSH2 0x36E1 JUMP JUMPDEST SWAP3 PUSH1 0x60 DUP13 ADD MSTORE PUSH1 0x80 DUP12 ADD MSTORE DUP10 DUP3 SUB PUSH1 0xA0 DUP12 ADD MSTORE PUSH2 0x36E1 JUMP JUMPDEST SWAP1 DUP8 DUP3 SUB PUSH1 0xC0 DUP10 ADD MSTORE PUSH2 0x36E1 JUMP JUMPDEST SWAP4 PUSH1 0xE0 DUP7 ADD MSTORE PUSH2 0x100 DUP6 ADD MSTORE PUSH2 0x120 DUP5 ADD MSTORE PUSH2 0x140 DUP4 ADD MSTORE SUB SWAP1 RETURN JUMPDEST CALLVALUE PUSH2 0x6F6 JUMPI PUSH0 CALLDATASIZE PUSH1 0x3 NOT ADD SLT PUSH2 0x6F6 JUMPI PUSH1 0xA SLOAD PUSH1 0xB SLOAD PUSH1 0xC SLOAD PUSH1 0x40 DUP1 MLOAD SWAP4 DUP5 MSTORE PUSH1 0x20 DUP5 ADD SWAP3 SWAP1 SWAP3 MSTORE SWAP1 DUP3 ADD MSTORE PUSH1 0x60 SWAP1 RETURN JUMPDEST CALLVALUE PUSH2 0x6F6 JUMPI PUSH1 0x40 CALLDATASIZE PUSH1 0x3 NOT ADD SLT PUSH2 0x6F6 JUMPI PUSH1 0x20 SWAP1 PUSH1 0x1 PUSH1 0x1 PUSH1 0xA0 SHL SUB PUSH2 0x34F5 PUSH2 0x3515 JUMP JUMPDEST AND PUSH0 MSTORE PUSH1 0x6 DUP3 MSTORE PUSH1 0x40 PUSH0 KECCAK256 PUSH1 0x24 CALLDATALOAD PUSH0 MSTORE DUP3 MSTORE PUSH1 0xFF PUSH1 0x40 PUSH0 KECCAK256 SLOAD AND ISZERO ISZERO DUP2 MSTORE RETURN JUMPDEST PUSH1 0x4 CALLDATALOAD SWAP1 PUSH1 0x1 PUSH1 0x1 PUSH1 0xA0 SHL SUB DUP3 AND DUP3 SUB PUSH2 0x6F6 JUMPI JUMP JUMPDEST PUSH1 0x24 CALLDATALOAD SWAP1 PUSH1 0x1 PUSH1 0x1 PUSH1 0xA0 SHL SUB DUP3 AND DUP3 SUB PUSH2 0x6F6 JUMPI JUMP JUMPDEST SWAP1 PUSH1 0x1 DUP3 DUP2 SHR SWAP3 AND DUP1 ISZERO PUSH2 0x356F JUMPI JUMPDEST PUSH1 0x20 DUP4 LT EQ PUSH2 0x355B JUMPI JUMP JUMPDEST PUSH4 0x4E487B71 PUSH1 0xE0 SHL PUSH0 MSTORE PUSH1 0x22 PUSH1 0x4 MSTORE PUSH1 0x24 PUSH0 REVERT JUMPDEST SWAP2 PUSH1 0x7F AND SWAP2 PUSH2 0x3550 JUMP JUMPDEST PUSH2 0x220 DUP2 ADD SWAP1 DUP2 LT PUSH1 0x1 PUSH1 0x1 PUSH1 0x40 SHL SUB DUP3 GT OR PUSH2 0x52A JUMPI PUSH1 0x40 MSTORE JUMP JUMPDEST PUSH1 0x60 DUP2 ADD SWAP1 DUP2 LT PUSH1 0x1 PUSH1 0x1 PUSH1 0x40 SHL SUB DUP3 GT OR PUSH2 0x52A JUMPI PUSH1 0x40 MSTORE JUMP JUMPDEST PUSH2 0x1A0 DUP2 ADD SWAP1 DUP2 LT PUSH1 0x1 PUSH1 0x1 PUSH1 0x40 SHL SUB DUP3 GT OR PUSH2 0x52A JUMPI PUSH1 0x40 MSTORE JUMP JUMPDEST PUSH2 0x100 DUP2 ADD SWAP1 DUP2 LT PUSH1 0x1 PUSH1 0x1 PUSH1 0x40 SHL SUB DUP3 GT OR PUSH2 0x52A JUMPI PUSH1 0x40 MSTORE JUMP JUMPDEST PUSH2 0x160 DUP2 ADD SWAP1 DUP2 LT PUSH1 0x1 PUSH1 0x1 PUSH1 0x40 SHL SUB DUP3 GT OR PUSH2 0x52A JUMPI PUSH1 0x40 MSTORE JUMP JUMPDEST PUSH1 0x20 DUP2 ADD SWAP1 DUP2 LT PUSH1 0x1 PUSH1 0x1 PUSH1 0x40 SHL SUB DUP3 GT OR PUSH2 0x52A JUMPI PUSH1 0x40 MSTORE JUMP JUMPDEST SWAP1 PUSH1 0x1F DUP1 NOT SWAP2 ADD AND DUP2 ADD SWAP1 DUP2 LT PUSH1 0x1 PUSH1 0x1 PUSH1 0x40 SHL SUB DUP3 GT OR PUSH2 0x52A JUMPI PUSH1 0x40 MSTORE JUMP JUMPDEST SWAP1 PUSH1 0x40 MLOAD SWAP2 DUP3 PUSH0 DUP3 SLOAD SWAP3 PUSH2 0x3653 DUP5 PUSH2 0x3541 JUMP JUMPDEST SWAP1 DUP2 DUP5 MSTORE PUSH1 0x1 SWAP5 DUP6 DUP2 AND SWAP1 DUP2 PUSH0 EQ PUSH2 0x36BE JUMPI POP PUSH1 0x1 EQ PUSH2 0x367E JUMPI JUMPDEST POP POP PUSH2 0x367C SWAP3 POP SUB DUP4 PUSH2 0x361F JUMP JUMPDEST JUMP JUMPDEST SWAP1 SWAP4 SWAP2 POP PUSH0 MSTORE PUSH1 0x20 SWAP1 DUP2 PUSH0 KECCAK256 SWAP4 PUSH0 SWAP2 JUMPDEST DUP2 DUP4 LT PUSH2 0x36A6 JUMPI POP POP PUSH2 0x367C SWAP4 POP DUP3 ADD ADD PUSH0 DUP1 PUSH2 0x366E JUMP JUMPDEST DUP6 SLOAD DUP9 DUP5 ADD DUP6 ADD MSTORE SWAP5 DUP6 ADD SWAP5 DUP8 SWAP5 POP SWAP2 DUP4 ADD SWAP2 PUSH2 0x368E JUMP JUMPDEST SWAP2 POP POP PUSH2 0x367C SWAP5 POP PUSH1 0x20 SWAP3 POP PUSH1 0xFF NOT AND DUP3 DUP5 ADD MSTORE ISZERO ISZERO PUSH1 0x5 SHL DUP3 ADD ADD PUSH0 DUP1 PUSH2 0x366E JUMP JUMPDEST SWAP2 SWAP1 DUP3 MLOAD SWAP3 DUP4 DUP3 MSTORE PUSH0 JUMPDEST DUP5 DUP2 LT PUSH2 0x370B JUMPI POP POP DUP3 PUSH0 PUSH1 0x20 DUP1 SWAP5 SWAP6 DUP5 ADD ADD MSTORE PUSH1 0x1F DUP1 NOT SWAP2 ADD AND ADD ADD SWAP1 JUMP JUMPDEST PUSH1 0x20 DUP2 DUP4 ADD DUP2 ADD MLOAD DUP5 DUP4 ADD DUP3 ADD MSTORE ADD PUSH2 0x36EB JUMP JUMPDEST PUSH1 0x1 PUSH1 0x1 PUSH1 0x40 SHL SUB DUP2 GT PUSH2 0x52A JUMPI PUSH1 0x1F ADD PUSH1 0x1F NOT AND PUSH1 0x20 ADD SWAP1 JUMP JUMPDEST DUP2 PUSH1 0x1F DUP3 ADD SLT ISZERO PUSH2 0x6F6 JUMPI DUP1 CALLDATALOAD SWAP1 PUSH2 0x3751 DUP3 PUSH2 0x371F JUMP JUMPDEST SWAP3 PUSH2 0x375F PUSH1 0x40 MLOAD SWAP5 DUP6 PUSH2 0x361F JUMP JUMPDEST DUP3 DUP5 MSTORE PUSH1 0x20 DUP4 DUP4 ADD ADD GT PUSH2 0x6F6 JUMPI DUP2 PUSH0 SWAP3 PUSH1 0x20 DUP1 SWAP4 ADD DUP4 DUP7 ADD CALLDATACOPY DUP4 ADD ADD MSTORE SWAP1 JUMP JUMPDEST PUSH1 0x1 PUSH1 0x1 PUSH1 0x40 SHL SUB DUP2 GT PUSH2 0x52A JUMPI PUSH1 0x5 SHL PUSH1 0x20 ADD SWAP1 JUMP JUMPDEST DUP2 PUSH1 0x1F DUP3 ADD SLT ISZERO PUSH2 0x6F6 JUMPI DUP1 CALLDATALOAD SWAP2 PUSH2 0x37AE DUP4 PUSH2 0x3780 JUMP JUMPDEST SWAP3 PUSH2 0x37BC PUSH1 0x40 MLOAD SWAP5 DUP6 PUSH2 0x361F JUMP JUMPDEST DUP1 DUP5 MSTORE PUSH1 0x20 SWAP3 DUP4 DUP1 DUP7 ADD SWAP3 PUSH1 0x5 SHL DUP3 ADD ADD SWAP3 DUP4 GT PUSH2 0x6F6 JUMPI DUP4 ADD SWAP1 JUMPDEST DUP3 DUP3 LT PUSH2 0x37E6 JUMPI POP POP POP POP SWAP1 JUMP JUMPDEST DUP2 CALLDATALOAD DUP2 MSTORE SWAP1 DUP4 ADD SWAP1 DUP4 ADD PUSH2 0x37D8 JUMP JUMPDEST SWAP1 DUP2 MLOAD DUP1 DUP3 MSTORE PUSH1 0x20 DUP1 DUP1 SWAP4 ADD SWAP4 ADD SWAP2 PUSH0 JUMPDEST DUP3 DUP2 LT PUSH2 0x3814 JUMPI POP POP POP POP SWAP1 JUMP JUMPDEST DUP4 MLOAD PUSH1 0x1 PUSH1 0x1 PUSH1 0xA0 SHL SUB AND DUP6 MSTORE SWAP4 DUP2 ADD SWAP4 SWAP3 DUP2 ADD SWAP3 PUSH1 0x1 ADD PUSH2 0x3806 JUMP JUMPDEST PUSH1 0x40 SWAP1 PUSH1 0x3 NOT ADD SLT PUSH2 0x6F6 JUMPI PUSH1 0x4 CALLDATALOAD SWAP1 PUSH1 0x24 CALLDATALOAD SWAP1 JUMP JUMPDEST SWAP1 DUP2 MLOAD DUP1 DUP3 MSTORE PUSH1 0x20 DUP1 DUP1 SWAP4 ADD SWAP4 ADD SWAP2 PUSH0 JUMPDEST DUP3 DUP2 LT PUSH2 0x3866 JUMPI POP POP POP POP SWAP1 JUMP JUMPDEST DUP4 MLOAD DUP6 MSTORE SWAP4 DUP2 ADD SWAP4 SWAP3 DUP2 ADD SWAP3 PUSH1 0x1 ADD PUSH2 0x3858 JUMP JUMPDEST SWAP1 PUSH1 0xD DUP3 LT ISZERO PUSH2 0x1AE0 JUMPI MSTORE JUMP JUMPDEST SWAP2 SWAP1 DUP3 ADD DUP1 SWAP3 GT PUSH2 0x761 JUMPI JUMP JUMPDEST CALLER PUSH0 SWAP1 DUP2 MSTORE PUSH1 0x2 PUSH1 0x20 SWAP1 DUP2 MSTORE PUSH1 0x40 DUP1 DUP4 KECCAK256 DUP1 SLOAD SWAP1 SWAP4 SWAP1 PUSH1 0x1 PUSH1 0x1 PUSH1 0xA0 SHL SUB AND PUSH2 0x39D5 JUMPI PUSH32 0x48CAC28AD4DC618E15F4C2DD5E97751182F166DE97B25618318B2112AA951A2F SWAP3 SWAP4 POP CALLER DUP2 MSTORE PUSH1 0x2 DUP5 MSTORE PUSH1 0x7 DUP3 DUP3 KECCAK256 CALLER PUSH1 0x1 PUSH1 0x1 PUSH1 0x60 SHL SUB PUSH1 0xA0 SHL DUP3 SLOAD AND OR DUP2 SSTORE PUSH0 PUSH1 0x1 DUP3 ADD PUSH2 0x3911 PUSH2 0x390B DUP3 SLOAD PUSH2 0x3541 JUMP JUMPDEST DUP3 PUSH2 0x3AFF JUMP JUMPDEST SSTORE CALLVALUE PUSH1 0x2 DUP3 ADD SSTORE DUP3 PUSH1 0x3 DUP3 ADD SSTORE PUSH1 0x1 PUSH1 0x4 DUP3 ADD SSTORE DUP3 DUP5 MLOAD PUSH2 0x3931 DUP2 PUSH2 0x3604 JUMP JUMPDEST MSTORE PUSH1 0x5 DUP2 ADD DUP1 SLOAD DUP5 DUP3 SSTORE DUP1 PUSH2 0x39BD JUMPI JUMPDEST POP DUP4 MSTORE DUP3 DUP5 MLOAD PUSH2 0x3950 DUP2 PUSH2 0x3604 JUMP JUMPDEST MSTORE PUSH1 0x6 DUP2 ADD DUP1 SLOAD DUP5 DUP3 SSTORE DUP1 PUSH2 0x39A5 JUMPI JUMPDEST POP DUP4 MSTORE DUP3 DUP5 MLOAD PUSH2 0x396F DUP2 PUSH2 0x3604 JUMP JUMPDEST MSTORE ADD DUP1 SLOAD DUP3 DUP3 SSTORE DUP1 PUSH2 0x398D JUMPI JUMPDEST POP DUP2 MSTORE DUP2 MLOAD SWAP4 DUP1 DUP6 MSTORE DUP5 ADD MSTORE CALLER SWAP3 LOG2 JUMP JUMPDEST DUP2 DUP4 MSTORE DUP6 DUP4 KECCAK256 PUSH2 0x399F SWAP2 DUP2 ADD SWAP1 PUSH2 0x3AE9 JUMP JUMPDEST PUSH0 PUSH2 0x397C JUMP JUMPDEST DUP2 DUP6 MSTORE DUP8 DUP6 KECCAK256 PUSH2 0x39B7 SWAP2 DUP2 ADD SWAP1 PUSH2 0x3AE9 JUMP JUMPDEST PUSH0 PUSH2 0x3960 JUMP JUMPDEST DUP2 DUP6 MSTORE DUP8 DUP6 KECCAK256 PUSH2 0x39CF SWAP2 DUP2 ADD SWAP1 PUSH2 0x3AE9 JUMP JUMPDEST PUSH0 PUSH2 0x3941 JUMP JUMPDEST POP POP POP PUSH1 0x2 ADD PUSH2 0x39E6 CALLVALUE DUP3 SLOAD PUSH2 0x3887 JUMP JUMPDEST SWAP1 SSTORE JUMP JUMPDEST ISZERO PUSH2 0x39F1 JUMPI JUMP JUMPDEST PUSH1 0x40 MLOAD PUSH3 0x461BCD PUSH1 0xE5 SHL DUP2 MSTORE PUSH1 0x20 PUSH1 0x4 DUP3 ADD MSTORE PUSH1 0x14 PUSH1 0x24 DUP3 ADD MSTORE PUSH20 0x496E73756666696369656E742062616C616E6365 PUSH1 0x60 SHL PUSH1 0x44 DUP3 ADD MSTORE PUSH1 0x64 SWAP1 REVERT JUMPDEST SWAP2 SWAP1 DUP3 SUB SWAP2 DUP3 GT PUSH2 0x761 JUMPI JUMP JUMPDEST ISZERO PUSH2 0x3A41 JUMPI JUMP JUMPDEST PUSH1 0x64 PUSH1 0x40 MLOAD PUSH3 0x461BCD PUSH1 0xE5 SHL DUP2 MSTORE PUSH1 0x20 PUSH1 0x4 DUP3 ADD MSTORE PUSH1 0x20 PUSH1 0x24 DUP3 ADD MSTORE PUSH32 0x53746172742074696D65206D75737420626520696E2074686520667574757265 PUSH1 0x44 DUP3 ADD MSTORE REVERT JUMPDEST ISZERO PUSH2 0x3A8C JUMPI JUMP JUMPDEST PUSH1 0x40 MLOAD PUSH3 0x461BCD PUSH1 0xE5 SHL DUP2 MSTORE PUSH1 0x20 PUSH1 0x4 DUP3 ADD MSTORE PUSH1 0x21 PUSH1 0x24 DUP3 ADD MSTORE PUSH32 0x456E642074696D65206D7573742062652061667465722073746172742074696D PUSH1 0x44 DUP3 ADD MSTORE PUSH1 0x65 PUSH1 0xF8 SHL PUSH1 0x64 DUP3 ADD MSTORE PUSH1 0x84 SWAP1 REVERT JUMPDEST PUSH0 NOT DUP2 EQ PUSH2 0x761 JUMPI PUSH1 0x1 ADD SWAP1 JUMP JUMPDEST DUP2 DUP2 LT PUSH2 0x3AF4 JUMPI POP POP JUMP JUMPDEST PUSH0 DUP2 SSTORE PUSH1 0x1 ADD PUSH2 0x3AE9 JUMP JUMPDEST SWAP1 PUSH1 0x1F DUP2 GT PUSH2 0x3B0C JUMPI POP POP JUMP JUMPDEST PUSH2 0x367C SWAP2 PUSH0 MSTORE PUSH1 0x1F PUSH1 0x20 PUSH0 KECCAK256 SWAP2 ADD PUSH1 0x5 SHR DUP2 ADD SWAP1 PUSH2 0x3AE9 JUMP JUMPDEST SWAP2 SWAP1 PUSH1 0x1F DUP2 GT PUSH2 0x3B34 JUMPI POP POP POP JUMP JUMPDEST PUSH2 0x367C SWAP3 PUSH0 MSTORE PUSH1 0x20 PUSH0 KECCAK256 SWAP1 PUSH1 0x20 PUSH1 0x1F DUP5 ADD PUSH1 0x5 SHR DUP4 ADD SWAP4 LT PUSH2 0x3B5E JUMPI JUMPDEST PUSH1 0x1F ADD PUSH1 0x5 SHR ADD SWAP1 PUSH2 0x3AE9 JUMP JUMPDEST SWAP1 SWAP2 POP DUP2 SWAP1 PUSH2 0x3B51 JUMP JUMPDEST DUP1 MLOAD DUP3 LT ISZERO PUSH2 0x3B7C JUMPI PUSH1 0x20 SWAP2 PUSH1 0x5 SHL ADD ADD SWAP1 JUMP JUMPDEST PUSH4 0x4E487B71 PUSH1 0xE0 SHL PUSH0 MSTORE PUSH1 0x32 PUSH1 0x4 MSTORE PUSH1 0x24 PUSH0 REVERT JUMPDEST DUP1 SLOAD DUP3 LT ISZERO PUSH2 0x3B7C JUMPI PUSH0 MSTORE PUSH1 0x20 PUSH0 KECCAK256 ADD SWAP1 PUSH0 SWAP1 JUMP JUMPDEST DUP1 SLOAD PUSH1 0x1 PUSH1 0x40 SHL DUP2 LT ISZERO PUSH2 0x52A JUMPI PUSH2 0x3BC2 SWAP2 PUSH1 0x1 DUP3 ADD DUP2 SSTORE PUSH2 0x3B90 JUMP JUMPDEST DUP2 SWAP3 SWAP2 SLOAD SWAP1 PUSH1 0x3 SHL SWAP2 DUP3 SHL SWAP2 PUSH0 NOT SWAP1 SHL NOT AND OR SWAP1 SSTORE JUMP JUMPDEST ISZERO PUSH2 0x3BE0 JUMPI JUMP JUMPDEST PUSH1 0x40 MLOAD PUSH3 0x461BCD PUSH1 0xE5 SHL DUP2 MSTORE PUSH1 0x20 PUSH1 0x4 DUP3 ADD MSTORE PUSH1 0x18 PUSH1 0x24 DUP3 ADD MSTORE PUSH32 0x5468697320686173206E6F742073746172746564207965740000000000000000 PUSH1 0x44 DUP3 ADD MSTORE PUSH1 0x64 SWAP1 REVERT JUMPDEST ISZERO PUSH2 0x3C2C JUMPI JUMP JUMPDEST PUSH1 0x40 MLOAD PUSH3 0x461BCD PUSH1 0xE5 SHL DUP2 MSTORE PUSH1 0x20 PUSH1 0x4 DUP3 ADD MSTORE PUSH1 0x16 PUSH1 0x24 DUP3 ADD MSTORE PUSH22 0x151A1A5CC81A185CC8185B1C9958591E48195B991959 PUSH1 0x52 SHL PUSH1 0x44 DUP3 ADD MSTORE PUSH1 0x64 SWAP1 REVERT JUMPDEST ISZERO PUSH2 0x3C71 JUMPI JUMP JUMPDEST PUSH1 0x40 MLOAD PUSH3 0x461BCD PUSH1 0xE5 SHL DUP2 MSTORE PUSH1 0x20 PUSH1 0x4 DUP3 ADD MSTORE PUSH1 0x13 PUSH1 0x24 DUP3 ADD MSTORE PUSH19 0x155CD95C88191BD95CC81B9BDD08195E1A5CDD PUSH1 0x6A SHL PUSH1 0x44 DUP3 ADD MSTORE PUSH1 0x64 SWAP1 REVERT JUMPDEST DUP1 SLOAD PUSH1 0x1 PUSH1 0x40 SHL DUP2 LT ISZERO PUSH2 0x52A JUMPI PUSH2 0x3CC9 SWAP2 PUSH1 0x1 DUP3 ADD DUP2 SSTORE PUSH2 0x3B90 JUMP JUMPDEST DUP2 SWAP3 SWAP2 SLOAD SWAP1 PUSH1 0x3 SHL SWAP2 PUSH1 0x1 DUP1 PUSH1 0xA0 SHL SUB DUP1 SWAP2 AND DUP4 SHL SWAP3 SHL NOT AND OR SWAP1 SSTORE JUMP JUMPDEST SWAP1 PUSH2 0x3CF1 DUP3 PUSH2 0x3780 JUMP JUMPDEST PUSH2 0x3CFE PUSH1 0x40 MLOAD SWAP2 DUP3 PUSH2 0x361F JUMP JUMPDEST DUP3 DUP2 MSTORE DUP1 SWAP3 PUSH2 0x3D0F PUSH1 0x1F NOT SWAP2 PUSH2 0x3780 JUMP JUMPDEST ADD SWAP1 PUSH1 0x20 CALLDATASIZE SWAP2 ADD CALLDATACOPY JUMP JUMPDEST PUSH1 0x1 DUP1 PUSH1 0xA0 SHL SUB AND PUSH32 0x48CAC28AD4DC618E15F4C2DD5E97751182F166DE97B25618318B2112AA951A2F PUSH0 DUP3 DUP2 MSTORE PUSH1 0x20 PUSH1 0x2 DUP2 MSTORE PUSH1 0x40 SWAP2 PUSH1 0x7 DUP4 DUP3 KECCAK256 DUP7 PUSH1 0x1 PUSH1 0x1 PUSH1 0x60 SHL SUB PUSH1 0xA0 SHL DUP3 SLOAD AND OR DUP2 SSTORE PUSH0 PUSH1 0x1 DUP3 ADD PUSH2 0x3D78 PUSH2 0x390B DUP3 SLOAD PUSH2 0x3541 JUMP JUMPDEST SSTORE DUP3 PUSH1 0x2 DUP3 ADD SSTORE DUP3 PUSH1 0x3 DUP3 ADD SSTORE PUSH1 0x1 PUSH1 0x4 DUP3 ADD SSTORE DUP3 DUP6 MLOAD PUSH2 0x3D98 DUP2 PUSH2 0x3604 JUMP JUMPDEST MSTORE PUSH1 0x5 DUP2 ADD DUP1 SLOAD DUP5 DUP3 SSTORE DUP1 PUSH2 0x3E22 JUMPI JUMPDEST POP DUP4 MSTORE DUP3 DUP6 MLOAD PUSH2 0x3DB7 DUP2 PUSH2 0x3604 JUMP JUMPDEST MSTORE PUSH1 0x6 DUP2 ADD DUP1 SLOAD DUP5 DUP3 SSTORE DUP1 PUSH2 0x3E0A JUMPI JUMPDEST POP DUP4 MSTORE DUP3 DUP6 MLOAD PUSH2 0x3DD6 DUP2 PUSH2 0x3604 JUMP JUMPDEST MSTORE ADD DUP1 SLOAD DUP3 DUP3 SSTORE DUP1 PUSH2 0x3DF2 JUMPI JUMPDEST POP DUP2 MSTORE DUP3 MLOAD SWAP2 DUP1 DUP4 MSTORE DUP3 ADD MSTORE LOG2 JUMP JUMPDEST DUP2 DUP4 MSTORE DUP4 DUP4 KECCAK256 PUSH2 0x3E04 SWAP2 DUP2 ADD SWAP1 PUSH2 0x3AE9 JUMP JUMPDEST PUSH0 PUSH2 0x3DE3 JUMP JUMPDEST DUP2 DUP6 MSTORE DUP6 DUP6 KECCAK256 PUSH2 0x3E1C SWAP2 DUP2 ADD SWAP1 PUSH2 0x3AE9 JUMP JUMPDEST PUSH0 PUSH2 0x3DC7 JUMP JUMPDEST DUP2 DUP6 MSTORE DUP6 DUP6 KECCAK256 PUSH2 0x3E34 SWAP2 DUP2 ADD SWAP1 PUSH2 0x3AE9 JUMP JUMPDEST PUSH0 PUSH2 0x3DA8 JUMP JUMPDEST PUSH1 0xC SLOAD SWAP1 PUSH1 0x1 JUMPDEST DUP3 DUP2 GT ISZERO PUSH2 0x3E50 JUMPI POP POP POP PUSH0 SWAP1 JUMP JUMPDEST PUSH1 0xFF PUSH0 DUP3 DUP2 MSTORE PUSH1 0x20 SWAP1 PUSH1 0x4 DUP3 MSTORE PUSH1 0x40 SWAP2 DUP3 DUP3 KECCAK256 SWAP1 DUP7 DUP4 MSTORE MSTORE KECCAK256 SLOAD AND PUSH2 0x3E7D JUMPI PUSH2 0x3E78 SWAP1 PUSH2 0x3ADB JUMP JUMPDEST PUSH2 0x3E41 JUMP JUMPDEST SWAP2 POP POP SWAP1 JUMP JUMPDEST PUSH1 0xC SLOAD SWAP1 PUSH1 0x1 JUMPDEST DUP3 DUP2 GT ISZERO PUSH2 0x3E99 JUMPI POP POP POP PUSH0 SWAP1 JUMP JUMPDEST PUSH1 0xFF PUSH0 DUP3 DUP2 MSTORE PUSH1 0x20 SWAP1 PUSH1 0x5 DUP3 MSTORE PUSH1 0x40 SWAP2 DUP3 DUP3 KECCAK256 SWAP1 DUP7 DUP4 MSTORE MSTORE KECCAK256 SLOAD AND PUSH2 0x3E7D JUMPI PUSH2 0x3EC1 SWAP1 PUSH2 0x3ADB JUMP JUMPDEST PUSH2 0x3E8A JUMP JUMPDEST SWAP1 PUSH1 0x40 MLOAD SWAP2 DUP3 DUP2 SLOAD SWAP2 DUP3 DUP3 MSTORE PUSH1 0x20 SWAP3 DUP4 DUP4 ADD SWAP2 PUSH0 MSTORE DUP4 PUSH0 KECCAK256 SWAP4 PUSH0 SWAP1 JUMPDEST DUP3 DUP3 LT PUSH2 0x3EF8 JUMPI POP POP POP PUSH2 0x367C SWAP3 POP SUB DUP4 PUSH2 0x361F JUMP JUMPDEST DUP6 SLOAD PUSH1 0x1 PUSH1 0x1 PUSH1 0xA0 SHL SUB AND DUP5 MSTORE PUSH1 0x1 SWAP6 DUP7 ADD SWAP6 DUP9 SWAP6 POP SWAP4 DUP2 ADD SWAP4 SWAP1 SWAP2 ADD SWAP1 PUSH2 0x3EE2 JUMP JUMPDEST SWAP1 PUSH1 0x40 MLOAD SWAP2 DUP3 DUP2 SLOAD SWAP2 DUP3 DUP3 MSTORE PUSH1 0x20 SWAP3 DUP4 DUP4 ADD SWAP2 PUSH0 MSTORE DUP4 PUSH0 KECCAK256 SWAP4 PUSH0 SWAP1 JUMPDEST DUP3 DUP3 LT PUSH2 0x3F4D JUMPI POP POP POP PUSH2 0x367C SWAP3 POP SUB DUP4 PUSH2 0x361F JUMP JUMPDEST DUP6 SLOAD DUP5 MSTORE PUSH1 0x1 SWAP6 DUP7 ADD SWAP6 DUP9 SWAP6 POP SWAP4 DUP2 ADD SWAP4 SWAP1 SWAP2 ADD SWAP1 PUSH2 0x3F37 JUMP INVALID LOG2 PUSH5 0x6970667358 0x22 SLT KECCAK256 0xD5 0xAC PUSH10 0x125B78DDBBBCF6FAFBF 0xD7 0x4B PUSH4 0xA68DB9C3 SELFBALANCE 0xE3 0xD1 PUSH0 0x27 0x5D MUL EXTCODEHASH SWAP12 DIV EXTCODEHASH 0xC1 PUSH5 0x736F6C6343 STOP ADDMOD EQ STOP CALLER "},"methodIdentifiers":{"campaignCount()":"7274e30d","campaignInSpace(uint256,uint256)":"74bb1272","campaigns(uint256)":"141961bc","createCampaign(string,uint256,uint256,string,string,uint256,uint256,uint256,uint256,uint256,string,bool)":"ff76154f","createEvent(string,uint256,uint256,string,string,uint256,uint256,uint256,uint256,uint256[])":"467069eb","createSpace(string,string,uint8,string,string,string,string,uint256[],uint256[])":"488793c7","deposit()":"d0e30db0","editCampaign(uint256,string,string,string,uint256,uint256,uint256,uint256,uint256,string,bool)":"dafaba4f","editEvent(uint256,string,string,string,uint256,uint256,uint256,uint256,uint256[])":"c9e4f141","eventCount()":"71be2e4a","eventInSpace(uint256,uint256)":"5710d6c0","events(uint256)":"0b791430","getAllCampaignIDs()":"e2b08208","getAllEventIDs()":"7f3a4b3d","getAllSpaceIDs()":"8b903d57","getCampaign(uint256)":"5598f8cc","getCampaignParticipants(uint256)":"8c6ab238","getEvent(uint256)":"6d1884e0","getEventParticipants(uint256)":"b50e0182","getLeaderboardEntry(uint256,address)":"5e9df36c","getSpace(uint256)":"70e10431","getTotalCounts()":"045af334","getUser(address)":"6f77926b","joinCampaign(uint256)":"d4a82a58","joinEvent(uint256)":"38d361e2","joinSpace(uint256)":"8be9e3c8","spaceCount()":"319ae4b2","spaceLeaderboard(uint256,address)":"834e415c","spaces(uint256)":"7586353b","updateUserName(string)":"af9036a1","userJoinedCampaign(address,uint256)":"03986a31","userJoinedEvent(address,uint256)":"16dc287a","userJoinedSpace(address,uint256)":"cf407595","users(address)":"a87430ba","withdraw(uint256)":"2e1a7d4d"}}}}}