{"src/contracts/Taskon.sol":{"CampaignContract":{"abi":[{"inputs":[],"stateMutability":"nonpayable","type":"constructor"},{"anonymous":false,"inputs":[{"indexed":false,"internalType":"uint256","name":"id","type":"uint256"},{"indexed":true,"internalType":"address","name":"creator","type":"address"}],"name":"CampaignCreated","type":"event"},{"anonymous":false,"inputs":[{"indexed":false,"internalType":"uint256","name":"id","type":"uint256"},{"indexed":true,"internalType":"address","name":"host","type":"address"}],"name":"EventCreated","type":"event"},{"anonymous":false,"inputs":[{"indexed":true,"internalType":"uint256","name":"campaignId","type":"uint256"},{"indexed":true,"internalType":"address","name":"user","type":"address"}],"name":"JoinedCampaign","type":"event"},{"anonymous":false,"inputs":[{"indexed":true,"internalType":"uint256","name":"eventId","type":"uint256"},{"indexed":true,"internalType":"address","name":"user","type":"address"}],"name":"JoinedEvent","type":"event"},{"anonymous":false,"inputs":[{"indexed":true,"internalType":"uint256","name":"spaceId","type":"uint256"},{"indexed":true,"internalType":"address","name":"user","type":"address"}],"name":"JoinedSpace","type":"event"},{"anonymous":false,"inputs":[{"indexed":false,"internalType":"uint256","name":"id","type":"uint256"},{"indexed":true,"internalType":"address","name":"creator","type":"address"}],"name":"SpaceCreated","type":"event"},{"anonymous":false,"inputs":[{"indexed":true,"internalType":"address","name":"userAddress","type":"address"},{"indexed":false,"internalType":"string","name":"name","type":"string"}],"name":"UserRegistered","type":"event"},{"anonymous":false,"inputs":[{"indexed":true,"internalType":"address","name":"userAddress","type":"address"},{"indexed":false,"internalType":"string","name":"name","type":"string"}],"name":"UserUpdated","type":"event"},{"inputs":[],"name":"campaignCount","outputs":[{"internalType":"uint256","name":"","type":"uint256"}],"stateMutability":"view","type":"function"},{"inputs":[{"internalType":"uint256","name":"","type":"uint256"},{"internalType":"uint256","name":"","type":"uint256"}],"name":"campaignInSpace","outputs":[{"internalType":"bool","name":"","type":"bool"}],"stateMutability":"view","type":"function"},{"inputs":[{"internalType":"uint256","name":"","type":"uint256"}],"name":"campaigns","outputs":[{"internalType":"uint256","name":"id","type":"uint256"},{"internalType":"address","name":"creator","type":"address"},{"internalType":"string","name":"name","type":"string"},{"internalType":"uint256","name":"startTimestamp","type":"uint256"},{"internalType":"uint256","name":"endTimestamp","type":"uint256"},{"internalType":"string","name":"image","type":"string"},{"internalType":"string","name":"description","type":"string"},{"internalType":"uint256","name":"tokenReward","type":"uint256"},{"internalType":"uint256","name":"points","type":"uint256"},{"internalType":"uint256","name":"minimumLevel","type":"uint256"},{"internalType":"uint256","name":"minimumBalance","type":"uint256"},{"internalType":"uint256","name":"numberOfWinners","type":"uint256"},{"internalType":"string","name":"tasksURL","type":"string"},{"internalType":"bool","name":"tasks","type":"bool"},{"internalType":"bool","name":"visibility","type":"bool"},{"internalType":"uint256","name":"randomnessBlockNumber","type":"uint256"}],"stateMutability":"view","type":"function"},{"inputs":[{"internalType":"string","name":"name","type":"string"},{"internalType":"uint256","name":"startTimestamp","type":"uint256"},{"internalType":"uint256","name":"endTimestamp","type":"uint256"},{"internalType":"string","name":"image","type":"string"},{"internalType":"string","name":"description","type":"string"},{"internalType":"uint256","name":"tokenReward","type":"uint256"},{"internalType":"uint256","name":"points","type":"uint256"},{"internalType":"uint256","name":"minimumLevel","type":"uint256"},{"internalType":"uint256","name":"minimumBalance","type":"uint256"},{"internalType":"uint256","name":"numberOfWinners","type":"uint256"},{"internalType":"string","name":"tasksURL","type":"string"},{"internalType":"bool","name":"visibility","type":"bool"}],"name":"createCampaign","outputs":[],"stateMutability":"nonpayable","type":"function"},{"inputs":[{"internalType":"string","name":"name","type":"string"},{"internalType":"uint256","name":"startTimestamp","type":"uint256"},{"internalType":"uint256","name":"endTimestamp","type":"uint256"},{"internalType":"string","name":"image","type":"string"},{"internalType":"string","name":"description","type":"string"},{"internalType":"uint256","name":"tokenReward","type":"uint256"},{"internalType":"uint256","name":"points","type":"uint256"},{"internalType":"uint256","name":"minimumCampaign","type":"uint256"},{"internalType":"uint256","name":"numberOfWinners","type":"uint256"},{"internalType":"uint256[]","name":"campaignIds","type":"uint256[]"}],"name":"createEvent","outputs":[],"stateMutability":"nonpayable","type":"function"},{"inputs":[{"internalType":"string","name":"name","type":"string"},{"internalType":"string","name":"image","type":"string"},{"internalType":"enum CampaignContract.ProjectCategory","name":"category","type":"uint8"},{"internalType":"string","name":"officialWebsite","type":"string"},{"internalType":"string","name":"discordLink","type":"string"},{"internalType":"string","name":"telegramLink","type":"string"},{"internalType":"string","name":"description","type":"string"},{"internalType":"uint256[]","name":"campaignIds","type":"uint256[]"},{"internalType":"uint256[]","name":"eventIds","type":"uint256[]"}],"name":"createSpace","outputs":[],"stateMutability":"nonpayable","type":"function"},{"inputs":[],"name":"deposit","outputs":[],"stateMutability":"payable","type":"function"},{"inputs":[{"internalType":"uint256","name":"campaignId","type":"uint256"},{"internalType":"string","name":"newName","type":"string"},{"internalType":"string","name":"newImage","type":"string"},{"internalType":"string","name":"newDescription","type":"string"},{"internalType":"uint256","name":"newTokenReward","type":"uint256"},{"internalType":"uint256","name":"newPoints","type":"uint256"},{"internalType":"uint256","name":"newMinimumLevel","type":"uint256"},{"internalType":"uint256","name":"newMinimumBalance","type":"uint256"},{"internalType":"uint256","name":"newNumberOfWinners","type":"uint256"},{"internalType":"string","name":"newTasksURL","type":"string"},{"internalType":"bool","name":"newVisibility","type":"bool"}],"name":"editCampaign","outputs":[],"stateMutability":"nonpayable","type":"function"},{"inputs":[{"internalType":"uint256","name":"eventId","type":"uint256"},{"internalType":"string","name":"newName","type":"string"},{"internalType":"string","name":"newImage","type":"string"},{"internalType":"string","name":"newDescription","type":"string"},{"internalType":"uint256","name":"newTokenReward","type":"uint256"},{"internalType":"uint256","name":"newPoints","type":"uint256"},{"internalType":"uint256","name":"newMinimumCampaign","type":"uint256"},{"internalType":"uint256","name":"newNumberOfWinners","type":"uint256"},{"internalType":"uint256[]","name":"newCampaignIds","type":"uint256[]"}],"name":"editEvent","outputs":[],"stateMutability":"nonpayable","type":"function"},{"inputs":[],"name":"eventCount","outputs":[{"internalType":"uint256","name":"","type":"uint256"}],"stateMutability":"view","type":"function"},{"inputs":[{"internalType":"uint256","name":"","type":"uint256"},{"internalType":"uint256","name":"","type":"uint256"}],"name":"eventInSpace","outputs":[{"internalType":"bool","name":"","type":"bool"}],"stateMutability":"view","type":"function"},{"inputs":[{"internalType":"uint256","name":"","type":"uint256"}],"name":"events","outputs":[{"internalType":"uint256","name":"id","type":"uint256"},{"internalType":"address","name":"host","type":"address"},{"internalType":"string","name":"name","type":"string"},{"internalType":"uint256","name":"startTimestamp","type":"uint256"},{"internalType":"uint256","name":"endTimestamp","type":"uint256"},{"internalType":"string","name":"image","type":"string"},{"internalType":"string","name":"description","type":"string"},{"internalType":"uint256","name":"tokenReward","type":"uint256"},{"internalType":"uint256","name":"points","type":"uint256"},{"internalType":"uint256","name":"minimumCampaign","type":"uint256"},{"internalType":"uint256","name":"numberOfWinners","type":"uint256"}],"stateMutability":"view","type":"function"},{"inputs":[{"internalType":"uint256","name":"campaignId","type":"uint256"}],"name":"finalizeRandomSelection","outputs":[],"stateMutability":"nonpayable","type":"function"},{"inputs":[],"name":"getAllCampaignIDs","outputs":[{"internalType":"uint256[]","name":"","type":"uint256[]"}],"stateMutability":"view","type":"function"},{"inputs":[],"name":"getAllEventIDs","outputs":[{"internalType":"uint256[]","name":"","type":"uint256[]"}],"stateMutability":"view","type":"function"},{"inputs":[],"name":"getAllSpaceIDs","outputs":[{"internalType":"uint256[]","name":"","type":"uint256[]"}],"stateMutability":"view","type":"function"},{"inputs":[{"internalType":"uint256","name":"campaignId","type":"uint256"}],"name":"getCampaign","outputs":[{"components":[{"internalType":"uint256","name":"id","type":"uint256"},{"internalType":"address","name":"creator","type":"address"},{"internalType":"string","name":"name","type":"string"},{"internalType":"uint256","name":"startTimestamp","type":"uint256"},{"internalType":"uint256","name":"endTimestamp","type":"uint256"},{"internalType":"string","name":"image","type":"string"},{"internalType":"string","name":"description","type":"string"},{"internalType":"uint256","name":"tokenReward","type":"uint256"},{"internalType":"uint256","name":"points","type":"uint256"},{"internalType":"uint256","name":"minimumLevel","type":"uint256"},{"internalType":"uint256","name":"minimumBalance","type":"uint256"},{"internalType":"uint256","name":"numberOfWinners","type":"uint256"},{"internalType":"string","name":"tasksURL","type":"string"},{"internalType":"bool","name":"tasks","type":"bool"},{"internalType":"bool","name":"visibility","type":"bool"},{"internalType":"address[]","name":"participants","type":"address[]"},{"internalType":"uint256","name":"randomnessBlockNumber","type":"uint256"}],"internalType":"struct CampaignContract.Campaign","name":"","type":"tuple"},{"internalType":"address[]","name":"","type":"address[]"}],"stateMutability":"view","type":"function"},{"inputs":[{"internalType":"uint256","name":"campaignId","type":"uint256"}],"name":"getCampaignParticipants","outputs":[{"internalType":"address[]","name":"","type":"address[]"}],"stateMutability":"view","type":"function"},{"inputs":[{"internalType":"uint256","name":"eventId","type":"uint256"}],"name":"getEvent","outputs":[{"components":[{"internalType":"uint256","name":"id","type":"uint256"},{"internalType":"address","name":"host","type":"address"},{"internalType":"string","name":"name","type":"string"},{"internalType":"uint256","name":"startTimestamp","type":"uint256"},{"internalType":"uint256","name":"endTimestamp","type":"uint256"},{"internalType":"string","name":"image","type":"string"},{"internalType":"string","name":"description","type":"string"},{"internalType":"uint256","name":"tokenReward","type":"uint256"},{"internalType":"uint256","name":"points","type":"uint256"},{"internalType":"uint256","name":"minimumCampaign","type":"uint256"},{"internalType":"uint256","name":"numberOfWinners","type":"uint256"},{"internalType":"uint256[]","name":"campaignIds","type":"uint256[]"},{"internalType":"address[]","name":"participants","type":"address[]"}],"internalType":"struct CampaignContract.Event","name":"","type":"tuple"},{"internalType":"uint256[]","name":"","type":"uint256[]"},{"internalType":"address[]","name":"","type":"address[]"}],"stateMutability":"view","type":"function"},{"inputs":[{"internalType":"uint256","name":"eventId","type":"uint256"}],"name":"getEventParticipants","outputs":[{"internalType":"address[]","name":"","type":"address[]"}],"stateMutability":"view","type":"function"},{"inputs":[{"internalType":"uint256","name":"spaceId","type":"uint256"},{"internalType":"address","name":"userAddress","type":"address"}],"name":"getLeaderboardEntry","outputs":[{"components":[{"internalType":"uint256","name":"campaignsJoined","type":"uint256"},{"internalType":"uint256","name":"eventsJoined","type":"uint256"},{"internalType":"uint256","name":"totalPoints","type":"uint256"}],"internalType":"struct CampaignContract.LeaderboardEntry","name":"","type":"tuple"}],"stateMutability":"view","type":"function"},{"inputs":[{"internalType":"uint256","name":"spaceId","type":"uint256"}],"name":"getSpace","outputs":[{"components":[{"internalType":"string","name":"name","type":"string"},{"internalType":"address","name":"creator","type":"address"},{"internalType":"string","name":"image","type":"string"},{"internalType":"enum CampaignContract.ProjectCategory","name":"category","type":"uint8"},{"internalType":"string","name":"officialWebsite","type":"string"},{"internalType":"string","name":"discordLink","type":"string"},{"internalType":"string","name":"telegramLink","type":"string"},{"internalType":"string","name":"description","type":"string"},{"internalType":"address[]","name":"followers","type":"address[]"},{"internalType":"uint256[]","name":"campaigns","type":"uint256[]"},{"internalType":"uint256[]","name":"events","type":"uint256[]"}],"internalType":"struct CampaignContract.Space","name":"","type":"tuple"},{"internalType":"address[]","name":"","type":"address[]"},{"internalType":"uint256[]","name":"","type":"uint256[]"},{"internalType":"uint256[]","name":"","type":"uint256[]"}],"stateMutability":"view","type":"function"},{"inputs":[],"name":"getTotalCounts","outputs":[{"internalType":"uint256","name":"","type":"uint256"},{"internalType":"uint256","name":"","type":"uint256"},{"internalType":"uint256","name":"","type":"uint256"}],"stateMutability":"view","type":"function"},{"inputs":[{"internalType":"address","name":"userAddress","type":"address"}],"name":"getUser","outputs":[{"components":[{"internalType":"address","name":"userAddress","type":"address"},{"internalType":"string","name":"name","type":"string"},{"internalType":"uint256","name":"assets","type":"uint256"},{"internalType":"uint256","name":"points","type":"uint256"},{"internalType":"uint256","name":"level","type":"uint256"},{"internalType":"uint256[]","name":"spaceJoined","type":"uint256[]"},{"internalType":"uint256[]","name":"campaignsJoined","type":"uint256[]"},{"internalType":"uint256[]","name":"eventsJoined","type":"uint256[]"}],"internalType":"struct CampaignContract.User","name":"","type":"tuple"}],"stateMutability":"view","type":"function"},{"inputs":[{"internalType":"uint256","name":"campaignId","type":"uint256"}],"name":"joinCampaign","outputs":[],"stateMutability":"nonpayable","type":"function"},{"inputs":[{"internalType":"uint256","name":"eventId","type":"uint256"}],"name":"joinEvent","outputs":[],"stateMutability":"nonpayable","type":"function"},{"inputs":[{"internalType":"uint256","name":"spaceId","type":"uint256"}],"name":"joinSpace","outputs":[],"stateMutability":"nonpayable","type":"function"},{"inputs":[],"name":"spaceCount","outputs":[{"internalType":"uint256","name":"","type":"uint256"}],"stateMutability":"view","type":"function"},{"inputs":[{"internalType":"uint256","name":"","type":"uint256"},{"internalType":"address","name":"","type":"address"}],"name":"spaceLeaderboard","outputs":[{"internalType":"uint256","name":"campaignsJoined","type":"uint256"},{"internalType":"uint256","name":"eventsJoined","type":"uint256"},{"internalType":"uint256","name":"totalPoints","type":"uint256"}],"stateMutability":"view","type":"function"},{"inputs":[{"internalType":"uint256","name":"","type":"uint256"}],"name":"spaces","outputs":[{"internalType":"string","name":"name","type":"string"},{"internalType":"address","name":"creator","type":"address"},{"internalType":"string","name":"image","type":"string"},{"internalType":"enum CampaignContract.ProjectCategory","name":"category","type":"uint8"},{"internalType":"string","name":"officialWebsite","type":"string"},{"internalType":"string","name":"discordLink","type":"string"},{"internalType":"string","name":"telegramLink","type":"string"},{"internalType":"string","name":"description","type":"string"}],"stateMutability":"view","type":"function"},{"inputs":[{"internalType":"string","name":"newName","type":"string"}],"name":"updateUserName","outputs":[],"stateMutability":"nonpayable","type":"function"},{"inputs":[{"internalType":"address","name":"","type":"address"},{"internalType":"uint256","name":"","type":"uint256"}],"name":"userJoinedCampaign","outputs":[{"internalType":"bool","name":"","type":"bool"}],"stateMutability":"view","type":"function"},{"inputs":[{"internalType":"address","name":"","type":"address"},{"internalType":"uint256","name":"","type":"uint256"}],"name":"userJoinedEvent","outputs":[{"internalType":"bool","name":"","type":"bool"}],"stateMutability":"view","type":"function"},{"inputs":[{"internalType":"address","name":"","type":"address"},{"internalType":"uint256","name":"","type":"uint256"}],"name":"userJoinedSpace","outputs":[{"internalType":"bool","name":"","type":"bool"}],"stateMutability":"view","type":"function"},{"inputs":[{"internalType":"address","name":"","type":"address"}],"name":"users","outputs":[{"internalType":"address","name":"userAddress","type":"address"},{"internalType":"string","name":"name","type":"string"},{"internalType":"uint256","name":"assets","type":"uint256"},{"internalType":"uint256","name":"points","type":"uint256"},{"internalType":"uint256","name":"level","type":"uint256"}],"stateMutability":"view","type":"function"},{"inputs":[{"internalType":"uint256","name":"amount","type":"uint256"}],"name":"withdraw","outputs":[],"stateMutability":"nonpayable","type":"function"},{"stateMutability":"payable","type":"receive"}],"evm":{"bytecode":{"linkReferences":{},"object":"6080806040523461001657614331908161001b8239f35b5f80fdfe6080806040526004361015610024575b50361561001a575f80fd5b610022613c40565b005b5f3560e01c90816303986a311461387d57508063045af3341461384c5780630b79143014613765578063141961bc1461362557806316dc287a146135dc5780632e1a7d4d146134d3578063319ae4b2146134b657806338d361e214613250578063467069eb14612da4578063488793c7146125e55780635598f8cc146122e65780635710d6c0146122b25780635e9df36c146122205780636d1884e014611f8a5780636f77926b14611e2257806370e1043114611b6057806371be2e4a14611b435780637274e30d14611b2657806374bb127214611af25780637586353b146119f25780637f3a4b3d14611995578063834e415c146119305780638b903d57146118d35780638be9e3c8146117ca5780638c6ab2381461179e578063a87430ba1461171e578063af9036a114611563578063b50e018214611522578063b76fc16b146111ff578063c9e4f14114610e62578063cf40759514610e19578063d0e30db014610e06578063d4a82a5814610bec578063dafaba4f14610780578063e2b08208146107055763ff76154f146101bc575f61000f565b3461070157610180366003190112610701576004356001600160401b038111610701576101ed903690600401613ae6565b6064356001600160401b0381116107015761020c903690600401613ae6565b906084356001600160401b0381116107015761022c903690600401613ae6565b90610144356001600160401b0381116107015761024d903690600401613ae6565b9061016435151561016435036107015761026b426024351015613de6565b61027a60243560443511613e31565b335f52600260205260a435600260405f200154106106ad57335f526002602052600260405f20016102ae60a4358254613dd9565b90556102bb600a54613e87565b9081600a55815f525f60205260405f2091825560018201336001600160601b0360a01b8254161790558051906001600160401b0382116105355781906103118261030860028701546138ed565b60028701613ed1565b602090601f831160011461063f575f92610634575b50508160011b915f199060031b1c19161760028201555b6024356003820155604435600482015583516001600160401b038111610535576103778161036e60058501546138ed565b60058501613ed1565b6020601f82116001146105c95781929394955f926105be575b50508160011b915f199060031b1c19161760058201555b82516001600160401b038111610535576103d1816103c860068501546138ed565b60068501613ed1565b6020601f821160011461055457819293945f92610549575b50508160011b915f199060031b1c19161760068201555b60a435600782015560c435600882015560e435600982015561010435600a82015561012435600b820155600c810182516001600160401b038111610535576104528161044c84546138ed565b84613ed1565b6020601f82116001146104d357819293945f926104c8575b50508160011b915f199060031b1c19161790555b600d8101805461ff00191661016435151560081b61ff0016179055546040519081527f633109eec20320eded000fc1e2634211aa7e92ba3f5b15faf6dcdafca05094e460203392a2005b015190505f8061046a565b601f19821690835f5260205f20915f5b81811061051d57509583600195969710610505575b505050811b01905561047e565b01515f1960f88460031b161c191690555f80806104f8565b9192602060018192868b0151815501940192016104e3565b634e487b7160e01b5f52604160045260245ffd5b015190505f806103e9565b600683015f5260205f20905f5b601f19841681106105a65750600193949583601f1981161061058e575b505050811b016006820155610400565b01515f1960f88460031b161c191690555f808061057e565b9091602060018192858a015181550193019101610561565b015190505f80610390565b600583015f5260205f20905f5b601f198416811061061c575060019394959683601f19811610610604575b505050811b0160058201556103a7565b01515f1960f88460031b161c191690555f80806105f4565b9091602060018192858b0151815501930191016105d6565b015190505f80610326565b9250600284015f5260205f20905f935b601f1984168510610692576001945083601f1981161061067a575b505050811b01600282015561033d565b01515f1960f88460031b161c191690555f808061066a565b8181015183556020948501946001909301929091019061064f565b60405162461bcd60e51b815260206004820152602660248201527f496e73756666696369656e742061737365747320746f2063726561746520636160448201526536b830b4b3b760d11b6064820152608490fd5b5f80fd5b34610701575f36600319011261070157600a546107218161407b565b9060015b81811115610747576040516020808252819061074390820186613bf3565b0390f35b5f1981019080821161076c57806107616107679386613f14565b52613e87565b610725565b634e487b7160e01b5f52601160045260245ffd5b3461070157610160366003190112610701576001600160401b0360248035828111610701576107b3903690600401613ae6565b90604435838111610701576107cc903690600401613ae6565b90606435848111610701576107e5903690600401613ae6565b9261012435858111610701576107ff903690600401613ae6565b9361014435948515158603610701576004355f526020915f835260405f209560019460018060a01b0386890154163303610b9857805160028901918b8211610b855781906108578261085186546138ed565b86613ed1565b8790601f8311600114610b26575f92610b1b575b50505f19600383901b1c191690871b1790555b805160058801918a8211610b0857819061089c8261085186546138ed565b8690601f8311600114610aa9575f92610a9e575b50505f19600383901b1c191690861b1790555b80516006870191898211610a8b5781906108e18261085186546138ed565b8590601f8311600114610a2c575f92610a21575b50505f19600383901b1c191690851b1790555b608435600786015560a435600886015560c435600986015560e435600a86015561010435600b860155600c8501938151978811610a0e575061094e8761085186546138ed565b81601f88116001146109a457509580600d9594938193610022995f94610999575b50501b915f199060031b1c19161790555b019061ff00825491151560081b169061ff001916179055565b01519250898061096f565b9190601f198816855f52835f20935f905b8282106109f757505091600d9695949391896100229a94106109df575b505050811b019055610980565b01515f1960f88460031b161c191690558780806109d2565b8087869782949787015181550196019401906109b5565b634e487b7160e01b5f9081526041600452fd5b015190508a806108f5565b90879350601f19831691855f52875f20925f5b89828210610a755750508411610a5d575b505050811b019055610908565b01515f1960f88460031b161c191690558a8080610a50565b8385015186558b97909501949384019301610a3f565b86634e487b7160e01b5f5260416004525ffd5b015190508b806108b0565b90889350601f19831691855f52885f20925f5b8a828210610af25750508411610ada575b505050811b0190556108c3565b01515f1960f88460031b161c191690558b8080610acd565b8385015186558c97909501949384019301610abc565b87634e487b7160e01b5f5260416004525ffd5b015190508c8061086b565b90899350601f19831691855f52895f20925f5b8b828210610b6f5750508411610b57575b505050811b01905561087e565b01515f1960f88460031b161c191690558c8080610b4a565b8385015186558d97909501949384019301610b39565b88634e487b7160e01b5f5260416004525ffd5b60405162461bcd60e51b8152600481018690526027818901527f4f6e6c79207468652063726561746f722063616e20656469742074686973206360448201526630b6b830b4b3b760c91b6064820152608490fd5b34610701576020806003193601126107015760043590815f525f8152610c2d60405f20610c256004600383015492015491421015613f85565b421115613fd1565b335f526002808252610c5f60018060a01b038060405f20541615610df8575b335f5282845260405f2054161515614016565b335f526006825260405f20835f52825260ff60405f205416610db357825f525f825260405f20335f52818352600460405f200154600982015411610d7957610cc790335f52828452610cbd8360405f200154600a8301541115613d96565b600e339101614058565b335f52808252610cdd83600660405f2001613f51565b610ce6836141ce565b80610d35575b5050335f526006815260405f2090825f525260405f20600160ff1982541617905533907f0a8cb7ec996af5cd17d263f3dcdf80ca63fb4cef1b4312a18c70c8f533597f3b5f80a3005b5f526009825260405f20335f528252610d7060405f2091610d568354613e87565b8355845f525f8452600860405f2001549201918254613c33565b90558280610cec565b60405162461bcd60e51b815260048101849052601260248201527155736572206c6576656c20746f6f206c6f7760701b6044820152606490fd5b60405162461bcd60e51b815260048101839052601c60248201527f416c7265616479206a6f696e656420746869732063616d706169676e000000006044820152606490fd5b610e01336140ad565b610c4c565b5f36600319011261070157610022613c40565b34610701576040366003190112610701576001600160a01b03610e3a6138c1565b165f52600860205260405f206024355f52602052602060ff60405f2054166040519015158152f35b34610701576101203660031901126107015760246001600160401b03813581811161070157610e95903690600401613ae6565b9160443582811161070157610eae903690600401613ae6565b60643583811161070157610ec6903690600401613ae6565b936101043584811161070157610ee0903690600401613b43565b906004355f5260019560209387855260405f209260018060a01b03898501541633036111b15780516002850191898211610b85578190610f248261085186546138ed565b8890601f8311600114611149575f9261113e575b50505f19600383901b1c1916908a1b1790555b80516005840191888211610b08578190610f698261085186546138ed565b8790601f83116001146110df575f926110d4575b50505f19600383901b1c191690891b1790555b80516006830191878211610a8b57610fb282610fac85546138ed565b85613ed1565b8590601f831160011461107057600b949392915f9183611065575b50505f19600383901b1c191690891b1790555b608435600782015560a435600882015560c435600982015560e435600a82015501928151948511610a0e57600160401b8511610a0e57508190835485855580861061104a575b5001915f52805f205f5b84811061103957005b835182820155928201928501611030565b61105f90855f5286845f209182019101613e95565b86611026565b015190508a80610fcd565b9392918991601f19821690845f52885f20915f5b8a8282106110be5750509683600b98106110a6575b505050811b019055610fe0565b01515f1960f88460031b161c191690558a8080611099565b838a015185558e96909401939283019201611084565b015190508a80610f7d565b908b9350601f19831691855f52895f20925f5b8b8282106111285750508411611110575b505050811b019055610f90565b01515f1960f88460031b161c191690558a8080611103565b8385015186558f979095019493840193016110f2565b015190508b80610f38565b908c9350601f19831691855f528a5f20925f5b8c828210611192575050841161117a575b505050811b019055610f4b565b01515f1960f88460031b161c191690558b808061116d565b91929395968291958786015181550195019301908e959493929161115c565b60405162461bcd60e51b8152600481018790526021818901527f4f6e6c792074686520686f73742063616e20656469742074686973206576656e6044820152601d60fa1b6064820152608490fd5b34610701576020366003190112610701576004355f525f60205260405f2060048101544211156114dd57600f8101548043111561149857600e8201549182156114615781401561141c57600b8101549283158015611413575b61140b575b505f5b83811061126957005b6040516020810190844082528260408201526040815261128881613941565b51902090600e83015480156113f7576112a6818406600e8601613f3c565b905460018060a01b03818360031b1c165f52600260205260405f20600787015489156113f7576112dd8a6002840192048254613c33565b90556112f3600360088901549201918254613c33565b905560018060a01b039160031b1c165f52600260205260405f20606460038201540490600a8083116113ee575b50600401805482116113e6575b5050600e8401545f19939084810190811161076c576113929261135661137392600e8901613f3c565b905460039190911b1c6001600160a01b03169206600e8701613f3c565b90919082549060031b9160018060a01b03809116831b921b1916179055565b600e8301549182156113d2576113cd92016113b081600e8601613f3c565b81549060018060a01b039060031b1b19169055600e840155613e87565b611260565b634e487b7160e01b5f52603160045260245ffd5b55868061132d565b91506004611320565b634e487b7160e01b5f52601260045260245ffd5b92508361125d565b50808411611258565b60405162461bcd60e51b815260206004820152601760248201527f426c6f636b68617368206e6f7420617661696c61626c650000000000000000006044820152606490fd5b60405162461bcd60e51b815260206004820152600f60248201526e4e6f207061727469636970616e747360881b6044820152606490fd5b60405162461bcd60e51b815260206004820152601c60248201527f52616e646f6d6e65737320626c6f636b206e6f742072656163686564000000006044820152606490fd5b60405162461bcd60e51b815260206004820152601a60248201527f43616d706169676e20686173206e6f7420656e646564207965740000000000006044820152606490fd5b34610701576020366003190112610701576004355f52600160205261074361154f600c60405f200161425a565b604051918291602083526020830190613ba1565b3461070157602080600319360112610701576001600160401b0360043581811161070157611595903690600401613ae6565b335f9081526002845260409020546115b7906001600160a01b03161515614016565b8051156116d957335f526002835260018060405f2001908251938411610535576115e58461044c84546138ed565b84601f8511600114611656579380806116469594937fd6136f3cad7c60bfc24bbf1548f39f766ca8bce104bf9adde3deb6237dec51df975f9361164b575b501b915f199060031b1c19161790555b6040519182918583523395830190613a8d565b0390a2005b860151925089611623565b601f19851690835f52865f20915f5b888282106116c55750509186917fd6136f3cad7c60bfc24bbf1548f39f766ca8bce104bf9adde3deb6237dec51df9761164697969594106116ad575b5050811b019055611633565b8501515f1960f88460031b161c1916905587806116a1565b878401518555938501939283019201611665565b60405162461bcd60e51b815260048101849052601860248201527f4e6577206e616d652063616e6e6f7420626520656d70747900000000000000006044820152606490fd5b34610701576020366003190112610701576001600160a01b03806117406138c1565b165f52600260205260405f209081541661175c600183016139ec565b91600281015490600460038201549101549061178a604051958695865260a0602087015260a0860190613a8d565b926040850152606084015260808301520390f35b34610701576020366003190112610701576004355f525f60205261074361154f600e60405f200161425a565b34610701576020806003193601126107015760043590335f52600281526117fe60018060a01b0360405f2054161515614016565b335f526008815260405f20825f52815260ff60405f20541661188f57815f526003815261183133600860405f2001614058565b335f526002815261184882600560405f2001613f51565b335f526008815260405f2090825f525260405f20600160ff1982541617905533907f54b395d5e852d463801b391aac280c017d177c680b3b860fe2b47266a86bcb5f5f80a3005b6064906040519062461bcd60e51b82526004820152601960248201527f416c7265616479206a6f696e65642074686973207370616365000000000000006044820152fd5b34610701575f36600319011261070157600c546118ef8161407b565b9060015b81811115611911576040516020808252819061074390820186613bf3565b5f1981019080821161076c578061076161192b9386613f14565b6118f3565b34610701576040366003190112610701576119496138d7565b6004355f52600960205260405f209060018060a01b03165f5260205260405f20805461074360026001840154930154604051938493846040919493926060820195825260208201520152565b34610701575f36600319011261070157600b546119b18161407b565b9060015b818111156119d3576040516020808252819061074390820186613bf3565b5f1981019080821161076c57806107616119ed9386613f14565b6119b5565b34610701576020366003190112610701576004355f52600360205260405f20611a1a816139ec565b60018201546001600160a01b031691611a35600282016139ec565b90600381015460ff1660048201611a4b906139ec565b611a57600584016139ec565b91611a64600685016139ec565b93600701611a71906139ec565b94604051978897610100808a528901611a8991613a8d565b9060208901528781036040890152611aa091613a8d565b9060608701611aae91613c26565b8581036080870152611abf91613a8d565b84810360a0860152611ad091613a8d565b83810360c0850152611ae191613a8d565b82810360e084015261074391613a8d565b3461070157611b0036613bdd565b905f52600460205260405f20905f52602052602060ff60405f2054166040519015158152f35b34610701575f366003190112610701576020600a54604051908152f35b34610701575f366003190112610701576020600b54604051908152f35b34610701576020366003190112610701576060610140604051611b8281613994565b8281525f60208201528260408201525f838201528260808201528260a08201528260c08201528260e0820152826101008201528261012082015201526004355f52600360205260405f20604051611bd881613994565b611be1826139ec565b815260018201546001600160a01b03166020820152611c02600283016139ec565b604082015260ff600383015416600d811015611e0e57611de492610743916060840152611c31600482016139ec565b6080840152611c42600582016139ec565b60a0840152611c53600682016139ec565b60c0840152611c64600782016139ec565b60e0840152611c756008820161425a565b610100840152611c87600982016142af565b610120840152611c99600a82016142af565b610140840152611e00611cae6008830161425a565b91611df2611cca600a611cc3600985016142af565b93016142af565b9360405197889760808952610140611dcf611db7611d9f611d868d611d6f611d58611d2f611d068a5161016060808701526101e0860190613a8d565b60208b01516001600160a01b031660a086015260408b0151858203607f190160c0870152613a8d565b611d4160608b015160e0860190613c26565b60808a0151848203607f1901610100860152613a8d565b60a0890151838203607f1901610120850152613a8d565b9060c08801519087607f1982850301910152613a8d565b8d60e087015190610160607f1982850301910152613a8d565b6101008501518d8203607f19016101808f0152613ba1565b6101208401518c8203607f19016101a08e0152613bf3565b910151898203607f19016101c08b0152613bf3565b908782036020890152613ba1565b908582036040870152613bf3565b908382036060850152613bf3565b634e487b7160e01b5f52602160045260245ffd5b346107015760208060031936011261070157611e3c6138c1565b61074360e0604051611e4d81613978565b5f8152606091818387819401525f60408201525f838201525f60808201528260a08201528260c0820152015260018060a01b038093165f526002845260405f2090604051611e9a81613978565b848354168152611f7a611eaf600185016139ec565b93878301948552611f6960028201549460408501958652600383015481860190815260048401549060808701918252611eea600586016142af565b9260a08801938452611f42611f146007611f0660068a016142af565b9860c08c01998a52016142af565b9a60e08a019b8c526040519e8f9e8f9b828d525116908b0152516101206101009a8b60408201520190613a8d565b9851908c01525160808b01525160a08a01525194601f1995868a83030160c08b0152613bf3565b9051848883030160e0890152613bf3565b9251918584030190850152613bf3565b34610701576020366003190112610701576060610180604051611fac8161395c565b5f81525f60208201528260408201525f838201525f60808201528260a08201528260c08201525f60e08201525f6101008201525f6101208201525f6101408201528261016082015201526004355f52600160205260405f2060018060a01b0360018201541680156121e9576107436121cd926040519261202b8461395c565b815484526020840152612040600282016139ec565b60408401526003810154606084015260048101546080840152612065600582016139ec565b60a0840152612076600682016139ec565b60c0840152600781015460e084015260088101546101008401526009810154610120840152600a8101546101408401526120b2600b82016142af565b6101608401526120c4600c820161425a565b6101808401526121db6120e5600c6120de600b85016142af565b930161425a565b91604051958695606087528051606088015260018060a01b0360208201511660808801526101806121b861217361215c6121318b6101a060a060408901519201526102008d0190613a8d565b606086015160c08d0152608086015160e08d015260a08601518c8203605f19016101008e0152613a8d565b60c08501518b8203605f19016101208d0152613a8d565b60e08401516101408b01526101008401516101608b0152610120840151838b01526101408401516101a08b0152610160840151605f198b8303016101c08c0152613bf3565b910151878203605f19016101e0890152613ba1565b908582036020870152613bf3565b908382036040850152613ba1565b60405162461bcd60e51b815260206004820152600f60248201526e115d995b9d081b9bdd08199bdd5b99608a1b6044820152606490fd5b34610701576040366003190112610701576122396138d7565b5f6040805161224781613941565b82815282602082015201526004355f52600960205260405f209060018060a01b03165f52602052606060405f2060405161228081613941565b815491828252604060026001830154926020850193845201549201918252604051928352516020830152516040820152f35b34610701576122c036613bdd565b905f52600560205260405f20905f52602052602060ff60405f2054166040519015158152f35b34610701576020366003190112610701575f61020060405161230781613925565b82815282602082015260606040820152826060820152826080820152606060a0820152606060c08201528260e0820152826101008201528261012082015282610140820152826101608201526060610180820152826101a0820152826101c082015260606101e082015201526004355f525f60205260405f2060018060a01b036001820154169081156125ab57600e61247f91604051936123a785613925565b8154855260208501526123bc600282016139ec565b604085015260038101546060850152600481015460808501526123e1600582016139ec565b60a08501526123f2600682016139ec565b60c0850152600781015460e085015260088101546101008501526009810154610120850152600a810154610140850152600b810154610160850152612439600c82016139ec565b61018085015260ff600d82015481811615156101a087015260081c1615156101c085015261246882820161425a565b6101e0850152600f8101546102008501520161425a565b610743604051928392604084528151604085015260018060a01b0360208301511660608501526102006125956125636125106124f96124cf604088015161022060808c01526102608b0190613a8d565b606088015160a08b0152608088015160c08b015260a0880151603f198b83030160e08c0152613a8d565b60c0870151898203603f19016101008b0152613a8d565b60e08601516101208901526101008601516101408901526101208601516101608901526101408601516101808901526101608601516101a0890152610180860151603f19898303016101c08a0152613a8d565b6101a085015115156101e08801526101c08501511515838801526101e0850151603f1988830301610220890152613ba1565b9201516102408501528382036020850152613ba1565b60405162461bcd60e51b815260206004820152601260248201527110d85b5c185a59db881b9bdd08199bdd5b9960721b6044820152606490fd5b3461070157610120366003190112610701576004356001600160401b03811161070157612616903690600401613ae6565b6024356001600160401b03811161070157612635903690600401613ae6565b90600d6044351015610701576064356001600160401b03811161070157612660903690600401613ae6565b916084356001600160401b03811161070157612680903690600401613ae6565b9260a4356001600160401b038111610701576126a0903690600401613ae6565b60c4356001600160401b038111610701576126bf903690600401613ae6565b9460e4356001600160401b038111610701576126df903690600401613b43565b92610104356001600160401b03811161070157612700903690600401613b43565b9461270c600c54613e87565b80600c555f52600360205260405f20968051906001600160401b0382116105355781906127438261273d8c546138ed565b8c613ed1565b602090601f8311600114612d3c575f92612d31575b50508160011b915f199060031b1c19161787555b6001870180546001600160a01b031916331790558051906001600160401b0382116105355781906127ad826127a460028c01546138ed565b60028c01613ed1565b602090601f8311600114612cc3575f92612cb8575b50508160011b915f199060031b1c19161760028701555b60ff1960038701541660ff604435161760038701558051906001600160401b03821161053557819061281b8261281260048b01546138ed565b60048b01613ed1565b602090601f8311600114612c4a575f92612c3f575b50508160011b915f199060031b1c19161760048601555b8051906001600160401b0382116105355781906128748261286b60058a01546138ed565b60058a01613ed1565b602090601f8311600114612bd1575f92612bc6575b50508160011b915f199060031b1c19161760058501555b8051906001600160401b0382116105355781906128cd826128c460068901546138ed565b60068901613ed1565b602090601f8311600114612b58575f92612b4d575b50508160011b915f199060031b1c19161760068401555b83516001600160401b038111610535576129238161291a60078701546138ed565b60078701613ed1565b6020601f8211600114612adf5781929394955f92612ad4575b50508160011b915f199060031b1c19161760078401559190915b60098201925f5b8251811015612a21576129708184613f14565b515f525f6020523360018060a01b03600160405f20015416036129dc57806129a561299e6129d79386613f14565b5187613f51565b600c545f52600460205260405f206129bd8286613f14565b515f5260205260405f20600160ff19825416179055613e87565b61295d565b60405162461bcd60e51b815260206004820152601c60248201527f43616e20616464206f6e6c79206f776e65642063616d706169676e73000000006044820152606490fd5b50600a8301905f5b815181101561002257612a3c8183613f14565b515f5260016020523360018060a01b03600160405f2001541603612a8f5780612a72612a6b612a8a9385613f14565b5185613f51565b600c545f52600560205260405f206129bd8285613f14565b612a29565b60405162461bcd60e51b815260206004820152601960248201527f43616e20616464206f6e6c79206f776e6564206576656e7473000000000000006044820152606490fd5b01519050858061293c565b600785015f5260205f20905f5b601f1984168110612b35575060019394959683601f19811610612b1d575b505050811b016007840155919091612956565b01515f1960f88460031b161c19169055858080612b0a565b9091602060018192858b015181550193019101612aec565b0151905086806128e2565b9250600686015f5260205f20905f935b601f1984168510612bab576001945083601f19811610612b93575b505050811b0160068401556128f9565b01515f1960f88460031b161c19169055868080612b83565b81810151835560209485019460019093019290910190612b68565b015190508780612889565b9250600587015f5260205f20905f935b601f1984168510612c24576001945083601f19811610612c0c575b505050811b0160058501556128a0565b01515f1960f88460031b161c19169055878080612bfc565b81810151835560209485019460019093019290910190612be1565b015190508880612830565b9250600488015f5260205f20905f935b601f1984168510612c9d576001945083601f19811610612c85575b505050811b016004860155612847565b01515f1960f88460031b161c19169055888080612c75565b81810151835560209485019460019093019290910190612c5a565b0151905089806127c2565b9250600289015f5260205f20905f935b601f1984168510612d16576001945083601f19811610612cfe575b505050811b0160028701556127d9565b01515f1960f88460031b161c19169055898080612cee565b81810151835560209485019460019093019290910190612cd3565b015190508a80612758565b9250895f5260205f20905f935b601f1984168510612d89576001945083601f19811610612d71575b505050811b01875561276c565b01515f1960f88460031b161c191690558a8080612d64565b81810151835560209485019460019093019290910190612d49565b3461070157610140366003190112610701576004356001600160401b03811161070157612dd5903690600401613ae6565b6064356001600160401b03811161070157612df4903690600401613ae6565b906084356001600160401b03811161070157612e14903690600401613ae6565b90610124356001600160401b03811161070157612e35903690600401613b43565b612e43426024351015613de6565b612e5260243560443511613e31565b335f52600260205260a435600260405f200154106131ff57335f526002602052600260405f2001612e8660a4358254613dd9565b9055612e93600b54613e87565b9182600b55825f52600160205260405f2092835560018301336001600160601b0360a01b8254161790558051906001600160401b038211610535578190612eea82612ee160028801546138ed565b60028801613ed1565b602090601f8311600114613191575f92613186575b50508160011b915f199060031b1c19161760028301555b6024356003830155604435600483015583516001600160401b03811161053557612f5081612f4760058601546138ed565b60058601613ed1565b6020601f821160011461311b5781929394955f92613110575b50508160011b915f199060031b1c19161760058301555b82516001600160401b03811161053557612faa81612fa160068601546138ed565b60068601613ed1565b6020601f82116001146130a657819293945f9261309b575b50508160011b915f199060031b1c19161760068301555b60a435600783015560c435600883015560e435600983015561010435600a830155600b82018151916001600160401b03831161053557600160401b8311610535576020908254848455808510613080575b5001905f5260205f205f5b83811061306c5784546040519081527fe43349c008949cf6b65249356e6f918d4aaa0ca79f2b1166df4a4a98c9c16de260203392a2005b600190602084519401938184015501613035565b61309590845f5285845f209182019101613e95565b8561302a565b015190508480612fc2565b600684015f5260205f20905f5b601f19841681106130f85750600193949583601f198116106130e0575b505050811b016006830155612fd9565b01515f1960f88460031b161c191690558480806130d0565b9091602060018192858a0151815501930191016130b3565b015190508580612f69565b600584015f5260205f20905f5b601f198416811061316e575060019394959683601f19811610613156575b505050811b016005830155612f80565b01515f1960f88460031b161c19169055858080613146565b9091602060018192858b015181550193019101613128565b015190508680612eff565b9250600285015f5260205f20905f935b601f19841685106131e4576001945083601f198116106131cc575b505050811b016002830155612f16565b01515f1960f88460031b161c191690558680806131bc565b818101518355602094850194600190930192909101906131a1565b60405162461bcd60e51b815260206004820152602360248201527f496e73756666696369656e742061737365747320746f20637265617465206576604482015262195b9d60ea1b6064820152608490fd5b34610701576020806003193601126107015760043590815f526001815260405f2061328c600391610c2560048483015492015491421015613f85565b335f526002825260018060a01b036132ab8160405f2054161515614016565b335f526007835260405f20845f52835260ff908160405f20541661347157335f526002845260405f20541615613463575b835f526001835260405f20915f915f91600b85018054935b8481106134145750505050506009820154116133cf5761331890600c339101614058565b335f526002815261332f82600760405f2001613f51565b61333882614217565b80613386575b50335f526007815260405f2090825f525260405f20600160ff1982541617905533907ff11149736e591e4b965f3e9e625eaf62f393d637814b49899d9e8e0374cd0f9e5f80a3005b5f526009815260405f20335f52815260405f20600181016133a78154613e87565b9055825f52600182526133c76002600860405f2001549201918254613c33565b90558261333e565b60405162461bcd60e51b815260048101839052601e60248201527f4e6f7420656e6f7567682063616d706169676e7320636f6d706c6574656400006044820152606490fd5b61341e8183613f3c565b905490841b1c335f526006895260405f20905f5288528360405f20541661344e575b61344990613e87565b6132f4565b9461345b61344991613e87565b959050613440565b61346c336140ad565b6132dc565b60405162461bcd60e51b815260048101859052601960248201527f416c7265616479206a6f696e65642074686973206576656e74000000000000006044820152606490fd5b34610701575f366003190112610701576020600c54604051908152f35b3461070157602080600319360112610701576004358015613599575f808080933382526002865261350d8160026040852001541015613d96565b3382526002865260026040832001613526828254613dd9565b9055335af13d15613594573d61353b81613acb565b9061354960405192836139cb565b81525f833d92013e5b1561355957005b6064906040519062461bcd60e51b8252600482015260146024820152732330b4b632b2103a379039b2b7321022ba3432b960611b6044820152fd5b613552565b6064826040519062461bcd60e51b825280600483015260248201527f416d6f756e74206d7573742062652067726561746572207468616e207a65726f6044820152fd5b34610701576040366003190112610701576001600160a01b036135fd6138c1565b165f52600760205260405f206024355f52602052602060ff60405f2054166040519015158152f35b34610701576020366003190112610701576004355f525f60205260405f20805490600160a01b600190036001820154169060028101613663906139ec565b926003820154906004830154906005840161367d906139ec565b9061368a600686016139ec565b916007860154926008870154600988015491600a89015493600b8a015495600c8b016136b5906139ec565b98600d8c01549b600f01549a6040519e8f9e8f948552602085015261020080604086015284016136e491613a8d565b926060015260808d01528b810360a08d01526136ff91613a8d565b8a810360c08c015261371091613a8d565b9460e08a015261010089015261012088015261014087015261016086015284810361018086015261374091613a8d565b9160ff811615156101a085015260081c60ff1615156101c08401526101e08301520390f35b34610701576020366003190112610701576004355f9081526001602081815260409092208054918101546001600160a01b03166137a4600283016139ec565b916003810154926138306004830154946138226137c3600586016139ec565b916137d0600687016139ec565b9260078701549861380a600889015497600a60098b01549a01549a6040519e8f9e8f908152015260408d61016091829101528d0190613a8d565b9260608c015260808b015289820360a08b0152613a8d565b9087820360c0890152613a8d565b9360e08601526101008501526101208401526101408301520390f35b34610701575f36600319011261070157600a54600b54600c5460408051938452602084019290925290820152606090f35b34610701576040366003190112610701576020906001600160a01b036138a16138c1565b165f526006825260405f206024355f52825260ff60405f20541615158152f35b600435906001600160a01b038216820361070157565b602435906001600160a01b038216820361070157565b90600182811c9216801561391b575b602083101461390757565b634e487b7160e01b5f52602260045260245ffd5b91607f16916138fc565b61022081019081106001600160401b0382111761053557604052565b606081019081106001600160401b0382111761053557604052565b6101a081019081106001600160401b0382111761053557604052565b61010081019081106001600160401b0382111761053557604052565b61016081019081106001600160401b0382111761053557604052565b602081019081106001600160401b0382111761053557604052565b90601f801991011681019081106001600160401b0382111761053557604052565b9060405191825f8254926139ff846138ed565b9081845260019485811690815f14613a6a5750600114613a2a575b5050613a28925003836139cb565b565b909391505f52602090815f20935f915b818310613a52575050613a2893508201015f80613a1a565b85548884018501529485019487945091830191613a3a565b915050613a2894506020925060ff191682840152151560051b8201015f80613a1a565b91908251928382525f5b848110613ab7575050825f602080949584010152601f8019910116010190565b602081830181015184830182015201613a97565b6001600160401b03811161053557601f01601f191660200190565b81601f8201121561070157803590613afd82613acb565b92613b0b60405194856139cb565b8284526020838301011161070157815f926020809301838601378301015290565b6001600160401b0381116105355760051b60200190565b81601f8201121561070157803591613b5a83613b2c565b92613b6860405194856139cb565b808452602092838086019260051b820101928311610701578301905b828210613b92575050505090565b81358152908301908301613b84565b9081518082526020808093019301915f5b828110613bc0575050505090565b83516001600160a01b031685529381019392810192600101613bb2565b6040906003190112610701576004359060243590565b9081518082526020808093019301915f5b828110613c12575050505090565b835185529381019392810192600101613c04565b90600d821015611e0e5752565b9190820180921161076c57565b335f90815260026020908152604080832080549093906001600160a01b0316613d81577f48cac28ad4dc618e15f4c2dd5e97751182f166de97b25618318b2112aa951a2f929350338152600284526007828220336001600160601b0360a01b8254161781555f60018201613cbd613cb782546138ed565b82613eab565b5534600282015582600382015560016004820155828451613cdd816139b0565b5260058101805484825580613d69575b508352828451613cfc816139b0565b5260068101805484825580613d51575b508352828451613d1b816139b0565b5201805482825580613d39575b5081528151938085528401523392a2565b818352858320613d4b91810190613e95565b5f613d28565b818552878520613d6391810190613e95565b5f613d0c565b818552878520613d7b91810190613e95565b5f613ced565b505050600201613d92348254613c33565b9055565b15613d9d57565b60405162461bcd60e51b8152602060048201526014602482015273496e73756666696369656e742062616c616e636560601b6044820152606490fd5b9190820391821161076c57565b15613ded57565b606460405162461bcd60e51b815260206004820152602060248201527f53746172742074696d65206d75737420626520696e20746865206675747572656044820152fd5b15613e3857565b60405162461bcd60e51b815260206004820152602160248201527f456e642074696d65206d7573742062652061667465722073746172742074696d6044820152606560f81b6064820152608490fd5b5f19811461076c5760010190565b818110613ea0575050565b5f8155600101613e95565b90601f8111613eb8575050565b613a28915f52601f60205f20910160051c810190613e95565b9190601f8111613ee057505050565b613a28925f5260205f20906020601f840160051c83019310613f0a575b601f0160051c0190613e95565b9091508190613efd565b8051821015613f285760209160051b010190565b634e487b7160e01b5f52603260045260245ffd5b8054821015613f28575f5260205f2001905f90565b8054600160401b81101561053557613f6e91600182018155613f3c565b819291549060031b91821b915f19901b1916179055565b15613f8c57565b60405162461bcd60e51b815260206004820152601860248201527f5468697320686173206e6f7420737461727465642079657400000000000000006044820152606490fd5b15613fd857565b60405162461bcd60e51b8152602060048201526016602482015275151a1a5cc81a185cc8185b1c9958591e48195b99195960521b6044820152606490fd5b1561401d57565b60405162461bcd60e51b8152602060048201526013602482015272155cd95c88191bd95cc81b9bdd08195e1a5cdd606a1b6044820152606490fd5b90815491600160401b8310156105355782611373916001613a2895018155613f3c565b9061408582613b2c565b61409260405191826139cb565b82815280926140a3601f1991613b2c565b0190602036910137565b60018060a01b03167f48cac28ad4dc618e15f4c2dd5e97751182f166de97b25618318b2112aa951a2f5f8281526020600281526040916007838220866001600160601b0360a01b8254161781555f6001820161410c613cb782546138ed565b558260028201558260038201556001600482015582855161412c816139b0565b52600581018054848255806141b6575b50835282855161414b816139b0565b526006810180548482558061419e575b50835282855161416a816139b0565b5201805482825580614186575b508152825191808352820152a2565b81835283832061419891810190613e95565b5f614177565b8185528585206141b091810190613e95565b5f61415b565b8185528585206141c891810190613e95565b5f61413c565b600c549060015b828111156141e4575050505f90565b60ff5f8281526020906004825260409182822090868352522054166142115761420c90613e87565b6141d5565b91505090565b600c549060015b8281111561422d575050505f90565b60ff5f8281526020906005825260409182822090868352522054166142115761425590613e87565b61421e565b906040519182815491828252602092838301915f52835f20935f905b82821061428c57505050613a28925003836139cb565b85546001600160a01b031684526001958601958895509381019390910190614276565b906040519182815491828252602092838301915f52835f20935f905b8282106142e157505050613a28925003836139cb565b8554845260019586019588955093810193909101906142cb56fea264697066735822122069d0894d92e2d68a2a222ccf875bca462be05da2eeb9a24ea7608ad4531fcd5064736f6c63430008140033","opcodes":"PUSH1 0x80 DUP1 PUSH1 0x40 MSTORE CALLVALUE PUSH2 0x16 JUMPI PUSH2 0x4331 SWAP1 DUP2 PUSH2 0x1B DUP3 CODECOPY RETURN JUMPDEST PUSH0 DUP1 REVERT INVALID PUSH1 0x80 DUP1 PUSH1 0x40 MSTORE PUSH1 0x4 CALLDATASIZE LT ISZERO PUSH2 0x24 JUMPI JUMPDEST POP CALLDATASIZE ISZERO PUSH2 0x1A JUMPI PUSH0 DUP1 REVERT JUMPDEST PUSH2 0x22 PUSH2 0x3C40 JUMP JUMPDEST STOP JUMPDEST PUSH0 CALLDATALOAD PUSH1 0xE0 SHR SWAP1 DUP2 PUSH4 0x3986A31 EQ PUSH2 0x387D JUMPI POP DUP1 PUSH4 0x45AF334 EQ PUSH2 0x384C JUMPI DUP1 PUSH4 0xB791430 EQ PUSH2 0x3765 JUMPI DUP1 PUSH4 0x141961BC EQ PUSH2 0x3625 JUMPI DUP1 PUSH4 0x16DC287A EQ PUSH2 0x35DC JUMPI DUP1 PUSH4 0x2E1A7D4D EQ PUSH2 0x34D3 JUMPI DUP1 PUSH4 0x319AE4B2 EQ PUSH2 0x34B6 JUMPI DUP1 PUSH4 0x38D361E2 EQ PUSH2 0x3250 JUMPI DUP1 PUSH4 0x467069EB EQ PUSH2 0x2DA4 JUMPI DUP1 PUSH4 0x488793C7 EQ PUSH2 0x25E5 JUMPI DUP1 PUSH4 0x5598F8CC EQ PUSH2 0x22E6 JUMPI DUP1 PUSH4 0x5710D6C0 EQ PUSH2 0x22B2 JUMPI DUP1 PUSH4 0x5E9DF36C EQ PUSH2 0x2220 JUMPI DUP1 PUSH4 0x6D1884E0 EQ PUSH2 0x1F8A JUMPI DUP1 PUSH4 0x6F77926B EQ PUSH2 0x1E22 JUMPI DUP1 PUSH4 0x70E10431 EQ PUSH2 0x1B60 JUMPI DUP1 PUSH4 0x71BE2E4A EQ PUSH2 0x1B43 JUMPI DUP1 PUSH4 0x7274E30D EQ PUSH2 0x1B26 JUMPI DUP1 PUSH4 0x74BB1272 EQ PUSH2 0x1AF2 JUMPI DUP1 PUSH4 0x7586353B EQ PUSH2 0x19F2 JUMPI DUP1 PUSH4 0x7F3A4B3D EQ PUSH2 0x1995 JUMPI DUP1 PUSH4 0x834E415C EQ PUSH2 0x1930 JUMPI DUP1 PUSH4 0x8B903D57 EQ PUSH2 0x18D3 JUMPI DUP1 PUSH4 0x8BE9E3C8 EQ PUSH2 0x17CA JUMPI DUP1 PUSH4 0x8C6AB238 EQ PUSH2 0x179E JUMPI DUP1 PUSH4 0xA87430BA EQ PUSH2 0x171E JUMPI DUP1 PUSH4 0xAF9036A1 EQ PUSH2 0x1563 JUMPI DUP1 PUSH4 0xB50E0182 EQ PUSH2 0x1522 JUMPI DUP1 PUSH4 0xB76FC16B EQ PUSH2 0x11FF JUMPI DUP1 PUSH4 0xC9E4F141 EQ PUSH2 0xE62 JUMPI DUP1 PUSH4 0xCF407595 EQ PUSH2 0xE19 JUMPI DUP1 PUSH4 0xD0E30DB0 EQ PUSH2 0xE06 JUMPI DUP1 PUSH4 0xD4A82A58 EQ PUSH2 0xBEC JUMPI DUP1 PUSH4 0xDAFABA4F EQ PUSH2 0x780 JUMPI DUP1 PUSH4 0xE2B08208 EQ PUSH2 0x705 JUMPI PUSH4 0xFF76154F EQ PUSH2 0x1BC JUMPI PUSH0 PUSH2 0xF JUMP JUMPDEST CALLVALUE PUSH2 0x701 JUMPI PUSH2 0x180 CALLDATASIZE PUSH1 0x3 NOT ADD SLT PUSH2 0x701 JUMPI PUSH1 0x4 CALLDATALOAD PUSH1 0x1 PUSH1 0x1 PUSH1 0x40 SHL SUB DUP2 GT PUSH2 0x701 JUMPI PUSH2 0x1ED SWAP1 CALLDATASIZE SWAP1 PUSH1 0x4 ADD PUSH2 0x3AE6 JUMP JUMPDEST PUSH1 0x64 CALLDATALOAD PUSH1 0x1 PUSH1 0x1 PUSH1 0x40 SHL SUB DUP2 GT PUSH2 0x701 JUMPI PUSH2 0x20C SWAP1 CALLDATASIZE SWAP1 PUSH1 0x4 ADD PUSH2 0x3AE6 JUMP JUMPDEST SWAP1 PUSH1 0x84 CALLDATALOAD PUSH1 0x1 PUSH1 0x1 PUSH1 0x40 SHL SUB DUP2 GT PUSH2 0x701 JUMPI PUSH2 0x22C SWAP1 CALLDATASIZE SWAP1 PUSH1 0x4 ADD PUSH2 0x3AE6 JUMP JUMPDEST SWAP1 PUSH2 0x144 CALLDATALOAD PUSH1 0x1 PUSH1 0x1 PUSH1 0x40 SHL SUB DUP2 GT PUSH2 0x701 JUMPI PUSH2 0x24D SWAP1 CALLDATASIZE SWAP1 PUSH1 0x4 ADD PUSH2 0x3AE6 JUMP JUMPDEST SWAP1 PUSH2 0x164 CALLDATALOAD ISZERO ISZERO PUSH2 0x164 CALLDATALOAD SUB PUSH2 0x701 JUMPI PUSH2 0x26B TIMESTAMP PUSH1 0x24 CALLDATALOAD LT ISZERO PUSH2 0x3DE6 JUMP JUMPDEST PUSH2 0x27A PUSH1 0x24 CALLDATALOAD PUSH1 0x44 CALLDATALOAD GT PUSH2 0x3E31 JUMP JUMPDEST CALLER PUSH0 MSTORE PUSH1 0x2 PUSH1 0x20 MSTORE PUSH1 0xA4 CALLDATALOAD PUSH1 0x2 PUSH1 0x40 PUSH0 KECCAK256 ADD SLOAD LT PUSH2 0x6AD JUMPI CALLER PUSH0 MSTORE PUSH1 0x2 PUSH1 0x20 MSTORE PUSH1 0x2 PUSH1 0x40 PUSH0 KECCAK256 ADD PUSH2 0x2AE PUSH1 0xA4 CALLDATALOAD DUP3 SLOAD PUSH2 0x3DD9 JUMP JUMPDEST SWAP1 SSTORE PUSH2 0x2BB PUSH1 0xA SLOAD PUSH2 0x3E87 JUMP JUMPDEST SWAP1 DUP2 PUSH1 0xA SSTORE DUP2 PUSH0 MSTORE PUSH0 PUSH1 0x20 MSTORE PUSH1 0x40 PUSH0 KECCAK256 SWAP2 DUP3 SSTORE PUSH1 0x1 DUP3 ADD CALLER PUSH1 0x1 PUSH1 0x1 PUSH1 0x60 SHL SUB PUSH1 0xA0 SHL DUP3 SLOAD AND OR SWAP1 SSTORE DUP1 MLOAD SWAP1 PUSH1 0x1 PUSH1 0x1 PUSH1 0x40 SHL SUB DUP3 GT PUSH2 0x535 JUMPI DUP2 SWAP1 PUSH2 0x311 DUP3 PUSH2 0x308 PUSH1 0x2 DUP8 ADD SLOAD PUSH2 0x38ED JUMP JUMPDEST PUSH1 0x2 DUP8 ADD PUSH2 0x3ED1 JUMP JUMPDEST PUSH1 0x20 SWAP1 PUSH1 0x1F DUP4 GT PUSH1 0x1 EQ PUSH2 0x63F JUMPI PUSH0 SWAP3 PUSH2 0x634 JUMPI JUMPDEST POP POP DUP2 PUSH1 0x1 SHL SWAP2 PUSH0 NOT SWAP1 PUSH1 0x3 SHL SHR NOT AND OR PUSH1 0x2 DUP3 ADD SSTORE JUMPDEST PUSH1 0x24 CALLDATALOAD PUSH1 0x3 DUP3 ADD SSTORE PUSH1 0x44 CALLDATALOAD PUSH1 0x4 DUP3 ADD SSTORE DUP4 MLOAD PUSH1 0x1 PUSH1 0x1 PUSH1 0x40 SHL SUB DUP2 GT PUSH2 0x535 JUMPI PUSH2 0x377 DUP2 PUSH2 0x36E PUSH1 0x5 DUP6 ADD SLOAD PUSH2 0x38ED JUMP JUMPDEST PUSH1 0x5 DUP6 ADD PUSH2 0x3ED1 JUMP JUMPDEST PUSH1 0x20 PUSH1 0x1F DUP3 GT PUSH1 0x1 EQ PUSH2 0x5C9 JUMPI DUP2 SWAP3 SWAP4 SWAP5 SWAP6 PUSH0 SWAP3 PUSH2 0x5BE JUMPI JUMPDEST POP POP DUP2 PUSH1 0x1 SHL SWAP2 PUSH0 NOT SWAP1 PUSH1 0x3 SHL SHR NOT AND OR PUSH1 0x5 DUP3 ADD SSTORE JUMPDEST DUP3 MLOAD PUSH1 0x1 PUSH1 0x1 PUSH1 0x40 SHL SUB DUP2 GT PUSH2 0x535 JUMPI PUSH2 0x3D1 DUP2 PUSH2 0x3C8 PUSH1 0x6 DUP6 ADD SLOAD PUSH2 0x38ED JUMP JUMPDEST PUSH1 0x6 DUP6 ADD PUSH2 0x3ED1 JUMP JUMPDEST PUSH1 0x20 PUSH1 0x1F DUP3 GT PUSH1 0x1 EQ PUSH2 0x554 JUMPI DUP2 SWAP3 SWAP4 SWAP5 PUSH0 SWAP3 PUSH2 0x549 JUMPI JUMPDEST POP POP DUP2 PUSH1 0x1 SHL SWAP2 PUSH0 NOT SWAP1 PUSH1 0x3 SHL SHR NOT AND OR PUSH1 0x6 DUP3 ADD SSTORE JUMPDEST PUSH1 0xA4 CALLDATALOAD PUSH1 0x7 DUP3 ADD SSTORE PUSH1 0xC4 CALLDATALOAD PUSH1 0x8 DUP3 ADD SSTORE PUSH1 0xE4 CALLDATALOAD PUSH1 0x9 DUP3 ADD SSTORE PUSH2 0x104 CALLDATALOAD PUSH1 0xA DUP3 ADD SSTORE PUSH2 0x124 CALLDATALOAD PUSH1 0xB DUP3 ADD SSTORE PUSH1 0xC DUP2 ADD DUP3 MLOAD PUSH1 0x1 PUSH1 0x1 PUSH1 0x40 SHL SUB DUP2 GT PUSH2 0x535 JUMPI PUSH2 0x452 DUP2 PUSH2 0x44C DUP5 SLOAD PUSH2 0x38ED JUMP JUMPDEST DUP5 PUSH2 0x3ED1 JUMP JUMPDEST PUSH1 0x20 PUSH1 0x1F DUP3 GT PUSH1 0x1 EQ PUSH2 0x4D3 JUMPI DUP2 SWAP3 SWAP4 SWAP5 PUSH0 SWAP3 PUSH2 0x4C8 JUMPI JUMPDEST POP POP DUP2 PUSH1 0x1 SHL SWAP2 PUSH0 NOT SWAP1 PUSH1 0x3 SHL SHR NOT AND OR SWAP1 SSTORE JUMPDEST PUSH1 0xD DUP2 ADD DUP1 SLOAD PUSH2 0xFF00 NOT AND PUSH2 0x164 CALLDATALOAD ISZERO ISZERO PUSH1 0x8 SHL PUSH2 0xFF00 AND OR SWAP1 SSTORE SLOAD PUSH1 0x40 MLOAD SWAP1 DUP2 MSTORE PUSH32 0x633109EEC20320EDED000FC1E2634211AA7E92BA3F5B15FAF6DCDAFCA05094E4 PUSH1 0x20 CALLER SWAP3 LOG2 STOP JUMPDEST ADD MLOAD SWAP1 POP PUSH0 DUP1 PUSH2 0x46A JUMP JUMPDEST PUSH1 0x1F NOT DUP3 AND SWAP1 DUP4 PUSH0 MSTORE PUSH1 0x20 PUSH0 KECCAK256 SWAP2 PUSH0 JUMPDEST DUP2 DUP2 LT PUSH2 0x51D JUMPI POP SWAP6 DUP4 PUSH1 0x1 SWAP6 SWAP7 SWAP8 LT PUSH2 0x505 JUMPI JUMPDEST POP POP POP DUP2 SHL ADD SWAP1 SSTORE PUSH2 0x47E JUMP JUMPDEST ADD MLOAD PUSH0 NOT PUSH1 0xF8 DUP5 PUSH1 0x3 SHL AND SHR NOT AND SWAP1 SSTORE PUSH0 DUP1 DUP1 PUSH2 0x4F8 JUMP JUMPDEST SWAP2 SWAP3 PUSH1 0x20 PUSH1 0x1 DUP2 SWAP3 DUP7 DUP12 ADD MLOAD DUP2 SSTORE ADD SWAP5 ADD SWAP3 ADD PUSH2 0x4E3 JUMP JUMPDEST PUSH4 0x4E487B71 PUSH1 0xE0 SHL PUSH0 MSTORE PUSH1 0x41 PUSH1 0x4 MSTORE PUSH1 0x24 PUSH0 REVERT JUMPDEST ADD MLOAD SWAP1 POP PUSH0 DUP1 PUSH2 0x3E9 JUMP JUMPDEST PUSH1 0x6 DUP4 ADD PUSH0 MSTORE PUSH1 0x20 PUSH0 KECCAK256 SWAP1 PUSH0 JUMPDEST PUSH1 0x1F NOT DUP5 AND DUP2 LT PUSH2 0x5A6 JUMPI POP PUSH1 0x1 SWAP4 SWAP5 SWAP6 DUP4 PUSH1 0x1F NOT DUP2 AND LT PUSH2 0x58E JUMPI JUMPDEST POP POP POP DUP2 SHL ADD PUSH1 0x6 DUP3 ADD SSTORE PUSH2 0x400 JUMP JUMPDEST ADD MLOAD PUSH0 NOT PUSH1 0xF8 DUP5 PUSH1 0x3 SHL AND SHR NOT AND SWAP1 SSTORE PUSH0 DUP1 DUP1 PUSH2 0x57E JUMP JUMPDEST SWAP1 SWAP2 PUSH1 0x20 PUSH1 0x1 DUP2 SWAP3 DUP6 DUP11 ADD MLOAD DUP2 SSTORE ADD SWAP4 ADD SWAP2 ADD PUSH2 0x561 JUMP JUMPDEST ADD MLOAD SWAP1 POP PUSH0 DUP1 PUSH2 0x390 JUMP JUMPDEST PUSH1 0x5 DUP4 ADD PUSH0 MSTORE PUSH1 0x20 PUSH0 KECCAK256 SWAP1 PUSH0 JUMPDEST PUSH1 0x1F NOT DUP5 AND DUP2 LT PUSH2 0x61C JUMPI POP PUSH1 0x1 SWAP4 SWAP5 SWAP6 SWAP7 DUP4 PUSH1 0x1F NOT DUP2 AND LT PUSH2 0x604 JUMPI JUMPDEST POP POP POP DUP2 SHL ADD PUSH1 0x5 DUP3 ADD SSTORE PUSH2 0x3A7 JUMP JUMPDEST ADD MLOAD PUSH0 NOT PUSH1 0xF8 DUP5 PUSH1 0x3 SHL AND SHR NOT AND SWAP1 SSTORE PUSH0 DUP1 DUP1 PUSH2 0x5F4 JUMP JUMPDEST SWAP1 SWAP2 PUSH1 0x20 PUSH1 0x1 DUP2 SWAP3 DUP6 DUP12 ADD MLOAD DUP2 SSTORE ADD SWAP4 ADD SWAP2 ADD PUSH2 0x5D6 JUMP JUMPDEST ADD MLOAD SWAP1 POP PUSH0 DUP1 PUSH2 0x326 JUMP JUMPDEST SWAP3 POP PUSH1 0x2 DUP5 ADD PUSH0 MSTORE PUSH1 0x20 PUSH0 KECCAK256 SWAP1 PUSH0 SWAP4 JUMPDEST PUSH1 0x1F NOT DUP5 AND DUP6 LT PUSH2 0x692 JUMPI PUSH1 0x1 SWAP5 POP DUP4 PUSH1 0x1F NOT DUP2 AND LT PUSH2 0x67A JUMPI JUMPDEST POP POP POP DUP2 SHL ADD PUSH1 0x2 DUP3 ADD SSTORE PUSH2 0x33D JUMP JUMPDEST ADD MLOAD PUSH0 NOT PUSH1 0xF8 DUP5 PUSH1 0x3 SHL AND SHR NOT AND SWAP1 SSTORE PUSH0 DUP1 DUP1 PUSH2 0x66A JUMP JUMPDEST DUP2 DUP2 ADD MLOAD DUP4 SSTORE PUSH1 0x20 SWAP5 DUP6 ADD SWAP5 PUSH1 0x1 SWAP1 SWAP4 ADD SWAP3 SWAP1 SWAP2 ADD SWAP1 PUSH2 0x64F JUMP JUMPDEST PUSH1 0x40 MLOAD PUSH3 0x461BCD PUSH1 0xE5 SHL DUP2 MSTORE PUSH1 0x20 PUSH1 0x4 DUP3 ADD MSTORE PUSH1 0x26 PUSH1 0x24 DUP3 ADD MSTORE PUSH32 0x496E73756666696369656E742061737365747320746F20637265617465206361 PUSH1 0x44 DUP3 ADD MSTORE PUSH6 0x36B830B4B3B7 PUSH1 0xD1 SHL PUSH1 0x64 DUP3 ADD MSTORE PUSH1 0x84 SWAP1 REVERT JUMPDEST PUSH0 DUP1 REVERT JUMPDEST CALLVALUE PUSH2 0x701 JUMPI PUSH0 CALLDATASIZE PUSH1 0x3 NOT ADD SLT PUSH2 0x701 JUMPI PUSH1 0xA SLOAD PUSH2 0x721 DUP2 PUSH2 0x407B JUMP JUMPDEST SWAP1 PUSH1 0x1 JUMPDEST DUP2 DUP2 GT ISZERO PUSH2 0x747 JUMPI PUSH1 0x40 MLOAD PUSH1 0x20 DUP1 DUP3 MSTORE DUP2 SWAP1 PUSH2 0x743 SWAP1 DUP3 ADD DUP7 PUSH2 0x3BF3 JUMP JUMPDEST SUB SWAP1 RETURN JUMPDEST PUSH0 NOT DUP2 ADD SWAP1 DUP1 DUP3 GT PUSH2 0x76C JUMPI DUP1 PUSH2 0x761 PUSH2 0x767 SWAP4 DUP7 PUSH2 0x3F14 JUMP JUMPDEST MSTORE PUSH2 0x3E87 JUMP JUMPDEST PUSH2 0x725 JUMP JUMPDEST PUSH4 0x4E487B71 PUSH1 0xE0 SHL PUSH0 MSTORE PUSH1 0x11 PUSH1 0x4 MSTORE PUSH1 0x24 PUSH0 REVERT JUMPDEST CALLVALUE PUSH2 0x701 JUMPI PUSH2 0x160 CALLDATASIZE PUSH1 0x3 NOT ADD SLT PUSH2 0x701 JUMPI PUSH1 0x1 PUSH1 0x1 PUSH1 0x40 SHL SUB PUSH1 0x24 DUP1 CALLDATALOAD DUP3 DUP2 GT PUSH2 0x701 JUMPI PUSH2 0x7B3 SWAP1 CALLDATASIZE SWAP1 PUSH1 0x4 ADD PUSH2 0x3AE6 JUMP JUMPDEST SWAP1 PUSH1 0x44 CALLDATALOAD DUP4 DUP2 GT PUSH2 0x701 JUMPI PUSH2 0x7CC SWAP1 CALLDATASIZE SWAP1 PUSH1 0x4 ADD PUSH2 0x3AE6 JUMP JUMPDEST SWAP1 PUSH1 0x64 CALLDATALOAD DUP5 DUP2 GT PUSH2 0x701 JUMPI PUSH2 0x7E5 SWAP1 CALLDATASIZE SWAP1 PUSH1 0x4 ADD PUSH2 0x3AE6 JUMP JUMPDEST SWAP3 PUSH2 0x124 CALLDATALOAD DUP6 DUP2 GT PUSH2 0x701 JUMPI PUSH2 0x7FF SWAP1 CALLDATASIZE SWAP1 PUSH1 0x4 ADD PUSH2 0x3AE6 JUMP JUMPDEST SWAP4 PUSH2 0x144 CALLDATALOAD SWAP5 DUP6 ISZERO ISZERO DUP7 SUB PUSH2 0x701 JUMPI PUSH1 0x4 CALLDATALOAD PUSH0 MSTORE PUSH1 0x20 SWAP2 PUSH0 DUP4 MSTORE PUSH1 0x40 PUSH0 KECCAK256 SWAP6 PUSH1 0x1 SWAP5 PUSH1 0x1 DUP1 PUSH1 0xA0 SHL SUB DUP7 DUP10 ADD SLOAD AND CALLER SUB PUSH2 0xB98 JUMPI DUP1 MLOAD PUSH1 0x2 DUP10 ADD SWAP2 DUP12 DUP3 GT PUSH2 0xB85 JUMPI DUP2 SWAP1 PUSH2 0x857 DUP3 PUSH2 0x851 DUP7 SLOAD PUSH2 0x38ED JUMP JUMPDEST DUP7 PUSH2 0x3ED1 JUMP JUMPDEST DUP8 SWAP1 PUSH1 0x1F DUP4 GT PUSH1 0x1 EQ PUSH2 0xB26 JUMPI PUSH0 SWAP3 PUSH2 0xB1B JUMPI JUMPDEST POP POP PUSH0 NOT PUSH1 0x3 DUP4 SWAP1 SHL SHR NOT AND SWAP1 DUP8 SHL OR SWAP1 SSTORE JUMPDEST DUP1 MLOAD PUSH1 0x5 DUP9 ADD SWAP2 DUP11 DUP3 GT PUSH2 0xB08 JUMPI DUP2 SWAP1 PUSH2 0x89C DUP3 PUSH2 0x851 DUP7 SLOAD PUSH2 0x38ED JUMP JUMPDEST DUP7 SWAP1 PUSH1 0x1F DUP4 GT PUSH1 0x1 EQ PUSH2 0xAA9 JUMPI PUSH0 SWAP3 PUSH2 0xA9E JUMPI JUMPDEST POP POP PUSH0 NOT PUSH1 0x3 DUP4 SWAP1 SHL SHR NOT AND SWAP1 DUP7 SHL OR SWAP1 SSTORE JUMPDEST DUP1 MLOAD PUSH1 0x6 DUP8 ADD SWAP2 DUP10 DUP3 GT PUSH2 0xA8B JUMPI DUP2 SWAP1 PUSH2 0x8E1 DUP3 PUSH2 0x851 DUP7 SLOAD PUSH2 0x38ED JUMP JUMPDEST DUP6 SWAP1 PUSH1 0x1F DUP4 GT PUSH1 0x1 EQ PUSH2 0xA2C JUMPI PUSH0 SWAP3 PUSH2 0xA21 JUMPI JUMPDEST POP POP PUSH0 NOT PUSH1 0x3 DUP4 SWAP1 SHL SHR NOT AND SWAP1 DUP6 SHL OR SWAP1 SSTORE JUMPDEST PUSH1 0x84 CALLDATALOAD PUSH1 0x7 DUP7 ADD SSTORE PUSH1 0xA4 CALLDATALOAD PUSH1 0x8 DUP7 ADD SSTORE PUSH1 0xC4 CALLDATALOAD PUSH1 0x9 DUP7 ADD SSTORE PUSH1 0xE4 CALLDATALOAD PUSH1 0xA DUP7 ADD SSTORE PUSH2 0x104 CALLDATALOAD PUSH1 0xB DUP7 ADD SSTORE PUSH1 0xC DUP6 ADD SWAP4 DUP2 MLOAD SWAP8 DUP9 GT PUSH2 0xA0E JUMPI POP PUSH2 0x94E DUP8 PUSH2 0x851 DUP7 SLOAD PUSH2 0x38ED JUMP JUMPDEST DUP2 PUSH1 0x1F DUP9 GT PUSH1 0x1 EQ PUSH2 0x9A4 JUMPI POP SWAP6 DUP1 PUSH1 0xD SWAP6 SWAP5 SWAP4 DUP2 SWAP4 PUSH2 0x22 SWAP10 PUSH0 SWAP5 PUSH2 0x999 JUMPI JUMPDEST POP POP SHL SWAP2 PUSH0 NOT SWAP1 PUSH1 0x3 SHL SHR NOT AND OR SWAP1 SSTORE JUMPDEST ADD SWAP1 PUSH2 0xFF00 DUP3 SLOAD SWAP2 ISZERO ISZERO PUSH1 0x8 SHL AND SWAP1 PUSH2 0xFF00 NOT AND OR SWAP1 SSTORE JUMP JUMPDEST ADD MLOAD SWAP3 POP DUP10 DUP1 PUSH2 0x96F JUMP JUMPDEST SWAP2 SWAP1 PUSH1 0x1F NOT DUP9 AND DUP6 PUSH0 MSTORE DUP4 PUSH0 KECCAK256 SWAP4 PUSH0 SWAP1 JUMPDEST DUP3 DUP3 LT PUSH2 0x9F7 JUMPI POP POP SWAP2 PUSH1 0xD SWAP7 SWAP6 SWAP5 SWAP4 SWAP2 DUP10 PUSH2 0x22 SWAP11 SWAP5 LT PUSH2 0x9DF JUMPI JUMPDEST POP POP POP DUP2 SHL ADD SWAP1 SSTORE PUSH2 0x980 JUMP JUMPDEST ADD MLOAD PUSH0 NOT PUSH1 0xF8 DUP5 PUSH1 0x3 SHL AND SHR NOT AND SWAP1 SSTORE DUP8 DUP1 DUP1 PUSH2 0x9D2 JUMP JUMPDEST DUP1 DUP8 DUP7 SWAP8 DUP3 SWAP5 SWAP8 DUP8 ADD MLOAD DUP2 SSTORE ADD SWAP7 ADD SWAP5 ADD SWAP1 PUSH2 0x9B5 JUMP JUMPDEST PUSH4 0x4E487B71 PUSH1 0xE0 SHL PUSH0 SWAP1 DUP2 MSTORE PUSH1 0x41 PUSH1 0x4 MSTORE REVERT JUMPDEST ADD MLOAD SWAP1 POP DUP11 DUP1 PUSH2 0x8F5 JUMP JUMPDEST SWAP1 DUP8 SWAP4 POP PUSH1 0x1F NOT DUP4 AND SWAP2 DUP6 PUSH0 MSTORE DUP8 PUSH0 KECCAK256 SWAP3 PUSH0 JUMPDEST DUP10 DUP3 DUP3 LT PUSH2 0xA75 JUMPI POP POP DUP5 GT PUSH2 0xA5D JUMPI JUMPDEST POP POP POP DUP2 SHL ADD SWAP1 SSTORE PUSH2 0x908 JUMP JUMPDEST ADD MLOAD PUSH0 NOT PUSH1 0xF8 DUP5 PUSH1 0x3 SHL AND SHR NOT AND SWAP1 SSTORE DUP11 DUP1 DUP1 PUSH2 0xA50 JUMP JUMPDEST DUP4 DUP6 ADD MLOAD DUP7 SSTORE DUP12 SWAP8 SWAP1 SWAP6 ADD SWAP5 SWAP4 DUP5 ADD SWAP4 ADD PUSH2 0xA3F JUMP JUMPDEST DUP7 PUSH4 0x4E487B71 PUSH1 0xE0 SHL PUSH0 MSTORE PUSH1 0x41 PUSH1 0x4 MSTORE PUSH0 REVERT JUMPDEST ADD MLOAD SWAP1 POP DUP12 DUP1 PUSH2 0x8B0 JUMP JUMPDEST SWAP1 DUP9 SWAP4 POP PUSH1 0x1F NOT DUP4 AND SWAP2 DUP6 PUSH0 MSTORE DUP9 PUSH0 KECCAK256 SWAP3 PUSH0 JUMPDEST DUP11 DUP3 DUP3 LT PUSH2 0xAF2 JUMPI POP POP DUP5 GT PUSH2 0xADA JUMPI JUMPDEST POP POP POP DUP2 SHL ADD SWAP1 SSTORE PUSH2 0x8C3 JUMP JUMPDEST ADD MLOAD PUSH0 NOT PUSH1 0xF8 DUP5 PUSH1 0x3 SHL AND SHR NOT AND SWAP1 SSTORE DUP12 DUP1 DUP1 PUSH2 0xACD JUMP JUMPDEST DUP4 DUP6 ADD MLOAD DUP7 SSTORE DUP13 SWAP8 SWAP1 SWAP6 ADD SWAP5 SWAP4 DUP5 ADD SWAP4 ADD PUSH2 0xABC JUMP JUMPDEST DUP8 PUSH4 0x4E487B71 PUSH1 0xE0 SHL PUSH0 MSTORE PUSH1 0x41 PUSH1 0x4 MSTORE PUSH0 REVERT JUMPDEST ADD MLOAD SWAP1 POP DUP13 DUP1 PUSH2 0x86B JUMP JUMPDEST SWAP1 DUP10 SWAP4 POP PUSH1 0x1F NOT DUP4 AND SWAP2 DUP6 PUSH0 MSTORE DUP10 PUSH0 KECCAK256 SWAP3 PUSH0 JUMPDEST DUP12 DUP3 DUP3 LT PUSH2 0xB6F JUMPI POP POP DUP5 GT PUSH2 0xB57 JUMPI JUMPDEST POP POP POP DUP2 SHL ADD SWAP1 SSTORE PUSH2 0x87E JUMP JUMPDEST ADD MLOAD PUSH0 NOT PUSH1 0xF8 DUP5 PUSH1 0x3 SHL AND SHR NOT AND SWAP1 SSTORE DUP13 DUP1 DUP1 PUSH2 0xB4A JUMP JUMPDEST DUP4 DUP6 ADD MLOAD DUP7 SSTORE DUP14 SWAP8 SWAP1 SWAP6 ADD SWAP5 SWAP4 DUP5 ADD SWAP4 ADD PUSH2 0xB39 JUMP JUMPDEST DUP9 PUSH4 0x4E487B71 PUSH1 0xE0 SHL PUSH0 MSTORE PUSH1 0x41 PUSH1 0x4 MSTORE PUSH0 REVERT JUMPDEST PUSH1 0x40 MLOAD PUSH3 0x461BCD PUSH1 0xE5 SHL DUP2 MSTORE PUSH1 0x4 DUP2 ADD DUP7 SWAP1 MSTORE PUSH1 0x27 DUP2 DUP10 ADD MSTORE PUSH32 0x4F6E6C79207468652063726561746F722063616E206564697420746869732063 PUSH1 0x44 DUP3 ADD MSTORE PUSH7 0x30B6B830B4B3B7 PUSH1 0xC9 SHL PUSH1 0x64 DUP3 ADD MSTORE PUSH1 0x84 SWAP1 REVERT JUMPDEST CALLVALUE PUSH2 0x701 JUMPI PUSH1 0x20 DUP1 PUSH1 0x3 NOT CALLDATASIZE ADD SLT PUSH2 0x701 JUMPI PUSH1 0x4 CALLDATALOAD SWAP1 DUP2 PUSH0 MSTORE PUSH0 DUP2 MSTORE PUSH2 0xC2D PUSH1 0x40 PUSH0 KECCAK256 PUSH2 0xC25 PUSH1 0x4 PUSH1 0x3 DUP4 ADD SLOAD SWAP3 ADD SLOAD SWAP2 TIMESTAMP LT ISZERO PUSH2 0x3F85 JUMP JUMPDEST TIMESTAMP GT ISZERO PUSH2 0x3FD1 JUMP JUMPDEST CALLER PUSH0 MSTORE PUSH1 0x2 DUP1 DUP3 MSTORE PUSH2 0xC5F PUSH1 0x1 DUP1 PUSH1 0xA0 SHL SUB DUP1 PUSH1 0x40 PUSH0 KECCAK256 SLOAD AND ISZERO PUSH2 0xDF8 JUMPI JUMPDEST CALLER PUSH0 MSTORE DUP3 DUP5 MSTORE PUSH1 0x40 PUSH0 KECCAK256 SLOAD AND ISZERO ISZERO PUSH2 0x4016 JUMP JUMPDEST CALLER PUSH0 MSTORE PUSH1 0x6 DUP3 MSTORE PUSH1 0x40 PUSH0 KECCAK256 DUP4 PUSH0 MSTORE DUP3 MSTORE PUSH1 0xFF PUSH1 0x40 PUSH0 KECCAK256 SLOAD AND PUSH2 0xDB3 JUMPI DUP3 PUSH0 MSTORE PUSH0 DUP3 MSTORE PUSH1 0x40 PUSH0 KECCAK256 CALLER PUSH0 MSTORE DUP2 DUP4 MSTORE PUSH1 0x4 PUSH1 0x40 PUSH0 KECCAK256 ADD SLOAD PUSH1 0x9 DUP3 ADD SLOAD GT PUSH2 0xD79 JUMPI PUSH2 0xCC7 SWAP1 CALLER PUSH0 MSTORE DUP3 DUP5 MSTORE PUSH2 0xCBD DUP4 PUSH1 0x40 PUSH0 KECCAK256 ADD SLOAD PUSH1 0xA DUP4 ADD SLOAD GT ISZERO PUSH2 0x3D96 JUMP JUMPDEST PUSH1 0xE CALLER SWAP2 ADD PUSH2 0x4058 JUMP JUMPDEST CALLER PUSH0 MSTORE DUP1 DUP3 MSTORE PUSH2 0xCDD DUP4 PUSH1 0x6 PUSH1 0x40 PUSH0 KECCAK256 ADD PUSH2 0x3F51 JUMP JUMPDEST PUSH2 0xCE6 DUP4 PUSH2 0x41CE JUMP JUMPDEST DUP1 PUSH2 0xD35 JUMPI JUMPDEST POP POP CALLER PUSH0 MSTORE PUSH1 0x6 DUP2 MSTORE PUSH1 0x40 PUSH0 KECCAK256 SWAP1 DUP3 PUSH0 MSTORE MSTORE PUSH1 0x40 PUSH0 KECCAK256 PUSH1 0x1 PUSH1 0xFF NOT DUP3 SLOAD AND OR SWAP1 SSTORE CALLER SWAP1 PUSH32 0xA8CB7EC996AF5CD17D263F3DCDF80CA63FB4CEF1B4312A18C70C8F533597F3B PUSH0 DUP1 LOG3 STOP JUMPDEST PUSH0 MSTORE PUSH1 0x9 DUP3 MSTORE PUSH1 0x40 PUSH0 KECCAK256 CALLER PUSH0 MSTORE DUP3 MSTORE PUSH2 0xD70 PUSH1 0x40 PUSH0 KECCAK256 SWAP2 PUSH2 0xD56 DUP4 SLOAD PUSH2 0x3E87 JUMP JUMPDEST DUP4 SSTORE DUP5 PUSH0 MSTORE PUSH0 DUP5 MSTORE PUSH1 0x8 PUSH1 0x40 PUSH0 KECCAK256 ADD SLOAD SWAP3 ADD SWAP2 DUP3 SLOAD PUSH2 0x3C33 JUMP JUMPDEST SWAP1 SSTORE DUP3 DUP1 PUSH2 0xCEC JUMP JUMPDEST PUSH1 0x40 MLOAD PUSH3 0x461BCD PUSH1 0xE5 SHL DUP2 MSTORE PUSH1 0x4 DUP2 ADD DUP5 SWAP1 MSTORE PUSH1 0x12 PUSH1 0x24 DUP3 ADD MSTORE PUSH18 0x55736572206C6576656C20746F6F206C6F77 PUSH1 0x70 SHL PUSH1 0x44 DUP3 ADD MSTORE PUSH1 0x64 SWAP1 REVERT JUMPDEST PUSH1 0x40 MLOAD PUSH3 0x461BCD PUSH1 0xE5 SHL DUP2 MSTORE PUSH1 0x4 DUP2 ADD DUP4 SWAP1 MSTORE PUSH1 0x1C PUSH1 0x24 DUP3 ADD MSTORE PUSH32 0x416C7265616479206A6F696E656420746869732063616D706169676E00000000 PUSH1 0x44 DUP3 ADD MSTORE PUSH1 0x64 SWAP1 REVERT JUMPDEST PUSH2 0xE01 CALLER PUSH2 0x40AD JUMP JUMPDEST PUSH2 0xC4C JUMP JUMPDEST PUSH0 CALLDATASIZE PUSH1 0x3 NOT ADD SLT PUSH2 0x701 JUMPI PUSH2 0x22 PUSH2 0x3C40 JUMP JUMPDEST CALLVALUE PUSH2 0x701 JUMPI PUSH1 0x40 CALLDATASIZE PUSH1 0x3 NOT ADD SLT PUSH2 0x701 JUMPI PUSH1 0x1 PUSH1 0x1 PUSH1 0xA0 SHL SUB PUSH2 0xE3A PUSH2 0x38C1 JUMP JUMPDEST AND PUSH0 MSTORE PUSH1 0x8 PUSH1 0x20 MSTORE PUSH1 0x40 PUSH0 KECCAK256 PUSH1 0x24 CALLDATALOAD PUSH0 MSTORE PUSH1 0x20 MSTORE PUSH1 0x20 PUSH1 0xFF PUSH1 0x40 PUSH0 KECCAK256 SLOAD AND PUSH1 0x40 MLOAD SWAP1 ISZERO ISZERO DUP2 MSTORE RETURN JUMPDEST CALLVALUE PUSH2 0x701 JUMPI PUSH2 0x120 CALLDATASIZE PUSH1 0x3 NOT ADD SLT PUSH2 0x701 JUMPI PUSH1 0x24 PUSH1 0x1 PUSH1 0x1 PUSH1 0x40 SHL SUB DUP2 CALLDATALOAD DUP2 DUP2 GT PUSH2 0x701 JUMPI PUSH2 0xE95 SWAP1 CALLDATASIZE SWAP1 PUSH1 0x4 ADD PUSH2 0x3AE6 JUMP JUMPDEST SWAP2 PUSH1 0x44 CALLDATALOAD DUP3 DUP2 GT PUSH2 0x701 JUMPI PUSH2 0xEAE SWAP1 CALLDATASIZE SWAP1 PUSH1 0x4 ADD PUSH2 0x3AE6 JUMP JUMPDEST PUSH1 0x64 CALLDATALOAD DUP4 DUP2 GT PUSH2 0x701 JUMPI PUSH2 0xEC6 SWAP1 CALLDATASIZE SWAP1 PUSH1 0x4 ADD PUSH2 0x3AE6 JUMP JUMPDEST SWAP4 PUSH2 0x104 CALLDATALOAD DUP5 DUP2 GT PUSH2 0x701 JUMPI PUSH2 0xEE0 SWAP1 CALLDATASIZE SWAP1 PUSH1 0x4 ADD PUSH2 0x3B43 JUMP JUMPDEST SWAP1 PUSH1 0x4 CALLDATALOAD PUSH0 MSTORE PUSH1 0x1 SWAP6 PUSH1 0x20 SWAP4 DUP8 DUP6 MSTORE PUSH1 0x40 PUSH0 KECCAK256 SWAP3 PUSH1 0x1 DUP1 PUSH1 0xA0 SHL SUB DUP10 DUP6 ADD SLOAD AND CALLER SUB PUSH2 0x11B1 JUMPI DUP1 MLOAD PUSH1 0x2 DUP6 ADD SWAP2 DUP10 DUP3 GT PUSH2 0xB85 JUMPI DUP2 SWAP1 PUSH2 0xF24 DUP3 PUSH2 0x851 DUP7 SLOAD PUSH2 0x38ED JUMP JUMPDEST DUP9 SWAP1 PUSH1 0x1F DUP4 GT PUSH1 0x1 EQ PUSH2 0x1149 JUMPI PUSH0 SWAP3 PUSH2 0x113E JUMPI JUMPDEST POP POP PUSH0 NOT PUSH1 0x3 DUP4 SWAP1 SHL SHR NOT AND SWAP1 DUP11 SHL OR SWAP1 SSTORE JUMPDEST DUP1 MLOAD PUSH1 0x5 DUP5 ADD SWAP2 DUP9 DUP3 GT PUSH2 0xB08 JUMPI DUP2 SWAP1 PUSH2 0xF69 DUP3 PUSH2 0x851 DUP7 SLOAD PUSH2 0x38ED JUMP JUMPDEST DUP8 SWAP1 PUSH1 0x1F DUP4 GT PUSH1 0x1 EQ PUSH2 0x10DF JUMPI PUSH0 SWAP3 PUSH2 0x10D4 JUMPI JUMPDEST POP POP PUSH0 NOT PUSH1 0x3 DUP4 SWAP1 SHL SHR NOT AND SWAP1 DUP10 SHL OR SWAP1 SSTORE JUMPDEST DUP1 MLOAD PUSH1 0x6 DUP4 ADD SWAP2 DUP8 DUP3 GT PUSH2 0xA8B JUMPI PUSH2 0xFB2 DUP3 PUSH2 0xFAC DUP6 SLOAD PUSH2 0x38ED JUMP JUMPDEST DUP6 PUSH2 0x3ED1 JUMP JUMPDEST DUP6 SWAP1 PUSH1 0x1F DUP4 GT PUSH1 0x1 EQ PUSH2 0x1070 JUMPI PUSH1 0xB SWAP5 SWAP4 SWAP3 SWAP2 PUSH0 SWAP2 DUP4 PUSH2 0x1065 JUMPI JUMPDEST POP POP PUSH0 NOT PUSH1 0x3 DUP4 SWAP1 SHL SHR NOT AND SWAP1 DUP10 SHL OR SWAP1 SSTORE JUMPDEST PUSH1 0x84 CALLDATALOAD PUSH1 0x7 DUP3 ADD SSTORE PUSH1 0xA4 CALLDATALOAD PUSH1 0x8 DUP3 ADD SSTORE PUSH1 0xC4 CALLDATALOAD PUSH1 0x9 DUP3 ADD SSTORE PUSH1 0xE4 CALLDATALOAD PUSH1 0xA DUP3 ADD SSTORE ADD SWAP3 DUP2 MLOAD SWAP5 DUP6 GT PUSH2 0xA0E JUMPI PUSH1 0x1 PUSH1 0x40 SHL DUP6 GT PUSH2 0xA0E JUMPI POP DUP2 SWAP1 DUP4 SLOAD DUP6 DUP6 SSTORE DUP1 DUP7 LT PUSH2 0x104A JUMPI JUMPDEST POP ADD SWAP2 PUSH0 MSTORE DUP1 PUSH0 KECCAK256 PUSH0 JUMPDEST DUP5 DUP2 LT PUSH2 0x1039 JUMPI STOP JUMPDEST DUP4 MLOAD DUP3 DUP3 ADD SSTORE SWAP3 DUP3 ADD SWAP3 DUP6 ADD PUSH2 0x1030 JUMP JUMPDEST PUSH2 0x105F SWAP1 DUP6 PUSH0 MSTORE DUP7 DUP5 PUSH0 KECCAK256 SWAP2 DUP3 ADD SWAP2 ADD PUSH2 0x3E95 JUMP JUMPDEST DUP7 PUSH2 0x1026 JUMP JUMPDEST ADD MLOAD SWAP1 POP DUP11 DUP1 PUSH2 0xFCD JUMP JUMPDEST SWAP4 SWAP3 SWAP2 DUP10 SWAP2 PUSH1 0x1F NOT DUP3 AND SWAP1 DUP5 PUSH0 MSTORE DUP9 PUSH0 KECCAK256 SWAP2 PUSH0 JUMPDEST DUP11 DUP3 DUP3 LT PUSH2 0x10BE JUMPI POP POP SWAP7 DUP4 PUSH1 0xB SWAP9 LT PUSH2 0x10A6 JUMPI JUMPDEST POP POP POP DUP2 SHL ADD SWAP1 SSTORE PUSH2 0xFE0 JUMP JUMPDEST ADD MLOAD PUSH0 NOT PUSH1 0xF8 DUP5 PUSH1 0x3 SHL AND SHR NOT AND SWAP1 SSTORE DUP11 DUP1 DUP1 PUSH2 0x1099 JUMP JUMPDEST DUP4 DUP11 ADD MLOAD DUP6 SSTORE DUP15 SWAP7 SWAP1 SWAP5 ADD SWAP4 SWAP3 DUP4 ADD SWAP3 ADD PUSH2 0x1084 JUMP JUMPDEST ADD MLOAD SWAP1 POP DUP11 DUP1 PUSH2 0xF7D JUMP JUMPDEST SWAP1 DUP12 SWAP4 POP PUSH1 0x1F NOT DUP4 AND SWAP2 DUP6 PUSH0 MSTORE DUP10 PUSH0 KECCAK256 SWAP3 PUSH0 JUMPDEST DUP12 DUP3 DUP3 LT PUSH2 0x1128 JUMPI POP POP DUP5 GT PUSH2 0x1110 JUMPI JUMPDEST POP POP POP DUP2 SHL ADD SWAP1 SSTORE PUSH2 0xF90 JUMP JUMPDEST ADD MLOAD PUSH0 NOT PUSH1 0xF8 DUP5 PUSH1 0x3 SHL AND SHR NOT AND SWAP1 SSTORE DUP11 DUP1 DUP1 PUSH2 0x1103 JUMP JUMPDEST DUP4 DUP6 ADD MLOAD DUP7 SSTORE DUP16 SWAP8 SWAP1 SWAP6 ADD SWAP5 SWAP4 DUP5 ADD SWAP4 ADD PUSH2 0x10F2 JUMP JUMPDEST ADD MLOAD SWAP1 POP DUP12 DUP1 PUSH2 0xF38 JUMP JUMPDEST SWAP1 DUP13 SWAP4 POP PUSH1 0x1F NOT DUP4 AND SWAP2 DUP6 PUSH0 MSTORE DUP11 PUSH0 KECCAK256 SWAP3 PUSH0 JUMPDEST DUP13 DUP3 DUP3 LT PUSH2 0x1192 JUMPI POP POP DUP5 GT PUSH2 0x117A JUMPI JUMPDEST POP POP POP DUP2 SHL ADD SWAP1 SSTORE PUSH2 0xF4B JUMP JUMPDEST ADD MLOAD PUSH0 NOT PUSH1 0xF8 DUP5 PUSH1 0x3 SHL AND SHR NOT AND SWAP1 SSTORE DUP12 DUP1 DUP1 PUSH2 0x116D JUMP JUMPDEST SWAP2 SWAP3 SWAP4 SWAP6 SWAP7 DUP3 SWAP2 SWAP6 DUP8 DUP7 ADD MLOAD DUP2 SSTORE ADD SWAP6 ADD SWAP4 ADD SWAP1 DUP15 SWAP6 SWAP5 SWAP4 SWAP3 SWAP2 PUSH2 0x115C JUMP JUMPDEST PUSH1 0x40 MLOAD PUSH3 0x461BCD PUSH1 0xE5 SHL DUP2 MSTORE PUSH1 0x4 DUP2 ADD DUP8 SWAP1 MSTORE PUSH1 0x21 DUP2 DUP10 ADD MSTORE PUSH32 0x4F6E6C792074686520686F73742063616E20656469742074686973206576656E PUSH1 0x44 DUP3 ADD MSTORE PUSH1 0x1D PUSH1 0xFA SHL PUSH1 0x64 DUP3 ADD MSTORE PUSH1 0x84 SWAP1 REVERT JUMPDEST CALLVALUE PUSH2 0x701 JUMPI PUSH1 0x20 CALLDATASIZE PUSH1 0x3 NOT ADD SLT PUSH2 0x701 JUMPI PUSH1 0x4 CALLDATALOAD PUSH0 MSTORE PUSH0 PUSH1 0x20 MSTORE PUSH1 0x40 PUSH0 KECCAK256 PUSH1 0x4 DUP2 ADD SLOAD TIMESTAMP GT ISZERO PUSH2 0x14DD JUMPI PUSH1 0xF DUP2 ADD SLOAD DUP1 NUMBER GT ISZERO PUSH2 0x1498 JUMPI PUSH1 0xE DUP3 ADD SLOAD SWAP2 DUP3 ISZERO PUSH2 0x1461 JUMPI DUP2 BLOCKHASH ISZERO PUSH2 0x141C JUMPI PUSH1 0xB DUP2 ADD SLOAD SWAP3 DUP4 ISZERO DUP1 ISZERO PUSH2 0x1413 JUMPI JUMPDEST PUSH2 0x140B JUMPI JUMPDEST POP PUSH0 JUMPDEST DUP4 DUP2 LT PUSH2 0x1269 JUMPI STOP JUMPDEST PUSH1 0x40 MLOAD PUSH1 0x20 DUP2 ADD SWAP1 DUP5 BLOCKHASH DUP3 MSTORE DUP3 PUSH1 0x40 DUP3 ADD MSTORE PUSH1 0x40 DUP2 MSTORE PUSH2 0x1288 DUP2 PUSH2 0x3941 JUMP JUMPDEST MLOAD SWAP1 KECCAK256 SWAP1 PUSH1 0xE DUP4 ADD SLOAD DUP1 ISZERO PUSH2 0x13F7 JUMPI PUSH2 0x12A6 DUP2 DUP5 MOD PUSH1 0xE DUP7 ADD PUSH2 0x3F3C JUMP JUMPDEST SWAP1 SLOAD PUSH1 0x1 DUP1 PUSH1 0xA0 SHL SUB DUP2 DUP4 PUSH1 0x3 SHL SHR AND PUSH0 MSTORE PUSH1 0x2 PUSH1 0x20 MSTORE PUSH1 0x40 PUSH0 KECCAK256 PUSH1 0x7 DUP8 ADD SLOAD DUP10 ISZERO PUSH2 0x13F7 JUMPI PUSH2 0x12DD DUP11 PUSH1 0x2 DUP5 ADD SWAP3 DIV DUP3 SLOAD PUSH2 0x3C33 JUMP JUMPDEST SWAP1 SSTORE PUSH2 0x12F3 PUSH1 0x3 PUSH1 0x8 DUP10 ADD SLOAD SWAP3 ADD SWAP2 DUP3 SLOAD PUSH2 0x3C33 JUMP JUMPDEST SWAP1 SSTORE PUSH1 0x1 DUP1 PUSH1 0xA0 SHL SUB SWAP2 PUSH1 0x3 SHL SHR AND PUSH0 MSTORE PUSH1 0x2 PUSH1 0x20 MSTORE PUSH1 0x40 PUSH0 KECCAK256 PUSH1 0x64 PUSH1 0x3 DUP3 ADD SLOAD DIV SWAP1 PUSH1 0xA DUP1 DUP4 GT PUSH2 0x13EE JUMPI JUMPDEST POP PUSH1 0x4 ADD DUP1 SLOAD DUP3 GT PUSH2 0x13E6 JUMPI JUMPDEST POP POP PUSH1 0xE DUP5 ADD SLOAD PUSH0 NOT SWAP4 SWAP1 DUP5 DUP2 ADD SWAP1 DUP2 GT PUSH2 0x76C JUMPI PUSH2 0x1392 SWAP3 PUSH2 0x1356 PUSH2 0x1373 SWAP3 PUSH1 0xE DUP10 ADD PUSH2 0x3F3C JUMP JUMPDEST SWAP1 SLOAD PUSH1 0x3 SWAP2 SWAP1 SWAP2 SHL SHR PUSH1 0x1 PUSH1 0x1 PUSH1 0xA0 SHL SUB AND SWAP3 MOD PUSH1 0xE DUP8 ADD PUSH2 0x3F3C JUMP JUMPDEST SWAP1 SWAP2 SWAP1 DUP3 SLOAD SWAP1 PUSH1 0x3 SHL SWAP2 PUSH1 0x1 DUP1 PUSH1 0xA0 SHL SUB DUP1 SWAP2 AND DUP4 SHL SWAP3 SHL NOT AND OR SWAP1 SSTORE JUMP JUMPDEST PUSH1 0xE DUP4 ADD SLOAD SWAP2 DUP3 ISZERO PUSH2 0x13D2 JUMPI PUSH2 0x13CD SWAP3 ADD PUSH2 0x13B0 DUP2 PUSH1 0xE DUP7 ADD PUSH2 0x3F3C JUMP JUMPDEST DUP2 SLOAD SWAP1 PUSH1 0x1 DUP1 PUSH1 0xA0 SHL SUB SWAP1 PUSH1 0x3 SHL SHL NOT AND SWAP1 SSTORE PUSH1 0xE DUP5 ADD SSTORE PUSH2 0x3E87 JUMP JUMPDEST PUSH2 0x1260 JUMP JUMPDEST PUSH4 0x4E487B71 PUSH1 0xE0 SHL PUSH0 MSTORE PUSH1 0x31 PUSH1 0x4 MSTORE PUSH1 0x24 PUSH0 REVERT JUMPDEST SSTORE DUP7 DUP1 PUSH2 0x132D JUMP JUMPDEST SWAP2 POP PUSH1 0x4 PUSH2 0x1320 JUMP JUMPDEST PUSH4 0x4E487B71 PUSH1 0xE0 SHL PUSH0 MSTORE PUSH1 0x12 PUSH1 0x4 MSTORE PUSH1 0x24 PUSH0 REVERT JUMPDEST SWAP3 POP DUP4 PUSH2 0x125D JUMP JUMPDEST POP DUP1 DUP5 GT PUSH2 0x1258 JUMP JUMPDEST PUSH1 0x40 MLOAD PUSH3 0x461BCD PUSH1 0xE5 SHL DUP2 MSTORE PUSH1 0x20 PUSH1 0x4 DUP3 ADD MSTORE PUSH1 0x17 PUSH1 0x24 DUP3 ADD MSTORE PUSH32 0x426C6F636B68617368206E6F7420617661696C61626C65000000000000000000 PUSH1 0x44 DUP3 ADD MSTORE PUSH1 0x64 SWAP1 REVERT JUMPDEST PUSH1 0x40 MLOAD PUSH3 0x461BCD PUSH1 0xE5 SHL DUP2 MSTORE PUSH1 0x20 PUSH1 0x4 DUP3 ADD MSTORE PUSH1 0xF PUSH1 0x24 DUP3 ADD MSTORE PUSH15 0x4E6F207061727469636970616E7473 PUSH1 0x88 SHL PUSH1 0x44 DUP3 ADD MSTORE PUSH1 0x64 SWAP1 REVERT JUMPDEST PUSH1 0x40 MLOAD PUSH3 0x461BCD PUSH1 0xE5 SHL DUP2 MSTORE PUSH1 0x20 PUSH1 0x4 DUP3 ADD MSTORE PUSH1 0x1C PUSH1 0x24 DUP3 ADD MSTORE PUSH32 0x52616E646F6D6E65737320626C6F636B206E6F74207265616368656400000000 PUSH1 0x44 DUP3 ADD MSTORE PUSH1 0x64 SWAP1 REVERT JUMPDEST PUSH1 0x40 MLOAD PUSH3 0x461BCD PUSH1 0xE5 SHL DUP2 MSTORE PUSH1 0x20 PUSH1 0x4 DUP3 ADD MSTORE PUSH1 0x1A PUSH1 0x24 DUP3 ADD MSTORE PUSH32 0x43616D706169676E20686173206E6F7420656E64656420796574000000000000 PUSH1 0x44 DUP3 ADD MSTORE PUSH1 0x64 SWAP1 REVERT JUMPDEST CALLVALUE PUSH2 0x701 JUMPI PUSH1 0x20 CALLDATASIZE PUSH1 0x3 NOT ADD SLT PUSH2 0x701 JUMPI PUSH1 0x4 CALLDATALOAD PUSH0 MSTORE PUSH1 0x1 PUSH1 0x20 MSTORE PUSH2 0x743 PUSH2 0x154F PUSH1 0xC PUSH1 0x40 PUSH0 KECCAK256 ADD PUSH2 0x425A JUMP JUMPDEST PUSH1 0x40 MLOAD SWAP2 DUP3 SWAP2 PUSH1 0x20 DUP4 MSTORE PUSH1 0x20 DUP4 ADD SWAP1 PUSH2 0x3BA1 JUMP JUMPDEST CALLVALUE PUSH2 0x701 JUMPI PUSH1 0x20 DUP1 PUSH1 0x3 NOT CALLDATASIZE ADD SLT PUSH2 0x701 JUMPI PUSH1 0x1 PUSH1 0x1 PUSH1 0x40 SHL SUB PUSH1 0x4 CALLDATALOAD DUP2 DUP2 GT PUSH2 0x701 JUMPI PUSH2 0x1595 SWAP1 CALLDATASIZE SWAP1 PUSH1 0x4 ADD PUSH2 0x3AE6 JUMP JUMPDEST CALLER PUSH0 SWAP1 DUP2 MSTORE PUSH1 0x2 DUP5 MSTORE PUSH1 0x40 SWAP1 KECCAK256 SLOAD PUSH2 0x15B7 SWAP1 PUSH1 0x1 PUSH1 0x1 PUSH1 0xA0 SHL SUB AND ISZERO ISZERO PUSH2 0x4016 JUMP JUMPDEST DUP1 MLOAD ISZERO PUSH2 0x16D9 JUMPI CALLER PUSH0 MSTORE PUSH1 0x2 DUP4 MSTORE PUSH1 0x1 DUP1 PUSH1 0x40 PUSH0 KECCAK256 ADD SWAP1 DUP3 MLOAD SWAP4 DUP5 GT PUSH2 0x535 JUMPI PUSH2 0x15E5 DUP5 PUSH2 0x44C DUP5 SLOAD PUSH2 0x38ED JUMP JUMPDEST DUP5 PUSH1 0x1F DUP6 GT PUSH1 0x1 EQ PUSH2 0x1656 JUMPI SWAP4 DUP1 DUP1 PUSH2 0x1646 SWAP6 SWAP5 SWAP4 PUSH32 0xD6136F3CAD7C60BFC24BBF1548F39F766CA8BCE104BF9ADDE3DEB6237DEC51DF SWAP8 PUSH0 SWAP4 PUSH2 0x164B JUMPI JUMPDEST POP SHL SWAP2 PUSH0 NOT SWAP1 PUSH1 0x3 SHL SHR NOT AND OR SWAP1 SSTORE JUMPDEST PUSH1 0x40 MLOAD SWAP2 DUP3 SWAP2 DUP6 DUP4 MSTORE CALLER SWAP6 DUP4 ADD SWAP1 PUSH2 0x3A8D JUMP JUMPDEST SUB SWAP1 LOG2 STOP JUMPDEST DUP7 ADD MLOAD SWAP3 POP DUP10 PUSH2 0x1623 JUMP JUMPDEST PUSH1 0x1F NOT DUP6 AND SWAP1 DUP4 PUSH0 MSTORE DUP7 PUSH0 KECCAK256 SWAP2 PUSH0 JUMPDEST DUP9 DUP3 DUP3 LT PUSH2 0x16C5 JUMPI POP POP SWAP2 DUP7 SWAP2 PUSH32 0xD6136F3CAD7C60BFC24BBF1548F39F766CA8BCE104BF9ADDE3DEB6237DEC51DF SWAP8 PUSH2 0x1646 SWAP8 SWAP7 SWAP6 SWAP5 LT PUSH2 0x16AD JUMPI JUMPDEST POP POP DUP2 SHL ADD SWAP1 SSTORE PUSH2 0x1633 JUMP JUMPDEST DUP6 ADD MLOAD PUSH0 NOT PUSH1 0xF8 DUP5 PUSH1 0x3 SHL AND SHR NOT AND SWAP1 SSTORE DUP8 DUP1 PUSH2 0x16A1 JUMP JUMPDEST DUP8 DUP5 ADD MLOAD DUP6 SSTORE SWAP4 DUP6 ADD SWAP4 SWAP3 DUP4 ADD SWAP3 ADD PUSH2 0x1665 JUMP JUMPDEST PUSH1 0x40 MLOAD PUSH3 0x461BCD PUSH1 0xE5 SHL DUP2 MSTORE PUSH1 0x4 DUP2 ADD DUP5 SWAP1 MSTORE PUSH1 0x18 PUSH1 0x24 DUP3 ADD MSTORE PUSH32 0x4E6577206E616D652063616E6E6F7420626520656D7074790000000000000000 PUSH1 0x44 DUP3 ADD MSTORE PUSH1 0x64 SWAP1 REVERT JUMPDEST CALLVALUE PUSH2 0x701 JUMPI PUSH1 0x20 CALLDATASIZE PUSH1 0x3 NOT ADD SLT PUSH2 0x701 JUMPI PUSH1 0x1 PUSH1 0x1 PUSH1 0xA0 SHL SUB DUP1 PUSH2 0x1740 PUSH2 0x38C1 JUMP JUMPDEST AND PUSH0 MSTORE PUSH1 0x2 PUSH1 0x20 MSTORE PUSH1 0x40 PUSH0 KECCAK256 SWAP1 DUP2 SLOAD AND PUSH2 0x175C PUSH1 0x1 DUP4 ADD PUSH2 0x39EC JUMP JUMPDEST SWAP2 PUSH1 0x2 DUP2 ADD SLOAD SWAP1 PUSH1 0x4 PUSH1 0x3 DUP3 ADD SLOAD SWAP2 ADD SLOAD SWAP1 PUSH2 0x178A PUSH1 0x40 MLOAD SWAP6 DUP7 SWAP6 DUP7 MSTORE PUSH1 0xA0 PUSH1 0x20 DUP8 ADD MSTORE PUSH1 0xA0 DUP7 ADD SWAP1 PUSH2 0x3A8D JUMP JUMPDEST SWAP3 PUSH1 0x40 DUP6 ADD MSTORE PUSH1 0x60 DUP5 ADD MSTORE PUSH1 0x80 DUP4 ADD MSTORE SUB SWAP1 RETURN JUMPDEST CALLVALUE PUSH2 0x701 JUMPI PUSH1 0x20 CALLDATASIZE PUSH1 0x3 NOT ADD SLT PUSH2 0x701 JUMPI PUSH1 0x4 CALLDATALOAD PUSH0 MSTORE PUSH0 PUSH1 0x20 MSTORE PUSH2 0x743 PUSH2 0x154F PUSH1 0xE PUSH1 0x40 PUSH0 KECCAK256 ADD PUSH2 0x425A JUMP JUMPDEST CALLVALUE PUSH2 0x701 JUMPI PUSH1 0x20 DUP1 PUSH1 0x3 NOT CALLDATASIZE ADD SLT PUSH2 0x701 JUMPI PUSH1 0x4 CALLDATALOAD SWAP1 CALLER PUSH0 MSTORE PUSH1 0x2 DUP2 MSTORE PUSH2 0x17FE PUSH1 0x1 DUP1 PUSH1 0xA0 SHL SUB PUSH1 0x40 PUSH0 KECCAK256 SLOAD AND ISZERO ISZERO PUSH2 0x4016 JUMP JUMPDEST CALLER PUSH0 MSTORE PUSH1 0x8 DUP2 MSTORE PUSH1 0x40 PUSH0 KECCAK256 DUP3 PUSH0 MSTORE DUP2 MSTORE PUSH1 0xFF PUSH1 0x40 PUSH0 KECCAK256 SLOAD AND PUSH2 0x188F JUMPI DUP2 PUSH0 MSTORE PUSH1 0x3 DUP2 MSTORE PUSH2 0x1831 CALLER PUSH1 0x8 PUSH1 0x40 PUSH0 KECCAK256 ADD PUSH2 0x4058 JUMP JUMPDEST CALLER PUSH0 MSTORE PUSH1 0x2 DUP2 MSTORE PUSH2 0x1848 DUP3 PUSH1 0x5 PUSH1 0x40 PUSH0 KECCAK256 ADD PUSH2 0x3F51 JUMP JUMPDEST CALLER PUSH0 MSTORE PUSH1 0x8 DUP2 MSTORE PUSH1 0x40 PUSH0 KECCAK256 SWAP1 DUP3 PUSH0 MSTORE MSTORE PUSH1 0x40 PUSH0 KECCAK256 PUSH1 0x1 PUSH1 0xFF NOT DUP3 SLOAD AND OR SWAP1 SSTORE CALLER SWAP1 PUSH32 0x54B395D5E852D463801B391AAC280C017D177C680B3B860FE2B47266A86BCB5F PUSH0 DUP1 LOG3 STOP JUMPDEST PUSH1 0x64 SWAP1 PUSH1 0x40 MLOAD SWAP1 PUSH3 0x461BCD PUSH1 0xE5 SHL DUP3 MSTORE PUSH1 0x4 DUP3 ADD MSTORE PUSH1 0x19 PUSH1 0x24 DUP3 ADD MSTORE PUSH32 0x416C7265616479206A6F696E6564207468697320737061636500000000000000 PUSH1 0x44 DUP3 ADD MSTORE REVERT JUMPDEST CALLVALUE PUSH2 0x701 JUMPI PUSH0 CALLDATASIZE PUSH1 0x3 NOT ADD SLT PUSH2 0x701 JUMPI PUSH1 0xC SLOAD PUSH2 0x18EF DUP2 PUSH2 0x407B JUMP JUMPDEST SWAP1 PUSH1 0x1 JUMPDEST DUP2 DUP2 GT ISZERO PUSH2 0x1911 JUMPI PUSH1 0x40 MLOAD PUSH1 0x20 DUP1 DUP3 MSTORE DUP2 SWAP1 PUSH2 0x743 SWAP1 DUP3 ADD DUP7 PUSH2 0x3BF3 JUMP JUMPDEST PUSH0 NOT DUP2 ADD SWAP1 DUP1 DUP3 GT PUSH2 0x76C JUMPI DUP1 PUSH2 0x761 PUSH2 0x192B SWAP4 DUP7 PUSH2 0x3F14 JUMP JUMPDEST PUSH2 0x18F3 JUMP JUMPDEST CALLVALUE PUSH2 0x701 JUMPI PUSH1 0x40 CALLDATASIZE PUSH1 0x3 NOT ADD SLT PUSH2 0x701 JUMPI PUSH2 0x1949 PUSH2 0x38D7 JUMP JUMPDEST PUSH1 0x4 CALLDATALOAD PUSH0 MSTORE PUSH1 0x9 PUSH1 0x20 MSTORE PUSH1 0x40 PUSH0 KECCAK256 SWAP1 PUSH1 0x1 DUP1 PUSH1 0xA0 SHL SUB AND PUSH0 MSTORE PUSH1 0x20 MSTORE PUSH1 0x40 PUSH0 KECCAK256 DUP1 SLOAD PUSH2 0x743 PUSH1 0x2 PUSH1 0x1 DUP5 ADD SLOAD SWAP4 ADD SLOAD PUSH1 0x40 MLOAD SWAP4 DUP5 SWAP4 DUP5 PUSH1 0x40 SWAP2 SWAP5 SWAP4 SWAP3 PUSH1 0x60 DUP3 ADD SWAP6 DUP3 MSTORE PUSH1 0x20 DUP3 ADD MSTORE ADD MSTORE JUMP JUMPDEST CALLVALUE PUSH2 0x701 JUMPI PUSH0 CALLDATASIZE PUSH1 0x3 NOT ADD SLT PUSH2 0x701 JUMPI PUSH1 0xB SLOAD PUSH2 0x19B1 DUP2 PUSH2 0x407B JUMP JUMPDEST SWAP1 PUSH1 0x1 JUMPDEST DUP2 DUP2 GT ISZERO PUSH2 0x19D3 JUMPI PUSH1 0x40 MLOAD PUSH1 0x20 DUP1 DUP3 MSTORE DUP2 SWAP1 PUSH2 0x743 SWAP1 DUP3 ADD DUP7 PUSH2 0x3BF3 JUMP JUMPDEST PUSH0 NOT DUP2 ADD SWAP1 DUP1 DUP3 GT PUSH2 0x76C JUMPI DUP1 PUSH2 0x761 PUSH2 0x19ED SWAP4 DUP7 PUSH2 0x3F14 JUMP JUMPDEST PUSH2 0x19B5 JUMP JUMPDEST CALLVALUE PUSH2 0x701 JUMPI PUSH1 0x20 CALLDATASIZE PUSH1 0x3 NOT ADD SLT PUSH2 0x701 JUMPI PUSH1 0x4 CALLDATALOAD PUSH0 MSTORE PUSH1 0x3 PUSH1 0x20 MSTORE PUSH1 0x40 PUSH0 KECCAK256 PUSH2 0x1A1A DUP2 PUSH2 0x39EC JUMP JUMPDEST PUSH1 0x1 DUP3 ADD SLOAD PUSH1 0x1 PUSH1 0x1 PUSH1 0xA0 SHL SUB AND SWAP2 PUSH2 0x1A35 PUSH1 0x2 DUP3 ADD PUSH2 0x39EC JUMP JUMPDEST SWAP1 PUSH1 0x3 DUP2 ADD SLOAD PUSH1 0xFF AND PUSH1 0x4 DUP3 ADD PUSH2 0x1A4B SWAP1 PUSH2 0x39EC JUMP JUMPDEST PUSH2 0x1A57 PUSH1 0x5 DUP5 ADD PUSH2 0x39EC JUMP JUMPDEST SWAP2 PUSH2 0x1A64 PUSH1 0x6 DUP6 ADD PUSH2 0x39EC JUMP JUMPDEST SWAP4 PUSH1 0x7 ADD PUSH2 0x1A71 SWAP1 PUSH2 0x39EC JUMP JUMPDEST SWAP5 PUSH1 0x40 MLOAD SWAP8 DUP9 SWAP8 PUSH2 0x100 DUP1 DUP11 MSTORE DUP10 ADD PUSH2 0x1A89 SWAP2 PUSH2 0x3A8D JUMP JUMPDEST SWAP1 PUSH1 0x20 DUP10 ADD MSTORE DUP8 DUP2 SUB PUSH1 0x40 DUP10 ADD MSTORE PUSH2 0x1AA0 SWAP2 PUSH2 0x3A8D JUMP JUMPDEST SWAP1 PUSH1 0x60 DUP8 ADD PUSH2 0x1AAE SWAP2 PUSH2 0x3C26 JUMP JUMPDEST DUP6 DUP2 SUB PUSH1 0x80 DUP8 ADD MSTORE PUSH2 0x1ABF SWAP2 PUSH2 0x3A8D JUMP JUMPDEST DUP5 DUP2 SUB PUSH1 0xA0 DUP7 ADD MSTORE PUSH2 0x1AD0 SWAP2 PUSH2 0x3A8D JUMP JUMPDEST DUP4 DUP2 SUB PUSH1 0xC0 DUP6 ADD MSTORE PUSH2 0x1AE1 SWAP2 PUSH2 0x3A8D JUMP JUMPDEST DUP3 DUP2 SUB PUSH1 0xE0 DUP5 ADD MSTORE PUSH2 0x743 SWAP2 PUSH2 0x3A8D JUMP JUMPDEST CALLVALUE PUSH2 0x701 JUMPI PUSH2 0x1B00 CALLDATASIZE PUSH2 0x3BDD JUMP JUMPDEST SWAP1 PUSH0 MSTORE PUSH1 0x4 PUSH1 0x20 MSTORE PUSH1 0x40 PUSH0 KECCAK256 SWAP1 PUSH0 MSTORE PUSH1 0x20 MSTORE PUSH1 0x20 PUSH1 0xFF PUSH1 0x40 PUSH0 KECCAK256 SLOAD AND PUSH1 0x40 MLOAD SWAP1 ISZERO ISZERO DUP2 MSTORE RETURN JUMPDEST CALLVALUE PUSH2 0x701 JUMPI PUSH0 CALLDATASIZE PUSH1 0x3 NOT ADD SLT PUSH2 0x701 JUMPI PUSH1 0x20 PUSH1 0xA SLOAD PUSH1 0x40 MLOAD SWAP1 DUP2 MSTORE RETURN JUMPDEST CALLVALUE PUSH2 0x701 JUMPI PUSH0 CALLDATASIZE PUSH1 0x3 NOT ADD SLT PUSH2 0x701 JUMPI PUSH1 0x20 PUSH1 0xB SLOAD PUSH1 0x40 MLOAD SWAP1 DUP2 MSTORE RETURN JUMPDEST CALLVALUE PUSH2 0x701 JUMPI PUSH1 0x20 CALLDATASIZE PUSH1 0x3 NOT ADD SLT PUSH2 0x701 JUMPI PUSH1 0x60 PUSH2 0x140 PUSH1 0x40 MLOAD PUSH2 0x1B82 DUP2 PUSH2 0x3994 JUMP JUMPDEST DUP3 DUP2 MSTORE PUSH0 PUSH1 0x20 DUP3 ADD MSTORE DUP3 PUSH1 0x40 DUP3 ADD MSTORE PUSH0 DUP4 DUP3 ADD MSTORE DUP3 PUSH1 0x80 DUP3 ADD MSTORE DUP3 PUSH1 0xA0 DUP3 ADD MSTORE DUP3 PUSH1 0xC0 DUP3 ADD MSTORE DUP3 PUSH1 0xE0 DUP3 ADD MSTORE DUP3 PUSH2 0x100 DUP3 ADD MSTORE DUP3 PUSH2 0x120 DUP3 ADD MSTORE ADD MSTORE PUSH1 0x4 CALLDATALOAD PUSH0 MSTORE PUSH1 0x3 PUSH1 0x20 MSTORE PUSH1 0x40 PUSH0 KECCAK256 PUSH1 0x40 MLOAD PUSH2 0x1BD8 DUP2 PUSH2 0x3994 JUMP JUMPDEST PUSH2 0x1BE1 DUP3 PUSH2 0x39EC JUMP JUMPDEST DUP2 MSTORE PUSH1 0x1 DUP3 ADD SLOAD PUSH1 0x1 PUSH1 0x1 PUSH1 0xA0 SHL SUB AND PUSH1 0x20 DUP3 ADD MSTORE PUSH2 0x1C02 PUSH1 0x2 DUP4 ADD PUSH2 0x39EC JUMP JUMPDEST PUSH1 0x40 DUP3 ADD MSTORE PUSH1 0xFF PUSH1 0x3 DUP4 ADD SLOAD AND PUSH1 0xD DUP2 LT ISZERO PUSH2 0x1E0E JUMPI PUSH2 0x1DE4 SWAP3 PUSH2 0x743 SWAP2 PUSH1 0x60 DUP5 ADD MSTORE PUSH2 0x1C31 PUSH1 0x4 DUP3 ADD PUSH2 0x39EC JUMP JUMPDEST PUSH1 0x80 DUP5 ADD MSTORE PUSH2 0x1C42 PUSH1 0x5 DUP3 ADD PUSH2 0x39EC JUMP JUMPDEST PUSH1 0xA0 DUP5 ADD MSTORE PUSH2 0x1C53 PUSH1 0x6 DUP3 ADD PUSH2 0x39EC JUMP JUMPDEST PUSH1 0xC0 DUP5 ADD MSTORE PUSH2 0x1C64 PUSH1 0x7 DUP3 ADD PUSH2 0x39EC JUMP JUMPDEST PUSH1 0xE0 DUP5 ADD MSTORE PUSH2 0x1C75 PUSH1 0x8 DUP3 ADD PUSH2 0x425A JUMP JUMPDEST PUSH2 0x100 DUP5 ADD MSTORE PUSH2 0x1C87 PUSH1 0x9 DUP3 ADD PUSH2 0x42AF JUMP JUMPDEST PUSH2 0x120 DUP5 ADD MSTORE PUSH2 0x1C99 PUSH1 0xA DUP3 ADD PUSH2 0x42AF JUMP JUMPDEST PUSH2 0x140 DUP5 ADD MSTORE PUSH2 0x1E00 PUSH2 0x1CAE PUSH1 0x8 DUP4 ADD PUSH2 0x425A JUMP JUMPDEST SWAP2 PUSH2 0x1DF2 PUSH2 0x1CCA PUSH1 0xA PUSH2 0x1CC3 PUSH1 0x9 DUP6 ADD PUSH2 0x42AF JUMP JUMPDEST SWAP4 ADD PUSH2 0x42AF JUMP JUMPDEST SWAP4 PUSH1 0x40 MLOAD SWAP8 DUP9 SWAP8 PUSH1 0x80 DUP10 MSTORE PUSH2 0x140 PUSH2 0x1DCF PUSH2 0x1DB7 PUSH2 0x1D9F PUSH2 0x1D86 DUP14 PUSH2 0x1D6F PUSH2 0x1D58 PUSH2 0x1D2F PUSH2 0x1D06 DUP11 MLOAD PUSH2 0x160 PUSH1 0x80 DUP8 ADD MSTORE PUSH2 0x1E0 DUP7 ADD SWAP1 PUSH2 0x3A8D JUMP JUMPDEST PUSH1 0x20 DUP12 ADD MLOAD PUSH1 0x1 PUSH1 0x1 PUSH1 0xA0 SHL SUB AND PUSH1 0xA0 DUP7 ADD MSTORE PUSH1 0x40 DUP12 ADD MLOAD DUP6 DUP3 SUB PUSH1 0x7F NOT ADD PUSH1 0xC0 DUP8 ADD MSTORE PUSH2 0x3A8D JUMP JUMPDEST PUSH2 0x1D41 PUSH1 0x60 DUP12 ADD MLOAD PUSH1 0xE0 DUP7 ADD SWAP1 PUSH2 0x3C26 JUMP JUMPDEST PUSH1 0x80 DUP11 ADD MLOAD DUP5 DUP3 SUB PUSH1 0x7F NOT ADD PUSH2 0x100 DUP7 ADD MSTORE PUSH2 0x3A8D JUMP JUMPDEST PUSH1 0xA0 DUP10 ADD MLOAD DUP4 DUP3 SUB PUSH1 0x7F NOT ADD PUSH2 0x120 DUP6 ADD MSTORE PUSH2 0x3A8D JUMP JUMPDEST SWAP1 PUSH1 0xC0 DUP9 ADD MLOAD SWAP1 DUP8 PUSH1 0x7F NOT DUP3 DUP6 SUB ADD SWAP2 ADD MSTORE PUSH2 0x3A8D JUMP JUMPDEST DUP14 PUSH1 0xE0 DUP8 ADD MLOAD SWAP1 PUSH2 0x160 PUSH1 0x7F NOT DUP3 DUP6 SUB ADD SWAP2 ADD MSTORE PUSH2 0x3A8D JUMP JUMPDEST PUSH2 0x100 DUP6 ADD MLOAD DUP14 DUP3 SUB PUSH1 0x7F NOT ADD PUSH2 0x180 DUP16 ADD MSTORE PUSH2 0x3BA1 JUMP JUMPDEST PUSH2 0x120 DUP5 ADD MLOAD DUP13 DUP3 SUB PUSH1 0x7F NOT ADD PUSH2 0x1A0 DUP15 ADD MSTORE PUSH2 0x3BF3 JUMP JUMPDEST SWAP2 ADD MLOAD DUP10 DUP3 SUB PUSH1 0x7F NOT ADD PUSH2 0x1C0 DUP12 ADD MSTORE PUSH2 0x3BF3 JUMP JUMPDEST SWAP1 DUP8 DUP3 SUB PUSH1 0x20 DUP10 ADD MSTORE PUSH2 0x3BA1 JUMP JUMPDEST SWAP1 DUP6 DUP3 SUB PUSH1 0x40 DUP8 ADD MSTORE PUSH2 0x3BF3 JUMP JUMPDEST SWAP1 DUP4 DUP3 SUB PUSH1 0x60 DUP6 ADD MSTORE PUSH2 0x3BF3 JUMP JUMPDEST PUSH4 0x4E487B71 PUSH1 0xE0 SHL PUSH0 MSTORE PUSH1 0x21 PUSH1 0x4 MSTORE PUSH1 0x24 PUSH0 REVERT JUMPDEST CALLVALUE PUSH2 0x701 JUMPI PUSH1 0x20 DUP1 PUSH1 0x3 NOT CALLDATASIZE ADD SLT PUSH2 0x701 JUMPI PUSH2 0x1E3C PUSH2 0x38C1 JUMP JUMPDEST PUSH2 0x743 PUSH1 0xE0 PUSH1 0x40 MLOAD PUSH2 0x1E4D DUP2 PUSH2 0x3978 JUMP JUMPDEST PUSH0 DUP2 MSTORE PUSH1 0x60 SWAP2 DUP2 DUP4 DUP8 DUP2 SWAP5 ADD MSTORE PUSH0 PUSH1 0x40 DUP3 ADD MSTORE PUSH0 DUP4 DUP3 ADD MSTORE PUSH0 PUSH1 0x80 DUP3 ADD MSTORE DUP3 PUSH1 0xA0 DUP3 ADD MSTORE DUP3 PUSH1 0xC0 DUP3 ADD MSTORE ADD MSTORE PUSH1 0x1 DUP1 PUSH1 0xA0 SHL SUB DUP1 SWAP4 AND PUSH0 MSTORE PUSH1 0x2 DUP5 MSTORE PUSH1 0x40 PUSH0 KECCAK256 SWAP1 PUSH1 0x40 MLOAD PUSH2 0x1E9A DUP2 PUSH2 0x3978 JUMP JUMPDEST DUP5 DUP4 SLOAD AND DUP2 MSTORE PUSH2 0x1F7A PUSH2 0x1EAF PUSH1 0x1 DUP6 ADD PUSH2 0x39EC JUMP JUMPDEST SWAP4 DUP8 DUP4 ADD SWAP5 DUP6 MSTORE PUSH2 0x1F69 PUSH1 0x2 DUP3 ADD SLOAD SWAP5 PUSH1 0x40 DUP6 ADD SWAP6 DUP7 MSTORE PUSH1 0x3 DUP4 ADD SLOAD DUP2 DUP7 ADD SWAP1 DUP2 MSTORE PUSH1 0x4 DUP5 ADD SLOAD SWAP1 PUSH1 0x80 DUP8 ADD SWAP2 DUP3 MSTORE PUSH2 0x1EEA PUSH1 0x5 DUP7 ADD PUSH2 0x42AF JUMP JUMPDEST SWAP3 PUSH1 0xA0 DUP9 ADD SWAP4 DUP5 MSTORE PUSH2 0x1F42 PUSH2 0x1F14 PUSH1 0x7 PUSH2 0x1F06 PUSH1 0x6 DUP11 ADD PUSH2 0x42AF JUMP JUMPDEST SWAP9 PUSH1 0xC0 DUP13 ADD SWAP10 DUP11 MSTORE ADD PUSH2 0x42AF JUMP JUMPDEST SWAP11 PUSH1 0xE0 DUP11 ADD SWAP12 DUP13 MSTORE PUSH1 0x40 MLOAD SWAP15 DUP16 SWAP15 DUP16 SWAP12 DUP3 DUP14 MSTORE MLOAD AND SWAP1 DUP12 ADD MSTORE MLOAD PUSH2 0x120 PUSH2 0x100 SWAP11 DUP12 PUSH1 0x40 DUP3 ADD MSTORE ADD SWAP1 PUSH2 0x3A8D JUMP JUMPDEST SWAP9 MLOAD SWAP1 DUP13 ADD MSTORE MLOAD PUSH1 0x80 DUP12 ADD MSTORE MLOAD PUSH1 0xA0 DUP11 ADD MSTORE MLOAD SWAP5 PUSH1 0x1F NOT SWAP6 DUP7 DUP11 DUP4 SUB ADD PUSH1 0xC0 DUP12 ADD MSTORE PUSH2 0x3BF3 JUMP JUMPDEST SWAP1 MLOAD DUP5 DUP9 DUP4 SUB ADD PUSH1 0xE0 DUP10 ADD MSTORE PUSH2 0x3BF3 JUMP JUMPDEST SWAP3 MLOAD SWAP2 DUP6 DUP5 SUB ADD SWAP1 DUP6 ADD MSTORE PUSH2 0x3BF3 JUMP JUMPDEST CALLVALUE PUSH2 0x701 JUMPI PUSH1 0x20 CALLDATASIZE PUSH1 0x3 NOT ADD SLT PUSH2 0x701 JUMPI PUSH1 0x60 PUSH2 0x180 PUSH1 0x40 MLOAD PUSH2 0x1FAC DUP2 PUSH2 0x395C JUMP JUMPDEST PUSH0 DUP2 MSTORE PUSH0 PUSH1 0x20 DUP3 ADD MSTORE DUP3 PUSH1 0x40 DUP3 ADD MSTORE PUSH0 DUP4 DUP3 ADD MSTORE PUSH0 PUSH1 0x80 DUP3 ADD MSTORE DUP3 PUSH1 0xA0 DUP3 ADD MSTORE DUP3 PUSH1 0xC0 DUP3 ADD MSTORE PUSH0 PUSH1 0xE0 DUP3 ADD MSTORE PUSH0 PUSH2 0x100 DUP3 ADD MSTORE PUSH0 PUSH2 0x120 DUP3 ADD MSTORE PUSH0 PUSH2 0x140 DUP3 ADD MSTORE DUP3 PUSH2 0x160 DUP3 ADD MSTORE ADD MSTORE PUSH1 0x4 CALLDATALOAD PUSH0 MSTORE PUSH1 0x1 PUSH1 0x20 MSTORE PUSH1 0x40 PUSH0 KECCAK256 PUSH1 0x1 DUP1 PUSH1 0xA0 SHL SUB PUSH1 0x1 DUP3 ADD SLOAD AND DUP1 ISZERO PUSH2 0x21E9 JUMPI PUSH2 0x743 PUSH2 0x21CD SWAP3 PUSH1 0x40 MLOAD SWAP3 PUSH2 0x202B DUP5 PUSH2 0x395C JUMP JUMPDEST DUP2 SLOAD DUP5 MSTORE PUSH1 0x20 DUP5 ADD MSTORE PUSH2 0x2040 PUSH1 0x2 DUP3 ADD PUSH2 0x39EC JUMP JUMPDEST PUSH1 0x40 DUP5 ADD MSTORE PUSH1 0x3 DUP2 ADD SLOAD PUSH1 0x60 DUP5 ADD MSTORE PUSH1 0x4 DUP2 ADD SLOAD PUSH1 0x80 DUP5 ADD MSTORE PUSH2 0x2065 PUSH1 0x5 DUP3 ADD PUSH2 0x39EC JUMP JUMPDEST PUSH1 0xA0 DUP5 ADD MSTORE PUSH2 0x2076 PUSH1 0x6 DUP3 ADD PUSH2 0x39EC JUMP JUMPDEST PUSH1 0xC0 DUP5 ADD MSTORE PUSH1 0x7 DUP2 ADD SLOAD PUSH1 0xE0 DUP5 ADD MSTORE PUSH1 0x8 DUP2 ADD SLOAD PUSH2 0x100 DUP5 ADD MSTORE PUSH1 0x9 DUP2 ADD SLOAD PUSH2 0x120 DUP5 ADD MSTORE PUSH1 0xA DUP2 ADD SLOAD PUSH2 0x140 DUP5 ADD MSTORE PUSH2 0x20B2 PUSH1 0xB DUP3 ADD PUSH2 0x42AF JUMP JUMPDEST PUSH2 0x160 DUP5 ADD MSTORE PUSH2 0x20C4 PUSH1 0xC DUP3 ADD PUSH2 0x425A JUMP JUMPDEST PUSH2 0x180 DUP5 ADD MSTORE PUSH2 0x21DB PUSH2 0x20E5 PUSH1 0xC PUSH2 0x20DE PUSH1 0xB DUP6 ADD PUSH2 0x42AF JUMP JUMPDEST SWAP4 ADD PUSH2 0x425A JUMP JUMPDEST SWAP2 PUSH1 0x40 MLOAD SWAP6 DUP7 SWAP6 PUSH1 0x60 DUP8 MSTORE DUP1 MLOAD PUSH1 0x60 DUP9 ADD MSTORE PUSH1 0x1 DUP1 PUSH1 0xA0 SHL SUB PUSH1 0x20 DUP3 ADD MLOAD AND PUSH1 0x80 DUP9 ADD MSTORE PUSH2 0x180 PUSH2 0x21B8 PUSH2 0x2173 PUSH2 0x215C PUSH2 0x2131 DUP12 PUSH2 0x1A0 PUSH1 0xA0 PUSH1 0x40 DUP10 ADD MLOAD SWAP3 ADD MSTORE PUSH2 0x200 DUP14 ADD SWAP1 PUSH2 0x3A8D JUMP JUMPDEST PUSH1 0x60 DUP7 ADD MLOAD PUSH1 0xC0 DUP14 ADD MSTORE PUSH1 0x80 DUP7 ADD MLOAD PUSH1 0xE0 DUP14 ADD MSTORE PUSH1 0xA0 DUP7 ADD MLOAD DUP13 DUP3 SUB PUSH1 0x5F NOT ADD PUSH2 0x100 DUP15 ADD MSTORE PUSH2 0x3A8D JUMP JUMPDEST PUSH1 0xC0 DUP6 ADD MLOAD DUP12 DUP3 SUB PUSH1 0x5F NOT ADD PUSH2 0x120 DUP14 ADD MSTORE PUSH2 0x3A8D JUMP JUMPDEST PUSH1 0xE0 DUP5 ADD MLOAD PUSH2 0x140 DUP12 ADD MSTORE PUSH2 0x100 DUP5 ADD MLOAD PUSH2 0x160 DUP12 ADD MSTORE PUSH2 0x120 DUP5 ADD MLOAD DUP4 DUP12 ADD MSTORE PUSH2 0x140 DUP5 ADD MLOAD PUSH2 0x1A0 DUP12 ADD MSTORE PUSH2 0x160 DUP5 ADD MLOAD PUSH1 0x5F NOT DUP12 DUP4 SUB ADD PUSH2 0x1C0 DUP13 ADD MSTORE PUSH2 0x3BF3 JUMP JUMPDEST SWAP2 ADD MLOAD DUP8 DUP3 SUB PUSH1 0x5F NOT ADD PUSH2 0x1E0 DUP10 ADD MSTORE PUSH2 0x3BA1 JUMP JUMPDEST SWAP1 DUP6 DUP3 SUB PUSH1 0x20 DUP8 ADD MSTORE PUSH2 0x3BF3 JUMP JUMPDEST SWAP1 DUP4 DUP3 SUB PUSH1 0x40 DUP6 ADD MSTORE PUSH2 0x3BA1 JUMP JUMPDEST PUSH1 0x40 MLOAD PUSH3 0x461BCD PUSH1 0xE5 SHL DUP2 MSTORE PUSH1 0x20 PUSH1 0x4 DUP3 ADD MSTORE PUSH1 0xF PUSH1 0x24 DUP3 ADD MSTORE PUSH15 0x115D995B9D081B9BDD08199BDD5B99 PUSH1 0x8A SHL PUSH1 0x44 DUP3 ADD MSTORE PUSH1 0x64 SWAP1 REVERT JUMPDEST CALLVALUE PUSH2 0x701 JUMPI PUSH1 0x40 CALLDATASIZE PUSH1 0x3 NOT ADD SLT PUSH2 0x701 JUMPI PUSH2 0x2239 PUSH2 0x38D7 JUMP JUMPDEST PUSH0 PUSH1 0x40 DUP1 MLOAD PUSH2 0x2247 DUP2 PUSH2 0x3941 JUMP JUMPDEST DUP3 DUP2 MSTORE DUP3 PUSH1 0x20 DUP3 ADD MSTORE ADD MSTORE PUSH1 0x4 CALLDATALOAD PUSH0 MSTORE PUSH1 0x9 PUSH1 0x20 MSTORE PUSH1 0x40 PUSH0 KECCAK256 SWAP1 PUSH1 0x1 DUP1 PUSH1 0xA0 SHL SUB AND PUSH0 MSTORE PUSH1 0x20 MSTORE PUSH1 0x60 PUSH1 0x40 PUSH0 KECCAK256 PUSH1 0x40 MLOAD PUSH2 0x2280 DUP2 PUSH2 0x3941 JUMP JUMPDEST DUP2 SLOAD SWAP2 DUP3 DUP3 MSTORE PUSH1 0x40 PUSH1 0x2 PUSH1 0x1 DUP4 ADD SLOAD SWAP3 PUSH1 0x20 DUP6 ADD SWAP4 DUP5 MSTORE ADD SLOAD SWAP3 ADD SWAP2 DUP3 MSTORE PUSH1 0x40 MLOAD SWAP3 DUP4 MSTORE MLOAD PUSH1 0x20 DUP4 ADD MSTORE MLOAD PUSH1 0x40 DUP3 ADD MSTORE RETURN JUMPDEST CALLVALUE PUSH2 0x701 JUMPI PUSH2 0x22C0 CALLDATASIZE PUSH2 0x3BDD JUMP JUMPDEST SWAP1 PUSH0 MSTORE PUSH1 0x5 PUSH1 0x20 MSTORE PUSH1 0x40 PUSH0 KECCAK256 SWAP1 PUSH0 MSTORE PUSH1 0x20 MSTORE PUSH1 0x20 PUSH1 0xFF PUSH1 0x40 PUSH0 KECCAK256 SLOAD AND PUSH1 0x40 MLOAD SWAP1 ISZERO ISZERO DUP2 MSTORE RETURN JUMPDEST CALLVALUE PUSH2 0x701 JUMPI PUSH1 0x20 CALLDATASIZE PUSH1 0x3 NOT ADD SLT PUSH2 0x701 JUMPI PUSH0 PUSH2 0x200 PUSH1 0x40 MLOAD PUSH2 0x2307 DUP2 PUSH2 0x3925 JUMP JUMPDEST DUP3 DUP2 MSTORE DUP3 PUSH1 0x20 DUP3 ADD MSTORE PUSH1 0x60 PUSH1 0x40 DUP3 ADD MSTORE DUP3 PUSH1 0x60 DUP3 ADD MSTORE DUP3 PUSH1 0x80 DUP3 ADD MSTORE PUSH1 0x60 PUSH1 0xA0 DUP3 ADD MSTORE PUSH1 0x60 PUSH1 0xC0 DUP3 ADD MSTORE DUP3 PUSH1 0xE0 DUP3 ADD MSTORE DUP3 PUSH2 0x100 DUP3 ADD MSTORE DUP3 PUSH2 0x120 DUP3 ADD MSTORE DUP3 PUSH2 0x140 DUP3 ADD MSTORE DUP3 PUSH2 0x160 DUP3 ADD MSTORE PUSH1 0x60 PUSH2 0x180 DUP3 ADD MSTORE DUP3 PUSH2 0x1A0 DUP3 ADD MSTORE DUP3 PUSH2 0x1C0 DUP3 ADD MSTORE PUSH1 0x60 PUSH2 0x1E0 DUP3 ADD MSTORE ADD MSTORE PUSH1 0x4 CALLDATALOAD PUSH0 MSTORE PUSH0 PUSH1 0x20 MSTORE PUSH1 0x40 PUSH0 KECCAK256 PUSH1 0x1 DUP1 PUSH1 0xA0 SHL SUB PUSH1 0x1 DUP3 ADD SLOAD AND SWAP1 DUP2 ISZERO PUSH2 0x25AB JUMPI PUSH1 0xE PUSH2 0x247F SWAP2 PUSH1 0x40 MLOAD SWAP4 PUSH2 0x23A7 DUP6 PUSH2 0x3925 JUMP JUMPDEST DUP2 SLOAD DUP6 MSTORE PUSH1 0x20 DUP6 ADD MSTORE PUSH2 0x23BC PUSH1 0x2 DUP3 ADD PUSH2 0x39EC JUMP JUMPDEST PUSH1 0x40 DUP6 ADD MSTORE PUSH1 0x3 DUP2 ADD SLOAD PUSH1 0x60 DUP6 ADD MSTORE PUSH1 0x4 DUP2 ADD SLOAD PUSH1 0x80 DUP6 ADD MSTORE PUSH2 0x23E1 PUSH1 0x5 DUP3 ADD PUSH2 0x39EC JUMP JUMPDEST PUSH1 0xA0 DUP6 ADD MSTORE PUSH2 0x23F2 PUSH1 0x6 DUP3 ADD PUSH2 0x39EC JUMP JUMPDEST PUSH1 0xC0 DUP6 ADD MSTORE PUSH1 0x7 DUP2 ADD SLOAD PUSH1 0xE0 DUP6 ADD MSTORE PUSH1 0x8 DUP2 ADD SLOAD PUSH2 0x100 DUP6 ADD MSTORE PUSH1 0x9 DUP2 ADD SLOAD PUSH2 0x120 DUP6 ADD MSTORE PUSH1 0xA DUP2 ADD SLOAD PUSH2 0x140 DUP6 ADD MSTORE PUSH1 0xB DUP2 ADD SLOAD PUSH2 0x160 DUP6 ADD MSTORE PUSH2 0x2439 PUSH1 0xC DUP3 ADD PUSH2 0x39EC JUMP JUMPDEST PUSH2 0x180 DUP6 ADD MSTORE PUSH1 0xFF PUSH1 0xD DUP3 ADD SLOAD DUP2 DUP2 AND ISZERO ISZERO PUSH2 0x1A0 DUP8 ADD MSTORE PUSH1 0x8 SHR AND ISZERO ISZERO PUSH2 0x1C0 DUP6 ADD MSTORE PUSH2 0x2468 DUP3 DUP3 ADD PUSH2 0x425A JUMP JUMPDEST PUSH2 0x1E0 DUP6 ADD MSTORE PUSH1 0xF DUP2 ADD SLOAD PUSH2 0x200 DUP6 ADD MSTORE ADD PUSH2 0x425A JUMP JUMPDEST PUSH2 0x743 PUSH1 0x40 MLOAD SWAP3 DUP4 SWAP3 PUSH1 0x40 DUP5 MSTORE DUP2 MLOAD PUSH1 0x40 DUP6 ADD MSTORE PUSH1 0x1 DUP1 PUSH1 0xA0 SHL SUB PUSH1 0x20 DUP4 ADD MLOAD AND PUSH1 0x60 DUP6 ADD MSTORE PUSH2 0x200 PUSH2 0x2595 PUSH2 0x2563 PUSH2 0x2510 PUSH2 0x24F9 PUSH2 0x24CF PUSH1 0x40 DUP9 ADD MLOAD PUSH2 0x220 PUSH1 0x80 DUP13 ADD MSTORE PUSH2 0x260 DUP12 ADD SWAP1 PUSH2 0x3A8D JUMP JUMPDEST PUSH1 0x60 DUP9 ADD MLOAD PUSH1 0xA0 DUP12 ADD MSTORE PUSH1 0x80 DUP9 ADD MLOAD PUSH1 0xC0 DUP12 ADD MSTORE PUSH1 0xA0 DUP9 ADD MLOAD PUSH1 0x3F NOT DUP12 DUP4 SUB ADD PUSH1 0xE0 DUP13 ADD MSTORE PUSH2 0x3A8D JUMP JUMPDEST PUSH1 0xC0 DUP8 ADD MLOAD DUP10 DUP3 SUB PUSH1 0x3F NOT ADD PUSH2 0x100 DUP12 ADD MSTORE PUSH2 0x3A8D JUMP JUMPDEST PUSH1 0xE0 DUP7 ADD MLOAD PUSH2 0x120 DUP10 ADD MSTORE PUSH2 0x100 DUP7 ADD MLOAD PUSH2 0x140 DUP10 ADD MSTORE PUSH2 0x120 DUP7 ADD MLOAD PUSH2 0x160 DUP10 ADD MSTORE PUSH2 0x140 DUP7 ADD MLOAD PUSH2 0x180 DUP10 ADD MSTORE PUSH2 0x160 DUP7 ADD MLOAD PUSH2 0x1A0 DUP10 ADD MSTORE PUSH2 0x180 DUP7 ADD MLOAD PUSH1 0x3F NOT DUP10 DUP4 SUB ADD PUSH2 0x1C0 DUP11 ADD MSTORE PUSH2 0x3A8D JUMP JUMPDEST PUSH2 0x1A0 DUP6 ADD MLOAD ISZERO ISZERO PUSH2 0x1E0 DUP9 ADD MSTORE PUSH2 0x1C0 DUP6 ADD MLOAD ISZERO ISZERO DUP4 DUP9 ADD MSTORE PUSH2 0x1E0 DUP6 ADD MLOAD PUSH1 0x3F NOT DUP9 DUP4 SUB ADD PUSH2 0x220 DUP10 ADD MSTORE PUSH2 0x3BA1 JUMP JUMPDEST SWAP3 ADD MLOAD PUSH2 0x240 DUP6 ADD MSTORE DUP4 DUP3 SUB PUSH1 0x20 DUP6 ADD MSTORE PUSH2 0x3BA1 JUMP JUMPDEST PUSH1 0x40 MLOAD PUSH3 0x461BCD PUSH1 0xE5 SHL DUP2 MSTORE PUSH1 0x20 PUSH1 0x4 DUP3 ADD MSTORE PUSH1 0x12 PUSH1 0x24 DUP3 ADD MSTORE PUSH18 0x10D85B5C185A59DB881B9BDD08199BDD5B99 PUSH1 0x72 SHL PUSH1 0x44 DUP3 ADD MSTORE PUSH1 0x64 SWAP1 REVERT JUMPDEST CALLVALUE PUSH2 0x701 JUMPI PUSH2 0x120 CALLDATASIZE PUSH1 0x3 NOT ADD SLT PUSH2 0x701 JUMPI PUSH1 0x4 CALLDATALOAD PUSH1 0x1 PUSH1 0x1 PUSH1 0x40 SHL SUB DUP2 GT PUSH2 0x701 JUMPI PUSH2 0x2616 SWAP1 CALLDATASIZE SWAP1 PUSH1 0x4 ADD PUSH2 0x3AE6 JUMP JUMPDEST PUSH1 0x24 CALLDATALOAD PUSH1 0x1 PUSH1 0x1 PUSH1 0x40 SHL SUB DUP2 GT PUSH2 0x701 JUMPI PUSH2 0x2635 SWAP1 CALLDATASIZE SWAP1 PUSH1 0x4 ADD PUSH2 0x3AE6 JUMP JUMPDEST SWAP1 PUSH1 0xD PUSH1 0x44 CALLDATALOAD LT ISZERO PUSH2 0x701 JUMPI PUSH1 0x64 CALLDATALOAD PUSH1 0x1 PUSH1 0x1 PUSH1 0x40 SHL SUB DUP2 GT PUSH2 0x701 JUMPI PUSH2 0x2660 SWAP1 CALLDATASIZE SWAP1 PUSH1 0x4 ADD PUSH2 0x3AE6 JUMP JUMPDEST SWAP2 PUSH1 0x84 CALLDATALOAD PUSH1 0x1 PUSH1 0x1 PUSH1 0x40 SHL SUB DUP2 GT PUSH2 0x701 JUMPI PUSH2 0x2680 SWAP1 CALLDATASIZE SWAP1 PUSH1 0x4 ADD PUSH2 0x3AE6 JUMP JUMPDEST SWAP3 PUSH1 0xA4 CALLDATALOAD PUSH1 0x1 PUSH1 0x1 PUSH1 0x40 SHL SUB DUP2 GT PUSH2 0x701 JUMPI PUSH2 0x26A0 SWAP1 CALLDATASIZE SWAP1 PUSH1 0x4 ADD PUSH2 0x3AE6 JUMP JUMPDEST PUSH1 0xC4 CALLDATALOAD PUSH1 0x1 PUSH1 0x1 PUSH1 0x40 SHL SUB DUP2 GT PUSH2 0x701 JUMPI PUSH2 0x26BF SWAP1 CALLDATASIZE SWAP1 PUSH1 0x4 ADD PUSH2 0x3AE6 JUMP JUMPDEST SWAP5 PUSH1 0xE4 CALLDATALOAD PUSH1 0x1 PUSH1 0x1 PUSH1 0x40 SHL SUB DUP2 GT PUSH2 0x701 JUMPI PUSH2 0x26DF SWAP1 CALLDATASIZE SWAP1 PUSH1 0x4 ADD PUSH2 0x3B43 JUMP JUMPDEST SWAP3 PUSH2 0x104 CALLDATALOAD PUSH1 0x1 PUSH1 0x1 PUSH1 0x40 SHL SUB DUP2 GT PUSH2 0x701 JUMPI PUSH2 0x2700 SWAP1 CALLDATASIZE SWAP1 PUSH1 0x4 ADD PUSH2 0x3B43 JUMP JUMPDEST SWAP5 PUSH2 0x270C PUSH1 0xC SLOAD PUSH2 0x3E87 JUMP JUMPDEST DUP1 PUSH1 0xC SSTORE PUSH0 MSTORE PUSH1 0x3 PUSH1 0x20 MSTORE PUSH1 0x40 PUSH0 KECCAK256 SWAP7 DUP1 MLOAD SWAP1 PUSH1 0x1 PUSH1 0x1 PUSH1 0x40 SHL SUB DUP3 GT PUSH2 0x535 JUMPI DUP2 SWAP1 PUSH2 0x2743 DUP3 PUSH2 0x273D DUP13 SLOAD PUSH2 0x38ED JUMP JUMPDEST DUP13 PUSH2 0x3ED1 JUMP JUMPDEST PUSH1 0x20 SWAP1 PUSH1 0x1F DUP4 GT PUSH1 0x1 EQ PUSH2 0x2D3C JUMPI PUSH0 SWAP3 PUSH2 0x2D31 JUMPI JUMPDEST POP POP DUP2 PUSH1 0x1 SHL SWAP2 PUSH0 NOT SWAP1 PUSH1 0x3 SHL SHR NOT AND OR DUP8 SSTORE JUMPDEST PUSH1 0x1 DUP8 ADD DUP1 SLOAD PUSH1 0x1 PUSH1 0x1 PUSH1 0xA0 SHL SUB NOT AND CALLER OR SWAP1 SSTORE DUP1 MLOAD SWAP1 PUSH1 0x1 PUSH1 0x1 PUSH1 0x40 SHL SUB DUP3 GT PUSH2 0x535 JUMPI DUP2 SWAP1 PUSH2 0x27AD DUP3 PUSH2 0x27A4 PUSH1 0x2 DUP13 ADD SLOAD PUSH2 0x38ED JUMP JUMPDEST PUSH1 0x2 DUP13 ADD PUSH2 0x3ED1 JUMP JUMPDEST PUSH1 0x20 SWAP1 PUSH1 0x1F DUP4 GT PUSH1 0x1 EQ PUSH2 0x2CC3 JUMPI PUSH0 SWAP3 PUSH2 0x2CB8 JUMPI JUMPDEST POP POP DUP2 PUSH1 0x1 SHL SWAP2 PUSH0 NOT SWAP1 PUSH1 0x3 SHL SHR NOT AND OR PUSH1 0x2 DUP8 ADD SSTORE JUMPDEST PUSH1 0xFF NOT PUSH1 0x3 DUP8 ADD SLOAD AND PUSH1 0xFF PUSH1 0x44 CALLDATALOAD AND OR PUSH1 0x3 DUP8 ADD SSTORE DUP1 MLOAD SWAP1 PUSH1 0x1 PUSH1 0x1 PUSH1 0x40 SHL SUB DUP3 GT PUSH2 0x535 JUMPI DUP2 SWAP1 PUSH2 0x281B DUP3 PUSH2 0x2812 PUSH1 0x4 DUP12 ADD SLOAD PUSH2 0x38ED JUMP JUMPDEST PUSH1 0x4 DUP12 ADD PUSH2 0x3ED1 JUMP JUMPDEST PUSH1 0x20 SWAP1 PUSH1 0x1F DUP4 GT PUSH1 0x1 EQ PUSH2 0x2C4A JUMPI PUSH0 SWAP3 PUSH2 0x2C3F JUMPI JUMPDEST POP POP DUP2 PUSH1 0x1 SHL SWAP2 PUSH0 NOT SWAP1 PUSH1 0x3 SHL SHR NOT AND OR PUSH1 0x4 DUP7 ADD SSTORE JUMPDEST DUP1 MLOAD SWAP1 PUSH1 0x1 PUSH1 0x1 PUSH1 0x40 SHL SUB DUP3 GT PUSH2 0x535 JUMPI DUP2 SWAP1 PUSH2 0x2874 DUP3 PUSH2 0x286B PUSH1 0x5 DUP11 ADD SLOAD PUSH2 0x38ED JUMP JUMPDEST PUSH1 0x5 DUP11 ADD PUSH2 0x3ED1 JUMP JUMPDEST PUSH1 0x20 SWAP1 PUSH1 0x1F DUP4 GT PUSH1 0x1 EQ PUSH2 0x2BD1 JUMPI PUSH0 SWAP3 PUSH2 0x2BC6 JUMPI JUMPDEST POP POP DUP2 PUSH1 0x1 SHL SWAP2 PUSH0 NOT SWAP1 PUSH1 0x3 SHL SHR NOT AND OR PUSH1 0x5 DUP6 ADD SSTORE JUMPDEST DUP1 MLOAD SWAP1 PUSH1 0x1 PUSH1 0x1 PUSH1 0x40 SHL SUB DUP3 GT PUSH2 0x535 JUMPI DUP2 SWAP1 PUSH2 0x28CD DUP3 PUSH2 0x28C4 PUSH1 0x6 DUP10 ADD SLOAD PUSH2 0x38ED JUMP JUMPDEST PUSH1 0x6 DUP10 ADD PUSH2 0x3ED1 JUMP JUMPDEST PUSH1 0x20 SWAP1 PUSH1 0x1F DUP4 GT PUSH1 0x1 EQ PUSH2 0x2B58 JUMPI PUSH0 SWAP3 PUSH2 0x2B4D JUMPI JUMPDEST POP POP DUP2 PUSH1 0x1 SHL SWAP2 PUSH0 NOT SWAP1 PUSH1 0x3 SHL SHR NOT AND OR PUSH1 0x6 DUP5 ADD SSTORE JUMPDEST DUP4 MLOAD PUSH1 0x1 PUSH1 0x1 PUSH1 0x40 SHL SUB DUP2 GT PUSH2 0x535 JUMPI PUSH2 0x2923 DUP2 PUSH2 0x291A PUSH1 0x7 DUP8 ADD SLOAD PUSH2 0x38ED JUMP JUMPDEST PUSH1 0x7 DUP8 ADD PUSH2 0x3ED1 JUMP JUMPDEST PUSH1 0x20 PUSH1 0x1F DUP3 GT PUSH1 0x1 EQ PUSH2 0x2ADF JUMPI DUP2 SWAP3 SWAP4 SWAP5 SWAP6 PUSH0 SWAP3 PUSH2 0x2AD4 JUMPI JUMPDEST POP POP DUP2 PUSH1 0x1 SHL SWAP2 PUSH0 NOT SWAP1 PUSH1 0x3 SHL SHR NOT AND OR PUSH1 0x7 DUP5 ADD SSTORE SWAP2 SWAP1 SWAP2 JUMPDEST PUSH1 0x9 DUP3 ADD SWAP3 PUSH0 JUMPDEST DUP3 MLOAD DUP2 LT ISZERO PUSH2 0x2A21 JUMPI PUSH2 0x2970 DUP2 DUP5 PUSH2 0x3F14 JUMP JUMPDEST MLOAD PUSH0 MSTORE PUSH0 PUSH1 0x20 MSTORE CALLER PUSH1 0x1 DUP1 PUSH1 0xA0 SHL SUB PUSH1 0x1 PUSH1 0x40 PUSH0 KECCAK256 ADD SLOAD AND SUB PUSH2 0x29DC JUMPI DUP1 PUSH2 0x29A5 PUSH2 0x299E PUSH2 0x29D7 SWAP4 DUP7 PUSH2 0x3F14 JUMP JUMPDEST MLOAD DUP8 PUSH2 0x3F51 JUMP JUMPDEST PUSH1 0xC SLOAD PUSH0 MSTORE PUSH1 0x4 PUSH1 0x20 MSTORE PUSH1 0x40 PUSH0 KECCAK256 PUSH2 0x29BD DUP3 DUP7 PUSH2 0x3F14 JUMP JUMPDEST MLOAD PUSH0 MSTORE PUSH1 0x20 MSTORE PUSH1 0x40 PUSH0 KECCAK256 PUSH1 0x1 PUSH1 0xFF NOT DUP3 SLOAD AND OR SWAP1 SSTORE PUSH2 0x3E87 JUMP JUMPDEST PUSH2 0x295D JUMP JUMPDEST PUSH1 0x40 MLOAD PUSH3 0x461BCD PUSH1 0xE5 SHL DUP2 MSTORE PUSH1 0x20 PUSH1 0x4 DUP3 ADD MSTORE PUSH1 0x1C PUSH1 0x24 DUP3 ADD MSTORE PUSH32 0x43616E20616464206F6E6C79206F776E65642063616D706169676E7300000000 PUSH1 0x44 DUP3 ADD MSTORE PUSH1 0x64 SWAP1 REVERT JUMPDEST POP PUSH1 0xA DUP4 ADD SWAP1 PUSH0 JUMPDEST DUP2 MLOAD DUP2 LT ISZERO PUSH2 0x22 JUMPI PUSH2 0x2A3C DUP2 DUP4 PUSH2 0x3F14 JUMP JUMPDEST MLOAD PUSH0 MSTORE PUSH1 0x1 PUSH1 0x20 MSTORE CALLER PUSH1 0x1 DUP1 PUSH1 0xA0 SHL SUB PUSH1 0x1 PUSH1 0x40 PUSH0 KECCAK256 ADD SLOAD AND SUB PUSH2 0x2A8F JUMPI DUP1 PUSH2 0x2A72 PUSH2 0x2A6B PUSH2 0x2A8A SWAP4 DUP6 PUSH2 0x3F14 JUMP JUMPDEST MLOAD DUP6 PUSH2 0x3F51 JUMP JUMPDEST PUSH1 0xC SLOAD PUSH0 MSTORE PUSH1 0x5 PUSH1 0x20 MSTORE PUSH1 0x40 PUSH0 KECCAK256 PUSH2 0x29BD DUP3 DUP6 PUSH2 0x3F14 JUMP JUMPDEST PUSH2 0x2A29 JUMP JUMPDEST PUSH1 0x40 MLOAD PUSH3 0x461BCD PUSH1 0xE5 SHL DUP2 MSTORE PUSH1 0x20 PUSH1 0x4 DUP3 ADD MSTORE PUSH1 0x19 PUSH1 0x24 DUP3 ADD MSTORE PUSH32 0x43616E20616464206F6E6C79206F776E6564206576656E747300000000000000 PUSH1 0x44 DUP3 ADD MSTORE PUSH1 0x64 SWAP1 REVERT JUMPDEST ADD MLOAD SWAP1 POP DUP6 DUP1 PUSH2 0x293C JUMP JUMPDEST PUSH1 0x7 DUP6 ADD PUSH0 MSTORE PUSH1 0x20 PUSH0 KECCAK256 SWAP1 PUSH0 JUMPDEST PUSH1 0x1F NOT DUP5 AND DUP2 LT PUSH2 0x2B35 JUMPI POP PUSH1 0x1 SWAP4 SWAP5 SWAP6 SWAP7 DUP4 PUSH1 0x1F NOT DUP2 AND LT PUSH2 0x2B1D JUMPI JUMPDEST POP POP POP DUP2 SHL ADD PUSH1 0x7 DUP5 ADD SSTORE SWAP2 SWAP1 SWAP2 PUSH2 0x2956 JUMP JUMPDEST ADD MLOAD PUSH0 NOT PUSH1 0xF8 DUP5 PUSH1 0x3 SHL AND SHR NOT AND SWAP1 SSTORE DUP6 DUP1 DUP1 PUSH2 0x2B0A JUMP JUMPDEST SWAP1 SWAP2 PUSH1 0x20 PUSH1 0x1 DUP2 SWAP3 DUP6 DUP12 ADD MLOAD DUP2 SSTORE ADD SWAP4 ADD SWAP2 ADD PUSH2 0x2AEC JUMP JUMPDEST ADD MLOAD SWAP1 POP DUP7 DUP1 PUSH2 0x28E2 JUMP JUMPDEST SWAP3 POP PUSH1 0x6 DUP7 ADD PUSH0 MSTORE PUSH1 0x20 PUSH0 KECCAK256 SWAP1 PUSH0 SWAP4 JUMPDEST PUSH1 0x1F NOT DUP5 AND DUP6 LT PUSH2 0x2BAB JUMPI PUSH1 0x1 SWAP5 POP DUP4 PUSH1 0x1F NOT DUP2 AND LT PUSH2 0x2B93 JUMPI JUMPDEST POP POP POP DUP2 SHL ADD PUSH1 0x6 DUP5 ADD SSTORE PUSH2 0x28F9 JUMP JUMPDEST ADD MLOAD PUSH0 NOT PUSH1 0xF8 DUP5 PUSH1 0x3 SHL AND SHR NOT AND SWAP1 SSTORE DUP7 DUP1 DUP1 PUSH2 0x2B83 JUMP JUMPDEST DUP2 DUP2 ADD MLOAD DUP4 SSTORE PUSH1 0x20 SWAP5 DUP6 ADD SWAP5 PUSH1 0x1 SWAP1 SWAP4 ADD SWAP3 SWAP1 SWAP2 ADD SWAP1 PUSH2 0x2B68 JUMP JUMPDEST ADD MLOAD SWAP1 POP DUP8 DUP1 PUSH2 0x2889 JUMP JUMPDEST SWAP3 POP PUSH1 0x5 DUP8 ADD PUSH0 MSTORE PUSH1 0x20 PUSH0 KECCAK256 SWAP1 PUSH0 SWAP4 JUMPDEST PUSH1 0x1F NOT DUP5 AND DUP6 LT PUSH2 0x2C24 JUMPI PUSH1 0x1 SWAP5 POP DUP4 PUSH1 0x1F NOT DUP2 AND LT PUSH2 0x2C0C JUMPI JUMPDEST POP POP POP DUP2 SHL ADD PUSH1 0x5 DUP6 ADD SSTORE PUSH2 0x28A0 JUMP JUMPDEST ADD MLOAD PUSH0 NOT PUSH1 0xF8 DUP5 PUSH1 0x3 SHL AND SHR NOT AND SWAP1 SSTORE DUP8 DUP1 DUP1 PUSH2 0x2BFC JUMP JUMPDEST DUP2 DUP2 ADD MLOAD DUP4 SSTORE PUSH1 0x20 SWAP5 DUP6 ADD SWAP5 PUSH1 0x1 SWAP1 SWAP4 ADD SWAP3 SWAP1 SWAP2 ADD SWAP1 PUSH2 0x2BE1 JUMP JUMPDEST ADD MLOAD SWAP1 POP DUP9 DUP1 PUSH2 0x2830 JUMP JUMPDEST SWAP3 POP PUSH1 0x4 DUP9 ADD PUSH0 MSTORE PUSH1 0x20 PUSH0 KECCAK256 SWAP1 PUSH0 SWAP4 JUMPDEST PUSH1 0x1F NOT DUP5 AND DUP6 LT PUSH2 0x2C9D JUMPI PUSH1 0x1 SWAP5 POP DUP4 PUSH1 0x1F NOT DUP2 AND LT PUSH2 0x2C85 JUMPI JUMPDEST POP POP POP DUP2 SHL ADD PUSH1 0x4 DUP7 ADD SSTORE PUSH2 0x2847 JUMP JUMPDEST ADD MLOAD PUSH0 NOT PUSH1 0xF8 DUP5 PUSH1 0x3 SHL AND SHR NOT AND SWAP1 SSTORE DUP9 DUP1 DUP1 PUSH2 0x2C75 JUMP JUMPDEST DUP2 DUP2 ADD MLOAD DUP4 SSTORE PUSH1 0x20 SWAP5 DUP6 ADD SWAP5 PUSH1 0x1 SWAP1 SWAP4 ADD SWAP3 SWAP1 SWAP2 ADD SWAP1 PUSH2 0x2C5A JUMP JUMPDEST ADD MLOAD SWAP1 POP DUP10 DUP1 PUSH2 0x27C2 JUMP JUMPDEST SWAP3 POP PUSH1 0x2 DUP10 ADD PUSH0 MSTORE PUSH1 0x20 PUSH0 KECCAK256 SWAP1 PUSH0 SWAP4 JUMPDEST PUSH1 0x1F NOT DUP5 AND DUP6 LT PUSH2 0x2D16 JUMPI PUSH1 0x1 SWAP5 POP DUP4 PUSH1 0x1F NOT DUP2 AND LT PUSH2 0x2CFE JUMPI JUMPDEST POP POP POP DUP2 SHL ADD PUSH1 0x2 DUP8 ADD SSTORE PUSH2 0x27D9 JUMP JUMPDEST ADD MLOAD PUSH0 NOT PUSH1 0xF8 DUP5 PUSH1 0x3 SHL AND SHR NOT AND SWAP1 SSTORE DUP10 DUP1 DUP1 PUSH2 0x2CEE JUMP JUMPDEST DUP2 DUP2 ADD MLOAD DUP4 SSTORE PUSH1 0x20 SWAP5 DUP6 ADD SWAP5 PUSH1 0x1 SWAP1 SWAP4 ADD SWAP3 SWAP1 SWAP2 ADD SWAP1 PUSH2 0x2CD3 JUMP JUMPDEST ADD MLOAD SWAP1 POP DUP11 DUP1 PUSH2 0x2758 JUMP JUMPDEST SWAP3 POP DUP10 PUSH0 MSTORE PUSH1 0x20 PUSH0 KECCAK256 SWAP1 PUSH0 SWAP4 JUMPDEST PUSH1 0x1F NOT DUP5 AND DUP6 LT PUSH2 0x2D89 JUMPI PUSH1 0x1 SWAP5 POP DUP4 PUSH1 0x1F NOT DUP2 AND LT PUSH2 0x2D71 JUMPI JUMPDEST POP POP POP DUP2 SHL ADD DUP8 SSTORE PUSH2 0x276C JUMP JUMPDEST ADD MLOAD PUSH0 NOT PUSH1 0xF8 DUP5 PUSH1 0x3 SHL AND SHR NOT AND SWAP1 SSTORE DUP11 DUP1 DUP1 PUSH2 0x2D64 JUMP JUMPDEST DUP2 DUP2 ADD MLOAD DUP4 SSTORE PUSH1 0x20 SWAP5 DUP6 ADD SWAP5 PUSH1 0x1 SWAP1 SWAP4 ADD SWAP3 SWAP1 SWAP2 ADD SWAP1 PUSH2 0x2D49 JUMP JUMPDEST CALLVALUE PUSH2 0x701 JUMPI PUSH2 0x140 CALLDATASIZE PUSH1 0x3 NOT ADD SLT PUSH2 0x701 JUMPI PUSH1 0x4 CALLDATALOAD PUSH1 0x1 PUSH1 0x1 PUSH1 0x40 SHL SUB DUP2 GT PUSH2 0x701 JUMPI PUSH2 0x2DD5 SWAP1 CALLDATASIZE SWAP1 PUSH1 0x4 ADD PUSH2 0x3AE6 JUMP JUMPDEST PUSH1 0x64 CALLDATALOAD PUSH1 0x1 PUSH1 0x1 PUSH1 0x40 SHL SUB DUP2 GT PUSH2 0x701 JUMPI PUSH2 0x2DF4 SWAP1 CALLDATASIZE SWAP1 PUSH1 0x4 ADD PUSH2 0x3AE6 JUMP JUMPDEST SWAP1 PUSH1 0x84 CALLDATALOAD PUSH1 0x1 PUSH1 0x1 PUSH1 0x40 SHL SUB DUP2 GT PUSH2 0x701 JUMPI PUSH2 0x2E14 SWAP1 CALLDATASIZE SWAP1 PUSH1 0x4 ADD PUSH2 0x3AE6 JUMP JUMPDEST SWAP1 PUSH2 0x124 CALLDATALOAD PUSH1 0x1 PUSH1 0x1 PUSH1 0x40 SHL SUB DUP2 GT PUSH2 0x701 JUMPI PUSH2 0x2E35 SWAP1 CALLDATASIZE SWAP1 PUSH1 0x4 ADD PUSH2 0x3B43 JUMP JUMPDEST PUSH2 0x2E43 TIMESTAMP PUSH1 0x24 CALLDATALOAD LT ISZERO PUSH2 0x3DE6 JUMP JUMPDEST PUSH2 0x2E52 PUSH1 0x24 CALLDATALOAD PUSH1 0x44 CALLDATALOAD GT PUSH2 0x3E31 JUMP JUMPDEST CALLER PUSH0 MSTORE PUSH1 0x2 PUSH1 0x20 MSTORE PUSH1 0xA4 CALLDATALOAD PUSH1 0x2 PUSH1 0x40 PUSH0 KECCAK256 ADD SLOAD LT PUSH2 0x31FF JUMPI CALLER PUSH0 MSTORE PUSH1 0x2 PUSH1 0x20 MSTORE PUSH1 0x2 PUSH1 0x40 PUSH0 KECCAK256 ADD PUSH2 0x2E86 PUSH1 0xA4 CALLDATALOAD DUP3 SLOAD PUSH2 0x3DD9 JUMP JUMPDEST SWAP1 SSTORE PUSH2 0x2E93 PUSH1 0xB SLOAD PUSH2 0x3E87 JUMP JUMPDEST SWAP2 DUP3 PUSH1 0xB SSTORE DUP3 PUSH0 MSTORE PUSH1 0x1 PUSH1 0x20 MSTORE PUSH1 0x40 PUSH0 KECCAK256 SWAP3 DUP4 SSTORE PUSH1 0x1 DUP4 ADD CALLER PUSH1 0x1 PUSH1 0x1 PUSH1 0x60 SHL SUB PUSH1 0xA0 SHL DUP3 SLOAD AND OR SWAP1 SSTORE DUP1 MLOAD SWAP1 PUSH1 0x1 PUSH1 0x1 PUSH1 0x40 SHL SUB DUP3 GT PUSH2 0x535 JUMPI DUP2 SWAP1 PUSH2 0x2EEA DUP3 PUSH2 0x2EE1 PUSH1 0x2 DUP9 ADD SLOAD PUSH2 0x38ED JUMP JUMPDEST PUSH1 0x2 DUP9 ADD PUSH2 0x3ED1 JUMP JUMPDEST PUSH1 0x20 SWAP1 PUSH1 0x1F DUP4 GT PUSH1 0x1 EQ PUSH2 0x3191 JUMPI PUSH0 SWAP3 PUSH2 0x3186 JUMPI JUMPDEST POP POP DUP2 PUSH1 0x1 SHL SWAP2 PUSH0 NOT SWAP1 PUSH1 0x3 SHL SHR NOT AND OR PUSH1 0x2 DUP4 ADD SSTORE JUMPDEST PUSH1 0x24 CALLDATALOAD PUSH1 0x3 DUP4 ADD SSTORE PUSH1 0x44 CALLDATALOAD PUSH1 0x4 DUP4 ADD SSTORE DUP4 MLOAD PUSH1 0x1 PUSH1 0x1 PUSH1 0x40 SHL SUB DUP2 GT PUSH2 0x535 JUMPI PUSH2 0x2F50 DUP2 PUSH2 0x2F47 PUSH1 0x5 DUP7 ADD SLOAD PUSH2 0x38ED JUMP JUMPDEST PUSH1 0x5 DUP7 ADD PUSH2 0x3ED1 JUMP JUMPDEST PUSH1 0x20 PUSH1 0x1F DUP3 GT PUSH1 0x1 EQ PUSH2 0x311B JUMPI DUP2 SWAP3 SWAP4 SWAP5 SWAP6 PUSH0 SWAP3 PUSH2 0x3110 JUMPI JUMPDEST POP POP DUP2 PUSH1 0x1 SHL SWAP2 PUSH0 NOT SWAP1 PUSH1 0x3 SHL SHR NOT AND OR PUSH1 0x5 DUP4 ADD SSTORE JUMPDEST DUP3 MLOAD PUSH1 0x1 PUSH1 0x1 PUSH1 0x40 SHL SUB DUP2 GT PUSH2 0x535 JUMPI PUSH2 0x2FAA DUP2 PUSH2 0x2FA1 PUSH1 0x6 DUP7 ADD SLOAD PUSH2 0x38ED JUMP JUMPDEST PUSH1 0x6 DUP7 ADD PUSH2 0x3ED1 JUMP JUMPDEST PUSH1 0x20 PUSH1 0x1F DUP3 GT PUSH1 0x1 EQ PUSH2 0x30A6 JUMPI DUP2 SWAP3 SWAP4 SWAP5 PUSH0 SWAP3 PUSH2 0x309B JUMPI JUMPDEST POP POP DUP2 PUSH1 0x1 SHL SWAP2 PUSH0 NOT SWAP1 PUSH1 0x3 SHL SHR NOT AND OR PUSH1 0x6 DUP4 ADD SSTORE JUMPDEST PUSH1 0xA4 CALLDATALOAD PUSH1 0x7 DUP4 ADD SSTORE PUSH1 0xC4 CALLDATALOAD PUSH1 0x8 DUP4 ADD SSTORE PUSH1 0xE4 CALLDATALOAD PUSH1 0x9 DUP4 ADD SSTORE PUSH2 0x104 CALLDATALOAD PUSH1 0xA DUP4 ADD SSTORE PUSH1 0xB DUP3 ADD DUP2 MLOAD SWAP2 PUSH1 0x1 PUSH1 0x1 PUSH1 0x40 SHL SUB DUP4 GT PUSH2 0x535 JUMPI PUSH1 0x1 PUSH1 0x40 SHL DUP4 GT PUSH2 0x535 JUMPI PUSH1 0x20 SWAP1 DUP3 SLOAD DUP5 DUP5 SSTORE DUP1 DUP6 LT PUSH2 0x3080 JUMPI JUMPDEST POP ADD SWAP1 PUSH0 MSTORE PUSH1 0x20 PUSH0 KECCAK256 PUSH0 JUMPDEST DUP4 DUP2 LT PUSH2 0x306C JUMPI DUP5 SLOAD PUSH1 0x40 MLOAD SWAP1 DUP2 MSTORE PUSH32 0xE43349C008949CF6B65249356E6F918D4AAA0CA79F2B1166DF4A4A98C9C16DE2 PUSH1 0x20 CALLER SWAP3 LOG2 STOP JUMPDEST PUSH1 0x1 SWAP1 PUSH1 0x20 DUP5 MLOAD SWAP5 ADD SWAP4 DUP2 DUP5 ADD SSTORE ADD PUSH2 0x3035 JUMP JUMPDEST PUSH2 0x3095 SWAP1 DUP5 PUSH0 MSTORE DUP6 DUP5 PUSH0 KECCAK256 SWAP2 DUP3 ADD SWAP2 ADD PUSH2 0x3E95 JUMP JUMPDEST DUP6 PUSH2 0x302A JUMP JUMPDEST ADD MLOAD SWAP1 POP DUP5 DUP1 PUSH2 0x2FC2 JUMP JUMPDEST PUSH1 0x6 DUP5 ADD PUSH0 MSTORE PUSH1 0x20 PUSH0 KECCAK256 SWAP1 PUSH0 JUMPDEST PUSH1 0x1F NOT DUP5 AND DUP2 LT PUSH2 0x30F8 JUMPI POP PUSH1 0x1 SWAP4 SWAP5 SWAP6 DUP4 PUSH1 0x1F NOT DUP2 AND LT PUSH2 0x30E0 JUMPI JUMPDEST POP POP POP DUP2 SHL ADD PUSH1 0x6 DUP4 ADD SSTORE PUSH2 0x2FD9 JUMP JUMPDEST ADD MLOAD PUSH0 NOT PUSH1 0xF8 DUP5 PUSH1 0x3 SHL AND SHR NOT AND SWAP1 SSTORE DUP5 DUP1 DUP1 PUSH2 0x30D0 JUMP JUMPDEST SWAP1 SWAP2 PUSH1 0x20 PUSH1 0x1 DUP2 SWAP3 DUP6 DUP11 ADD MLOAD DUP2 SSTORE ADD SWAP4 ADD SWAP2 ADD PUSH2 0x30B3 JUMP JUMPDEST ADD MLOAD SWAP1 POP DUP6 DUP1 PUSH2 0x2F69 JUMP JUMPDEST PUSH1 0x5 DUP5 ADD PUSH0 MSTORE PUSH1 0x20 PUSH0 KECCAK256 SWAP1 PUSH0 JUMPDEST PUSH1 0x1F NOT DUP5 AND DUP2 LT PUSH2 0x316E JUMPI POP PUSH1 0x1 SWAP4 SWAP5 SWAP6 SWAP7 DUP4 PUSH1 0x1F NOT DUP2 AND LT PUSH2 0x3156 JUMPI JUMPDEST POP POP POP DUP2 SHL ADD PUSH1 0x5 DUP4 ADD SSTORE PUSH2 0x2F80 JUMP JUMPDEST ADD MLOAD PUSH0 NOT PUSH1 0xF8 DUP5 PUSH1 0x3 SHL AND SHR NOT AND SWAP1 SSTORE DUP6 DUP1 DUP1 PUSH2 0x3146 JUMP JUMPDEST SWAP1 SWAP2 PUSH1 0x20 PUSH1 0x1 DUP2 SWAP3 DUP6 DUP12 ADD MLOAD DUP2 SSTORE ADD SWAP4 ADD SWAP2 ADD PUSH2 0x3128 JUMP JUMPDEST ADD MLOAD SWAP1 POP DUP7 DUP1 PUSH2 0x2EFF JUMP JUMPDEST SWAP3 POP PUSH1 0x2 DUP6 ADD PUSH0 MSTORE PUSH1 0x20 PUSH0 KECCAK256 SWAP1 PUSH0 SWAP4 JUMPDEST PUSH1 0x1F NOT DUP5 AND DUP6 LT PUSH2 0x31E4 JUMPI PUSH1 0x1 SWAP5 POP DUP4 PUSH1 0x1F NOT DUP2 AND LT PUSH2 0x31CC JUMPI JUMPDEST POP POP POP DUP2 SHL ADD PUSH1 0x2 DUP4 ADD SSTORE PUSH2 0x2F16 JUMP JUMPDEST ADD MLOAD PUSH0 NOT PUSH1 0xF8 DUP5 PUSH1 0x3 SHL AND SHR NOT AND SWAP1 SSTORE DUP7 DUP1 DUP1 PUSH2 0x31BC JUMP JUMPDEST DUP2 DUP2 ADD MLOAD DUP4 SSTORE PUSH1 0x20 SWAP5 DUP6 ADD SWAP5 PUSH1 0x1 SWAP1 SWAP4 ADD SWAP3 SWAP1 SWAP2 ADD SWAP1 PUSH2 0x31A1 JUMP JUMPDEST PUSH1 0x40 MLOAD PUSH3 0x461BCD PUSH1 0xE5 SHL DUP2 MSTORE PUSH1 0x20 PUSH1 0x4 DUP3 ADD MSTORE PUSH1 0x23 PUSH1 0x24 DUP3 ADD MSTORE PUSH32 0x496E73756666696369656E742061737365747320746F20637265617465206576 PUSH1 0x44 DUP3 ADD MSTORE PUSH3 0x195B9D PUSH1 0xEA SHL PUSH1 0x64 DUP3 ADD MSTORE PUSH1 0x84 SWAP1 REVERT JUMPDEST CALLVALUE PUSH2 0x701 JUMPI PUSH1 0x20 DUP1 PUSH1 0x3 NOT CALLDATASIZE ADD SLT PUSH2 0x701 JUMPI PUSH1 0x4 CALLDATALOAD SWAP1 DUP2 PUSH0 MSTORE PUSH1 0x1 DUP2 MSTORE PUSH1 0x40 PUSH0 KECCAK256 PUSH2 0x328C PUSH1 0x3 SWAP2 PUSH2 0xC25 PUSH1 0x4 DUP5 DUP4 ADD SLOAD SWAP3 ADD SLOAD SWAP2 TIMESTAMP LT ISZERO PUSH2 0x3F85 JUMP JUMPDEST CALLER PUSH0 MSTORE PUSH1 0x2 DUP3 MSTORE PUSH1 0x1 DUP1 PUSH1 0xA0 SHL SUB PUSH2 0x32AB DUP2 PUSH1 0x40 PUSH0 KECCAK256 SLOAD AND ISZERO ISZERO PUSH2 0x4016 JUMP JUMPDEST CALLER PUSH0 MSTORE PUSH1 0x7 DUP4 MSTORE PUSH1 0x40 PUSH0 KECCAK256 DUP5 PUSH0 MSTORE DUP4 MSTORE PUSH1 0xFF SWAP1 DUP2 PUSH1 0x40 PUSH0 KECCAK256 SLOAD AND PUSH2 0x3471 JUMPI CALLER PUSH0 MSTORE PUSH1 0x2 DUP5 MSTORE PUSH1 0x40 PUSH0 KECCAK256 SLOAD AND ISZERO PUSH2 0x3463 JUMPI JUMPDEST DUP4 PUSH0 MSTORE PUSH1 0x1 DUP4 MSTORE PUSH1 0x40 PUSH0 KECCAK256 SWAP2 PUSH0 SWAP2 PUSH0 SWAP2 PUSH1 0xB DUP6 ADD DUP1 SLOAD SWAP4 JUMPDEST DUP5 DUP2 LT PUSH2 0x3414 JUMPI POP POP POP POP POP PUSH1 0x9 DUP3 ADD SLOAD GT PUSH2 0x33CF JUMPI PUSH2 0x3318 SWAP1 PUSH1 0xC CALLER SWAP2 ADD PUSH2 0x4058 JUMP JUMPDEST CALLER PUSH0 MSTORE PUSH1 0x2 DUP2 MSTORE PUSH2 0x332F DUP3 PUSH1 0x7 PUSH1 0x40 PUSH0 KECCAK256 ADD PUSH2 0x3F51 JUMP JUMPDEST PUSH2 0x3338 DUP3 PUSH2 0x4217 JUMP JUMPDEST DUP1 PUSH2 0x3386 JUMPI JUMPDEST POP CALLER PUSH0 MSTORE PUSH1 0x7 DUP2 MSTORE PUSH1 0x40 PUSH0 KECCAK256 SWAP1 DUP3 PUSH0 MSTORE MSTORE PUSH1 0x40 PUSH0 KECCAK256 PUSH1 0x1 PUSH1 0xFF NOT DUP3 SLOAD AND OR SWAP1 SSTORE CALLER SWAP1 PUSH32 0xF11149736E591E4B965F3E9E625EAF62F393D637814B49899D9E8E0374CD0F9E PUSH0 DUP1 LOG3 STOP JUMPDEST PUSH0 MSTORE PUSH1 0x9 DUP2 MSTORE PUSH1 0x40 PUSH0 KECCAK256 CALLER PUSH0 MSTORE DUP2 MSTORE PUSH1 0x40 PUSH0 KECCAK256 PUSH1 0x1 DUP2 ADD PUSH2 0x33A7 DUP2 SLOAD PUSH2 0x3E87 JUMP JUMPDEST SWAP1 SSTORE DUP3 PUSH0 MSTORE PUSH1 0x1 DUP3 MSTORE PUSH2 0x33C7 PUSH1 0x2 PUSH1 0x8 PUSH1 0x40 PUSH0 KECCAK256 ADD SLOAD SWAP3 ADD SWAP2 DUP3 SLOAD PUSH2 0x3C33 JUMP JUMPDEST SWAP1 SSTORE DUP3 PUSH2 0x333E JUMP JUMPDEST PUSH1 0x40 MLOAD PUSH3 0x461BCD PUSH1 0xE5 SHL DUP2 MSTORE PUSH1 0x4 DUP2 ADD DUP4 SWAP1 MSTORE PUSH1 0x1E PUSH1 0x24 DUP3 ADD MSTORE PUSH32 0x4E6F7420656E6F7567682063616D706169676E7320636F6D706C657465640000 PUSH1 0x44 DUP3 ADD MSTORE PUSH1 0x64 SWAP1 REVERT JUMPDEST PUSH2 0x341E DUP2 DUP4 PUSH2 0x3F3C JUMP JUMPDEST SWAP1 SLOAD SWAP1 DUP5 SHL SHR CALLER PUSH0 MSTORE PUSH1 0x6 DUP10 MSTORE PUSH1 0x40 PUSH0 KECCAK256 SWAP1 PUSH0 MSTORE DUP9 MSTORE DUP4 PUSH1 0x40 PUSH0 KECCAK256 SLOAD AND PUSH2 0x344E JUMPI JUMPDEST PUSH2 0x3449 SWAP1 PUSH2 0x3E87 JUMP JUMPDEST PUSH2 0x32F4 JUMP JUMPDEST SWAP5 PUSH2 0x345B PUSH2 0x3449 SWAP2 PUSH2 0x3E87 JUMP JUMPDEST SWAP6 SWAP1 POP PUSH2 0x3440 JUMP JUMPDEST PUSH2 0x346C CALLER PUSH2 0x40AD JUMP JUMPDEST PUSH2 0x32DC JUMP JUMPDEST PUSH1 0x40 MLOAD PUSH3 0x461BCD PUSH1 0xE5 SHL DUP2 MSTORE PUSH1 0x4 DUP2 ADD DUP6 SWAP1 MSTORE PUSH1 0x19 PUSH1 0x24 DUP3 ADD MSTORE PUSH32 0x416C7265616479206A6F696E65642074686973206576656E7400000000000000 PUSH1 0x44 DUP3 ADD MSTORE PUSH1 0x64 SWAP1 REVERT JUMPDEST CALLVALUE PUSH2 0x701 JUMPI PUSH0 CALLDATASIZE PUSH1 0x3 NOT ADD SLT PUSH2 0x701 JUMPI PUSH1 0x20 PUSH1 0xC SLOAD PUSH1 0x40 MLOAD SWAP1 DUP2 MSTORE RETURN JUMPDEST CALLVALUE PUSH2 0x701 JUMPI PUSH1 0x20 DUP1 PUSH1 0x3 NOT CALLDATASIZE ADD SLT PUSH2 0x701 JUMPI PUSH1 0x4 CALLDATALOAD DUP1 ISZERO PUSH2 0x3599 JUMPI PUSH0 DUP1 DUP1 DUP1 SWAP4 CALLER DUP3 MSTORE PUSH1 0x2 DUP7 MSTORE PUSH2 0x350D DUP2 PUSH1 0x2 PUSH1 0x40 DUP6 KECCAK256 ADD SLOAD LT ISZERO PUSH2 0x3D96 JUMP JUMPDEST CALLER DUP3 MSTORE PUSH1 0x2 DUP7 MSTORE PUSH1 0x2 PUSH1 0x40 DUP4 KECCAK256 ADD PUSH2 0x3526 DUP3 DUP3 SLOAD PUSH2 0x3DD9 JUMP JUMPDEST SWAP1 SSTORE CALLER GAS CALL RETURNDATASIZE ISZERO PUSH2 0x3594 JUMPI RETURNDATASIZE PUSH2 0x353B DUP2 PUSH2 0x3ACB JUMP JUMPDEST SWAP1 PUSH2 0x3549 PUSH1 0x40 MLOAD SWAP3 DUP4 PUSH2 0x39CB JUMP JUMPDEST DUP2 MSTORE PUSH0 DUP4 RETURNDATASIZE SWAP3 ADD RETURNDATACOPY JUMPDEST ISZERO PUSH2 0x3559 JUMPI STOP JUMPDEST PUSH1 0x64 SWAP1 PUSH1 0x40 MLOAD SWAP1 PUSH3 0x461BCD PUSH1 0xE5 SHL DUP3 MSTORE PUSH1 0x4 DUP3 ADD MSTORE PUSH1 0x14 PUSH1 0x24 DUP3 ADD MSTORE PUSH20 0x2330B4B632B2103A379039B2B7321022BA3432B9 PUSH1 0x61 SHL PUSH1 0x44 DUP3 ADD MSTORE REVERT JUMPDEST PUSH2 0x3552 JUMP JUMPDEST PUSH1 0x64 DUP3 PUSH1 0x40 MLOAD SWAP1 PUSH3 0x461BCD PUSH1 0xE5 SHL DUP3 MSTORE DUP1 PUSH1 0x4 DUP4 ADD MSTORE PUSH1 0x24 DUP3 ADD MSTORE PUSH32 0x416D6F756E74206D7573742062652067726561746572207468616E207A65726F PUSH1 0x44 DUP3 ADD MSTORE REVERT JUMPDEST CALLVALUE PUSH2 0x701 JUMPI PUSH1 0x40 CALLDATASIZE PUSH1 0x3 NOT ADD SLT PUSH2 0x701 JUMPI PUSH1 0x1 PUSH1 0x1 PUSH1 0xA0 SHL SUB PUSH2 0x35FD PUSH2 0x38C1 JUMP JUMPDEST AND PUSH0 MSTORE PUSH1 0x7 PUSH1 0x20 MSTORE PUSH1 0x40 PUSH0 KECCAK256 PUSH1 0x24 CALLDATALOAD PUSH0 MSTORE PUSH1 0x20 MSTORE PUSH1 0x20 PUSH1 0xFF PUSH1 0x40 PUSH0 KECCAK256 SLOAD AND PUSH1 0x40 MLOAD SWAP1 ISZERO ISZERO DUP2 MSTORE RETURN JUMPDEST CALLVALUE PUSH2 0x701 JUMPI PUSH1 0x20 CALLDATASIZE PUSH1 0x3 NOT ADD SLT PUSH2 0x701 JUMPI PUSH1 0x4 CALLDATALOAD PUSH0 MSTORE PUSH0 PUSH1 0x20 MSTORE PUSH1 0x40 PUSH0 KECCAK256 DUP1 SLOAD SWAP1 PUSH1 0x1 PUSH1 0xA0 SHL PUSH1 0x1 SWAP1 SUB PUSH1 0x1 DUP3 ADD SLOAD AND SWAP1 PUSH1 0x2 DUP2 ADD PUSH2 0x3663 SWAP1 PUSH2 0x39EC JUMP JUMPDEST SWAP3 PUSH1 0x3 DUP3 ADD SLOAD SWAP1 PUSH1 0x4 DUP4 ADD SLOAD SWAP1 PUSH1 0x5 DUP5 ADD PUSH2 0x367D SWAP1 PUSH2 0x39EC JUMP JUMPDEST SWAP1 PUSH2 0x368A PUSH1 0x6 DUP7 ADD PUSH2 0x39EC JUMP JUMPDEST SWAP2 PUSH1 0x7 DUP7 ADD SLOAD SWAP3 PUSH1 0x8 DUP8 ADD SLOAD PUSH1 0x9 DUP9 ADD SLOAD SWAP2 PUSH1 0xA DUP10 ADD SLOAD SWAP4 PUSH1 0xB DUP11 ADD SLOAD SWAP6 PUSH1 0xC DUP12 ADD PUSH2 0x36B5 SWAP1 PUSH2 0x39EC JUMP JUMPDEST SWAP9 PUSH1 0xD DUP13 ADD SLOAD SWAP12 PUSH1 0xF ADD SLOAD SWAP11 PUSH1 0x40 MLOAD SWAP15 DUP16 SWAP15 DUP16 SWAP5 DUP6 MSTORE PUSH1 0x20 DUP6 ADD MSTORE PUSH2 0x200 DUP1 PUSH1 0x40 DUP7 ADD MSTORE DUP5 ADD PUSH2 0x36E4 SWAP2 PUSH2 0x3A8D JUMP JUMPDEST SWAP3 PUSH1 0x60 ADD MSTORE PUSH1 0x80 DUP14 ADD MSTORE DUP12 DUP2 SUB PUSH1 0xA0 DUP14 ADD MSTORE PUSH2 0x36FF SWAP2 PUSH2 0x3A8D JUMP JUMPDEST DUP11 DUP2 SUB PUSH1 0xC0 DUP13 ADD MSTORE PUSH2 0x3710 SWAP2 PUSH2 0x3A8D JUMP JUMPDEST SWAP5 PUSH1 0xE0 DUP11 ADD MSTORE PUSH2 0x100 DUP10 ADD MSTORE PUSH2 0x120 DUP9 ADD MSTORE PUSH2 0x140 DUP8 ADD MSTORE PUSH2 0x160 DUP7 ADD MSTORE DUP5 DUP2 SUB PUSH2 0x180 DUP7 ADD MSTORE PUSH2 0x3740 SWAP2 PUSH2 0x3A8D JUMP JUMPDEST SWAP2 PUSH1 0xFF DUP2 AND ISZERO ISZERO PUSH2 0x1A0 DUP6 ADD MSTORE PUSH1 0x8 SHR PUSH1 0xFF AND ISZERO ISZERO PUSH2 0x1C0 DUP5 ADD MSTORE PUSH2 0x1E0 DUP4 ADD MSTORE SUB SWAP1 RETURN JUMPDEST CALLVALUE PUSH2 0x701 JUMPI PUSH1 0x20 CALLDATASIZE PUSH1 0x3 NOT ADD SLT PUSH2 0x701 JUMPI PUSH1 0x4 CALLDATALOAD PUSH0 SWAP1 DUP2 MSTORE PUSH1 0x1 PUSH1 0x20 DUP2 DUP2 MSTORE PUSH1 0x40 SWAP1 SWAP3 KECCAK256 DUP1 SLOAD SWAP2 DUP2 ADD SLOAD PUSH1 0x1 PUSH1 0x1 PUSH1 0xA0 SHL SUB AND PUSH2 0x37A4 PUSH1 0x2 DUP4 ADD PUSH2 0x39EC JUMP JUMPDEST SWAP2 PUSH1 0x3 DUP2 ADD SLOAD SWAP3 PUSH2 0x3830 PUSH1 0x4 DUP4 ADD SLOAD SWAP5 PUSH2 0x3822 PUSH2 0x37C3 PUSH1 0x5 DUP7 ADD PUSH2 0x39EC JUMP JUMPDEST SWAP2 PUSH2 0x37D0 PUSH1 0x6 DUP8 ADD PUSH2 0x39EC JUMP JUMPDEST SWAP3 PUSH1 0x7 DUP8 ADD SLOAD SWAP9 PUSH2 0x380A PUSH1 0x8 DUP10 ADD SLOAD SWAP8 PUSH1 0xA PUSH1 0x9 DUP12 ADD SLOAD SWAP11 ADD SLOAD SWAP11 PUSH1 0x40 MLOAD SWAP15 DUP16 SWAP15 DUP16 SWAP1 DUP2 MSTORE ADD MSTORE PUSH1 0x40 DUP14 PUSH2 0x160 SWAP2 DUP3 SWAP2 ADD MSTORE DUP14 ADD SWAP1 PUSH2 0x3A8D JUMP JUMPDEST SWAP3 PUSH1 0x60 DUP13 ADD MSTORE PUSH1 0x80 DUP12 ADD MSTORE DUP10 DUP3 SUB PUSH1 0xA0 DUP12 ADD MSTORE PUSH2 0x3A8D JUMP JUMPDEST SWAP1 DUP8 DUP3 SUB PUSH1 0xC0 DUP10 ADD MSTORE PUSH2 0x3A8D JUMP JUMPDEST SWAP4 PUSH1 0xE0 DUP7 ADD MSTORE PUSH2 0x100 DUP6 ADD MSTORE PUSH2 0x120 DUP5 ADD MSTORE PUSH2 0x140 DUP4 ADD MSTORE SUB SWAP1 RETURN JUMPDEST CALLVALUE PUSH2 0x701 JUMPI PUSH0 CALLDATASIZE PUSH1 0x3 NOT ADD SLT PUSH2 0x701 JUMPI PUSH1 0xA SLOAD PUSH1 0xB SLOAD PUSH1 0xC SLOAD PUSH1 0x40 DUP1 MLOAD SWAP4 DUP5 MSTORE PUSH1 0x20 DUP5 ADD SWAP3 SWAP1 SWAP3 MSTORE SWAP1 DUP3 ADD MSTORE PUSH1 0x60 SWAP1 RETURN JUMPDEST CALLVALUE PUSH2 0x701 JUMPI PUSH1 0x40 CALLDATASIZE PUSH1 0x3 NOT ADD SLT PUSH2 0x701 JUMPI PUSH1 0x20 SWAP1 PUSH1 0x1 PUSH1 0x1 PUSH1 0xA0 SHL SUB PUSH2 0x38A1 PUSH2 0x38C1 JUMP JUMPDEST AND PUSH0 MSTORE PUSH1 0x6 DUP3 MSTORE PUSH1 0x40 PUSH0 KECCAK256 PUSH1 0x24 CALLDATALOAD PUSH0 MSTORE DUP3 MSTORE PUSH1 0xFF PUSH1 0x40 PUSH0 KECCAK256 SLOAD AND ISZERO ISZERO DUP2 MSTORE RETURN JUMPDEST PUSH1 0x4 CALLDATALOAD SWAP1 PUSH1 0x1 PUSH1 0x1 PUSH1 0xA0 SHL SUB DUP3 AND DUP3 SUB PUSH2 0x701 JUMPI JUMP JUMPDEST PUSH1 0x24 CALLDATALOAD SWAP1 PUSH1 0x1 PUSH1 0x1 PUSH1 0xA0 SHL SUB DUP3 AND DUP3 SUB PUSH2 0x701 JUMPI JUMP JUMPDEST SWAP1 PUSH1 0x1 DUP3 DUP2 SHR SWAP3 AND DUP1 ISZERO PUSH2 0x391B JUMPI JUMPDEST PUSH1 0x20 DUP4 LT EQ PUSH2 0x3907 JUMPI JUMP JUMPDEST PUSH4 0x4E487B71 PUSH1 0xE0 SHL PUSH0 MSTORE PUSH1 0x22 PUSH1 0x4 MSTORE PUSH1 0x24 PUSH0 REVERT JUMPDEST SWAP2 PUSH1 0x7F AND SWAP2 PUSH2 0x38FC JUMP JUMPDEST PUSH2 0x220 DUP2 ADD SWAP1 DUP2 LT PUSH1 0x1 PUSH1 0x1 PUSH1 0x40 SHL SUB DUP3 GT OR PUSH2 0x535 JUMPI PUSH1 0x40 MSTORE JUMP JUMPDEST PUSH1 0x60 DUP2 ADD SWAP1 DUP2 LT PUSH1 0x1 PUSH1 0x1 PUSH1 0x40 SHL SUB DUP3 GT OR PUSH2 0x535 JUMPI PUSH1 0x40 MSTORE JUMP JUMPDEST PUSH2 0x1A0 DUP2 ADD SWAP1 DUP2 LT PUSH1 0x1 PUSH1 0x1 PUSH1 0x40 SHL SUB DUP3 GT OR PUSH2 0x535 JUMPI PUSH1 0x40 MSTORE JUMP JUMPDEST PUSH2 0x100 DUP2 ADD SWAP1 DUP2 LT PUSH1 0x1 PUSH1 0x1 PUSH1 0x40 SHL SUB DUP3 GT OR PUSH2 0x535 JUMPI PUSH1 0x40 MSTORE JUMP JUMPDEST PUSH2 0x160 DUP2 ADD SWAP1 DUP2 LT PUSH1 0x1 PUSH1 0x1 PUSH1 0x40 SHL SUB DUP3 GT OR PUSH2 0x535 JUMPI PUSH1 0x40 MSTORE JUMP JUMPDEST PUSH1 0x20 DUP2 ADD SWAP1 DUP2 LT PUSH1 0x1 PUSH1 0x1 PUSH1 0x40 SHL SUB DUP3 GT OR PUSH2 0x535 JUMPI PUSH1 0x40 MSTORE JUMP JUMPDEST SWAP1 PUSH1 0x1F DUP1 NOT SWAP2 ADD AND DUP2 ADD SWAP1 DUP2 LT PUSH1 0x1 PUSH1 0x1 PUSH1 0x40 SHL SUB DUP3 GT OR PUSH2 0x535 JUMPI PUSH1 0x40 MSTORE JUMP JUMPDEST SWAP1 PUSH1 0x40 MLOAD SWAP2 DUP3 PUSH0 DUP3 SLOAD SWAP3 PUSH2 0x39FF DUP5 PUSH2 0x38ED JUMP JUMPDEST SWAP1 DUP2 DUP5 MSTORE PUSH1 0x1 SWAP5 DUP6 DUP2 AND SWAP1 DUP2 PUSH0 EQ PUSH2 0x3A6A JUMPI POP PUSH1 0x1 EQ PUSH2 0x3A2A JUMPI JUMPDEST POP POP PUSH2 0x3A28 SWAP3 POP SUB DUP4 PUSH2 0x39CB JUMP JUMPDEST JUMP JUMPDEST SWAP1 SWAP4 SWAP2 POP PUSH0 MSTORE PUSH1 0x20 SWAP1 DUP2 PUSH0 KECCAK256 SWAP4 PUSH0 SWAP2 JUMPDEST DUP2 DUP4 LT PUSH2 0x3A52 JUMPI POP POP PUSH2 0x3A28 SWAP4 POP DUP3 ADD ADD PUSH0 DUP1 PUSH2 0x3A1A JUMP JUMPDEST DUP6 SLOAD DUP9 DUP5 ADD DUP6 ADD MSTORE SWAP5 DUP6 ADD SWAP5 DUP8 SWAP5 POP SWAP2 DUP4 ADD SWAP2 PUSH2 0x3A3A JUMP JUMPDEST SWAP2 POP POP PUSH2 0x3A28 SWAP5 POP PUSH1 0x20 SWAP3 POP PUSH1 0xFF NOT AND DUP3 DUP5 ADD MSTORE ISZERO ISZERO PUSH1 0x5 SHL DUP3 ADD ADD PUSH0 DUP1 PUSH2 0x3A1A JUMP JUMPDEST SWAP2 SWAP1 DUP3 MLOAD SWAP3 DUP4 DUP3 MSTORE PUSH0 JUMPDEST DUP5 DUP2 LT PUSH2 0x3AB7 JUMPI POP POP DUP3 PUSH0 PUSH1 0x20 DUP1 SWAP5 SWAP6 DUP5 ADD ADD MSTORE PUSH1 0x1F DUP1 NOT SWAP2 ADD AND ADD ADD SWAP1 JUMP JUMPDEST PUSH1 0x20 DUP2 DUP4 ADD DUP2 ADD MLOAD DUP5 DUP4 ADD DUP3 ADD MSTORE ADD PUSH2 0x3A97 JUMP JUMPDEST PUSH1 0x1 PUSH1 0x1 PUSH1 0x40 SHL SUB DUP2 GT PUSH2 0x535 JUMPI PUSH1 0x1F ADD PUSH1 0x1F NOT AND PUSH1 0x20 ADD SWAP1 JUMP JUMPDEST DUP2 PUSH1 0x1F DUP3 ADD SLT ISZERO PUSH2 0x701 JUMPI DUP1 CALLDATALOAD SWAP1 PUSH2 0x3AFD DUP3 PUSH2 0x3ACB JUMP JUMPDEST SWAP3 PUSH2 0x3B0B PUSH1 0x40 MLOAD SWAP5 DUP6 PUSH2 0x39CB JUMP JUMPDEST DUP3 DUP5 MSTORE PUSH1 0x20 DUP4 DUP4 ADD ADD GT PUSH2 0x701 JUMPI DUP2 PUSH0 SWAP3 PUSH1 0x20 DUP1 SWAP4 ADD DUP4 DUP7 ADD CALLDATACOPY DUP4 ADD ADD MSTORE SWAP1 JUMP JUMPDEST PUSH1 0x1 PUSH1 0x1 PUSH1 0x40 SHL SUB DUP2 GT PUSH2 0x535 JUMPI PUSH1 0x5 SHL PUSH1 0x20 ADD SWAP1 JUMP JUMPDEST DUP2 PUSH1 0x1F DUP3 ADD SLT ISZERO PUSH2 0x701 JUMPI DUP1 CALLDATALOAD SWAP2 PUSH2 0x3B5A DUP4 PUSH2 0x3B2C JUMP JUMPDEST SWAP3 PUSH2 0x3B68 PUSH1 0x40 MLOAD SWAP5 DUP6 PUSH2 0x39CB JUMP JUMPDEST DUP1 DUP5 MSTORE PUSH1 0x20 SWAP3 DUP4 DUP1 DUP7 ADD SWAP3 PUSH1 0x5 SHL DUP3 ADD ADD SWAP3 DUP4 GT PUSH2 0x701 JUMPI DUP4 ADD SWAP1 JUMPDEST DUP3 DUP3 LT PUSH2 0x3B92 JUMPI POP POP POP POP SWAP1 JUMP JUMPDEST DUP2 CALLDATALOAD DUP2 MSTORE SWAP1 DUP4 ADD SWAP1 DUP4 ADD PUSH2 0x3B84 JUMP JUMPDEST SWAP1 DUP2 MLOAD DUP1 DUP3 MSTORE PUSH1 0x20 DUP1 DUP1 SWAP4 ADD SWAP4 ADD SWAP2 PUSH0 JUMPDEST DUP3 DUP2 LT PUSH2 0x3BC0 JUMPI POP POP POP POP SWAP1 JUMP JUMPDEST DUP4 MLOAD PUSH1 0x1 PUSH1 0x1 PUSH1 0xA0 SHL SUB AND DUP6 MSTORE SWAP4 DUP2 ADD SWAP4 SWAP3 DUP2 ADD SWAP3 PUSH1 0x1 ADD PUSH2 0x3BB2 JUMP JUMPDEST PUSH1 0x40 SWAP1 PUSH1 0x3 NOT ADD SLT PUSH2 0x701 JUMPI PUSH1 0x4 CALLDATALOAD SWAP1 PUSH1 0x24 CALLDATALOAD SWAP1 JUMP JUMPDEST SWAP1 DUP2 MLOAD DUP1 DUP3 MSTORE PUSH1 0x20 DUP1 DUP1 SWAP4 ADD SWAP4 ADD SWAP2 PUSH0 JUMPDEST DUP3 DUP2 LT PUSH2 0x3C12 JUMPI POP POP POP POP SWAP1 JUMP JUMPDEST DUP4 MLOAD DUP6 MSTORE SWAP4 DUP2 ADD SWAP4 SWAP3 DUP2 ADD SWAP3 PUSH1 0x1 ADD PUSH2 0x3C04 JUMP JUMPDEST SWAP1 PUSH1 0xD DUP3 LT ISZERO PUSH2 0x1E0E JUMPI MSTORE JUMP JUMPDEST SWAP2 SWAP1 DUP3 ADD DUP1 SWAP3 GT PUSH2 0x76C JUMPI JUMP JUMPDEST CALLER PUSH0 SWAP1 DUP2 MSTORE PUSH1 0x2 PUSH1 0x20 SWAP1 DUP2 MSTORE PUSH1 0x40 DUP1 DUP4 KECCAK256 DUP1 SLOAD SWAP1 SWAP4 SWAP1 PUSH1 0x1 PUSH1 0x1 PUSH1 0xA0 SHL SUB AND PUSH2 0x3D81 JUMPI PUSH32 0x48CAC28AD4DC618E15F4C2DD5E97751182F166DE97B25618318B2112AA951A2F SWAP3 SWAP4 POP CALLER DUP2 MSTORE PUSH1 0x2 DUP5 MSTORE PUSH1 0x7 DUP3 DUP3 KECCAK256 CALLER PUSH1 0x1 PUSH1 0x1 PUSH1 0x60 SHL SUB PUSH1 0xA0 SHL DUP3 SLOAD AND OR DUP2 SSTORE PUSH0 PUSH1 0x1 DUP3 ADD PUSH2 0x3CBD PUSH2 0x3CB7 DUP3 SLOAD PUSH2 0x38ED JUMP JUMPDEST DUP3 PUSH2 0x3EAB JUMP JUMPDEST SSTORE CALLVALUE PUSH1 0x2 DUP3 ADD SSTORE DUP3 PUSH1 0x3 DUP3 ADD SSTORE PUSH1 0x1 PUSH1 0x4 DUP3 ADD SSTORE DUP3 DUP5 MLOAD PUSH2 0x3CDD DUP2 PUSH2 0x39B0 JUMP JUMPDEST MSTORE PUSH1 0x5 DUP2 ADD DUP1 SLOAD DUP5 DUP3 SSTORE DUP1 PUSH2 0x3D69 JUMPI JUMPDEST POP DUP4 MSTORE DUP3 DUP5 MLOAD PUSH2 0x3CFC DUP2 PUSH2 0x39B0 JUMP JUMPDEST MSTORE PUSH1 0x6 DUP2 ADD DUP1 SLOAD DUP5 DUP3 SSTORE DUP1 PUSH2 0x3D51 JUMPI JUMPDEST POP DUP4 MSTORE DUP3 DUP5 MLOAD PUSH2 0x3D1B DUP2 PUSH2 0x39B0 JUMP JUMPDEST MSTORE ADD DUP1 SLOAD DUP3 DUP3 SSTORE DUP1 PUSH2 0x3D39 JUMPI JUMPDEST POP DUP2 MSTORE DUP2 MLOAD SWAP4 DUP1 DUP6 MSTORE DUP5 ADD MSTORE CALLER SWAP3 LOG2 JUMP JUMPDEST DUP2 DUP4 MSTORE DUP6 DUP4 KECCAK256 PUSH2 0x3D4B SWAP2 DUP2 ADD SWAP1 PUSH2 0x3E95 JUMP JUMPDEST PUSH0 PUSH2 0x3D28 JUMP JUMPDEST DUP2 DUP6 MSTORE DUP8 DUP6 KECCAK256 PUSH2 0x3D63 SWAP2 DUP2 ADD SWAP1 PUSH2 0x3E95 JUMP JUMPDEST PUSH0 PUSH2 0x3D0C JUMP JUMPDEST DUP2 DUP6 MSTORE DUP8 DUP6 KECCAK256 PUSH2 0x3D7B SWAP2 DUP2 ADD SWAP1 PUSH2 0x3E95 JUMP JUMPDEST PUSH0 PUSH2 0x3CED JUMP JUMPDEST POP POP POP PUSH1 0x2 ADD PUSH2 0x3D92 CALLVALUE DUP3 SLOAD PUSH2 0x3C33 JUMP JUMPDEST SWAP1 SSTORE JUMP JUMPDEST ISZERO PUSH2 0x3D9D JUMPI JUMP JUMPDEST PUSH1 0x40 MLOAD PUSH3 0x461BCD PUSH1 0xE5 SHL DUP2 MSTORE PUSH1 0x20 PUSH1 0x4 DUP3 ADD MSTORE PUSH1 0x14 PUSH1 0x24 DUP3 ADD MSTORE PUSH20 0x496E73756666696369656E742062616C616E6365 PUSH1 0x60 SHL PUSH1 0x44 DUP3 ADD MSTORE PUSH1 0x64 SWAP1 REVERT JUMPDEST SWAP2 SWAP1 DUP3 SUB SWAP2 DUP3 GT PUSH2 0x76C JUMPI JUMP JUMPDEST ISZERO PUSH2 0x3DED JUMPI JUMP JUMPDEST PUSH1 0x64 PUSH1 0x40 MLOAD PUSH3 0x461BCD PUSH1 0xE5 SHL DUP2 MSTORE PUSH1 0x20 PUSH1 0x4 DUP3 ADD MSTORE PUSH1 0x20 PUSH1 0x24 DUP3 ADD MSTORE PUSH32 0x53746172742074696D65206D75737420626520696E2074686520667574757265 PUSH1 0x44 DUP3 ADD MSTORE REVERT JUMPDEST ISZERO PUSH2 0x3E38 JUMPI JUMP JUMPDEST PUSH1 0x40 MLOAD PUSH3 0x461BCD PUSH1 0xE5 SHL DUP2 MSTORE PUSH1 0x20 PUSH1 0x4 DUP3 ADD MSTORE PUSH1 0x21 PUSH1 0x24 DUP3 ADD MSTORE PUSH32 0x456E642074696D65206D7573742062652061667465722073746172742074696D PUSH1 0x44 DUP3 ADD MSTORE PUSH1 0x65 PUSH1 0xF8 SHL PUSH1 0x64 DUP3 ADD MSTORE PUSH1 0x84 SWAP1 REVERT JUMPDEST PUSH0 NOT DUP2 EQ PUSH2 0x76C JUMPI PUSH1 0x1 ADD SWAP1 JUMP JUMPDEST DUP2 DUP2 LT PUSH2 0x3EA0 JUMPI POP POP JUMP JUMPDEST PUSH0 DUP2 SSTORE PUSH1 0x1 ADD PUSH2 0x3E95 JUMP JUMPDEST SWAP1 PUSH1 0x1F DUP2 GT PUSH2 0x3EB8 JUMPI POP POP JUMP JUMPDEST PUSH2 0x3A28 SWAP2 PUSH0 MSTORE PUSH1 0x1F PUSH1 0x20 PUSH0 KECCAK256 SWAP2 ADD PUSH1 0x5 SHR DUP2 ADD SWAP1 PUSH2 0x3E95 JUMP JUMPDEST SWAP2 SWAP1 PUSH1 0x1F DUP2 GT PUSH2 0x3EE0 JUMPI POP POP POP JUMP JUMPDEST PUSH2 0x3A28 SWAP3 PUSH0 MSTORE PUSH1 0x20 PUSH0 KECCAK256 SWAP1 PUSH1 0x20 PUSH1 0x1F DUP5 ADD PUSH1 0x5 SHR DUP4 ADD SWAP4 LT PUSH2 0x3F0A JUMPI JUMPDEST PUSH1 0x1F ADD PUSH1 0x5 SHR ADD SWAP1 PUSH2 0x3E95 JUMP JUMPDEST SWAP1 SWAP2 POP DUP2 SWAP1 PUSH2 0x3EFD JUMP JUMPDEST DUP1 MLOAD DUP3 LT ISZERO PUSH2 0x3F28 JUMPI PUSH1 0x20 SWAP2 PUSH1 0x5 SHL ADD ADD SWAP1 JUMP JUMPDEST PUSH4 0x4E487B71 PUSH1 0xE0 SHL PUSH0 MSTORE PUSH1 0x32 PUSH1 0x4 MSTORE PUSH1 0x24 PUSH0 REVERT JUMPDEST DUP1 SLOAD DUP3 LT ISZERO PUSH2 0x3F28 JUMPI PUSH0 MSTORE PUSH1 0x20 PUSH0 KECCAK256 ADD SWAP1 PUSH0 SWAP1 JUMP JUMPDEST DUP1 SLOAD PUSH1 0x1 PUSH1 0x40 SHL DUP2 LT ISZERO PUSH2 0x535 JUMPI PUSH2 0x3F6E SWAP2 PUSH1 0x1 DUP3 ADD DUP2 SSTORE PUSH2 0x3F3C JUMP JUMPDEST DUP2 SWAP3 SWAP2 SLOAD SWAP1 PUSH1 0x3 SHL SWAP2 DUP3 SHL SWAP2 PUSH0 NOT SWAP1 SHL NOT AND OR SWAP1 SSTORE JUMP JUMPDEST ISZERO PUSH2 0x3F8C JUMPI JUMP JUMPDEST PUSH1 0x40 MLOAD PUSH3 0x461BCD PUSH1 0xE5 SHL DUP2 MSTORE PUSH1 0x20 PUSH1 0x4 DUP3 ADD MSTORE PUSH1 0x18 PUSH1 0x24 DUP3 ADD MSTORE PUSH32 0x5468697320686173206E6F742073746172746564207965740000000000000000 PUSH1 0x44 DUP3 ADD MSTORE PUSH1 0x64 SWAP1 REVERT JUMPDEST ISZERO PUSH2 0x3FD8 JUMPI JUMP JUMPDEST PUSH1 0x40 MLOAD PUSH3 0x461BCD PUSH1 0xE5 SHL DUP2 MSTORE PUSH1 0x20 PUSH1 0x4 DUP3 ADD MSTORE PUSH1 0x16 PUSH1 0x24 DUP3 ADD MSTORE PUSH22 0x151A1A5CC81A185CC8185B1C9958591E48195B991959 PUSH1 0x52 SHL PUSH1 0x44 DUP3 ADD MSTORE PUSH1 0x64 SWAP1 REVERT JUMPDEST ISZERO PUSH2 0x401D JUMPI JUMP JUMPDEST PUSH1 0x40 MLOAD PUSH3 0x461BCD PUSH1 0xE5 SHL DUP2 MSTORE PUSH1 0x20 PUSH1 0x4 DUP3 ADD MSTORE PUSH1 0x13 PUSH1 0x24 DUP3 ADD MSTORE PUSH19 0x155CD95C88191BD95CC81B9BDD08195E1A5CDD PUSH1 0x6A SHL PUSH1 0x44 DUP3 ADD MSTORE PUSH1 0x64 SWAP1 REVERT JUMPDEST SWAP1 DUP2 SLOAD SWAP2 PUSH1 0x1 PUSH1 0x40 SHL DUP4 LT ISZERO PUSH2 0x535 JUMPI DUP3 PUSH2 0x1373 SWAP2 PUSH1 0x1 PUSH2 0x3A28 SWAP6 ADD DUP2 SSTORE PUSH2 0x3F3C JUMP JUMPDEST SWAP1 PUSH2 0x4085 DUP3 PUSH2 0x3B2C JUMP JUMPDEST PUSH2 0x4092 PUSH1 0x40 MLOAD SWAP2 DUP3 PUSH2 0x39CB JUMP JUMPDEST DUP3 DUP2 MSTORE DUP1 SWAP3 PUSH2 0x40A3 PUSH1 0x1F NOT SWAP2 PUSH2 0x3B2C JUMP JUMPDEST ADD SWAP1 PUSH1 0x20 CALLDATASIZE SWAP2 ADD CALLDATACOPY JUMP JUMPDEST PUSH1 0x1 DUP1 PUSH1 0xA0 SHL SUB AND PUSH32 0x48CAC28AD4DC618E15F4C2DD5E97751182F166DE97B25618318B2112AA951A2F PUSH0 DUP3 DUP2 MSTORE PUSH1 0x20 PUSH1 0x2 DUP2 MSTORE PUSH1 0x40 SWAP2 PUSH1 0x7 DUP4 DUP3 KECCAK256 DUP7 PUSH1 0x1 PUSH1 0x1 PUSH1 0x60 SHL SUB PUSH1 0xA0 SHL DUP3 SLOAD AND OR DUP2 SSTORE PUSH0 PUSH1 0x1 DUP3 ADD PUSH2 0x410C PUSH2 0x3CB7 DUP3 SLOAD PUSH2 0x38ED JUMP JUMPDEST SSTORE DUP3 PUSH1 0x2 DUP3 ADD SSTORE DUP3 PUSH1 0x3 DUP3 ADD SSTORE PUSH1 0x1 PUSH1 0x4 DUP3 ADD SSTORE DUP3 DUP6 MLOAD PUSH2 0x412C DUP2 PUSH2 0x39B0 JUMP JUMPDEST MSTORE PUSH1 0x5 DUP2 ADD DUP1 SLOAD DUP5 DUP3 SSTORE DUP1 PUSH2 0x41B6 JUMPI JUMPDEST POP DUP4 MSTORE DUP3 DUP6 MLOAD PUSH2 0x414B DUP2 PUSH2 0x39B0 JUMP JUMPDEST MSTORE PUSH1 0x6 DUP2 ADD DUP1 SLOAD DUP5 DUP3 SSTORE DUP1 PUSH2 0x419E JUMPI JUMPDEST POP DUP4 MSTORE DUP3 DUP6 MLOAD PUSH2 0x416A DUP2 PUSH2 0x39B0 JUMP JUMPDEST MSTORE ADD DUP1 SLOAD DUP3 DUP3 SSTORE DUP1 PUSH2 0x4186 JUMPI JUMPDEST POP DUP2 MSTORE DUP3 MLOAD SWAP2 DUP1 DUP4 MSTORE DUP3 ADD MSTORE LOG2 JUMP JUMPDEST DUP2 DUP4 MSTORE DUP4 DUP4 KECCAK256 PUSH2 0x4198 SWAP2 DUP2 ADD SWAP1 PUSH2 0x3E95 JUMP JUMPDEST PUSH0 PUSH2 0x4177 JUMP JUMPDEST DUP2 DUP6 MSTORE DUP6 DUP6 KECCAK256 PUSH2 0x41B0 SWAP2 DUP2 ADD SWAP1 PUSH2 0x3E95 JUMP JUMPDEST PUSH0 PUSH2 0x415B JUMP JUMPDEST DUP2 DUP6 MSTORE DUP6 DUP6 KECCAK256 PUSH2 0x41C8 SWAP2 DUP2 ADD SWAP1 PUSH2 0x3E95 JUMP JUMPDEST PUSH0 PUSH2 0x413C JUMP JUMPDEST PUSH1 0xC SLOAD SWAP1 PUSH1 0x1 JUMPDEST DUP3 DUP2 GT ISZERO PUSH2 0x41E4 JUMPI POP POP POP PUSH0 SWAP1 JUMP JUMPDEST PUSH1 0xFF PUSH0 DUP3 DUP2 MSTORE PUSH1 0x20 SWAP1 PUSH1 0x4 DUP3 MSTORE PUSH1 0x40 SWAP2 DUP3 DUP3 KECCAK256 SWAP1 DUP7 DUP4 MSTORE MSTORE KECCAK256 SLOAD AND PUSH2 0x4211 JUMPI PUSH2 0x420C SWAP1 PUSH2 0x3E87 JUMP JUMPDEST PUSH2 0x41D5 JUMP JUMPDEST SWAP2 POP POP SWAP1 JUMP JUMPDEST PUSH1 0xC SLOAD SWAP1 PUSH1 0x1 JUMPDEST DUP3 DUP2 GT ISZERO PUSH2 0x422D JUMPI POP POP POP PUSH0 SWAP1 JUMP JUMPDEST PUSH1 0xFF PUSH0 DUP3 DUP2 MSTORE PUSH1 0x20 SWAP1 PUSH1 0x5 DUP3 MSTORE PUSH1 0x40 SWAP2 DUP3 DUP3 KECCAK256 SWAP1 DUP7 DUP4 MSTORE MSTORE KECCAK256 SLOAD AND PUSH2 0x4211 JUMPI PUSH2 0x4255 SWAP1 PUSH2 0x3E87 JUMP JUMPDEST PUSH2 0x421E JUMP JUMPDEST SWAP1 PUSH1 0x40 MLOAD SWAP2 DUP3 DUP2 SLOAD SWAP2 DUP3 DUP3 MSTORE PUSH1 0x20 SWAP3 DUP4 DUP4 ADD SWAP2 PUSH0 MSTORE DUP4 PUSH0 KECCAK256 SWAP4 PUSH0 SWAP1 JUMPDEST DUP3 DUP3 LT PUSH2 0x428C JUMPI POP POP POP PUSH2 0x3A28 SWAP3 POP SUB DUP4 PUSH2 0x39CB JUMP JUMPDEST DUP6 SLOAD PUSH1 0x1 PUSH1 0x1 PUSH1 0xA0 SHL SUB AND DUP5 MSTORE PUSH1 0x1 SWAP6 DUP7 ADD SWAP6 DUP9 SWAP6 POP SWAP4 DUP2 ADD SWAP4 SWAP1 SWAP2 ADD SWAP1 PUSH2 0x4276 JUMP JUMPDEST SWAP1 PUSH1 0x40 MLOAD SWAP2 DUP3 DUP2 SLOAD SWAP2 DUP3 DUP3 MSTORE PUSH1 0x20 SWAP3 DUP4 DUP4 ADD SWAP2 PUSH0 MSTORE DUP4 PUSH0 KECCAK256 SWAP4 PUSH0 SWAP1 JUMPDEST DUP3 DUP3 LT PUSH2 0x42E1 JUMPI POP POP POP PUSH2 0x3A28 SWAP3 POP SUB DUP4 PUSH2 0x39CB JUMP JUMPDEST DUP6 SLOAD DUP5 MSTORE PUSH1 0x1 SWAP6 DUP7 ADD SWAP6 DUP9 SWAP6 POP SWAP4 DUP2 ADD SWAP4 SWAP1 SWAP2 ADD SWAP1 PUSH2 0x42CB JUMP INVALID LOG2 PUSH5 0x6970667358 0x22 SLT KECCAK256 PUSH10 0xD0894D92E2D68A2A222C 0xCF DUP8 JUMPDEST 0xCA CHAINID 0x2B 0xE0 0x5D LOG2 0xEE 0xB9 LOG2 0x4E 0xA7 PUSH1 0x8A 0xD4 MSTORE8 0x1F 0xCD POP PUSH5 0x736F6C6343 STOP ADDMOD EQ STOP CALLER "},"methodIdentifiers":{"campaignCount()":"7274e30d","campaignInSpace(uint256,uint256)":"74bb1272","campaigns(uint256)":"141961bc","createCampaign(string,uint256,uint256,string,string,uint256,uint256,uint256,uint256,uint256,string,bool)":"ff76154f","createEvent(string,uint256,uint256,string,string,uint256,uint256,uint256,uint256,uint256[])":"467069eb","createSpace(string,string,uint8,string,string,string,string,uint256[],uint256[])":"488793c7","deposit()":"d0e30db0","editCampaign(uint256,string,string,string,uint256,uint256,uint256,uint256,uint256,string,bool)":"dafaba4f","editEvent(uint256,string,string,string,uint256,uint256,uint256,uint256,uint256[])":"c9e4f141","eventCount()":"71be2e4a","eventInSpace(uint256,uint256)":"5710d6c0","events(uint256)":"0b791430","finalizeRandomSelection(uint256)":"b76fc16b","getAllCampaignIDs()":"e2b08208","getAllEventIDs()":"7f3a4b3d","getAllSpaceIDs()":"8b903d57","getCampaign(uint256)":"5598f8cc","getCampaignParticipants(uint256)":"8c6ab238","getEvent(uint256)":"6d1884e0","getEventParticipants(uint256)":"b50e0182","getLeaderboardEntry(uint256,address)":"5e9df36c","getSpace(uint256)":"70e10431","getTotalCounts()":"045af334","getUser(address)":"6f77926b","joinCampaign(uint256)":"d4a82a58","joinEvent(uint256)":"38d361e2","joinSpace(uint256)":"8be9e3c8","spaceCount()":"319ae4b2","spaceLeaderboard(uint256,address)":"834e415c","spaces(uint256)":"7586353b","updateUserName(string)":"af9036a1","userJoinedCampaign(address,uint256)":"03986a31","userJoinedEvent(address,uint256)":"16dc287a","userJoinedSpace(address,uint256)":"cf407595","users(address)":"a87430ba","withdraw(uint256)":"2e1a7d4d"}}}}}