{"src/contracts/Taskon.sol":{"CampaignContract":{"abi":[{"inputs":[],"stateMutability":"nonpayable","type":"constructor"},{"anonymous":false,"inputs":[{"indexed":false,"internalType":"uint256","name":"id","type":"uint256"},{"indexed":true,"internalType":"address","name":"creator","type":"address"}],"name":"CampaignCreated","type":"event"},{"anonymous":false,"inputs":[{"indexed":false,"internalType":"uint256","name":"id","type":"uint256"},{"indexed":true,"internalType":"address","name":"host","type":"address"}],"name":"EventCreated","type":"event"},{"anonymous":false,"inputs":[{"indexed":true,"internalType":"uint256","name":"campaignId","type":"uint256"},{"indexed":true,"internalType":"address","name":"user","type":"address"}],"name":"JoinedCampaign","type":"event"},{"anonymous":false,"inputs":[{"indexed":true,"internalType":"uint256","name":"eventId","type":"uint256"},{"indexed":true,"internalType":"address","name":"user","type":"address"}],"name":"JoinedEvent","type":"event"},{"anonymous":false,"inputs":[{"indexed":true,"internalType":"uint256","name":"spaceId","type":"uint256"},{"indexed":true,"internalType":"address","name":"user","type":"address"}],"name":"JoinedSpace","type":"event"},{"anonymous":false,"inputs":[{"indexed":false,"internalType":"uint256","name":"id","type":"uint256"},{"indexed":true,"internalType":"address","name":"creator","type":"address"}],"name":"SpaceCreated","type":"event"},{"anonymous":false,"inputs":[{"indexed":true,"internalType":"address","name":"userAddress","type":"address"},{"indexed":false,"internalType":"string","name":"name","type":"string"}],"name":"UserRegistered","type":"event"},{"anonymous":false,"inputs":[{"indexed":true,"internalType":"address","name":"userAddress","type":"address"},{"indexed":false,"internalType":"string","name":"name","type":"string"}],"name":"UserUpdated","type":"event"},{"inputs":[],"name":"campaignCount","outputs":[{"internalType":"uint256","name":"","type":"uint256"}],"stateMutability":"view","type":"function"},{"inputs":[{"internalType":"uint256","name":"","type":"uint256"},{"internalType":"uint256","name":"","type":"uint256"}],"name":"campaignInSpace","outputs":[{"internalType":"bool","name":"","type":"bool"}],"stateMutability":"view","type":"function"},{"inputs":[{"internalType":"uint256","name":"","type":"uint256"}],"name":"campaigns","outputs":[{"internalType":"uint256","name":"id","type":"uint256"},{"internalType":"address","name":"creator","type":"address"},{"internalType":"string","name":"name","type":"string"},{"internalType":"uint256","name":"startTimestamp","type":"uint256"},{"internalType":"uint256","name":"endTimestamp","type":"uint256"},{"internalType":"string","name":"image","type":"string"},{"internalType":"string","name":"description","type":"string"},{"internalType":"uint256","name":"tokenReward","type":"uint256"},{"internalType":"uint256","name":"points","type":"uint256"},{"internalType":"uint256","name":"minimumLevel","type":"uint256"},{"internalType":"uint256","name":"minimumBalance","type":"uint256"},{"internalType":"uint256","name":"numberOfWinners","type":"uint256"},{"internalType":"string","name":"tasksURL","type":"string"},{"internalType":"bool","name":"tasks","type":"bool"},{"internalType":"bool","name":"visibility","type":"bool"},{"internalType":"uint256","name":"randomnessBlockNumber","type":"uint256"}],"stateMutability":"view","type":"function"},{"inputs":[{"internalType":"address","name":"","type":"address"},{"internalType":"uint256","name":"","type":"uint256"}],"name":"campaignsByCreator","outputs":[{"internalType":"uint256","name":"","type":"uint256"}],"stateMutability":"view","type":"function"},{"inputs":[{"internalType":"string","name":"name","type":"string"},{"internalType":"uint256","name":"startTimestamp","type":"uint256"},{"internalType":"uint256","name":"endTimestamp","type":"uint256"},{"internalType":"string","name":"image","type":"string"},{"internalType":"string","name":"description","type":"string"},{"internalType":"uint256","name":"tokenReward","type":"uint256"},{"internalType":"uint256","name":"points","type":"uint256"},{"internalType":"uint256","name":"minimumLevel","type":"uint256"},{"internalType":"uint256","name":"minimumBalance","type":"uint256"},{"internalType":"uint256","name":"numberOfWinners","type":"uint256"},{"internalType":"string","name":"tasksURL","type":"string"},{"internalType":"bool","name":"visibility","type":"bool"}],"name":"createCampaign","outputs":[],"stateMutability":"nonpayable","type":"function"},{"inputs":[{"internalType":"string","name":"name","type":"string"},{"internalType":"uint256","name":"startTimestamp","type":"uint256"},{"internalType":"uint256","name":"endTimestamp","type":"uint256"},{"internalType":"string","name":"image","type":"string"},{"internalType":"string","name":"description","type":"string"},{"internalType":"uint256","name":"tokenReward","type":"uint256"},{"internalType":"uint256","name":"points","type":"uint256"},{"internalType":"uint256","name":"minimumCampaign","type":"uint256"},{"internalType":"uint256","name":"numberOfWinners","type":"uint256"},{"internalType":"uint256[]","name":"campaignIds","type":"uint256[]"}],"name":"createEvent","outputs":[],"stateMutability":"nonpayable","type":"function"},{"inputs":[{"internalType":"string","name":"name","type":"string"},{"internalType":"string","name":"image","type":"string"},{"internalType":"enum CampaignContract.ProjectCategory","name":"category","type":"uint8"},{"internalType":"string","name":"officialWebsite","type":"string"},{"internalType":"string","name":"discordLink","type":"string"},{"internalType":"string","name":"telegramLink","type":"string"},{"internalType":"string","name":"description","type":"string"},{"internalType":"uint256[]","name":"campaignIds","type":"uint256[]"},{"internalType":"uint256[]","name":"eventIds","type":"uint256[]"}],"name":"createSpace","outputs":[],"stateMutability":"nonpayable","type":"function"},{"inputs":[],"name":"deposit","outputs":[],"stateMutability":"payable","type":"function"},{"inputs":[{"internalType":"uint256","name":"campaignId","type":"uint256"},{"internalType":"string","name":"newName","type":"string"},{"internalType":"string","name":"newImage","type":"string"},{"internalType":"string","name":"newDescription","type":"string"},{"internalType":"uint256","name":"newTokenReward","type":"uint256"},{"internalType":"uint256","name":"newPoints","type":"uint256"},{"internalType":"uint256","name":"newMinimumLevel","type":"uint256"},{"internalType":"uint256","name":"newMinimumBalance","type":"uint256"},{"internalType":"uint256","name":"newNumberOfWinners","type":"uint256"},{"internalType":"string","name":"newTasksURL","type":"string"},{"internalType":"bool","name":"newVisibility","type":"bool"}],"name":"editCampaign","outputs":[],"stateMutability":"nonpayable","type":"function"},{"inputs":[{"internalType":"uint256","name":"eventId","type":"uint256"},{"internalType":"string","name":"newName","type":"string"},{"internalType":"string","name":"newImage","type":"string"},{"internalType":"string","name":"newDescription","type":"string"},{"internalType":"uint256","name":"newTokenReward","type":"uint256"},{"internalType":"uint256","name":"newPoints","type":"uint256"},{"internalType":"uint256","name":"newMinimumCampaign","type":"uint256"},{"internalType":"uint256","name":"newNumberOfWinners","type":"uint256"},{"internalType":"uint256[]","name":"newCampaignIds","type":"uint256[]"}],"name":"editEvent","outputs":[],"stateMutability":"nonpayable","type":"function"},{"inputs":[],"name":"eventCount","outputs":[{"internalType":"uint256","name":"","type":"uint256"}],"stateMutability":"view","type":"function"},{"inputs":[{"internalType":"uint256","name":"","type":"uint256"},{"internalType":"uint256","name":"","type":"uint256"}],"name":"eventInSpace","outputs":[{"internalType":"bool","name":"","type":"bool"}],"stateMutability":"view","type":"function"},{"inputs":[{"internalType":"uint256","name":"","type":"uint256"}],"name":"events","outputs":[{"internalType":"uint256","name":"id","type":"uint256"},{"internalType":"address","name":"host","type":"address"},{"internalType":"string","name":"name","type":"string"},{"internalType":"uint256","name":"startTimestamp","type":"uint256"},{"internalType":"uint256","name":"endTimestamp","type":"uint256"},{"internalType":"string","name":"image","type":"string"},{"internalType":"string","name":"description","type":"string"},{"internalType":"uint256","name":"tokenReward","type":"uint256"},{"internalType":"uint256","name":"points","type":"uint256"},{"internalType":"uint256","name":"minimumCampaign","type":"uint256"},{"internalType":"uint256","name":"numberOfWinners","type":"uint256"}],"stateMutability":"view","type":"function"},{"inputs":[{"internalType":"address","name":"","type":"address"},{"internalType":"uint256","name":"","type":"uint256"}],"name":"eventsByHost","outputs":[{"internalType":"uint256","name":"","type":"uint256"}],"stateMutability":"view","type":"function"},{"inputs":[{"internalType":"uint256","name":"campaignId","type":"uint256"}],"name":"finalizeRandomSelection","outputs":[],"stateMutability":"nonpayable","type":"function"},{"inputs":[],"name":"getAllCampaignIDs","outputs":[{"internalType":"uint256[]","name":"","type":"uint256[]"}],"stateMutability":"view","type":"function"},{"inputs":[],"name":"getAllEventIDs","outputs":[{"internalType":"uint256[]","name":"","type":"uint256[]"}],"stateMutability":"view","type":"function"},{"inputs":[],"name":"getAllSpaceIDs","outputs":[{"internalType":"uint256[]","name":"","type":"uint256[]"}],"stateMutability":"view","type":"function"},{"inputs":[{"internalType":"uint256","name":"campaignId","type":"uint256"}],"name":"getCampaign","outputs":[{"components":[{"internalType":"uint256","name":"id","type":"uint256"},{"internalType":"address","name":"creator","type":"address"},{"internalType":"string","name":"name","type":"string"},{"internalType":"uint256","name":"startTimestamp","type":"uint256"},{"internalType":"uint256","name":"endTimestamp","type":"uint256"},{"internalType":"string","name":"image","type":"string"},{"internalType":"string","name":"description","type":"string"},{"internalType":"uint256","name":"tokenReward","type":"uint256"},{"internalType":"uint256","name":"points","type":"uint256"},{"internalType":"uint256","name":"minimumLevel","type":"uint256"},{"internalType":"uint256","name":"minimumBalance","type":"uint256"},{"internalType":"uint256","name":"numberOfWinners","type":"uint256"},{"internalType":"string","name":"tasksURL","type":"string"},{"internalType":"bool","name":"tasks","type":"bool"},{"internalType":"bool","name":"visibility","type":"bool"},{"internalType":"address[]","name":"participants","type":"address[]"},{"internalType":"uint256","name":"randomnessBlockNumber","type":"uint256"}],"internalType":"struct CampaignContract.Campaign","name":"","type":"tuple"},{"internalType":"address[]","name":"","type":"address[]"}],"stateMutability":"view","type":"function"},{"inputs":[{"internalType":"uint256","name":"campaignId","type":"uint256"}],"name":"getCampaignParticipants","outputs":[{"internalType":"address[]","name":"","type":"address[]"}],"stateMutability":"view","type":"function"},{"inputs":[{"internalType":"address","name":"creator","type":"address"}],"name":"getCampaignsByCreator","outputs":[{"internalType":"uint256[]","name":"","type":"uint256[]"}],"stateMutability":"view","type":"function"},{"inputs":[{"internalType":"uint256","name":"eventId","type":"uint256"}],"name":"getEvent","outputs":[{"components":[{"internalType":"uint256","name":"id","type":"uint256"},{"internalType":"address","name":"host","type":"address"},{"internalType":"string","name":"name","type":"string"},{"internalType":"uint256","name":"startTimestamp","type":"uint256"},{"internalType":"uint256","name":"endTimestamp","type":"uint256"},{"internalType":"string","name":"image","type":"string"},{"internalType":"string","name":"description","type":"string"},{"internalType":"uint256","name":"tokenReward","type":"uint256"},{"internalType":"uint256","name":"points","type":"uint256"},{"internalType":"uint256","name":"minimumCampaign","type":"uint256"},{"internalType":"uint256","name":"numberOfWinners","type":"uint256"},{"internalType":"uint256[]","name":"campaignIds","type":"uint256[]"},{"internalType":"address[]","name":"participants","type":"address[]"}],"internalType":"struct CampaignContract.Event","name":"","type":"tuple"},{"internalType":"uint256[]","name":"","type":"uint256[]"},{"internalType":"address[]","name":"","type":"address[]"}],"stateMutability":"view","type":"function"},{"inputs":[{"internalType":"uint256","name":"eventId","type":"uint256"}],"name":"getEventParticipants","outputs":[{"internalType":"address[]","name":"","type":"address[]"}],"stateMutability":"view","type":"function"},{"inputs":[{"internalType":"address","name":"host","type":"address"}],"name":"getEventsByHost","outputs":[{"internalType":"uint256[]","name":"","type":"uint256[]"}],"stateMutability":"view","type":"function"},{"inputs":[{"internalType":"uint256","name":"spaceId","type":"uint256"},{"internalType":"address","name":"userAddress","type":"address"}],"name":"getLeaderboardEntry","outputs":[{"components":[{"internalType":"uint256","name":"campaignsJoined","type":"uint256"},{"internalType":"uint256","name":"eventsJoined","type":"uint256"},{"internalType":"uint256","name":"totalPoints","type":"uint256"}],"internalType":"struct CampaignContract.LeaderboardEntry","name":"","type":"tuple"}],"stateMutability":"view","type":"function"},{"inputs":[{"internalType":"uint256","name":"spaceId","type":"uint256"}],"name":"getSpace","outputs":[{"components":[{"internalType":"string","name":"name","type":"string"},{"internalType":"address","name":"creator","type":"address"},{"internalType":"string","name":"image","type":"string"},{"internalType":"enum CampaignContract.ProjectCategory","name":"category","type":"uint8"},{"internalType":"string","name":"officialWebsite","type":"string"},{"internalType":"string","name":"discordLink","type":"string"},{"internalType":"string","name":"telegramLink","type":"string"},{"internalType":"string","name":"description","type":"string"},{"internalType":"address[]","name":"followers","type":"address[]"},{"internalType":"uint256[]","name":"campaigns","type":"uint256[]"},{"internalType":"uint256[]","name":"events","type":"uint256[]"}],"internalType":"struct CampaignContract.Space","name":"","type":"tuple"},{"internalType":"address[]","name":"","type":"address[]"},{"internalType":"uint256[]","name":"","type":"uint256[]"},{"internalType":"uint256[]","name":"","type":"uint256[]"}],"stateMutability":"view","type":"function"},{"inputs":[{"internalType":"address","name":"creator","type":"address"}],"name":"getSpacesByCreator","outputs":[{"internalType":"uint256[]","name":"","type":"uint256[]"}],"stateMutability":"view","type":"function"},{"inputs":[],"name":"getTotalCounts","outputs":[{"internalType":"uint256","name":"","type":"uint256"},{"internalType":"uint256","name":"","type":"uint256"},{"internalType":"uint256","name":"","type":"uint256"}],"stateMutability":"view","type":"function"},{"inputs":[{"internalType":"address","name":"userAddress","type":"address"}],"name":"getUser","outputs":[{"components":[{"internalType":"address","name":"userAddress","type":"address"},{"internalType":"string","name":"name","type":"string"},{"internalType":"uint256","name":"assets","type":"uint256"},{"internalType":"uint256","name":"points","type":"uint256"},{"internalType":"uint256","name":"level","type":"uint256"},{"internalType":"uint256[]","name":"spaceJoined","type":"uint256[]"},{"internalType":"uint256[]","name":"campaignsJoined","type":"uint256[]"},{"internalType":"uint256[]","name":"eventsJoined","type":"uint256[]"}],"internalType":"struct CampaignContract.User","name":"","type":"tuple"}],"stateMutability":"view","type":"function"},{"inputs":[{"internalType":"uint256","name":"campaignId","type":"uint256"}],"name":"joinCampaign","outputs":[],"stateMutability":"nonpayable","type":"function"},{"inputs":[{"internalType":"uint256","name":"eventId","type":"uint256"}],"name":"joinEvent","outputs":[],"stateMutability":"nonpayable","type":"function"},{"inputs":[{"internalType":"uint256","name":"spaceId","type":"uint256"}],"name":"joinSpace","outputs":[],"stateMutability":"nonpayable","type":"function"},{"inputs":[],"name":"spaceCount","outputs":[{"internalType":"uint256","name":"","type":"uint256"}],"stateMutability":"view","type":"function"},{"inputs":[{"internalType":"uint256","name":"","type":"uint256"},{"internalType":"address","name":"","type":"address"}],"name":"spaceLeaderboard","outputs":[{"internalType":"uint256","name":"campaignsJoined","type":"uint256"},{"internalType":"uint256","name":"eventsJoined","type":"uint256"},{"internalType":"uint256","name":"totalPoints","type":"uint256"}],"stateMutability":"view","type":"function"},{"inputs":[{"internalType":"uint256","name":"","type":"uint256"}],"name":"spaces","outputs":[{"internalType":"string","name":"name","type":"string"},{"internalType":"address","name":"creator","type":"address"},{"internalType":"string","name":"image","type":"string"},{"internalType":"enum CampaignContract.ProjectCategory","name":"category","type":"uint8"},{"internalType":"string","name":"officialWebsite","type":"string"},{"internalType":"string","name":"discordLink","type":"string"},{"internalType":"string","name":"telegramLink","type":"string"},{"internalType":"string","name":"description","type":"string"}],"stateMutability":"view","type":"function"},{"inputs":[{"internalType":"address","name":"","type":"address"},{"internalType":"uint256","name":"","type":"uint256"}],"name":"spacesByCreator","outputs":[{"internalType":"uint256","name":"","type":"uint256"}],"stateMutability":"view","type":"function"},{"inputs":[{"internalType":"string","name":"newName","type":"string"}],"name":"updateUserName","outputs":[],"stateMutability":"nonpayable","type":"function"},{"inputs":[{"internalType":"address","name":"","type":"address"},{"internalType":"uint256","name":"","type":"uint256"}],"name":"userJoinedCampaign","outputs":[{"internalType":"bool","name":"","type":"bool"}],"stateMutability":"view","type":"function"},{"inputs":[{"internalType":"address","name":"","type":"address"},{"internalType":"uint256","name":"","type":"uint256"}],"name":"userJoinedEvent","outputs":[{"internalType":"bool","name":"","type":"bool"}],"stateMutability":"view","type":"function"},{"inputs":[{"internalType":"address","name":"","type":"address"},{"internalType":"uint256","name":"","type":"uint256"}],"name":"userJoinedSpace","outputs":[{"internalType":"bool","name":"","type":"bool"}],"stateMutability":"view","type":"function"},{"inputs":[{"internalType":"address","name":"","type":"address"}],"name":"users","outputs":[{"internalType":"address","name":"userAddress","type":"address"},{"internalType":"string","name":"name","type":"string"},{"internalType":"uint256","name":"assets","type":"uint256"},{"internalType":"uint256","name":"points","type":"uint256"},{"internalType":"uint256","name":"level","type":"uint256"}],"stateMutability":"view","type":"function"},{"inputs":[{"internalType":"uint256","name":"amount","type":"uint256"}],"name":"withdraw","outputs":[],"stateMutability":"nonpayable","type":"function"},{"stateMutability":"payable","type":"receive"}],"evm":{"bytecode":{"linkReferences":{},"object":"608080604052346100165761455c908161001b8239f35b5f80fdfe6080806040526004361015610024575b50361561001a575f80fd5b610022613e94565b005b5f3560e01c90816303986a3114613aa857508063045af33414613a775780630b79143014613990578063141961bc1461385057806316dc287a146138075780632e1a7d4d146136fe578063319ae4b2146136e157806338d361e21461347b578063467069eb14612fb8578063488793c7146127e35780635598f8cc146124e4578063562c512e146124ac5780635710d6c0146124785780635e9df36c146123e65780636d1884e0146121505780636f77926b14611fe857806370e1043114611d2657806371be2e4a14611d095780637274e30d14611cec57806374bb127214611cb85780637586353b14611bb85780637f3a4b3d14611b5b578063834e415c14611af65780638b903d5714611a995780638be9e3c8146119905780638c6ab23814611964578063a460bc071461191b578063a87430ba1461189b578063aa2399b714611863578063af9036a1146116a8578063b50e018214611667578063b76fc16b14611344578063bff78481146112fb578063c2cd39cf146112a4578063c9e4f14114610f07578063cf40759514610ebe578063d0e30db014610eab578063d4a82a5814610c91578063d5b8d84a14610c45578063dafaba4f146107d9578063e2b082081461075e5763ff76154f146101fe575f61000f565b3461075a5761018036600319011261075a576004356001600160401b03811161075a5761022f903690600401613d11565b6064356001600160401b03811161075a5761024e903690600401613d11565b906084356001600160401b03811161075a5761026e903690600401613d11565b90610144356001600160401b03811161075a5761028f903690600401613d11565b90610164351515610164350361075a576102ad42602435101561403a565b6102bc60243560443511614085565b335f52600260205260a435600260405f2001541061070657335f526002602052600260405f20016102f060a435825461402d565b90556102fd600d546140db565b9081600d55815f525f60205260405f2091825560018201336001600160601b0360a01b8254161790558051906001600160401b03821161058e5781906103538261034a6002870154613b18565b60028701614125565b602090601f8311600114610698575f9261068d575b50508160011b915f199060031b1c19161760028201555b6024356003820155604435600482015583516001600160401b03811161058e576103b9816103b06005850154613b18565b60058501614125565b6020601f82116001146106225781929394955f92610617575b50508160011b915f199060031b1c19161760058201555b82516001600160401b03811161058e576104138161040a6006850154613b18565b60068501614125565b6020601f82116001146105ad57819293945f926105a2575b50508160011b915f199060031b1c19161760068201555b60a435600782015560c435600882015560e435600982015561010435600a82015561012435600b820155600c810182516001600160401b03811161058e576104948161048e8454613b18565b84614125565b6020601f821160011461052c57819293945f92610521575b50508160011b915f199060031b1c19161790555b600d8101805461ff00191661016435151560081b61ff0016179055335f5260096020526104f260405f20825490614168565b546040519081527f633109eec20320eded000fc1e2634211aa7e92ba3f5b15faf6dcdafca05094e460203392a2005b015190505f806104ac565b601f19821690835f5260205f20915f5b8181106105765750958360019596971061055e575b505050811b0190556104c0565b01515f1960f88460031b161c191690555f8080610551565b9192602060018192868b01518155019401920161053c565b634e487b7160e01b5f52604160045260245ffd5b015190505f8061042b565b600683015f5260205f20905f5b601f19841681106105ff5750600193949583601f198116106105e7575b505050811b016006820155610442565b01515f1960f88460031b161c191690555f80806105d7565b9091602060018192858a0151815501930191016105ba565b015190505f806103d2565b600583015f5260205f20905f5b601f1984168110610675575060019394959683601f1981161061065d575b505050811b0160058201556103e9565b01515f1960f88460031b161c191690555f808061064d565b9091602060018192858b01518155019301910161062f565b015190505f80610368565b9250600284015f5260205f20905f935b601f19841685106106eb576001945083601f198116106106d3575b505050811b01600282015561037f565b01515f1960f88460031b161c191690555f80806106c3565b818101518355602094850194600190930192909101906106a8565b60405162461bcd60e51b815260206004820152602660248201527f496e73756666696369656e742061737365747320746f2063726561746520636160448201526536b830b4b3b760d11b6064820152608490fd5b5f80fd5b3461075a575f36600319011261075a57600d5461077a816142a6565b9060015b818111156107a0576040516020808252819061079c90820186613e08565b0390f35b5f198101908082116107c557806107ba6107c0938661419c565b526140db565b61077e565b634e487b7160e01b5f52601160045260245ffd5b3461075a5761016036600319011261075a576001600160401b036024803582811161075a5761080c903690600401613d11565b9060443583811161075a57610825903690600401613d11565b9060643584811161075a5761083e903690600401613d11565b926101243585811161075a57610858903690600401613d11565b936101443594851515860361075a576004355f526020915f835260405f209560019460018060a01b0386890154163303610bf157805160028901918b8211610bde5781906108b0826108aa8654613b18565b86614125565b8790601f8311600114610b7f575f92610b74575b50505f19600383901b1c191690871b1790555b805160058801918a8211610b615781906108f5826108aa8654613b18565b8690601f8311600114610b02575f92610af7575b50505f19600383901b1c191690861b1790555b80516006870191898211610ae457819061093a826108aa8654613b18565b8590601f8311600114610a85575f92610a7a575b50505f19600383901b1c191690851b1790555b608435600786015560a435600886015560c435600986015560e435600a86015561010435600b860155600c8501938151978811610a6757506109a7876108aa8654613b18565b81601f88116001146109fd57509580600d9594938193610022995f946109f2575b50501b915f199060031b1c19161790555b019061ff00825491151560081b169061ff001916179055565b0151925089806109c8565b9190601f198816855f52835f20935f905b828210610a5057505091600d9695949391896100229a9410610a38575b505050811b0190556109d9565b01515f1960f88460031b161c19169055878080610a2b565b808786978294978701518155019601940190610a0e565b634e487b7160e01b5f9081526041600452fd5b015190508a8061094e565b90879350601f19831691855f52875f20925f5b89828210610ace5750508411610ab6575b505050811b019055610961565b01515f1960f88460031b161c191690558a8080610aa9565b8385015186558b97909501949384019301610a98565b86634e487b7160e01b5f5260416004525ffd5b015190508b80610909565b90889350601f19831691855f52885f20925f5b8a828210610b4b5750508411610b33575b505050811b01905561091c565b01515f1960f88460031b161c191690558b8080610b26565b8385015186558c97909501949384019301610b15565b87634e487b7160e01b5f5260416004525ffd5b015190508c806108c4565b90899350601f19831691855f52895f20925f5b8b828210610bc85750508411610bb0575b505050811b0190556108d7565b01515f1960f88460031b161c191690558c8080610ba3565b8385015186558d97909501949384019301610b92565b88634e487b7160e01b5f5260416004525ffd5b60405162461bcd60e51b8152600481018690526027818901527f4f6e6c79207468652063726561746f722063616e20656469742074686973206360448201526630b6b830b4b3b760c91b6064820152608490fd5b3461075a57602036600319011261075a576001600160a01b03610c66613aec565b165f52600960205261079c610c7d60405f206144da565b604051918291602083526020830190613e08565b3461075a5760208060031936011261075a5760043590815f525f8152610cd260405f20610cca60046003830154920154914210156141b0565b4211156141fc565b335f526002808252610d0460018060a01b038060405f20541615610e9d575b335f5282845260405f2054161515614241565b335f526006825260405f20835f52825260ff60405f205416610e5857825f525f825260405f20335f52818352600460405f200154600982015411610e1e57610d6c90335f52828452610d628360405f200154600a8301541115613fea565b600e339101614283565b335f52808252610d8283600660405f2001614168565b610d8b836143f9565b80610dda575b5050335f526006815260405f2090825f525260405f20600160ff1982541617905533907f0a8cb7ec996af5cd17d263f3dcdf80ca63fb4cef1b4312a18c70c8f533597f3b5f80a3005b5f52600c825260405f20335f528252610e1560405f2091610dfb83546140db565b8355845f525f8452600860405f2001549201918254613e87565b90558280610d91565b60405162461bcd60e51b815260048101849052601260248201527155736572206c6576656c20746f6f206c6f7760701b6044820152606490fd5b60405162461bcd60e51b815260048101839052601c60248201527f416c7265616479206a6f696e656420746869732063616d706169676e000000006044820152606490fd5b610ea6336142d8565b610cf1565b5f36600319011261075a57610022613e94565b3461075a57604036600319011261075a576001600160a01b03610edf613aec565b165f52600860205260405f206024355f52602052602060ff60405f2054166040519015158152f35b3461075a5761012036600319011261075a5760246001600160401b03813581811161075a57610f3a903690600401613d11565b9160443582811161075a57610f53903690600401613d11565b60643583811161075a57610f6b903690600401613d11565b936101043584811161075a57610f85903690600401613d6e565b906004355f5260019560209387855260405f209260018060a01b03898501541633036112565780516002850191898211610bde578190610fc9826108aa8654613b18565b8890601f83116001146111ee575f926111e3575b50505f19600383901b1c1916908a1b1790555b80516005840191888211610b6157819061100e826108aa8654613b18565b8790601f8311600114611184575f92611179575b50505f19600383901b1c191690891b1790555b80516006830191878211610ae457611057826110518554613b18565b85614125565b8590601f831160011461111557600b949392915f918361110a575b50505f19600383901b1c191690891b1790555b608435600782015560a435600882015560c435600982015560e435600a82015501928151948511610a6757600160401b8511610a675750819083548585558086106110ef575b5001915f52805f205f5b8481106110de57005b8351828201559282019285016110d5565b61110490855f5286845f2091820191016140e9565b866110cb565b015190508a80611072565b9392918991601f19821690845f52885f20915f5b8a8282106111635750509683600b981061114b575b505050811b019055611085565b01515f1960f88460031b161c191690558a808061113e565b838a015185558e96909401939283019201611129565b015190508a80611022565b908b9350601f19831691855f52895f20925f5b8b8282106111cd57505084116111b5575b505050811b019055611035565b01515f1960f88460031b161c191690558a80806111a8565b8385015186558f97909501949384019301611197565b015190508b80610fdd565b908c9350601f19831691855f528a5f20925f5b8c828210611237575050841161121f575b505050811b019055610ff0565b01515f1960f88460031b161c191690558b8080611212565b91929395968291958786015181550195019301908e9594939291611201565b60405162461bcd60e51b8152600481018790526021818901527f4f6e6c792074686520686f73742063616e20656469742074686973206576656e6044820152601d60fa1b6064820152608490fd5b3461075a57604036600319011261075a576112bd613aec565b6001600160a01b03165f908152600b602052604090208054602435919082101561075a576020916112ed91613e5e565b90546040519160031b1c8152f35b3461075a57604036600319011261075a57611314613aec565b6001600160a01b03165f9081526009602052604090208054602435919082101561075a576020916112ed91613e5e565b3461075a57602036600319011261075a576004355f525f60205260405f20600481015442111561162257600f810154804311156115dd57600e8201549182156115a65781401561156157600b8101549283158015611558575b611550575b505f5b8381106113ae57005b604051602081019084408252826040820152604081526113cd81613b6c565b51902090600e830154801561153c576113eb818406600e8601613e5e565b905460018060a01b03818360031b1c165f52600260205260405f206007870154891561153c576114228a6002840192048254613e87565b9055611438600360088901549201918254613e87565b905560018060a01b039160031b1c165f52600260205260405f20606460038201540490600a808311611533575b506004018054821161152b575b5050600e8401545f1993908481019081116107c5576114d79261149b6114b892600e8901613e5e565b905460039190911b1c6001600160a01b03169206600e8701613e5e565b90919082549060031b9160018060a01b03809116831b921b1916179055565b600e8301549182156115175761151292016114f581600e8601613e5e565b81549060018060a01b039060031b1b19169055600e8401556140db565b6113a5565b634e487b7160e01b5f52603160045260245ffd5b558680611472565b91506004611465565b634e487b7160e01b5f52601260045260245ffd5b9250836113a2565b5080841161139d565b60405162461bcd60e51b815260206004820152601760248201527f426c6f636b68617368206e6f7420617661696c61626c650000000000000000006044820152606490fd5b60405162461bcd60e51b815260206004820152600f60248201526e4e6f207061727469636970616e747360881b6044820152606490fd5b60405162461bcd60e51b815260206004820152601c60248201527f52616e646f6d6e65737320626c6f636b206e6f742072656163686564000000006044820152606490fd5b60405162461bcd60e51b815260206004820152601a60248201527f43616d706169676e20686173206e6f7420656e646564207965740000000000006044820152606490fd5b3461075a57602036600319011261075a576004355f52600160205261079c611694600c60405f2001614485565b604051918291602083526020830190613dcc565b3461075a5760208060031936011261075a576001600160401b0360043581811161075a576116da903690600401613d11565b335f9081526002845260409020546116fc906001600160a01b03161515614241565b80511561181e57335f526002835260018060405f200190825193841161058e5761172a8461048e8454613b18565b84601f851160011461179b5793808061178b9594937fd6136f3cad7c60bfc24bbf1548f39f766ca8bce104bf9adde3deb6237dec51df975f93611790575b501b915f199060031b1c19161790555b6040519182918583523395830190613cb8565b0390a2005b860151925089611768565b601f19851690835f52865f20915f5b8882821061180a5750509186917fd6136f3cad7c60bfc24bbf1548f39f766ca8bce104bf9adde3deb6237dec51df9761178b97969594106117f2575b5050811b019055611778565b8501515f1960f88460031b161c1916905587806117e6565b8784015185559385019392830192016117aa565b60405162461bcd60e51b815260048101849052601860248201527f4e6577206e616d652063616e6e6f7420626520656d70747900000000000000006044820152606490fd5b3461075a57602036600319011261075a576001600160a01b03611884613aec565b165f52600b60205261079c610c7d60405f206144da565b3461075a57602036600319011261075a576001600160a01b03806118bd613aec565b165f52600260205260405f20908154166118d960018301613c17565b916002810154906004600382015491015490611907604051958695865260a0602087015260a0860190613cb8565b926040850152606084015260808301520390f35b3461075a57604036600319011261075a57611934613aec565b6001600160a01b03165f908152600a602052604090208054602435919082101561075a576020916112ed91613e5e565b3461075a57602036600319011261075a576004355f525f60205261079c611694600e60405f2001614485565b3461075a5760208060031936011261075a5760043590335f52600281526119c460018060a01b0360405f2054161515614241565b335f526008815260405f20825f52815260ff60405f205416611a5557815f52600381526119f733600860405f2001614283565b335f5260028152611a0e82600560405f2001614168565b335f526008815260405f2090825f525260405f20600160ff1982541617905533907f54b395d5e852d463801b391aac280c017d177c680b3b860fe2b47266a86bcb5f5f80a3005b6064906040519062461bcd60e51b82526004820152601960248201527f416c7265616479206a6f696e65642074686973207370616365000000000000006044820152fd5b3461075a575f36600319011261075a57600f54611ab5816142a6565b9060015b81811115611ad7576040516020808252819061079c90820186613e08565b5f198101908082116107c557806107ba611af1938661419c565b611ab9565b3461075a57604036600319011261075a57611b0f613b02565b6004355f52600c60205260405f209060018060a01b03165f5260205260405f20805461079c60026001840154930154604051938493846040919493926060820195825260208201520152565b3461075a575f36600319011261075a57600e54611b77816142a6565b9060015b81811115611b99576040516020808252819061079c90820186613e08565b5f198101908082116107c557806107ba611bb3938661419c565b611b7b565b3461075a57602036600319011261075a576004355f52600360205260405f20611be081613c17565b60018201546001600160a01b031691611bfb60028201613c17565b90600381015460ff1660048201611c1190613c17565b611c1d60058401613c17565b91611c2a60068501613c17565b93600701611c3790613c17565b94604051978897610100808a528901611c4f91613cb8565b9060208901528781036040890152611c6691613cb8565b9060608701611c7491613e51565b8581036080870152611c8591613cb8565b84810360a0860152611c9691613cb8565b83810360c0850152611ca791613cb8565b82810360e084015261079c91613cb8565b3461075a57611cc636613e3b565b905f52600460205260405f20905f52602052602060ff60405f2054166040519015158152f35b3461075a575f36600319011261075a576020600d54604051908152f35b3461075a575f36600319011261075a576020600e54604051908152f35b3461075a57602036600319011261075a576060610140604051611d4881613bbf565b8281525f60208201528260408201525f838201528260808201528260a08201528260c08201528260e0820152826101008201528261012082015201526004355f52600360205260405f20604051611d9e81613bbf565b611da782613c17565b815260018201546001600160a01b03166020820152611dc860028301613c17565b604082015260ff600383015416600d811015611fd457611faa9261079c916060840152611df760048201613c17565b6080840152611e0860058201613c17565b60a0840152611e1960068201613c17565b60c0840152611e2a60078201613c17565b60e0840152611e3b60088201614485565b610100840152611e4d600982016144da565b610120840152611e5f600a82016144da565b610140840152611fc6611e7460088301614485565b91611fb8611e90600a611e89600985016144da565b93016144da565b9360405197889760808952610140611f95611f7d611f65611f4c8d611f35611f1e611ef5611ecc8a5161016060808701526101e0860190613cb8565b60208b01516001600160a01b031660a086015260408b0151858203607f190160c0870152613cb8565b611f0760608b015160e0860190613e51565b60808a0151848203607f1901610100860152613cb8565b60a0890151838203607f1901610120850152613cb8565b9060c08801519087607f1982850301910152613cb8565b8d60e087015190610160607f1982850301910152613cb8565b6101008501518d8203607f19016101808f0152613dcc565b6101208401518c8203607f19016101a08e0152613e08565b910151898203607f19016101c08b0152613e08565b908782036020890152613dcc565b908582036040870152613e08565b908382036060850152613e08565b634e487b7160e01b5f52602160045260245ffd5b3461075a5760208060031936011261075a57612002613aec565b61079c60e060405161201381613ba3565b5f8152606091818387819401525f60408201525f838201525f60808201528260a08201528260c0820152015260018060a01b038093165f526002845260405f209060405161206081613ba3565b84835416815261214061207560018501613c17565b9387830194855261212f600282015494604085019586526003830154818601908152600484015490608087019182526120b0600586016144da565b9260a088019384526121086120da60076120cc60068a016144da565b9860c08c01998a52016144da565b9a60e08a019b8c526040519e8f9e8f9b828d525116908b0152516101206101009a8b60408201520190613cb8565b9851908c01525160808b01525160a08a01525194601f1995868a83030160c08b0152613e08565b9051848883030160e0890152613e08565b9251918584030190850152613e08565b3461075a57602036600319011261075a57606061018060405161217281613b87565b5f81525f60208201528260408201525f838201525f60808201528260a08201528260c08201525f60e08201525f6101008201525f6101208201525f6101408201528261016082015201526004355f52600160205260405f2060018060a01b0360018201541680156123af5761079c61239392604051926121f184613b87565b81548452602084015261220660028201613c17565b6040840152600381015460608401526004810154608084015261222b60058201613c17565b60a084015261223c60068201613c17565b60c0840152600781015460e084015260088101546101008401526009810154610120840152600a810154610140840152612278600b82016144da565b61016084015261228a600c8201614485565b6101808401526123a16122ab600c6122a4600b85016144da565b9301614485565b91604051958695606087528051606088015260018060a01b03602082015116608088015261018061237e6123396123226122f78b6101a060a060408901519201526102008d0190613cb8565b606086015160c08d0152608086015160e08d015260a08601518c8203605f19016101008e0152613cb8565b60c08501518b8203605f19016101208d0152613cb8565b60e08401516101408b01526101008401516101608b0152610120840151838b01526101408401516101a08b0152610160840151605f198b8303016101c08c0152613e08565b910151878203605f19016101e0890152613dcc565b908582036020870152613e08565b908382036040850152613dcc565b60405162461bcd60e51b815260206004820152600f60248201526e115d995b9d081b9bdd08199bdd5b99608a1b6044820152606490fd5b3461075a57604036600319011261075a576123ff613b02565b5f6040805161240d81613b6c565b82815282602082015201526004355f52600c60205260405f209060018060a01b03165f52602052606060405f2060405161244681613b6c565b815491828252604060026001830154926020850193845201549201918252604051928352516020830152516040820152f35b3461075a5761248636613e3b565b905f52600560205260405f20905f52602052602060ff60405f2054166040519015158152f35b3461075a57602036600319011261075a576001600160a01b036124cd613aec565b165f52600a60205261079c610c7d60405f206144da565b3461075a57602036600319011261075a575f61020060405161250581613b50565b82815282602082015260606040820152826060820152826080820152606060a0820152606060c08201528260e0820152826101008201528261012082015282610140820152826101608201526060610180820152826101a0820152826101c082015260606101e082015201526004355f525f60205260405f2060018060a01b036001820154169081156127a957600e61267d91604051936125a585613b50565b8154855260208501526125ba60028201613c17565b604085015260038101546060850152600481015460808501526125df60058201613c17565b60a08501526125f060068201613c17565b60c0850152600781015460e085015260088101546101008501526009810154610120850152600a810154610140850152600b810154610160850152612637600c8201613c17565b61018085015260ff600d82015481811615156101a087015260081c1615156101c0850152612666828201614485565b6101e0850152600f81015461020085015201614485565b61079c604051928392604084528151604085015260018060a01b03602083015116606085015261020061279361276161270e6126f76126cd604088015161022060808c01526102608b0190613cb8565b606088015160a08b0152608088015160c08b015260a0880151603f198b83030160e08c0152613cb8565b60c0870151898203603f19016101008b0152613cb8565b60e08601516101208901526101008601516101408901526101208601516101608901526101408601516101808901526101608601516101a0890152610180860151603f19898303016101c08a0152613cb8565b6101a085015115156101e08801526101c08501511515838801526101e0850151603f1988830301610220890152613dcc565b9201516102408501528382036020850152613dcc565b60405162461bcd60e51b815260206004820152601260248201527110d85b5c185a59db881b9bdd08199bdd5b9960721b6044820152606490fd5b3461075a5761012036600319011261075a576004356001600160401b03811161075a57612814903690600401613d11565b6024356001600160401b03811161075a57612833903690600401613d11565b90600d604435101561075a576064356001600160401b03811161075a5761285e903690600401613d11565b916084356001600160401b03811161075a5761287e903690600401613d11565b9260a4356001600160401b03811161075a5761289e903690600401613d11565b60c4356001600160401b03811161075a576128bd903690600401613d11565b9460e4356001600160401b03811161075a576128dd903690600401613d6e565b92610104356001600160401b03811161075a576128fe903690600401613d6e565b9461290a600f546140db565b80600f555f52600360205260405f20968051906001600160401b03821161058e5781906129418261293b8c54613b18565b8c614125565b602090601f8311600114612f50575f92612f45575b50508160011b915f199060031b1c19161787555b6001870180546001600160a01b031916331790558051906001600160401b03821161058e5781906129ab826129a260028c0154613b18565b60028c01614125565b602090601f8311600114612ed7575f92612ecc575b50508160011b915f199060031b1c19161760028701555b6003860160ff1981541660ff604435161790558051906001600160401b03821161058e578190612a1782612a0e60048b0154613b18565b60048b01614125565b602090601f8311600114612e5e575f92612e53575b50508160011b915f199060031b1c19161760048601555b8051906001600160401b03821161058e578190612a7082612a6760058a0154613b18565b60058a01614125565b602090601f8311600114612de5575f92612dda575b50508160011b915f199060031b1c19161760058501555b8051906001600160401b03821161058e578190612ac982612ac06006890154613b18565b60068901614125565b602090601f8311600114612d6c575f92612d61575b50508160011b915f199060031b1c19161760068401555b83516001600160401b03811161058e57612b1f81612b166007870154613b18565b60078701614125565b6020601f8211600114612cf35781929394955f92612ce8575b50508160011b915f199060031b1c19161760078401559190915b60098201925f5b8251811015612c1d57612b6c818461419c565b515f525f6020523360018060a01b03600160405f2001541603612bd85780612ba1612b9a612bd3938661419c565b5187614168565b600f545f52600460205260405f20612bb9828661419c565b515f5260205260405f20600160ff198254161790556140db565b612b59565b60405162461bcd60e51b815260206004820152601c60248201527f43616e20616464206f6e6c79206f776e65642063616d706169676e73000000006044820152606490fd5b50600a8301905f5b8151811015612cd057612c38818361419c565b515f5260016020523360018060a01b03600160405f2001541603612c8b5780612c6e612c67612c86938561419c565b5185614168565b600f545f52600560205260405f20612bb9828561419c565b612c25565b60405162461bcd60e51b815260206004820152601960248201527f43616e20616464206f6e6c79206f776e6564206576656e7473000000000000006044820152606490fd5b335f52600b60205261002260405f20600f5490614168565b015190508580612b38565b600785015f5260205f20905f5b601f1984168110612d49575060019394959683601f19811610612d31575b505050811b016007840155919091612b52565b01515f1960f88460031b161c19169055858080612d1e565b9091602060018192858b015181550193019101612d00565b015190508680612ade565b9250600686015f5260205f20905f935b601f1984168510612dbf576001945083601f19811610612da7575b505050811b016006840155612af5565b01515f1960f88460031b161c19169055868080612d97565b81810151835560209485019460019093019290910190612d7c565b015190508780612a85565b9250600587015f5260205f20905f935b601f1984168510612e38576001945083601f19811610612e20575b505050811b016005850155612a9c565b01515f1960f88460031b161c19169055878080612e10565b81810151835560209485019460019093019290910190612df5565b015190508880612a2c565b9250600488015f5260205f20905f935b601f1984168510612eb1576001945083601f19811610612e99575b505050811b016004860155612a43565b01515f1960f88460031b161c19169055888080612e89565b81810151835560209485019460019093019290910190612e6e565b0151905089806129c0565b9250600289015f5260205f20905f935b601f1984168510612f2a576001945083601f19811610612f12575b505050811b0160028701556129d7565b01515f1960f88460031b161c19169055898080612f02565b81810151835560209485019460019093019290910190612ee7565b015190508a80612956565b9250895f5260205f20905f935b601f1984168510612f9d576001945083601f19811610612f85575b505050811b01875561296a565b01515f1960f88460031b161c191690558a8080612f78565b81810151835560209485019460019093019290910190612f5d565b3461075a5761014036600319011261075a576004356001600160401b03811161075a57612fe9903690600401613d11565b6064356001600160401b03811161075a57613008903690600401613d11565b906084356001600160401b03811161075a57613028903690600401613d11565b90610124356001600160401b03811161075a57613049903690600401613d6e565b61305742602435101561403a565b61306660243560443511614085565b335f52600260205260a435600260405f2001541061342a57335f526002602052600260405f200161309a60a435825461402d565b90556130a7600e546140db565b9182600e55825f52600160205260405f2092835560018301336001600160601b0360a01b8254161790558051906001600160401b03821161058e5781906130fe826130f56002880154613b18565b60028801614125565b602090601f83116001146133bc575f926133b1575b50508160011b915f199060031b1c19161760028301555b6024356003830155604435600483015583516001600160401b03811161058e576131648161315b6005860154613b18565b60058601614125565b6020601f82116001146133465781929394955f9261333b575b50508160011b915f199060031b1c19161760058301555b82516001600160401b03811161058e576131be816131b56006860154613b18565b60068601614125565b6020601f82116001146132d157819293945f926132c6575b50508160011b915f199060031b1c19161760068301555b60a435600783015560c435600883015560e435600983015561010435600a830155600b82018151916001600160401b03831161058e57600160401b831161058e5760209082548484558085106132ab575b5001905f5260205f205f5b8381106132975784335f52600a60205261326860405f20825490614168565b546040519081527fe43349c008949cf6b65249356e6f918d4aaa0ca79f2b1166df4a4a98c9c16de260203392a2005b600190602084519401938184015501613249565b6132c090845f5285845f2091820191016140e9565b8561323e565b0151905084806131d6565b600684015f5260205f20905f5b601f19841681106133235750600193949583601f1981161061330b575b505050811b0160068301556131ed565b01515f1960f88460031b161c191690558480806132fb565b9091602060018192858a0151815501930191016132de565b01519050858061317d565b600584015f5260205f20905f5b601f1984168110613399575060019394959683601f19811610613381575b505050811b016005830155613194565b01515f1960f88460031b161c19169055858080613371565b9091602060018192858b015181550193019101613353565b015190508680613113565b9250600285015f5260205f20905f935b601f198416851061340f576001945083601f198116106133f7575b505050811b01600283015561312a565b01515f1960f88460031b161c191690558680806133e7565b818101518355602094850194600190930192909101906133cc565b60405162461bcd60e51b815260206004820152602360248201527f496e73756666696369656e742061737365747320746f20637265617465206576604482015262195b9d60ea1b6064820152608490fd5b3461075a5760208060031936011261075a5760043590815f526001815260405f206134b7600391610cca600484830154920154914210156141b0565b335f526002825260018060a01b036134d68160405f2054161515614241565b335f526007835260405f20845f52835260ff908160405f20541661369c57335f526002845260405f2054161561368e575b835f526001835260405f20915f915f91600b85018054935b84811061363f5750505050506009820154116135fa5761354390600c339101614283565b335f526002815261355a82600760405f2001614168565b61356382614442565b806135b1575b50335f526007815260405f2090825f525260405f20600160ff1982541617905533907ff11149736e591e4b965f3e9e625eaf62f393d637814b49899d9e8e0374cd0f9e5f80a3005b5f52600c815260405f20335f52815260405f20600181016135d281546140db565b9055825f52600182526135f26002600860405f2001549201918254613e87565b905582613569565b60405162461bcd60e51b815260048101839052601e60248201527f4e6f7420656e6f7567682063616d706169676e7320636f6d706c6574656400006044820152606490fd5b6136498183613e5e565b905490841b1c335f526006895260405f20905f5288528360405f205416613679575b613674906140db565b61351f565b94613686613674916140db565b95905061366b565b613697336142d8565b613507565b60405162461bcd60e51b815260048101859052601960248201527f416c7265616479206a6f696e65642074686973206576656e74000000000000006044820152606490fd5b3461075a575f36600319011261075a576020600f54604051908152f35b3461075a5760208060031936011261075a5760043580156137c4575f80808093338252600286526137388160026040852001541015613fea565b338252600286526002604083200161375182825461402d565b9055335af13d156137bf573d61376681613cf6565b906137746040519283613bf6565b81525f833d92013e5b1561378457005b6064906040519062461bcd60e51b8252600482015260146024820152732330b4b632b2103a379039b2b7321022ba3432b960611b6044820152fd5b61377d565b6064826040519062461bcd60e51b825280600483015260248201527f416d6f756e74206d7573742062652067726561746572207468616e207a65726f6044820152fd5b3461075a57604036600319011261075a576001600160a01b03613828613aec565b165f52600760205260405f206024355f52602052602060ff60405f2054166040519015158152f35b3461075a57602036600319011261075a576004355f525f60205260405f20805490600160a01b60019003600182015416906002810161388e90613c17565b92600382015490600483015490600584016138a890613c17565b906138b560068601613c17565b916007860154926008870154600988015491600a89015493600b8a015495600c8b016138e090613c17565b98600d8c01549b600f01549a6040519e8f9e8f9485526020850152610200806040860152840161390f91613cb8565b926060015260808d01528b810360a08d015261392a91613cb8565b8a810360c08c015261393b91613cb8565b9460e08a015261010089015261012088015261014087015261016086015284810361018086015261396b91613cb8565b9160ff811615156101a085015260081c60ff1615156101c08401526101e08301520390f35b3461075a57602036600319011261075a576004355f9081526001602081815260409092208054918101546001600160a01b03166139cf60028301613c17565b91600381015492613a5b600483015494613a4d6139ee60058601613c17565b916139fb60068701613c17565b92600787015498613a35600889015497600a60098b01549a01549a6040519e8f9e8f908152015260408d61016091829101528d0190613cb8565b9260608c015260808b015289820360a08b0152613cb8565b9087820360c0890152613cb8565b9360e08601526101008501526101208401526101408301520390f35b3461075a575f36600319011261075a57600d54600e54600f5460408051938452602084019290925290820152606090f35b3461075a57604036600319011261075a576020906001600160a01b03613acc613aec565b165f526006825260405f206024355f52825260ff60405f20541615158152f35b600435906001600160a01b038216820361075a57565b602435906001600160a01b038216820361075a57565b90600182811c92168015613b46575b6020831014613b3257565b634e487b7160e01b5f52602260045260245ffd5b91607f1691613b27565b61022081019081106001600160401b0382111761058e57604052565b606081019081106001600160401b0382111761058e57604052565b6101a081019081106001600160401b0382111761058e57604052565b61010081019081106001600160401b0382111761058e57604052565b61016081019081106001600160401b0382111761058e57604052565b602081019081106001600160401b0382111761058e57604052565b90601f801991011681019081106001600160401b0382111761058e57604052565b9060405191825f825492613c2a84613b18565b9081845260019485811690815f14613c955750600114613c55575b5050613c5392500383613bf6565b565b909391505f52602090815f20935f915b818310613c7d575050613c5393508201015f80613c45565b85548884018501529485019487945091830191613c65565b915050613c5394506020925060ff191682840152151560051b8201015f80613c45565b91908251928382525f5b848110613ce2575050825f602080949584010152601f8019910116010190565b602081830181015184830182015201613cc2565b6001600160401b03811161058e57601f01601f191660200190565b81601f8201121561075a57803590613d2882613cf6565b92613d366040519485613bf6565b8284526020838301011161075a57815f926020809301838601378301015290565b6001600160401b03811161058e5760051b60200190565b81601f8201121561075a57803591613d8583613d57565b92613d936040519485613bf6565b808452602092838086019260051b82010192831161075a578301905b828210613dbd575050505090565b81358152908301908301613daf565b9081518082526020808093019301915f5b828110613deb575050505090565b83516001600160a01b031685529381019392810192600101613ddd565b9081518082526020808093019301915f5b828110613e27575050505090565b835185529381019392810192600101613e19565b604090600319011261075a576004359060243590565b90600d821015611fd45752565b8054821015613e73575f5260205f2001905f90565b634e487b7160e01b5f52603260045260245ffd5b919082018092116107c557565b335f90815260026020908152604080832080549093906001600160a01b0316613fd5577f48cac28ad4dc618e15f4c2dd5e97751182f166de97b25618318b2112aa951a2f929350338152600284526007828220336001600160601b0360a01b8254161781555f60018201613f11613f0b8254613b18565b826140ff565b5534600282015582600382015560016004820155828451613f3181613bdb565b5260058101805484825580613fbd575b508352828451613f5081613bdb565b5260068101805484825580613fa5575b508352828451613f6f81613bdb565b5201805482825580613f8d575b5081528151938085528401523392a2565b818352858320613f9f918101906140e9565b5f613f7c565b818552878520613fb7918101906140e9565b5f613f60565b818552878520613fcf918101906140e9565b5f613f41565b505050600201613fe6348254613e87565b9055565b15613ff157565b60405162461bcd60e51b8152602060048201526014602482015273496e73756666696369656e742062616c616e636560601b6044820152606490fd5b919082039182116107c557565b1561404157565b606460405162461bcd60e51b815260206004820152602060248201527f53746172742074696d65206d75737420626520696e20746865206675747572656044820152fd5b1561408c57565b60405162461bcd60e51b815260206004820152602160248201527f456e642074696d65206d7573742062652061667465722073746172742074696d6044820152606560f81b6064820152608490fd5b5f1981146107c55760010190565b8181106140f4575050565b5f81556001016140e9565b90601f811161410c575050565b613c53915f52601f60205f20910160051c8101906140e9565b9190601f811161413457505050565b613c53925f5260205f20906020601f840160051c8301931061415e575b601f0160051c01906140e9565b9091508190614151565b8054600160401b81101561058e5761418591600182018155613e5e565b819291549060031b91821b915f19901b1916179055565b8051821015613e735760209160051b010190565b156141b757565b60405162461bcd60e51b815260206004820152601860248201527f5468697320686173206e6f7420737461727465642079657400000000000000006044820152606490fd5b1561420357565b60405162461bcd60e51b8152602060048201526016602482015275151a1a5cc81a185cc8185b1c9958591e48195b99195960521b6044820152606490fd5b1561424857565b60405162461bcd60e51b8152602060048201526013602482015272155cd95c88191bd95cc81b9bdd08195e1a5cdd606a1b6044820152606490fd5b90815491600160401b83101561058e57826114b8916001613c5395018155613e5e565b906142b082613d57565b6142bd6040519182613bf6565b82815280926142ce601f1991613d57565b0190602036910137565b60018060a01b03167f48cac28ad4dc618e15f4c2dd5e97751182f166de97b25618318b2112aa951a2f5f8281526020600281526040916007838220866001600160601b0360a01b8254161781555f60018201614337613f0b8254613b18565b558260028201558260038201556001600482015582855161435781613bdb565b52600581018054848255806143e1575b50835282855161437681613bdb565b52600681018054848255806143c9575b50835282855161439581613bdb565b52018054828255806143b1575b508152825191808352820152a2565b8183528383206143c3918101906140e9565b5f6143a2565b8185528585206143db918101906140e9565b5f614386565b8185528585206143f3918101906140e9565b5f614367565b600f549060015b8281111561440f575050505f90565b60ff5f82815260209060048252604091828220908683525220541661443c57614437906140db565b614400565b91505090565b600f549060015b82811115614458575050505f90565b60ff5f82815260209060058252604091828220908683525220541661443c57614480906140db565b614449565b906040519182815491828252602092838301915f52835f20935f905b8282106144b757505050613c5392500383613bf6565b85546001600160a01b0316845260019586019588955093810193909101906144a1565b906040519182815491828252602092838301915f52835f20935f905b82821061450c57505050613c5392500383613bf6565b8554845260019586019588955093810193909101906144f656fea26469706673582212200538e566c5b458dc9fa70550b479cc62d9d1203d6290e1e25714879776a702ae64736f6c63430008140033","opcodes":"PUSH1 0x80 DUP1 PUSH1 0x40 MSTORE CALLVALUE PUSH2 0x16 JUMPI PUSH2 0x455C SWAP1 DUP2 PUSH2 0x1B DUP3 CODECOPY RETURN JUMPDEST PUSH0 DUP1 REVERT INVALID PUSH1 0x80 DUP1 PUSH1 0x40 MSTORE PUSH1 0x4 CALLDATASIZE LT ISZERO PUSH2 0x24 JUMPI JUMPDEST POP CALLDATASIZE ISZERO PUSH2 0x1A JUMPI PUSH0 DUP1 REVERT JUMPDEST PUSH2 0x22 PUSH2 0x3E94 JUMP JUMPDEST STOP JUMPDEST PUSH0 CALLDATALOAD PUSH1 0xE0 SHR SWAP1 DUP2 PUSH4 0x3986A31 EQ PUSH2 0x3AA8 JUMPI POP DUP1 PUSH4 0x45AF334 EQ PUSH2 0x3A77 JUMPI DUP1 PUSH4 0xB791430 EQ PUSH2 0x3990 JUMPI DUP1 PUSH4 0x141961BC EQ PUSH2 0x3850 JUMPI DUP1 PUSH4 0x16DC287A EQ PUSH2 0x3807 JUMPI DUP1 PUSH4 0x2E1A7D4D EQ PUSH2 0x36FE JUMPI DUP1 PUSH4 0x319AE4B2 EQ PUSH2 0x36E1 JUMPI DUP1 PUSH4 0x38D361E2 EQ PUSH2 0x347B JUMPI DUP1 PUSH4 0x467069EB EQ PUSH2 0x2FB8 JUMPI DUP1 PUSH4 0x488793C7 EQ PUSH2 0x27E3 JUMPI DUP1 PUSH4 0x5598F8CC EQ PUSH2 0x24E4 JUMPI DUP1 PUSH4 0x562C512E EQ PUSH2 0x24AC JUMPI DUP1 PUSH4 0x5710D6C0 EQ PUSH2 0x2478 JUMPI DUP1 PUSH4 0x5E9DF36C EQ PUSH2 0x23E6 JUMPI DUP1 PUSH4 0x6D1884E0 EQ PUSH2 0x2150 JUMPI DUP1 PUSH4 0x6F77926B EQ PUSH2 0x1FE8 JUMPI DUP1 PUSH4 0x70E10431 EQ PUSH2 0x1D26 JUMPI DUP1 PUSH4 0x71BE2E4A EQ PUSH2 0x1D09 JUMPI DUP1 PUSH4 0x7274E30D EQ PUSH2 0x1CEC JUMPI DUP1 PUSH4 0x74BB1272 EQ PUSH2 0x1CB8 JUMPI DUP1 PUSH4 0x7586353B EQ PUSH2 0x1BB8 JUMPI DUP1 PUSH4 0x7F3A4B3D EQ PUSH2 0x1B5B JUMPI DUP1 PUSH4 0x834E415C EQ PUSH2 0x1AF6 JUMPI DUP1 PUSH4 0x8B903D57 EQ PUSH2 0x1A99 JUMPI DUP1 PUSH4 0x8BE9E3C8 EQ PUSH2 0x1990 JUMPI DUP1 PUSH4 0x8C6AB238 EQ PUSH2 0x1964 JUMPI DUP1 PUSH4 0xA460BC07 EQ PUSH2 0x191B JUMPI DUP1 PUSH4 0xA87430BA EQ PUSH2 0x189B JUMPI DUP1 PUSH4 0xAA2399B7 EQ PUSH2 0x1863 JUMPI DUP1 PUSH4 0xAF9036A1 EQ PUSH2 0x16A8 JUMPI DUP1 PUSH4 0xB50E0182 EQ PUSH2 0x1667 JUMPI DUP1 PUSH4 0xB76FC16B EQ PUSH2 0x1344 JUMPI DUP1 PUSH4 0xBFF78481 EQ PUSH2 0x12FB JUMPI DUP1 PUSH4 0xC2CD39CF EQ PUSH2 0x12A4 JUMPI DUP1 PUSH4 0xC9E4F141 EQ PUSH2 0xF07 JUMPI DUP1 PUSH4 0xCF407595 EQ PUSH2 0xEBE JUMPI DUP1 PUSH4 0xD0E30DB0 EQ PUSH2 0xEAB JUMPI DUP1 PUSH4 0xD4A82A58 EQ PUSH2 0xC91 JUMPI DUP1 PUSH4 0xD5B8D84A EQ PUSH2 0xC45 JUMPI DUP1 PUSH4 0xDAFABA4F EQ PUSH2 0x7D9 JUMPI DUP1 PUSH4 0xE2B08208 EQ PUSH2 0x75E JUMPI PUSH4 0xFF76154F EQ PUSH2 0x1FE JUMPI PUSH0 PUSH2 0xF JUMP JUMPDEST CALLVALUE PUSH2 0x75A JUMPI PUSH2 0x180 CALLDATASIZE PUSH1 0x3 NOT ADD SLT PUSH2 0x75A JUMPI PUSH1 0x4 CALLDATALOAD PUSH1 0x1 PUSH1 0x1 PUSH1 0x40 SHL SUB DUP2 GT PUSH2 0x75A JUMPI PUSH2 0x22F SWAP1 CALLDATASIZE SWAP1 PUSH1 0x4 ADD PUSH2 0x3D11 JUMP JUMPDEST PUSH1 0x64 CALLDATALOAD PUSH1 0x1 PUSH1 0x1 PUSH1 0x40 SHL SUB DUP2 GT PUSH2 0x75A JUMPI PUSH2 0x24E SWAP1 CALLDATASIZE SWAP1 PUSH1 0x4 ADD PUSH2 0x3D11 JUMP JUMPDEST SWAP1 PUSH1 0x84 CALLDATALOAD PUSH1 0x1 PUSH1 0x1 PUSH1 0x40 SHL SUB DUP2 GT PUSH2 0x75A JUMPI PUSH2 0x26E SWAP1 CALLDATASIZE SWAP1 PUSH1 0x4 ADD PUSH2 0x3D11 JUMP JUMPDEST SWAP1 PUSH2 0x144 CALLDATALOAD PUSH1 0x1 PUSH1 0x1 PUSH1 0x40 SHL SUB DUP2 GT PUSH2 0x75A JUMPI PUSH2 0x28F SWAP1 CALLDATASIZE SWAP1 PUSH1 0x4 ADD PUSH2 0x3D11 JUMP JUMPDEST SWAP1 PUSH2 0x164 CALLDATALOAD ISZERO ISZERO PUSH2 0x164 CALLDATALOAD SUB PUSH2 0x75A JUMPI PUSH2 0x2AD TIMESTAMP PUSH1 0x24 CALLDATALOAD LT ISZERO PUSH2 0x403A JUMP JUMPDEST PUSH2 0x2BC PUSH1 0x24 CALLDATALOAD PUSH1 0x44 CALLDATALOAD GT PUSH2 0x4085 JUMP JUMPDEST CALLER PUSH0 MSTORE PUSH1 0x2 PUSH1 0x20 MSTORE PUSH1 0xA4 CALLDATALOAD PUSH1 0x2 PUSH1 0x40 PUSH0 KECCAK256 ADD SLOAD LT PUSH2 0x706 JUMPI CALLER PUSH0 MSTORE PUSH1 0x2 PUSH1 0x20 MSTORE PUSH1 0x2 PUSH1 0x40 PUSH0 KECCAK256 ADD PUSH2 0x2F0 PUSH1 0xA4 CALLDATALOAD DUP3 SLOAD PUSH2 0x402D JUMP JUMPDEST SWAP1 SSTORE PUSH2 0x2FD PUSH1 0xD SLOAD PUSH2 0x40DB JUMP JUMPDEST SWAP1 DUP2 PUSH1 0xD SSTORE DUP2 PUSH0 MSTORE PUSH0 PUSH1 0x20 MSTORE PUSH1 0x40 PUSH0 KECCAK256 SWAP2 DUP3 SSTORE PUSH1 0x1 DUP3 ADD CALLER PUSH1 0x1 PUSH1 0x1 PUSH1 0x60 SHL SUB PUSH1 0xA0 SHL DUP3 SLOAD AND OR SWAP1 SSTORE DUP1 MLOAD SWAP1 PUSH1 0x1 PUSH1 0x1 PUSH1 0x40 SHL SUB DUP3 GT PUSH2 0x58E JUMPI DUP2 SWAP1 PUSH2 0x353 DUP3 PUSH2 0x34A PUSH1 0x2 DUP8 ADD SLOAD PUSH2 0x3B18 JUMP JUMPDEST PUSH1 0x2 DUP8 ADD PUSH2 0x4125 JUMP JUMPDEST PUSH1 0x20 SWAP1 PUSH1 0x1F DUP4 GT PUSH1 0x1 EQ PUSH2 0x698 JUMPI PUSH0 SWAP3 PUSH2 0x68D JUMPI JUMPDEST POP POP DUP2 PUSH1 0x1 SHL SWAP2 PUSH0 NOT SWAP1 PUSH1 0x3 SHL SHR NOT AND OR PUSH1 0x2 DUP3 ADD SSTORE JUMPDEST PUSH1 0x24 CALLDATALOAD PUSH1 0x3 DUP3 ADD SSTORE PUSH1 0x44 CALLDATALOAD PUSH1 0x4 DUP3 ADD SSTORE DUP4 MLOAD PUSH1 0x1 PUSH1 0x1 PUSH1 0x40 SHL SUB DUP2 GT PUSH2 0x58E JUMPI PUSH2 0x3B9 DUP2 PUSH2 0x3B0 PUSH1 0x5 DUP6 ADD SLOAD PUSH2 0x3B18 JUMP JUMPDEST PUSH1 0x5 DUP6 ADD PUSH2 0x4125 JUMP JUMPDEST PUSH1 0x20 PUSH1 0x1F DUP3 GT PUSH1 0x1 EQ PUSH2 0x622 JUMPI DUP2 SWAP3 SWAP4 SWAP5 SWAP6 PUSH0 SWAP3 PUSH2 0x617 JUMPI JUMPDEST POP POP DUP2 PUSH1 0x1 SHL SWAP2 PUSH0 NOT SWAP1 PUSH1 0x3 SHL SHR NOT AND OR PUSH1 0x5 DUP3 ADD SSTORE JUMPDEST DUP3 MLOAD PUSH1 0x1 PUSH1 0x1 PUSH1 0x40 SHL SUB DUP2 GT PUSH2 0x58E JUMPI PUSH2 0x413 DUP2 PUSH2 0x40A PUSH1 0x6 DUP6 ADD SLOAD PUSH2 0x3B18 JUMP JUMPDEST PUSH1 0x6 DUP6 ADD PUSH2 0x4125 JUMP JUMPDEST PUSH1 0x20 PUSH1 0x1F DUP3 GT PUSH1 0x1 EQ PUSH2 0x5AD JUMPI DUP2 SWAP3 SWAP4 SWAP5 PUSH0 SWAP3 PUSH2 0x5A2 JUMPI JUMPDEST POP POP DUP2 PUSH1 0x1 SHL SWAP2 PUSH0 NOT SWAP1 PUSH1 0x3 SHL SHR NOT AND OR PUSH1 0x6 DUP3 ADD SSTORE JUMPDEST PUSH1 0xA4 CALLDATALOAD PUSH1 0x7 DUP3 ADD SSTORE PUSH1 0xC4 CALLDATALOAD PUSH1 0x8 DUP3 ADD SSTORE PUSH1 0xE4 CALLDATALOAD PUSH1 0x9 DUP3 ADD SSTORE PUSH2 0x104 CALLDATALOAD PUSH1 0xA DUP3 ADD SSTORE PUSH2 0x124 CALLDATALOAD PUSH1 0xB DUP3 ADD SSTORE PUSH1 0xC DUP2 ADD DUP3 MLOAD PUSH1 0x1 PUSH1 0x1 PUSH1 0x40 SHL SUB DUP2 GT PUSH2 0x58E JUMPI PUSH2 0x494 DUP2 PUSH2 0x48E DUP5 SLOAD PUSH2 0x3B18 JUMP JUMPDEST DUP5 PUSH2 0x4125 JUMP JUMPDEST PUSH1 0x20 PUSH1 0x1F DUP3 GT PUSH1 0x1 EQ PUSH2 0x52C JUMPI DUP2 SWAP3 SWAP4 SWAP5 PUSH0 SWAP3 PUSH2 0x521 JUMPI JUMPDEST POP POP DUP2 PUSH1 0x1 SHL SWAP2 PUSH0 NOT SWAP1 PUSH1 0x3 SHL SHR NOT AND OR SWAP1 SSTORE JUMPDEST PUSH1 0xD DUP2 ADD DUP1 SLOAD PUSH2 0xFF00 NOT AND PUSH2 0x164 CALLDATALOAD ISZERO ISZERO PUSH1 0x8 SHL PUSH2 0xFF00 AND OR SWAP1 SSTORE CALLER PUSH0 MSTORE PUSH1 0x9 PUSH1 0x20 MSTORE PUSH2 0x4F2 PUSH1 0x40 PUSH0 KECCAK256 DUP3 SLOAD SWAP1 PUSH2 0x4168 JUMP JUMPDEST SLOAD PUSH1 0x40 MLOAD SWAP1 DUP2 MSTORE PUSH32 0x633109EEC20320EDED000FC1E2634211AA7E92BA3F5B15FAF6DCDAFCA05094E4 PUSH1 0x20 CALLER SWAP3 LOG2 STOP JUMPDEST ADD MLOAD SWAP1 POP PUSH0 DUP1 PUSH2 0x4AC JUMP JUMPDEST PUSH1 0x1F NOT DUP3 AND SWAP1 DUP4 PUSH0 MSTORE PUSH1 0x20 PUSH0 KECCAK256 SWAP2 PUSH0 JUMPDEST DUP2 DUP2 LT PUSH2 0x576 JUMPI POP SWAP6 DUP4 PUSH1 0x1 SWAP6 SWAP7 SWAP8 LT PUSH2 0x55E JUMPI JUMPDEST POP POP POP DUP2 SHL ADD SWAP1 SSTORE PUSH2 0x4C0 JUMP JUMPDEST ADD MLOAD PUSH0 NOT PUSH1 0xF8 DUP5 PUSH1 0x3 SHL AND SHR NOT AND SWAP1 SSTORE PUSH0 DUP1 DUP1 PUSH2 0x551 JUMP JUMPDEST SWAP2 SWAP3 PUSH1 0x20 PUSH1 0x1 DUP2 SWAP3 DUP7 DUP12 ADD MLOAD DUP2 SSTORE ADD SWAP5 ADD SWAP3 ADD PUSH2 0x53C JUMP JUMPDEST PUSH4 0x4E487B71 PUSH1 0xE0 SHL PUSH0 MSTORE PUSH1 0x41 PUSH1 0x4 MSTORE PUSH1 0x24 PUSH0 REVERT JUMPDEST ADD MLOAD SWAP1 POP PUSH0 DUP1 PUSH2 0x42B JUMP JUMPDEST PUSH1 0x6 DUP4 ADD PUSH0 MSTORE PUSH1 0x20 PUSH0 KECCAK256 SWAP1 PUSH0 JUMPDEST PUSH1 0x1F NOT DUP5 AND DUP2 LT PUSH2 0x5FF JUMPI POP PUSH1 0x1 SWAP4 SWAP5 SWAP6 DUP4 PUSH1 0x1F NOT DUP2 AND LT PUSH2 0x5E7 JUMPI JUMPDEST POP POP POP DUP2 SHL ADD PUSH1 0x6 DUP3 ADD SSTORE PUSH2 0x442 JUMP JUMPDEST ADD MLOAD PUSH0 NOT PUSH1 0xF8 DUP5 PUSH1 0x3 SHL AND SHR NOT AND SWAP1 SSTORE PUSH0 DUP1 DUP1 PUSH2 0x5D7 JUMP JUMPDEST SWAP1 SWAP2 PUSH1 0x20 PUSH1 0x1 DUP2 SWAP3 DUP6 DUP11 ADD MLOAD DUP2 SSTORE ADD SWAP4 ADD SWAP2 ADD PUSH2 0x5BA JUMP JUMPDEST ADD MLOAD SWAP1 POP PUSH0 DUP1 PUSH2 0x3D2 JUMP JUMPDEST PUSH1 0x5 DUP4 ADD PUSH0 MSTORE PUSH1 0x20 PUSH0 KECCAK256 SWAP1 PUSH0 JUMPDEST PUSH1 0x1F NOT DUP5 AND DUP2 LT PUSH2 0x675 JUMPI POP PUSH1 0x1 SWAP4 SWAP5 SWAP6 SWAP7 DUP4 PUSH1 0x1F NOT DUP2 AND LT PUSH2 0x65D JUMPI JUMPDEST POP POP POP DUP2 SHL ADD PUSH1 0x5 DUP3 ADD SSTORE PUSH2 0x3E9 JUMP JUMPDEST ADD MLOAD PUSH0 NOT PUSH1 0xF8 DUP5 PUSH1 0x3 SHL AND SHR NOT AND SWAP1 SSTORE PUSH0 DUP1 DUP1 PUSH2 0x64D JUMP JUMPDEST SWAP1 SWAP2 PUSH1 0x20 PUSH1 0x1 DUP2 SWAP3 DUP6 DUP12 ADD MLOAD DUP2 SSTORE ADD SWAP4 ADD SWAP2 ADD PUSH2 0x62F JUMP JUMPDEST ADD MLOAD SWAP1 POP PUSH0 DUP1 PUSH2 0x368 JUMP JUMPDEST SWAP3 POP PUSH1 0x2 DUP5 ADD PUSH0 MSTORE PUSH1 0x20 PUSH0 KECCAK256 SWAP1 PUSH0 SWAP4 JUMPDEST PUSH1 0x1F NOT DUP5 AND DUP6 LT PUSH2 0x6EB JUMPI PUSH1 0x1 SWAP5 POP DUP4 PUSH1 0x1F NOT DUP2 AND LT PUSH2 0x6D3 JUMPI JUMPDEST POP POP POP DUP2 SHL ADD PUSH1 0x2 DUP3 ADD SSTORE PUSH2 0x37F JUMP JUMPDEST ADD MLOAD PUSH0 NOT PUSH1 0xF8 DUP5 PUSH1 0x3 SHL AND SHR NOT AND SWAP1 SSTORE PUSH0 DUP1 DUP1 PUSH2 0x6C3 JUMP JUMPDEST DUP2 DUP2 ADD MLOAD DUP4 SSTORE PUSH1 0x20 SWAP5 DUP6 ADD SWAP5 PUSH1 0x1 SWAP1 SWAP4 ADD SWAP3 SWAP1 SWAP2 ADD SWAP1 PUSH2 0x6A8 JUMP JUMPDEST PUSH1 0x40 MLOAD PUSH3 0x461BCD PUSH1 0xE5 SHL DUP2 MSTORE PUSH1 0x20 PUSH1 0x4 DUP3 ADD MSTORE PUSH1 0x26 PUSH1 0x24 DUP3 ADD MSTORE PUSH32 0x496E73756666696369656E742061737365747320746F20637265617465206361 PUSH1 0x44 DUP3 ADD MSTORE PUSH6 0x36B830B4B3B7 PUSH1 0xD1 SHL PUSH1 0x64 DUP3 ADD MSTORE PUSH1 0x84 SWAP1 REVERT JUMPDEST PUSH0 DUP1 REVERT JUMPDEST CALLVALUE PUSH2 0x75A JUMPI PUSH0 CALLDATASIZE PUSH1 0x3 NOT ADD SLT PUSH2 0x75A JUMPI PUSH1 0xD SLOAD PUSH2 0x77A DUP2 PUSH2 0x42A6 JUMP JUMPDEST SWAP1 PUSH1 0x1 JUMPDEST DUP2 DUP2 GT ISZERO PUSH2 0x7A0 JUMPI PUSH1 0x40 MLOAD PUSH1 0x20 DUP1 DUP3 MSTORE DUP2 SWAP1 PUSH2 0x79C SWAP1 DUP3 ADD DUP7 PUSH2 0x3E08 JUMP JUMPDEST SUB SWAP1 RETURN JUMPDEST PUSH0 NOT DUP2 ADD SWAP1 DUP1 DUP3 GT PUSH2 0x7C5 JUMPI DUP1 PUSH2 0x7BA PUSH2 0x7C0 SWAP4 DUP7 PUSH2 0x419C JUMP JUMPDEST MSTORE PUSH2 0x40DB JUMP JUMPDEST PUSH2 0x77E JUMP JUMPDEST PUSH4 0x4E487B71 PUSH1 0xE0 SHL PUSH0 MSTORE PUSH1 0x11 PUSH1 0x4 MSTORE PUSH1 0x24 PUSH0 REVERT JUMPDEST CALLVALUE PUSH2 0x75A JUMPI PUSH2 0x160 CALLDATASIZE PUSH1 0x3 NOT ADD SLT PUSH2 0x75A JUMPI PUSH1 0x1 PUSH1 0x1 PUSH1 0x40 SHL SUB PUSH1 0x24 DUP1 CALLDATALOAD DUP3 DUP2 GT PUSH2 0x75A JUMPI PUSH2 0x80C SWAP1 CALLDATASIZE SWAP1 PUSH1 0x4 ADD PUSH2 0x3D11 JUMP JUMPDEST SWAP1 PUSH1 0x44 CALLDATALOAD DUP4 DUP2 GT PUSH2 0x75A JUMPI PUSH2 0x825 SWAP1 CALLDATASIZE SWAP1 PUSH1 0x4 ADD PUSH2 0x3D11 JUMP JUMPDEST SWAP1 PUSH1 0x64 CALLDATALOAD DUP5 DUP2 GT PUSH2 0x75A JUMPI PUSH2 0x83E SWAP1 CALLDATASIZE SWAP1 PUSH1 0x4 ADD PUSH2 0x3D11 JUMP JUMPDEST SWAP3 PUSH2 0x124 CALLDATALOAD DUP6 DUP2 GT PUSH2 0x75A JUMPI PUSH2 0x858 SWAP1 CALLDATASIZE SWAP1 PUSH1 0x4 ADD PUSH2 0x3D11 JUMP JUMPDEST SWAP4 PUSH2 0x144 CALLDATALOAD SWAP5 DUP6 ISZERO ISZERO DUP7 SUB PUSH2 0x75A JUMPI PUSH1 0x4 CALLDATALOAD PUSH0 MSTORE PUSH1 0x20 SWAP2 PUSH0 DUP4 MSTORE PUSH1 0x40 PUSH0 KECCAK256 SWAP6 PUSH1 0x1 SWAP5 PUSH1 0x1 DUP1 PUSH1 0xA0 SHL SUB DUP7 DUP10 ADD SLOAD AND CALLER SUB PUSH2 0xBF1 JUMPI DUP1 MLOAD PUSH1 0x2 DUP10 ADD SWAP2 DUP12 DUP3 GT PUSH2 0xBDE JUMPI DUP2 SWAP1 PUSH2 0x8B0 DUP3 PUSH2 0x8AA DUP7 SLOAD PUSH2 0x3B18 JUMP JUMPDEST DUP7 PUSH2 0x4125 JUMP JUMPDEST DUP8 SWAP1 PUSH1 0x1F DUP4 GT PUSH1 0x1 EQ PUSH2 0xB7F JUMPI PUSH0 SWAP3 PUSH2 0xB74 JUMPI JUMPDEST POP POP PUSH0 NOT PUSH1 0x3 DUP4 SWAP1 SHL SHR NOT AND SWAP1 DUP8 SHL OR SWAP1 SSTORE JUMPDEST DUP1 MLOAD PUSH1 0x5 DUP9 ADD SWAP2 DUP11 DUP3 GT PUSH2 0xB61 JUMPI DUP2 SWAP1 PUSH2 0x8F5 DUP3 PUSH2 0x8AA DUP7 SLOAD PUSH2 0x3B18 JUMP JUMPDEST DUP7 SWAP1 PUSH1 0x1F DUP4 GT PUSH1 0x1 EQ PUSH2 0xB02 JUMPI PUSH0 SWAP3 PUSH2 0xAF7 JUMPI JUMPDEST POP POP PUSH0 NOT PUSH1 0x3 DUP4 SWAP1 SHL SHR NOT AND SWAP1 DUP7 SHL OR SWAP1 SSTORE JUMPDEST DUP1 MLOAD PUSH1 0x6 DUP8 ADD SWAP2 DUP10 DUP3 GT PUSH2 0xAE4 JUMPI DUP2 SWAP1 PUSH2 0x93A DUP3 PUSH2 0x8AA DUP7 SLOAD PUSH2 0x3B18 JUMP JUMPDEST DUP6 SWAP1 PUSH1 0x1F DUP4 GT PUSH1 0x1 EQ PUSH2 0xA85 JUMPI PUSH0 SWAP3 PUSH2 0xA7A JUMPI JUMPDEST POP POP PUSH0 NOT PUSH1 0x3 DUP4 SWAP1 SHL SHR NOT AND SWAP1 DUP6 SHL OR SWAP1 SSTORE JUMPDEST PUSH1 0x84 CALLDATALOAD PUSH1 0x7 DUP7 ADD SSTORE PUSH1 0xA4 CALLDATALOAD PUSH1 0x8 DUP7 ADD SSTORE PUSH1 0xC4 CALLDATALOAD PUSH1 0x9 DUP7 ADD SSTORE PUSH1 0xE4 CALLDATALOAD PUSH1 0xA DUP7 ADD SSTORE PUSH2 0x104 CALLDATALOAD PUSH1 0xB DUP7 ADD SSTORE PUSH1 0xC DUP6 ADD SWAP4 DUP2 MLOAD SWAP8 DUP9 GT PUSH2 0xA67 JUMPI POP PUSH2 0x9A7 DUP8 PUSH2 0x8AA DUP7 SLOAD PUSH2 0x3B18 JUMP JUMPDEST DUP2 PUSH1 0x1F DUP9 GT PUSH1 0x1 EQ PUSH2 0x9FD JUMPI POP SWAP6 DUP1 PUSH1 0xD SWAP6 SWAP5 SWAP4 DUP2 SWAP4 PUSH2 0x22 SWAP10 PUSH0 SWAP5 PUSH2 0x9F2 JUMPI JUMPDEST POP POP SHL SWAP2 PUSH0 NOT SWAP1 PUSH1 0x3 SHL SHR NOT AND OR SWAP1 SSTORE JUMPDEST ADD SWAP1 PUSH2 0xFF00 DUP3 SLOAD SWAP2 ISZERO ISZERO PUSH1 0x8 SHL AND SWAP1 PUSH2 0xFF00 NOT AND OR SWAP1 SSTORE JUMP JUMPDEST ADD MLOAD SWAP3 POP DUP10 DUP1 PUSH2 0x9C8 JUMP JUMPDEST SWAP2 SWAP1 PUSH1 0x1F NOT DUP9 AND DUP6 PUSH0 MSTORE DUP4 PUSH0 KECCAK256 SWAP4 PUSH0 SWAP1 JUMPDEST DUP3 DUP3 LT PUSH2 0xA50 JUMPI POP POP SWAP2 PUSH1 0xD SWAP7 SWAP6 SWAP5 SWAP4 SWAP2 DUP10 PUSH2 0x22 SWAP11 SWAP5 LT PUSH2 0xA38 JUMPI JUMPDEST POP POP POP DUP2 SHL ADD SWAP1 SSTORE PUSH2 0x9D9 JUMP JUMPDEST ADD MLOAD PUSH0 NOT PUSH1 0xF8 DUP5 PUSH1 0x3 SHL AND SHR NOT AND SWAP1 SSTORE DUP8 DUP1 DUP1 PUSH2 0xA2B JUMP JUMPDEST DUP1 DUP8 DUP7 SWAP8 DUP3 SWAP5 SWAP8 DUP8 ADD MLOAD DUP2 SSTORE ADD SWAP7 ADD SWAP5 ADD SWAP1 PUSH2 0xA0E JUMP JUMPDEST PUSH4 0x4E487B71 PUSH1 0xE0 SHL PUSH0 SWAP1 DUP2 MSTORE PUSH1 0x41 PUSH1 0x4 MSTORE REVERT JUMPDEST ADD MLOAD SWAP1 POP DUP11 DUP1 PUSH2 0x94E JUMP JUMPDEST SWAP1 DUP8 SWAP4 POP PUSH1 0x1F NOT DUP4 AND SWAP2 DUP6 PUSH0 MSTORE DUP8 PUSH0 KECCAK256 SWAP3 PUSH0 JUMPDEST DUP10 DUP3 DUP3 LT PUSH2 0xACE JUMPI POP POP DUP5 GT PUSH2 0xAB6 JUMPI JUMPDEST POP POP POP DUP2 SHL ADD SWAP1 SSTORE PUSH2 0x961 JUMP JUMPDEST ADD MLOAD PUSH0 NOT PUSH1 0xF8 DUP5 PUSH1 0x3 SHL AND SHR NOT AND SWAP1 SSTORE DUP11 DUP1 DUP1 PUSH2 0xAA9 JUMP JUMPDEST DUP4 DUP6 ADD MLOAD DUP7 SSTORE DUP12 SWAP8 SWAP1 SWAP6 ADD SWAP5 SWAP4 DUP5 ADD SWAP4 ADD PUSH2 0xA98 JUMP JUMPDEST DUP7 PUSH4 0x4E487B71 PUSH1 0xE0 SHL PUSH0 MSTORE PUSH1 0x41 PUSH1 0x4 MSTORE PUSH0 REVERT JUMPDEST ADD MLOAD SWAP1 POP DUP12 DUP1 PUSH2 0x909 JUMP JUMPDEST SWAP1 DUP9 SWAP4 POP PUSH1 0x1F NOT DUP4 AND SWAP2 DUP6 PUSH0 MSTORE DUP9 PUSH0 KECCAK256 SWAP3 PUSH0 JUMPDEST DUP11 DUP3 DUP3 LT PUSH2 0xB4B JUMPI POP POP DUP5 GT PUSH2 0xB33 JUMPI JUMPDEST POP POP POP DUP2 SHL ADD SWAP1 SSTORE PUSH2 0x91C JUMP JUMPDEST ADD MLOAD PUSH0 NOT PUSH1 0xF8 DUP5 PUSH1 0x3 SHL AND SHR NOT AND SWAP1 SSTORE DUP12 DUP1 DUP1 PUSH2 0xB26 JUMP JUMPDEST DUP4 DUP6 ADD MLOAD DUP7 SSTORE DUP13 SWAP8 SWAP1 SWAP6 ADD SWAP5 SWAP4 DUP5 ADD SWAP4 ADD PUSH2 0xB15 JUMP JUMPDEST DUP8 PUSH4 0x4E487B71 PUSH1 0xE0 SHL PUSH0 MSTORE PUSH1 0x41 PUSH1 0x4 MSTORE PUSH0 REVERT JUMPDEST ADD MLOAD SWAP1 POP DUP13 DUP1 PUSH2 0x8C4 JUMP JUMPDEST SWAP1 DUP10 SWAP4 POP PUSH1 0x1F NOT DUP4 AND SWAP2 DUP6 PUSH0 MSTORE DUP10 PUSH0 KECCAK256 SWAP3 PUSH0 JUMPDEST DUP12 DUP3 DUP3 LT PUSH2 0xBC8 JUMPI POP POP DUP5 GT PUSH2 0xBB0 JUMPI JUMPDEST POP POP POP DUP2 SHL ADD SWAP1 SSTORE PUSH2 0x8D7 JUMP JUMPDEST ADD MLOAD PUSH0 NOT PUSH1 0xF8 DUP5 PUSH1 0x3 SHL AND SHR NOT AND SWAP1 SSTORE DUP13 DUP1 DUP1 PUSH2 0xBA3 JUMP JUMPDEST DUP4 DUP6 ADD MLOAD DUP7 SSTORE DUP14 SWAP8 SWAP1 SWAP6 ADD SWAP5 SWAP4 DUP5 ADD SWAP4 ADD PUSH2 0xB92 JUMP JUMPDEST DUP9 PUSH4 0x4E487B71 PUSH1 0xE0 SHL PUSH0 MSTORE PUSH1 0x41 PUSH1 0x4 MSTORE PUSH0 REVERT JUMPDEST PUSH1 0x40 MLOAD PUSH3 0x461BCD PUSH1 0xE5 SHL DUP2 MSTORE PUSH1 0x4 DUP2 ADD DUP7 SWAP1 MSTORE PUSH1 0x27 DUP2 DUP10 ADD MSTORE PUSH32 0x4F6E6C79207468652063726561746F722063616E206564697420746869732063 PUSH1 0x44 DUP3 ADD MSTORE PUSH7 0x30B6B830B4B3B7 PUSH1 0xC9 SHL PUSH1 0x64 DUP3 ADD MSTORE PUSH1 0x84 SWAP1 REVERT JUMPDEST CALLVALUE PUSH2 0x75A JUMPI PUSH1 0x20 CALLDATASIZE PUSH1 0x3 NOT ADD SLT PUSH2 0x75A JUMPI PUSH1 0x1 PUSH1 0x1 PUSH1 0xA0 SHL SUB PUSH2 0xC66 PUSH2 0x3AEC JUMP JUMPDEST AND PUSH0 MSTORE PUSH1 0x9 PUSH1 0x20 MSTORE PUSH2 0x79C PUSH2 0xC7D PUSH1 0x40 PUSH0 KECCAK256 PUSH2 0x44DA JUMP JUMPDEST PUSH1 0x40 MLOAD SWAP2 DUP3 SWAP2 PUSH1 0x20 DUP4 MSTORE PUSH1 0x20 DUP4 ADD SWAP1 PUSH2 0x3E08 JUMP JUMPDEST CALLVALUE PUSH2 0x75A JUMPI PUSH1 0x20 DUP1 PUSH1 0x3 NOT CALLDATASIZE ADD SLT PUSH2 0x75A JUMPI PUSH1 0x4 CALLDATALOAD SWAP1 DUP2 PUSH0 MSTORE PUSH0 DUP2 MSTORE PUSH2 0xCD2 PUSH1 0x40 PUSH0 KECCAK256 PUSH2 0xCCA PUSH1 0x4 PUSH1 0x3 DUP4 ADD SLOAD SWAP3 ADD SLOAD SWAP2 TIMESTAMP LT ISZERO PUSH2 0x41B0 JUMP JUMPDEST TIMESTAMP GT ISZERO PUSH2 0x41FC JUMP JUMPDEST CALLER PUSH0 MSTORE PUSH1 0x2 DUP1 DUP3 MSTORE PUSH2 0xD04 PUSH1 0x1 DUP1 PUSH1 0xA0 SHL SUB DUP1 PUSH1 0x40 PUSH0 KECCAK256 SLOAD AND ISZERO PUSH2 0xE9D JUMPI JUMPDEST CALLER PUSH0 MSTORE DUP3 DUP5 MSTORE PUSH1 0x40 PUSH0 KECCAK256 SLOAD AND ISZERO ISZERO PUSH2 0x4241 JUMP JUMPDEST CALLER PUSH0 MSTORE PUSH1 0x6 DUP3 MSTORE PUSH1 0x40 PUSH0 KECCAK256 DUP4 PUSH0 MSTORE DUP3 MSTORE PUSH1 0xFF PUSH1 0x40 PUSH0 KECCAK256 SLOAD AND PUSH2 0xE58 JUMPI DUP3 PUSH0 MSTORE PUSH0 DUP3 MSTORE PUSH1 0x40 PUSH0 KECCAK256 CALLER PUSH0 MSTORE DUP2 DUP4 MSTORE PUSH1 0x4 PUSH1 0x40 PUSH0 KECCAK256 ADD SLOAD PUSH1 0x9 DUP3 ADD SLOAD GT PUSH2 0xE1E JUMPI PUSH2 0xD6C SWAP1 CALLER PUSH0 MSTORE DUP3 DUP5 MSTORE PUSH2 0xD62 DUP4 PUSH1 0x40 PUSH0 KECCAK256 ADD SLOAD PUSH1 0xA DUP4 ADD SLOAD GT ISZERO PUSH2 0x3FEA JUMP JUMPDEST PUSH1 0xE CALLER SWAP2 ADD PUSH2 0x4283 JUMP JUMPDEST CALLER PUSH0 MSTORE DUP1 DUP3 MSTORE PUSH2 0xD82 DUP4 PUSH1 0x6 PUSH1 0x40 PUSH0 KECCAK256 ADD PUSH2 0x4168 JUMP JUMPDEST PUSH2 0xD8B DUP4 PUSH2 0x43F9 JUMP JUMPDEST DUP1 PUSH2 0xDDA JUMPI JUMPDEST POP POP CALLER PUSH0 MSTORE PUSH1 0x6 DUP2 MSTORE PUSH1 0x40 PUSH0 KECCAK256 SWAP1 DUP3 PUSH0 MSTORE MSTORE PUSH1 0x40 PUSH0 KECCAK256 PUSH1 0x1 PUSH1 0xFF NOT DUP3 SLOAD AND OR SWAP1 SSTORE CALLER SWAP1 PUSH32 0xA8CB7EC996AF5CD17D263F3DCDF80CA63FB4CEF1B4312A18C70C8F533597F3B PUSH0 DUP1 LOG3 STOP JUMPDEST PUSH0 MSTORE PUSH1 0xC DUP3 MSTORE PUSH1 0x40 PUSH0 KECCAK256 CALLER PUSH0 MSTORE DUP3 MSTORE PUSH2 0xE15 PUSH1 0x40 PUSH0 KECCAK256 SWAP2 PUSH2 0xDFB DUP4 SLOAD PUSH2 0x40DB JUMP JUMPDEST DUP4 SSTORE DUP5 PUSH0 MSTORE PUSH0 DUP5 MSTORE PUSH1 0x8 PUSH1 0x40 PUSH0 KECCAK256 ADD SLOAD SWAP3 ADD SWAP2 DUP3 SLOAD PUSH2 0x3E87 JUMP JUMPDEST SWAP1 SSTORE DUP3 DUP1 PUSH2 0xD91 JUMP JUMPDEST PUSH1 0x40 MLOAD PUSH3 0x461BCD PUSH1 0xE5 SHL DUP2 MSTORE PUSH1 0x4 DUP2 ADD DUP5 SWAP1 MSTORE PUSH1 0x12 PUSH1 0x24 DUP3 ADD MSTORE PUSH18 0x55736572206C6576656C20746F6F206C6F77 PUSH1 0x70 SHL PUSH1 0x44 DUP3 ADD MSTORE PUSH1 0x64 SWAP1 REVERT JUMPDEST PUSH1 0x40 MLOAD PUSH3 0x461BCD PUSH1 0xE5 SHL DUP2 MSTORE PUSH1 0x4 DUP2 ADD DUP4 SWAP1 MSTORE PUSH1 0x1C PUSH1 0x24 DUP3 ADD MSTORE PUSH32 0x416C7265616479206A6F696E656420746869732063616D706169676E00000000 PUSH1 0x44 DUP3 ADD MSTORE PUSH1 0x64 SWAP1 REVERT JUMPDEST PUSH2 0xEA6 CALLER PUSH2 0x42D8 JUMP JUMPDEST PUSH2 0xCF1 JUMP JUMPDEST PUSH0 CALLDATASIZE PUSH1 0x3 NOT ADD SLT PUSH2 0x75A JUMPI PUSH2 0x22 PUSH2 0x3E94 JUMP JUMPDEST CALLVALUE PUSH2 0x75A JUMPI PUSH1 0x40 CALLDATASIZE PUSH1 0x3 NOT ADD SLT PUSH2 0x75A JUMPI PUSH1 0x1 PUSH1 0x1 PUSH1 0xA0 SHL SUB PUSH2 0xEDF PUSH2 0x3AEC JUMP JUMPDEST AND PUSH0 MSTORE PUSH1 0x8 PUSH1 0x20 MSTORE PUSH1 0x40 PUSH0 KECCAK256 PUSH1 0x24 CALLDATALOAD PUSH0 MSTORE PUSH1 0x20 MSTORE PUSH1 0x20 PUSH1 0xFF PUSH1 0x40 PUSH0 KECCAK256 SLOAD AND PUSH1 0x40 MLOAD SWAP1 ISZERO ISZERO DUP2 MSTORE RETURN JUMPDEST CALLVALUE PUSH2 0x75A JUMPI PUSH2 0x120 CALLDATASIZE PUSH1 0x3 NOT ADD SLT PUSH2 0x75A JUMPI PUSH1 0x24 PUSH1 0x1 PUSH1 0x1 PUSH1 0x40 SHL SUB DUP2 CALLDATALOAD DUP2 DUP2 GT PUSH2 0x75A JUMPI PUSH2 0xF3A SWAP1 CALLDATASIZE SWAP1 PUSH1 0x4 ADD PUSH2 0x3D11 JUMP JUMPDEST SWAP2 PUSH1 0x44 CALLDATALOAD DUP3 DUP2 GT PUSH2 0x75A JUMPI PUSH2 0xF53 SWAP1 CALLDATASIZE SWAP1 PUSH1 0x4 ADD PUSH2 0x3D11 JUMP JUMPDEST PUSH1 0x64 CALLDATALOAD DUP4 DUP2 GT PUSH2 0x75A JUMPI PUSH2 0xF6B SWAP1 CALLDATASIZE SWAP1 PUSH1 0x4 ADD PUSH2 0x3D11 JUMP JUMPDEST SWAP4 PUSH2 0x104 CALLDATALOAD DUP5 DUP2 GT PUSH2 0x75A JUMPI PUSH2 0xF85 SWAP1 CALLDATASIZE SWAP1 PUSH1 0x4 ADD PUSH2 0x3D6E JUMP JUMPDEST SWAP1 PUSH1 0x4 CALLDATALOAD PUSH0 MSTORE PUSH1 0x1 SWAP6 PUSH1 0x20 SWAP4 DUP8 DUP6 MSTORE PUSH1 0x40 PUSH0 KECCAK256 SWAP3 PUSH1 0x1 DUP1 PUSH1 0xA0 SHL SUB DUP10 DUP6 ADD SLOAD AND CALLER SUB PUSH2 0x1256 JUMPI DUP1 MLOAD PUSH1 0x2 DUP6 ADD SWAP2 DUP10 DUP3 GT PUSH2 0xBDE JUMPI DUP2 SWAP1 PUSH2 0xFC9 DUP3 PUSH2 0x8AA DUP7 SLOAD PUSH2 0x3B18 JUMP JUMPDEST DUP9 SWAP1 PUSH1 0x1F DUP4 GT PUSH1 0x1 EQ PUSH2 0x11EE JUMPI PUSH0 SWAP3 PUSH2 0x11E3 JUMPI JUMPDEST POP POP PUSH0 NOT PUSH1 0x3 DUP4 SWAP1 SHL SHR NOT AND SWAP1 DUP11 SHL OR SWAP1 SSTORE JUMPDEST DUP1 MLOAD PUSH1 0x5 DUP5 ADD SWAP2 DUP9 DUP3 GT PUSH2 0xB61 JUMPI DUP2 SWAP1 PUSH2 0x100E DUP3 PUSH2 0x8AA DUP7 SLOAD PUSH2 0x3B18 JUMP JUMPDEST DUP8 SWAP1 PUSH1 0x1F DUP4 GT PUSH1 0x1 EQ PUSH2 0x1184 JUMPI PUSH0 SWAP3 PUSH2 0x1179 JUMPI JUMPDEST POP POP PUSH0 NOT PUSH1 0x3 DUP4 SWAP1 SHL SHR NOT AND SWAP1 DUP10 SHL OR SWAP1 SSTORE JUMPDEST DUP1 MLOAD PUSH1 0x6 DUP4 ADD SWAP2 DUP8 DUP3 GT PUSH2 0xAE4 JUMPI PUSH2 0x1057 DUP3 PUSH2 0x1051 DUP6 SLOAD PUSH2 0x3B18 JUMP JUMPDEST DUP6 PUSH2 0x4125 JUMP JUMPDEST DUP6 SWAP1 PUSH1 0x1F DUP4 GT PUSH1 0x1 EQ PUSH2 0x1115 JUMPI PUSH1 0xB SWAP5 SWAP4 SWAP3 SWAP2 PUSH0 SWAP2 DUP4 PUSH2 0x110A JUMPI JUMPDEST POP POP PUSH0 NOT PUSH1 0x3 DUP4 SWAP1 SHL SHR NOT AND SWAP1 DUP10 SHL OR SWAP1 SSTORE JUMPDEST PUSH1 0x84 CALLDATALOAD PUSH1 0x7 DUP3 ADD SSTORE PUSH1 0xA4 CALLDATALOAD PUSH1 0x8 DUP3 ADD SSTORE PUSH1 0xC4 CALLDATALOAD PUSH1 0x9 DUP3 ADD SSTORE PUSH1 0xE4 CALLDATALOAD PUSH1 0xA DUP3 ADD SSTORE ADD SWAP3 DUP2 MLOAD SWAP5 DUP6 GT PUSH2 0xA67 JUMPI PUSH1 0x1 PUSH1 0x40 SHL DUP6 GT PUSH2 0xA67 JUMPI POP DUP2 SWAP1 DUP4 SLOAD DUP6 DUP6 SSTORE DUP1 DUP7 LT PUSH2 0x10EF JUMPI JUMPDEST POP ADD SWAP2 PUSH0 MSTORE DUP1 PUSH0 KECCAK256 PUSH0 JUMPDEST DUP5 DUP2 LT PUSH2 0x10DE JUMPI STOP JUMPDEST DUP4 MLOAD DUP3 DUP3 ADD SSTORE SWAP3 DUP3 ADD SWAP3 DUP6 ADD PUSH2 0x10D5 JUMP JUMPDEST PUSH2 0x1104 SWAP1 DUP6 PUSH0 MSTORE DUP7 DUP5 PUSH0 KECCAK256 SWAP2 DUP3 ADD SWAP2 ADD PUSH2 0x40E9 JUMP JUMPDEST DUP7 PUSH2 0x10CB JUMP JUMPDEST ADD MLOAD SWAP1 POP DUP11 DUP1 PUSH2 0x1072 JUMP JUMPDEST SWAP4 SWAP3 SWAP2 DUP10 SWAP2 PUSH1 0x1F NOT DUP3 AND SWAP1 DUP5 PUSH0 MSTORE DUP9 PUSH0 KECCAK256 SWAP2 PUSH0 JUMPDEST DUP11 DUP3 DUP3 LT PUSH2 0x1163 JUMPI POP POP SWAP7 DUP4 PUSH1 0xB SWAP9 LT PUSH2 0x114B JUMPI JUMPDEST POP POP POP DUP2 SHL ADD SWAP1 SSTORE PUSH2 0x1085 JUMP JUMPDEST ADD MLOAD PUSH0 NOT PUSH1 0xF8 DUP5 PUSH1 0x3 SHL AND SHR NOT AND SWAP1 SSTORE DUP11 DUP1 DUP1 PUSH2 0x113E JUMP JUMPDEST DUP4 DUP11 ADD MLOAD DUP6 SSTORE DUP15 SWAP7 SWAP1 SWAP5 ADD SWAP4 SWAP3 DUP4 ADD SWAP3 ADD PUSH2 0x1129 JUMP JUMPDEST ADD MLOAD SWAP1 POP DUP11 DUP1 PUSH2 0x1022 JUMP JUMPDEST SWAP1 DUP12 SWAP4 POP PUSH1 0x1F NOT DUP4 AND SWAP2 DUP6 PUSH0 MSTORE DUP10 PUSH0 KECCAK256 SWAP3 PUSH0 JUMPDEST DUP12 DUP3 DUP3 LT PUSH2 0x11CD JUMPI POP POP DUP5 GT PUSH2 0x11B5 JUMPI JUMPDEST POP POP POP DUP2 SHL ADD SWAP1 SSTORE PUSH2 0x1035 JUMP JUMPDEST ADD MLOAD PUSH0 NOT PUSH1 0xF8 DUP5 PUSH1 0x3 SHL AND SHR NOT AND SWAP1 SSTORE DUP11 DUP1 DUP1 PUSH2 0x11A8 JUMP JUMPDEST DUP4 DUP6 ADD MLOAD DUP7 SSTORE DUP16 SWAP8 SWAP1 SWAP6 ADD SWAP5 SWAP4 DUP5 ADD SWAP4 ADD PUSH2 0x1197 JUMP JUMPDEST ADD MLOAD SWAP1 POP DUP12 DUP1 PUSH2 0xFDD JUMP JUMPDEST SWAP1 DUP13 SWAP4 POP PUSH1 0x1F NOT DUP4 AND SWAP2 DUP6 PUSH0 MSTORE DUP11 PUSH0 KECCAK256 SWAP3 PUSH0 JUMPDEST DUP13 DUP3 DUP3 LT PUSH2 0x1237 JUMPI POP POP DUP5 GT PUSH2 0x121F JUMPI JUMPDEST POP POP POP DUP2 SHL ADD SWAP1 SSTORE PUSH2 0xFF0 JUMP JUMPDEST ADD MLOAD PUSH0 NOT PUSH1 0xF8 DUP5 PUSH1 0x3 SHL AND SHR NOT AND SWAP1 SSTORE DUP12 DUP1 DUP1 PUSH2 0x1212 JUMP JUMPDEST SWAP2 SWAP3 SWAP4 SWAP6 SWAP7 DUP3 SWAP2 SWAP6 DUP8 DUP7 ADD MLOAD DUP2 SSTORE ADD SWAP6 ADD SWAP4 ADD SWAP1 DUP15 SWAP6 SWAP5 SWAP4 SWAP3 SWAP2 PUSH2 0x1201 JUMP JUMPDEST PUSH1 0x40 MLOAD PUSH3 0x461BCD PUSH1 0xE5 SHL DUP2 MSTORE PUSH1 0x4 DUP2 ADD DUP8 SWAP1 MSTORE PUSH1 0x21 DUP2 DUP10 ADD MSTORE PUSH32 0x4F6E6C792074686520686F73742063616E20656469742074686973206576656E PUSH1 0x44 DUP3 ADD MSTORE PUSH1 0x1D PUSH1 0xFA SHL PUSH1 0x64 DUP3 ADD MSTORE PUSH1 0x84 SWAP1 REVERT JUMPDEST CALLVALUE PUSH2 0x75A JUMPI PUSH1 0x40 CALLDATASIZE PUSH1 0x3 NOT ADD SLT PUSH2 0x75A JUMPI PUSH2 0x12BD PUSH2 0x3AEC JUMP JUMPDEST PUSH1 0x1 PUSH1 0x1 PUSH1 0xA0 SHL SUB AND PUSH0 SWAP1 DUP2 MSTORE PUSH1 0xB PUSH1 0x20 MSTORE PUSH1 0x40 SWAP1 KECCAK256 DUP1 SLOAD PUSH1 0x24 CALLDATALOAD SWAP2 SWAP1 DUP3 LT ISZERO PUSH2 0x75A JUMPI PUSH1 0x20 SWAP2 PUSH2 0x12ED SWAP2 PUSH2 0x3E5E JUMP JUMPDEST SWAP1 SLOAD PUSH1 0x40 MLOAD SWAP2 PUSH1 0x3 SHL SHR DUP2 MSTORE RETURN JUMPDEST CALLVALUE PUSH2 0x75A JUMPI PUSH1 0x40 CALLDATASIZE PUSH1 0x3 NOT ADD SLT PUSH2 0x75A JUMPI PUSH2 0x1314 PUSH2 0x3AEC JUMP JUMPDEST PUSH1 0x1 PUSH1 0x1 PUSH1 0xA0 SHL SUB AND PUSH0 SWAP1 DUP2 MSTORE PUSH1 0x9 PUSH1 0x20 MSTORE PUSH1 0x40 SWAP1 KECCAK256 DUP1 SLOAD PUSH1 0x24 CALLDATALOAD SWAP2 SWAP1 DUP3 LT ISZERO PUSH2 0x75A JUMPI PUSH1 0x20 SWAP2 PUSH2 0x12ED SWAP2 PUSH2 0x3E5E JUMP JUMPDEST CALLVALUE PUSH2 0x75A JUMPI PUSH1 0x20 CALLDATASIZE PUSH1 0x3 NOT ADD SLT PUSH2 0x75A JUMPI PUSH1 0x4 CALLDATALOAD PUSH0 MSTORE PUSH0 PUSH1 0x20 MSTORE PUSH1 0x40 PUSH0 KECCAK256 PUSH1 0x4 DUP2 ADD SLOAD TIMESTAMP GT ISZERO PUSH2 0x1622 JUMPI PUSH1 0xF DUP2 ADD SLOAD DUP1 NUMBER GT ISZERO PUSH2 0x15DD JUMPI PUSH1 0xE DUP3 ADD SLOAD SWAP2 DUP3 ISZERO PUSH2 0x15A6 JUMPI DUP2 BLOCKHASH ISZERO PUSH2 0x1561 JUMPI PUSH1 0xB DUP2 ADD SLOAD SWAP3 DUP4 ISZERO DUP1 ISZERO PUSH2 0x1558 JUMPI JUMPDEST PUSH2 0x1550 JUMPI JUMPDEST POP PUSH0 JUMPDEST DUP4 DUP2 LT PUSH2 0x13AE JUMPI STOP JUMPDEST PUSH1 0x40 MLOAD PUSH1 0x20 DUP2 ADD SWAP1 DUP5 BLOCKHASH DUP3 MSTORE DUP3 PUSH1 0x40 DUP3 ADD MSTORE PUSH1 0x40 DUP2 MSTORE PUSH2 0x13CD DUP2 PUSH2 0x3B6C JUMP JUMPDEST MLOAD SWAP1 KECCAK256 SWAP1 PUSH1 0xE DUP4 ADD SLOAD DUP1 ISZERO PUSH2 0x153C JUMPI PUSH2 0x13EB DUP2 DUP5 MOD PUSH1 0xE DUP7 ADD PUSH2 0x3E5E JUMP JUMPDEST SWAP1 SLOAD PUSH1 0x1 DUP1 PUSH1 0xA0 SHL SUB DUP2 DUP4 PUSH1 0x3 SHL SHR AND PUSH0 MSTORE PUSH1 0x2 PUSH1 0x20 MSTORE PUSH1 0x40 PUSH0 KECCAK256 PUSH1 0x7 DUP8 ADD SLOAD DUP10 ISZERO PUSH2 0x153C JUMPI PUSH2 0x1422 DUP11 PUSH1 0x2 DUP5 ADD SWAP3 DIV DUP3 SLOAD PUSH2 0x3E87 JUMP JUMPDEST SWAP1 SSTORE PUSH2 0x1438 PUSH1 0x3 PUSH1 0x8 DUP10 ADD SLOAD SWAP3 ADD SWAP2 DUP3 SLOAD PUSH2 0x3E87 JUMP JUMPDEST SWAP1 SSTORE PUSH1 0x1 DUP1 PUSH1 0xA0 SHL SUB SWAP2 PUSH1 0x3 SHL SHR AND PUSH0 MSTORE PUSH1 0x2 PUSH1 0x20 MSTORE PUSH1 0x40 PUSH0 KECCAK256 PUSH1 0x64 PUSH1 0x3 DUP3 ADD SLOAD DIV SWAP1 PUSH1 0xA DUP1 DUP4 GT PUSH2 0x1533 JUMPI JUMPDEST POP PUSH1 0x4 ADD DUP1 SLOAD DUP3 GT PUSH2 0x152B JUMPI JUMPDEST POP POP PUSH1 0xE DUP5 ADD SLOAD PUSH0 NOT SWAP4 SWAP1 DUP5 DUP2 ADD SWAP1 DUP2 GT PUSH2 0x7C5 JUMPI PUSH2 0x14D7 SWAP3 PUSH2 0x149B PUSH2 0x14B8 SWAP3 PUSH1 0xE DUP10 ADD PUSH2 0x3E5E JUMP JUMPDEST SWAP1 SLOAD PUSH1 0x3 SWAP2 SWAP1 SWAP2 SHL SHR PUSH1 0x1 PUSH1 0x1 PUSH1 0xA0 SHL SUB AND SWAP3 MOD PUSH1 0xE DUP8 ADD PUSH2 0x3E5E JUMP JUMPDEST SWAP1 SWAP2 SWAP1 DUP3 SLOAD SWAP1 PUSH1 0x3 SHL SWAP2 PUSH1 0x1 DUP1 PUSH1 0xA0 SHL SUB DUP1 SWAP2 AND DUP4 SHL SWAP3 SHL NOT AND OR SWAP1 SSTORE JUMP JUMPDEST PUSH1 0xE DUP4 ADD SLOAD SWAP2 DUP3 ISZERO PUSH2 0x1517 JUMPI PUSH2 0x1512 SWAP3 ADD PUSH2 0x14F5 DUP2 PUSH1 0xE DUP7 ADD PUSH2 0x3E5E JUMP JUMPDEST DUP2 SLOAD SWAP1 PUSH1 0x1 DUP1 PUSH1 0xA0 SHL SUB SWAP1 PUSH1 0x3 SHL SHL NOT AND SWAP1 SSTORE PUSH1 0xE DUP5 ADD SSTORE PUSH2 0x40DB JUMP JUMPDEST PUSH2 0x13A5 JUMP JUMPDEST PUSH4 0x4E487B71 PUSH1 0xE0 SHL PUSH0 MSTORE PUSH1 0x31 PUSH1 0x4 MSTORE PUSH1 0x24 PUSH0 REVERT JUMPDEST SSTORE DUP7 DUP1 PUSH2 0x1472 JUMP JUMPDEST SWAP2 POP PUSH1 0x4 PUSH2 0x1465 JUMP JUMPDEST PUSH4 0x4E487B71 PUSH1 0xE0 SHL PUSH0 MSTORE PUSH1 0x12 PUSH1 0x4 MSTORE PUSH1 0x24 PUSH0 REVERT JUMPDEST SWAP3 POP DUP4 PUSH2 0x13A2 JUMP JUMPDEST POP DUP1 DUP5 GT PUSH2 0x139D JUMP JUMPDEST PUSH1 0x40 MLOAD PUSH3 0x461BCD PUSH1 0xE5 SHL DUP2 MSTORE PUSH1 0x20 PUSH1 0x4 DUP3 ADD MSTORE PUSH1 0x17 PUSH1 0x24 DUP3 ADD MSTORE PUSH32 0x426C6F636B68617368206E6F7420617661696C61626C65000000000000000000 PUSH1 0x44 DUP3 ADD MSTORE PUSH1 0x64 SWAP1 REVERT JUMPDEST PUSH1 0x40 MLOAD PUSH3 0x461BCD PUSH1 0xE5 SHL DUP2 MSTORE PUSH1 0x20 PUSH1 0x4 DUP3 ADD MSTORE PUSH1 0xF PUSH1 0x24 DUP3 ADD MSTORE PUSH15 0x4E6F207061727469636970616E7473 PUSH1 0x88 SHL PUSH1 0x44 DUP3 ADD MSTORE PUSH1 0x64 SWAP1 REVERT JUMPDEST PUSH1 0x40 MLOAD PUSH3 0x461BCD PUSH1 0xE5 SHL DUP2 MSTORE PUSH1 0x20 PUSH1 0x4 DUP3 ADD MSTORE PUSH1 0x1C PUSH1 0x24 DUP3 ADD MSTORE PUSH32 0x52616E646F6D6E65737320626C6F636B206E6F74207265616368656400000000 PUSH1 0x44 DUP3 ADD MSTORE PUSH1 0x64 SWAP1 REVERT JUMPDEST PUSH1 0x40 MLOAD PUSH3 0x461BCD PUSH1 0xE5 SHL DUP2 MSTORE PUSH1 0x20 PUSH1 0x4 DUP3 ADD MSTORE PUSH1 0x1A PUSH1 0x24 DUP3 ADD MSTORE PUSH32 0x43616D706169676E20686173206E6F7420656E64656420796574000000000000 PUSH1 0x44 DUP3 ADD MSTORE PUSH1 0x64 SWAP1 REVERT JUMPDEST CALLVALUE PUSH2 0x75A JUMPI PUSH1 0x20 CALLDATASIZE PUSH1 0x3 NOT ADD SLT PUSH2 0x75A JUMPI PUSH1 0x4 CALLDATALOAD PUSH0 MSTORE PUSH1 0x1 PUSH1 0x20 MSTORE PUSH2 0x79C PUSH2 0x1694 PUSH1 0xC PUSH1 0x40 PUSH0 KECCAK256 ADD PUSH2 0x4485 JUMP JUMPDEST PUSH1 0x40 MLOAD SWAP2 DUP3 SWAP2 PUSH1 0x20 DUP4 MSTORE PUSH1 0x20 DUP4 ADD SWAP1 PUSH2 0x3DCC JUMP JUMPDEST CALLVALUE PUSH2 0x75A JUMPI PUSH1 0x20 DUP1 PUSH1 0x3 NOT CALLDATASIZE ADD SLT PUSH2 0x75A JUMPI PUSH1 0x1 PUSH1 0x1 PUSH1 0x40 SHL SUB PUSH1 0x4 CALLDATALOAD DUP2 DUP2 GT PUSH2 0x75A JUMPI PUSH2 0x16DA SWAP1 CALLDATASIZE SWAP1 PUSH1 0x4 ADD PUSH2 0x3D11 JUMP JUMPDEST CALLER PUSH0 SWAP1 DUP2 MSTORE PUSH1 0x2 DUP5 MSTORE PUSH1 0x40 SWAP1 KECCAK256 SLOAD PUSH2 0x16FC SWAP1 PUSH1 0x1 PUSH1 0x1 PUSH1 0xA0 SHL SUB AND ISZERO ISZERO PUSH2 0x4241 JUMP JUMPDEST DUP1 MLOAD ISZERO PUSH2 0x181E JUMPI CALLER PUSH0 MSTORE PUSH1 0x2 DUP4 MSTORE PUSH1 0x1 DUP1 PUSH1 0x40 PUSH0 KECCAK256 ADD SWAP1 DUP3 MLOAD SWAP4 DUP5 GT PUSH2 0x58E JUMPI PUSH2 0x172A DUP5 PUSH2 0x48E DUP5 SLOAD PUSH2 0x3B18 JUMP JUMPDEST DUP5 PUSH1 0x1F DUP6 GT PUSH1 0x1 EQ PUSH2 0x179B JUMPI SWAP4 DUP1 DUP1 PUSH2 0x178B SWAP6 SWAP5 SWAP4 PUSH32 0xD6136F3CAD7C60BFC24BBF1548F39F766CA8BCE104BF9ADDE3DEB6237DEC51DF SWAP8 PUSH0 SWAP4 PUSH2 0x1790 JUMPI JUMPDEST POP SHL SWAP2 PUSH0 NOT SWAP1 PUSH1 0x3 SHL SHR NOT AND OR SWAP1 SSTORE JUMPDEST PUSH1 0x40 MLOAD SWAP2 DUP3 SWAP2 DUP6 DUP4 MSTORE CALLER SWAP6 DUP4 ADD SWAP1 PUSH2 0x3CB8 JUMP JUMPDEST SUB SWAP1 LOG2 STOP JUMPDEST DUP7 ADD MLOAD SWAP3 POP DUP10 PUSH2 0x1768 JUMP JUMPDEST PUSH1 0x1F NOT DUP6 AND SWAP1 DUP4 PUSH0 MSTORE DUP7 PUSH0 KECCAK256 SWAP2 PUSH0 JUMPDEST DUP9 DUP3 DUP3 LT PUSH2 0x180A JUMPI POP POP SWAP2 DUP7 SWAP2 PUSH32 0xD6136F3CAD7C60BFC24BBF1548F39F766CA8BCE104BF9ADDE3DEB6237DEC51DF SWAP8 PUSH2 0x178B SWAP8 SWAP7 SWAP6 SWAP5 LT PUSH2 0x17F2 JUMPI JUMPDEST POP POP DUP2 SHL ADD SWAP1 SSTORE PUSH2 0x1778 JUMP JUMPDEST DUP6 ADD MLOAD PUSH0 NOT PUSH1 0xF8 DUP5 PUSH1 0x3 SHL AND SHR NOT AND SWAP1 SSTORE DUP8 DUP1 PUSH2 0x17E6 JUMP JUMPDEST DUP8 DUP5 ADD MLOAD DUP6 SSTORE SWAP4 DUP6 ADD SWAP4 SWAP3 DUP4 ADD SWAP3 ADD PUSH2 0x17AA JUMP JUMPDEST PUSH1 0x40 MLOAD PUSH3 0x461BCD PUSH1 0xE5 SHL DUP2 MSTORE PUSH1 0x4 DUP2 ADD DUP5 SWAP1 MSTORE PUSH1 0x18 PUSH1 0x24 DUP3 ADD MSTORE PUSH32 0x4E6577206E616D652063616E6E6F7420626520656D7074790000000000000000 PUSH1 0x44 DUP3 ADD MSTORE PUSH1 0x64 SWAP1 REVERT JUMPDEST CALLVALUE PUSH2 0x75A JUMPI PUSH1 0x20 CALLDATASIZE PUSH1 0x3 NOT ADD SLT PUSH2 0x75A JUMPI PUSH1 0x1 PUSH1 0x1 PUSH1 0xA0 SHL SUB PUSH2 0x1884 PUSH2 0x3AEC JUMP JUMPDEST AND PUSH0 MSTORE PUSH1 0xB PUSH1 0x20 MSTORE PUSH2 0x79C PUSH2 0xC7D PUSH1 0x40 PUSH0 KECCAK256 PUSH2 0x44DA JUMP JUMPDEST CALLVALUE PUSH2 0x75A JUMPI PUSH1 0x20 CALLDATASIZE PUSH1 0x3 NOT ADD SLT PUSH2 0x75A JUMPI PUSH1 0x1 PUSH1 0x1 PUSH1 0xA0 SHL SUB DUP1 PUSH2 0x18BD PUSH2 0x3AEC JUMP JUMPDEST AND PUSH0 MSTORE PUSH1 0x2 PUSH1 0x20 MSTORE PUSH1 0x40 PUSH0 KECCAK256 SWAP1 DUP2 SLOAD AND PUSH2 0x18D9 PUSH1 0x1 DUP4 ADD PUSH2 0x3C17 JUMP JUMPDEST SWAP2 PUSH1 0x2 DUP2 ADD SLOAD SWAP1 PUSH1 0x4 PUSH1 0x3 DUP3 ADD SLOAD SWAP2 ADD SLOAD SWAP1 PUSH2 0x1907 PUSH1 0x40 MLOAD SWAP6 DUP7 SWAP6 DUP7 MSTORE PUSH1 0xA0 PUSH1 0x20 DUP8 ADD MSTORE PUSH1 0xA0 DUP7 ADD SWAP1 PUSH2 0x3CB8 JUMP JUMPDEST SWAP3 PUSH1 0x40 DUP6 ADD MSTORE PUSH1 0x60 DUP5 ADD MSTORE PUSH1 0x80 DUP4 ADD MSTORE SUB SWAP1 RETURN JUMPDEST CALLVALUE PUSH2 0x75A JUMPI PUSH1 0x40 CALLDATASIZE PUSH1 0x3 NOT ADD SLT PUSH2 0x75A JUMPI PUSH2 0x1934 PUSH2 0x3AEC JUMP JUMPDEST PUSH1 0x1 PUSH1 0x1 PUSH1 0xA0 SHL SUB AND PUSH0 SWAP1 DUP2 MSTORE PUSH1 0xA PUSH1 0x20 MSTORE PUSH1 0x40 SWAP1 KECCAK256 DUP1 SLOAD PUSH1 0x24 CALLDATALOAD SWAP2 SWAP1 DUP3 LT ISZERO PUSH2 0x75A JUMPI PUSH1 0x20 SWAP2 PUSH2 0x12ED SWAP2 PUSH2 0x3E5E JUMP JUMPDEST CALLVALUE PUSH2 0x75A JUMPI PUSH1 0x20 CALLDATASIZE PUSH1 0x3 NOT ADD SLT PUSH2 0x75A JUMPI PUSH1 0x4 CALLDATALOAD PUSH0 MSTORE PUSH0 PUSH1 0x20 MSTORE PUSH2 0x79C PUSH2 0x1694 PUSH1 0xE PUSH1 0x40 PUSH0 KECCAK256 ADD PUSH2 0x4485 JUMP JUMPDEST CALLVALUE PUSH2 0x75A JUMPI PUSH1 0x20 DUP1 PUSH1 0x3 NOT CALLDATASIZE ADD SLT PUSH2 0x75A JUMPI PUSH1 0x4 CALLDATALOAD SWAP1 CALLER PUSH0 MSTORE PUSH1 0x2 DUP2 MSTORE PUSH2 0x19C4 PUSH1 0x1 DUP1 PUSH1 0xA0 SHL SUB PUSH1 0x40 PUSH0 KECCAK256 SLOAD AND ISZERO ISZERO PUSH2 0x4241 JUMP JUMPDEST CALLER PUSH0 MSTORE PUSH1 0x8 DUP2 MSTORE PUSH1 0x40 PUSH0 KECCAK256 DUP3 PUSH0 MSTORE DUP2 MSTORE PUSH1 0xFF PUSH1 0x40 PUSH0 KECCAK256 SLOAD AND PUSH2 0x1A55 JUMPI DUP2 PUSH0 MSTORE PUSH1 0x3 DUP2 MSTORE PUSH2 0x19F7 CALLER PUSH1 0x8 PUSH1 0x40 PUSH0 KECCAK256 ADD PUSH2 0x4283 JUMP JUMPDEST CALLER PUSH0 MSTORE PUSH1 0x2 DUP2 MSTORE PUSH2 0x1A0E DUP3 PUSH1 0x5 PUSH1 0x40 PUSH0 KECCAK256 ADD PUSH2 0x4168 JUMP JUMPDEST CALLER PUSH0 MSTORE PUSH1 0x8 DUP2 MSTORE PUSH1 0x40 PUSH0 KECCAK256 SWAP1 DUP3 PUSH0 MSTORE MSTORE PUSH1 0x40 PUSH0 KECCAK256 PUSH1 0x1 PUSH1 0xFF NOT DUP3 SLOAD AND OR SWAP1 SSTORE CALLER SWAP1 PUSH32 0x54B395D5E852D463801B391AAC280C017D177C680B3B860FE2B47266A86BCB5F PUSH0 DUP1 LOG3 STOP JUMPDEST PUSH1 0x64 SWAP1 PUSH1 0x40 MLOAD SWAP1 PUSH3 0x461BCD PUSH1 0xE5 SHL DUP3 MSTORE PUSH1 0x4 DUP3 ADD MSTORE PUSH1 0x19 PUSH1 0x24 DUP3 ADD MSTORE PUSH32 0x416C7265616479206A6F696E6564207468697320737061636500000000000000 PUSH1 0x44 DUP3 ADD MSTORE REVERT JUMPDEST CALLVALUE PUSH2 0x75A JUMPI PUSH0 CALLDATASIZE PUSH1 0x3 NOT ADD SLT PUSH2 0x75A JUMPI PUSH1 0xF SLOAD PUSH2 0x1AB5 DUP2 PUSH2 0x42A6 JUMP JUMPDEST SWAP1 PUSH1 0x1 JUMPDEST DUP2 DUP2 GT ISZERO PUSH2 0x1AD7 JUMPI PUSH1 0x40 MLOAD PUSH1 0x20 DUP1 DUP3 MSTORE DUP2 SWAP1 PUSH2 0x79C SWAP1 DUP3 ADD DUP7 PUSH2 0x3E08 JUMP JUMPDEST PUSH0 NOT DUP2 ADD SWAP1 DUP1 DUP3 GT PUSH2 0x7C5 JUMPI DUP1 PUSH2 0x7BA PUSH2 0x1AF1 SWAP4 DUP7 PUSH2 0x419C JUMP JUMPDEST PUSH2 0x1AB9 JUMP JUMPDEST CALLVALUE PUSH2 0x75A JUMPI PUSH1 0x40 CALLDATASIZE PUSH1 0x3 NOT ADD SLT PUSH2 0x75A JUMPI PUSH2 0x1B0F PUSH2 0x3B02 JUMP JUMPDEST PUSH1 0x4 CALLDATALOAD PUSH0 MSTORE PUSH1 0xC PUSH1 0x20 MSTORE PUSH1 0x40 PUSH0 KECCAK256 SWAP1 PUSH1 0x1 DUP1 PUSH1 0xA0 SHL SUB AND PUSH0 MSTORE PUSH1 0x20 MSTORE PUSH1 0x40 PUSH0 KECCAK256 DUP1 SLOAD PUSH2 0x79C PUSH1 0x2 PUSH1 0x1 DUP5 ADD SLOAD SWAP4 ADD SLOAD PUSH1 0x40 MLOAD SWAP4 DUP5 SWAP4 DUP5 PUSH1 0x40 SWAP2 SWAP5 SWAP4 SWAP3 PUSH1 0x60 DUP3 ADD SWAP6 DUP3 MSTORE PUSH1 0x20 DUP3 ADD MSTORE ADD MSTORE JUMP JUMPDEST CALLVALUE PUSH2 0x75A JUMPI PUSH0 CALLDATASIZE PUSH1 0x3 NOT ADD SLT PUSH2 0x75A JUMPI PUSH1 0xE SLOAD PUSH2 0x1B77 DUP2 PUSH2 0x42A6 JUMP JUMPDEST SWAP1 PUSH1 0x1 JUMPDEST DUP2 DUP2 GT ISZERO PUSH2 0x1B99 JUMPI PUSH1 0x40 MLOAD PUSH1 0x20 DUP1 DUP3 MSTORE DUP2 SWAP1 PUSH2 0x79C SWAP1 DUP3 ADD DUP7 PUSH2 0x3E08 JUMP JUMPDEST PUSH0 NOT DUP2 ADD SWAP1 DUP1 DUP3 GT PUSH2 0x7C5 JUMPI DUP1 PUSH2 0x7BA PUSH2 0x1BB3 SWAP4 DUP7 PUSH2 0x419C JUMP JUMPDEST PUSH2 0x1B7B JUMP JUMPDEST CALLVALUE PUSH2 0x75A JUMPI PUSH1 0x20 CALLDATASIZE PUSH1 0x3 NOT ADD SLT PUSH2 0x75A JUMPI PUSH1 0x4 CALLDATALOAD PUSH0 MSTORE PUSH1 0x3 PUSH1 0x20 MSTORE PUSH1 0x40 PUSH0 KECCAK256 PUSH2 0x1BE0 DUP2 PUSH2 0x3C17 JUMP JUMPDEST PUSH1 0x1 DUP3 ADD SLOAD PUSH1 0x1 PUSH1 0x1 PUSH1 0xA0 SHL SUB AND SWAP2 PUSH2 0x1BFB PUSH1 0x2 DUP3 ADD PUSH2 0x3C17 JUMP JUMPDEST SWAP1 PUSH1 0x3 DUP2 ADD SLOAD PUSH1 0xFF AND PUSH1 0x4 DUP3 ADD PUSH2 0x1C11 SWAP1 PUSH2 0x3C17 JUMP JUMPDEST PUSH2 0x1C1D PUSH1 0x5 DUP5 ADD PUSH2 0x3C17 JUMP JUMPDEST SWAP2 PUSH2 0x1C2A PUSH1 0x6 DUP6 ADD PUSH2 0x3C17 JUMP JUMPDEST SWAP4 PUSH1 0x7 ADD PUSH2 0x1C37 SWAP1 PUSH2 0x3C17 JUMP JUMPDEST SWAP5 PUSH1 0x40 MLOAD SWAP8 DUP9 SWAP8 PUSH2 0x100 DUP1 DUP11 MSTORE DUP10 ADD PUSH2 0x1C4F SWAP2 PUSH2 0x3CB8 JUMP JUMPDEST SWAP1 PUSH1 0x20 DUP10 ADD MSTORE DUP8 DUP2 SUB PUSH1 0x40 DUP10 ADD MSTORE PUSH2 0x1C66 SWAP2 PUSH2 0x3CB8 JUMP JUMPDEST SWAP1 PUSH1 0x60 DUP8 ADD PUSH2 0x1C74 SWAP2 PUSH2 0x3E51 JUMP JUMPDEST DUP6 DUP2 SUB PUSH1 0x80 DUP8 ADD MSTORE PUSH2 0x1C85 SWAP2 PUSH2 0x3CB8 JUMP JUMPDEST DUP5 DUP2 SUB PUSH1 0xA0 DUP7 ADD MSTORE PUSH2 0x1C96 SWAP2 PUSH2 0x3CB8 JUMP JUMPDEST DUP4 DUP2 SUB PUSH1 0xC0 DUP6 ADD MSTORE PUSH2 0x1CA7 SWAP2 PUSH2 0x3CB8 JUMP JUMPDEST DUP3 DUP2 SUB PUSH1 0xE0 DUP5 ADD MSTORE PUSH2 0x79C SWAP2 PUSH2 0x3CB8 JUMP JUMPDEST CALLVALUE PUSH2 0x75A JUMPI PUSH2 0x1CC6 CALLDATASIZE PUSH2 0x3E3B JUMP JUMPDEST SWAP1 PUSH0 MSTORE PUSH1 0x4 PUSH1 0x20 MSTORE PUSH1 0x40 PUSH0 KECCAK256 SWAP1 PUSH0 MSTORE PUSH1 0x20 MSTORE PUSH1 0x20 PUSH1 0xFF PUSH1 0x40 PUSH0 KECCAK256 SLOAD AND PUSH1 0x40 MLOAD SWAP1 ISZERO ISZERO DUP2 MSTORE RETURN JUMPDEST CALLVALUE PUSH2 0x75A JUMPI PUSH0 CALLDATASIZE PUSH1 0x3 NOT ADD SLT PUSH2 0x75A JUMPI PUSH1 0x20 PUSH1 0xD SLOAD PUSH1 0x40 MLOAD SWAP1 DUP2 MSTORE RETURN JUMPDEST CALLVALUE PUSH2 0x75A JUMPI PUSH0 CALLDATASIZE PUSH1 0x3 NOT ADD SLT PUSH2 0x75A JUMPI PUSH1 0x20 PUSH1 0xE SLOAD PUSH1 0x40 MLOAD SWAP1 DUP2 MSTORE RETURN JUMPDEST CALLVALUE PUSH2 0x75A JUMPI PUSH1 0x20 CALLDATASIZE PUSH1 0x3 NOT ADD SLT PUSH2 0x75A JUMPI PUSH1 0x60 PUSH2 0x140 PUSH1 0x40 MLOAD PUSH2 0x1D48 DUP2 PUSH2 0x3BBF JUMP JUMPDEST DUP3 DUP2 MSTORE PUSH0 PUSH1 0x20 DUP3 ADD MSTORE DUP3 PUSH1 0x40 DUP3 ADD MSTORE PUSH0 DUP4 DUP3 ADD MSTORE DUP3 PUSH1 0x80 DUP3 ADD MSTORE DUP3 PUSH1 0xA0 DUP3 ADD MSTORE DUP3 PUSH1 0xC0 DUP3 ADD MSTORE DUP3 PUSH1 0xE0 DUP3 ADD MSTORE DUP3 PUSH2 0x100 DUP3 ADD MSTORE DUP3 PUSH2 0x120 DUP3 ADD MSTORE ADD MSTORE PUSH1 0x4 CALLDATALOAD PUSH0 MSTORE PUSH1 0x3 PUSH1 0x20 MSTORE PUSH1 0x40 PUSH0 KECCAK256 PUSH1 0x40 MLOAD PUSH2 0x1D9E DUP2 PUSH2 0x3BBF JUMP JUMPDEST PUSH2 0x1DA7 DUP3 PUSH2 0x3C17 JUMP JUMPDEST DUP2 MSTORE PUSH1 0x1 DUP3 ADD SLOAD PUSH1 0x1 PUSH1 0x1 PUSH1 0xA0 SHL SUB AND PUSH1 0x20 DUP3 ADD MSTORE PUSH2 0x1DC8 PUSH1 0x2 DUP4 ADD PUSH2 0x3C17 JUMP JUMPDEST PUSH1 0x40 DUP3 ADD MSTORE PUSH1 0xFF PUSH1 0x3 DUP4 ADD SLOAD AND PUSH1 0xD DUP2 LT ISZERO PUSH2 0x1FD4 JUMPI PUSH2 0x1FAA SWAP3 PUSH2 0x79C SWAP2 PUSH1 0x60 DUP5 ADD MSTORE PUSH2 0x1DF7 PUSH1 0x4 DUP3 ADD PUSH2 0x3C17 JUMP JUMPDEST PUSH1 0x80 DUP5 ADD MSTORE PUSH2 0x1E08 PUSH1 0x5 DUP3 ADD PUSH2 0x3C17 JUMP JUMPDEST PUSH1 0xA0 DUP5 ADD MSTORE PUSH2 0x1E19 PUSH1 0x6 DUP3 ADD PUSH2 0x3C17 JUMP JUMPDEST PUSH1 0xC0 DUP5 ADD MSTORE PUSH2 0x1E2A PUSH1 0x7 DUP3 ADD PUSH2 0x3C17 JUMP JUMPDEST PUSH1 0xE0 DUP5 ADD MSTORE PUSH2 0x1E3B PUSH1 0x8 DUP3 ADD PUSH2 0x4485 JUMP JUMPDEST PUSH2 0x100 DUP5 ADD MSTORE PUSH2 0x1E4D PUSH1 0x9 DUP3 ADD PUSH2 0x44DA JUMP JUMPDEST PUSH2 0x120 DUP5 ADD MSTORE PUSH2 0x1E5F PUSH1 0xA DUP3 ADD PUSH2 0x44DA JUMP JUMPDEST PUSH2 0x140 DUP5 ADD MSTORE PUSH2 0x1FC6 PUSH2 0x1E74 PUSH1 0x8 DUP4 ADD PUSH2 0x4485 JUMP JUMPDEST SWAP2 PUSH2 0x1FB8 PUSH2 0x1E90 PUSH1 0xA PUSH2 0x1E89 PUSH1 0x9 DUP6 ADD PUSH2 0x44DA JUMP JUMPDEST SWAP4 ADD PUSH2 0x44DA JUMP JUMPDEST SWAP4 PUSH1 0x40 MLOAD SWAP8 DUP9 SWAP8 PUSH1 0x80 DUP10 MSTORE PUSH2 0x140 PUSH2 0x1F95 PUSH2 0x1F7D PUSH2 0x1F65 PUSH2 0x1F4C DUP14 PUSH2 0x1F35 PUSH2 0x1F1E PUSH2 0x1EF5 PUSH2 0x1ECC DUP11 MLOAD PUSH2 0x160 PUSH1 0x80 DUP8 ADD MSTORE PUSH2 0x1E0 DUP7 ADD SWAP1 PUSH2 0x3CB8 JUMP JUMPDEST PUSH1 0x20 DUP12 ADD MLOAD PUSH1 0x1 PUSH1 0x1 PUSH1 0xA0 SHL SUB AND PUSH1 0xA0 DUP7 ADD MSTORE PUSH1 0x40 DUP12 ADD MLOAD DUP6 DUP3 SUB PUSH1 0x7F NOT ADD PUSH1 0xC0 DUP8 ADD MSTORE PUSH2 0x3CB8 JUMP JUMPDEST PUSH2 0x1F07 PUSH1 0x60 DUP12 ADD MLOAD PUSH1 0xE0 DUP7 ADD SWAP1 PUSH2 0x3E51 JUMP JUMPDEST PUSH1 0x80 DUP11 ADD MLOAD DUP5 DUP3 SUB PUSH1 0x7F NOT ADD PUSH2 0x100 DUP7 ADD MSTORE PUSH2 0x3CB8 JUMP JUMPDEST PUSH1 0xA0 DUP10 ADD MLOAD DUP4 DUP3 SUB PUSH1 0x7F NOT ADD PUSH2 0x120 DUP6 ADD MSTORE PUSH2 0x3CB8 JUMP JUMPDEST SWAP1 PUSH1 0xC0 DUP9 ADD MLOAD SWAP1 DUP8 PUSH1 0x7F NOT DUP3 DUP6 SUB ADD SWAP2 ADD MSTORE PUSH2 0x3CB8 JUMP JUMPDEST DUP14 PUSH1 0xE0 DUP8 ADD MLOAD SWAP1 PUSH2 0x160 PUSH1 0x7F NOT DUP3 DUP6 SUB ADD SWAP2 ADD MSTORE PUSH2 0x3CB8 JUMP JUMPDEST PUSH2 0x100 DUP6 ADD MLOAD DUP14 DUP3 SUB PUSH1 0x7F NOT ADD PUSH2 0x180 DUP16 ADD MSTORE PUSH2 0x3DCC JUMP JUMPDEST PUSH2 0x120 DUP5 ADD MLOAD DUP13 DUP3 SUB PUSH1 0x7F NOT ADD PUSH2 0x1A0 DUP15 ADD MSTORE PUSH2 0x3E08 JUMP JUMPDEST SWAP2 ADD MLOAD DUP10 DUP3 SUB PUSH1 0x7F NOT ADD PUSH2 0x1C0 DUP12 ADD MSTORE PUSH2 0x3E08 JUMP JUMPDEST SWAP1 DUP8 DUP3 SUB PUSH1 0x20 DUP10 ADD MSTORE PUSH2 0x3DCC JUMP JUMPDEST SWAP1 DUP6 DUP3 SUB PUSH1 0x40 DUP8 ADD MSTORE PUSH2 0x3E08 JUMP JUMPDEST SWAP1 DUP4 DUP3 SUB PUSH1 0x60 DUP6 ADD MSTORE PUSH2 0x3E08 JUMP JUMPDEST PUSH4 0x4E487B71 PUSH1 0xE0 SHL PUSH0 MSTORE PUSH1 0x21 PUSH1 0x4 MSTORE PUSH1 0x24 PUSH0 REVERT JUMPDEST CALLVALUE PUSH2 0x75A JUMPI PUSH1 0x20 DUP1 PUSH1 0x3 NOT CALLDATASIZE ADD SLT PUSH2 0x75A JUMPI PUSH2 0x2002 PUSH2 0x3AEC JUMP JUMPDEST PUSH2 0x79C PUSH1 0xE0 PUSH1 0x40 MLOAD PUSH2 0x2013 DUP2 PUSH2 0x3BA3 JUMP JUMPDEST PUSH0 DUP2 MSTORE PUSH1 0x60 SWAP2 DUP2 DUP4 DUP8 DUP2 SWAP5 ADD MSTORE PUSH0 PUSH1 0x40 DUP3 ADD MSTORE PUSH0 DUP4 DUP3 ADD MSTORE PUSH0 PUSH1 0x80 DUP3 ADD MSTORE DUP3 PUSH1 0xA0 DUP3 ADD MSTORE DUP3 PUSH1 0xC0 DUP3 ADD MSTORE ADD MSTORE PUSH1 0x1 DUP1 PUSH1 0xA0 SHL SUB DUP1 SWAP4 AND PUSH0 MSTORE PUSH1 0x2 DUP5 MSTORE PUSH1 0x40 PUSH0 KECCAK256 SWAP1 PUSH1 0x40 MLOAD PUSH2 0x2060 DUP2 PUSH2 0x3BA3 JUMP JUMPDEST DUP5 DUP4 SLOAD AND DUP2 MSTORE PUSH2 0x2140 PUSH2 0x2075 PUSH1 0x1 DUP6 ADD PUSH2 0x3C17 JUMP JUMPDEST SWAP4 DUP8 DUP4 ADD SWAP5 DUP6 MSTORE PUSH2 0x212F PUSH1 0x2 DUP3 ADD SLOAD SWAP5 PUSH1 0x40 DUP6 ADD SWAP6 DUP7 MSTORE PUSH1 0x3 DUP4 ADD SLOAD DUP2 DUP7 ADD SWAP1 DUP2 MSTORE PUSH1 0x4 DUP5 ADD SLOAD SWAP1 PUSH1 0x80 DUP8 ADD SWAP2 DUP3 MSTORE PUSH2 0x20B0 PUSH1 0x5 DUP7 ADD PUSH2 0x44DA JUMP JUMPDEST SWAP3 PUSH1 0xA0 DUP9 ADD SWAP4 DUP5 MSTORE PUSH2 0x2108 PUSH2 0x20DA PUSH1 0x7 PUSH2 0x20CC PUSH1 0x6 DUP11 ADD PUSH2 0x44DA JUMP JUMPDEST SWAP9 PUSH1 0xC0 DUP13 ADD SWAP10 DUP11 MSTORE ADD PUSH2 0x44DA JUMP JUMPDEST SWAP11 PUSH1 0xE0 DUP11 ADD SWAP12 DUP13 MSTORE PUSH1 0x40 MLOAD SWAP15 DUP16 SWAP15 DUP16 SWAP12 DUP3 DUP14 MSTORE MLOAD AND SWAP1 DUP12 ADD MSTORE MLOAD PUSH2 0x120 PUSH2 0x100 SWAP11 DUP12 PUSH1 0x40 DUP3 ADD MSTORE ADD SWAP1 PUSH2 0x3CB8 JUMP JUMPDEST SWAP9 MLOAD SWAP1 DUP13 ADD MSTORE MLOAD PUSH1 0x80 DUP12 ADD MSTORE MLOAD PUSH1 0xA0 DUP11 ADD MSTORE MLOAD SWAP5 PUSH1 0x1F NOT SWAP6 DUP7 DUP11 DUP4 SUB ADD PUSH1 0xC0 DUP12 ADD MSTORE PUSH2 0x3E08 JUMP JUMPDEST SWAP1 MLOAD DUP5 DUP9 DUP4 SUB ADD PUSH1 0xE0 DUP10 ADD MSTORE PUSH2 0x3E08 JUMP JUMPDEST SWAP3 MLOAD SWAP2 DUP6 DUP5 SUB ADD SWAP1 DUP6 ADD MSTORE PUSH2 0x3E08 JUMP JUMPDEST CALLVALUE PUSH2 0x75A JUMPI PUSH1 0x20 CALLDATASIZE PUSH1 0x3 NOT ADD SLT PUSH2 0x75A JUMPI PUSH1 0x60 PUSH2 0x180 PUSH1 0x40 MLOAD PUSH2 0x2172 DUP2 PUSH2 0x3B87 JUMP JUMPDEST PUSH0 DUP2 MSTORE PUSH0 PUSH1 0x20 DUP3 ADD MSTORE DUP3 PUSH1 0x40 DUP3 ADD MSTORE PUSH0 DUP4 DUP3 ADD MSTORE PUSH0 PUSH1 0x80 DUP3 ADD MSTORE DUP3 PUSH1 0xA0 DUP3 ADD MSTORE DUP3 PUSH1 0xC0 DUP3 ADD MSTORE PUSH0 PUSH1 0xE0 DUP3 ADD MSTORE PUSH0 PUSH2 0x100 DUP3 ADD MSTORE PUSH0 PUSH2 0x120 DUP3 ADD MSTORE PUSH0 PUSH2 0x140 DUP3 ADD MSTORE DUP3 PUSH2 0x160 DUP3 ADD MSTORE ADD MSTORE PUSH1 0x4 CALLDATALOAD PUSH0 MSTORE PUSH1 0x1 PUSH1 0x20 MSTORE PUSH1 0x40 PUSH0 KECCAK256 PUSH1 0x1 DUP1 PUSH1 0xA0 SHL SUB PUSH1 0x1 DUP3 ADD SLOAD AND DUP1 ISZERO PUSH2 0x23AF JUMPI PUSH2 0x79C PUSH2 0x2393 SWAP3 PUSH1 0x40 MLOAD SWAP3 PUSH2 0x21F1 DUP5 PUSH2 0x3B87 JUMP JUMPDEST DUP2 SLOAD DUP5 MSTORE PUSH1 0x20 DUP5 ADD MSTORE PUSH2 0x2206 PUSH1 0x2 DUP3 ADD PUSH2 0x3C17 JUMP JUMPDEST PUSH1 0x40 DUP5 ADD MSTORE PUSH1 0x3 DUP2 ADD SLOAD PUSH1 0x60 DUP5 ADD MSTORE PUSH1 0x4 DUP2 ADD SLOAD PUSH1 0x80 DUP5 ADD MSTORE PUSH2 0x222B PUSH1 0x5 DUP3 ADD PUSH2 0x3C17 JUMP JUMPDEST PUSH1 0xA0 DUP5 ADD MSTORE PUSH2 0x223C PUSH1 0x6 DUP3 ADD PUSH2 0x3C17 JUMP JUMPDEST PUSH1 0xC0 DUP5 ADD MSTORE PUSH1 0x7 DUP2 ADD SLOAD PUSH1 0xE0 DUP5 ADD MSTORE PUSH1 0x8 DUP2 ADD SLOAD PUSH2 0x100 DUP5 ADD MSTORE PUSH1 0x9 DUP2 ADD SLOAD PUSH2 0x120 DUP5 ADD MSTORE PUSH1 0xA DUP2 ADD SLOAD PUSH2 0x140 DUP5 ADD MSTORE PUSH2 0x2278 PUSH1 0xB DUP3 ADD PUSH2 0x44DA JUMP JUMPDEST PUSH2 0x160 DUP5 ADD MSTORE PUSH2 0x228A PUSH1 0xC DUP3 ADD PUSH2 0x4485 JUMP JUMPDEST PUSH2 0x180 DUP5 ADD MSTORE PUSH2 0x23A1 PUSH2 0x22AB PUSH1 0xC PUSH2 0x22A4 PUSH1 0xB DUP6 ADD PUSH2 0x44DA JUMP JUMPDEST SWAP4 ADD PUSH2 0x4485 JUMP JUMPDEST SWAP2 PUSH1 0x40 MLOAD SWAP6 DUP7 SWAP6 PUSH1 0x60 DUP8 MSTORE DUP1 MLOAD PUSH1 0x60 DUP9 ADD MSTORE PUSH1 0x1 DUP1 PUSH1 0xA0 SHL SUB PUSH1 0x20 DUP3 ADD MLOAD AND PUSH1 0x80 DUP9 ADD MSTORE PUSH2 0x180 PUSH2 0x237E PUSH2 0x2339 PUSH2 0x2322 PUSH2 0x22F7 DUP12 PUSH2 0x1A0 PUSH1 0xA0 PUSH1 0x40 DUP10 ADD MLOAD SWAP3 ADD MSTORE PUSH2 0x200 DUP14 ADD SWAP1 PUSH2 0x3CB8 JUMP JUMPDEST PUSH1 0x60 DUP7 ADD MLOAD PUSH1 0xC0 DUP14 ADD MSTORE PUSH1 0x80 DUP7 ADD MLOAD PUSH1 0xE0 DUP14 ADD MSTORE PUSH1 0xA0 DUP7 ADD MLOAD DUP13 DUP3 SUB PUSH1 0x5F NOT ADD PUSH2 0x100 DUP15 ADD MSTORE PUSH2 0x3CB8 JUMP JUMPDEST PUSH1 0xC0 DUP6 ADD MLOAD DUP12 DUP3 SUB PUSH1 0x5F NOT ADD PUSH2 0x120 DUP14 ADD MSTORE PUSH2 0x3CB8 JUMP JUMPDEST PUSH1 0xE0 DUP5 ADD MLOAD PUSH2 0x140 DUP12 ADD MSTORE PUSH2 0x100 DUP5 ADD MLOAD PUSH2 0x160 DUP12 ADD MSTORE PUSH2 0x120 DUP5 ADD MLOAD DUP4 DUP12 ADD MSTORE PUSH2 0x140 DUP5 ADD MLOAD PUSH2 0x1A0 DUP12 ADD MSTORE PUSH2 0x160 DUP5 ADD MLOAD PUSH1 0x5F NOT DUP12 DUP4 SUB ADD PUSH2 0x1C0 DUP13 ADD MSTORE PUSH2 0x3E08 JUMP JUMPDEST SWAP2 ADD MLOAD DUP8 DUP3 SUB PUSH1 0x5F NOT ADD PUSH2 0x1E0 DUP10 ADD MSTORE PUSH2 0x3DCC JUMP JUMPDEST SWAP1 DUP6 DUP3 SUB PUSH1 0x20 DUP8 ADD MSTORE PUSH2 0x3E08 JUMP JUMPDEST SWAP1 DUP4 DUP3 SUB PUSH1 0x40 DUP6 ADD MSTORE PUSH2 0x3DCC JUMP JUMPDEST PUSH1 0x40 MLOAD PUSH3 0x461BCD PUSH1 0xE5 SHL DUP2 MSTORE PUSH1 0x20 PUSH1 0x4 DUP3 ADD MSTORE PUSH1 0xF PUSH1 0x24 DUP3 ADD MSTORE PUSH15 0x115D995B9D081B9BDD08199BDD5B99 PUSH1 0x8A SHL PUSH1 0x44 DUP3 ADD MSTORE PUSH1 0x64 SWAP1 REVERT JUMPDEST CALLVALUE PUSH2 0x75A JUMPI PUSH1 0x40 CALLDATASIZE PUSH1 0x3 NOT ADD SLT PUSH2 0x75A JUMPI PUSH2 0x23FF PUSH2 0x3B02 JUMP JUMPDEST PUSH0 PUSH1 0x40 DUP1 MLOAD PUSH2 0x240D DUP2 PUSH2 0x3B6C JUMP JUMPDEST DUP3 DUP2 MSTORE DUP3 PUSH1 0x20 DUP3 ADD MSTORE ADD MSTORE PUSH1 0x4 CALLDATALOAD PUSH0 MSTORE PUSH1 0xC PUSH1 0x20 MSTORE PUSH1 0x40 PUSH0 KECCAK256 SWAP1 PUSH1 0x1 DUP1 PUSH1 0xA0 SHL SUB AND PUSH0 MSTORE PUSH1 0x20 MSTORE PUSH1 0x60 PUSH1 0x40 PUSH0 KECCAK256 PUSH1 0x40 MLOAD PUSH2 0x2446 DUP2 PUSH2 0x3B6C JUMP JUMPDEST DUP2 SLOAD SWAP2 DUP3 DUP3 MSTORE PUSH1 0x40 PUSH1 0x2 PUSH1 0x1 DUP4 ADD SLOAD SWAP3 PUSH1 0x20 DUP6 ADD SWAP4 DUP5 MSTORE ADD SLOAD SWAP3 ADD SWAP2 DUP3 MSTORE PUSH1 0x40 MLOAD SWAP3 DUP4 MSTORE MLOAD PUSH1 0x20 DUP4 ADD MSTORE MLOAD PUSH1 0x40 DUP3 ADD MSTORE RETURN JUMPDEST CALLVALUE PUSH2 0x75A JUMPI PUSH2 0x2486 CALLDATASIZE PUSH2 0x3E3B JUMP JUMPDEST SWAP1 PUSH0 MSTORE PUSH1 0x5 PUSH1 0x20 MSTORE PUSH1 0x40 PUSH0 KECCAK256 SWAP1 PUSH0 MSTORE PUSH1 0x20 MSTORE PUSH1 0x20 PUSH1 0xFF PUSH1 0x40 PUSH0 KECCAK256 SLOAD AND PUSH1 0x40 MLOAD SWAP1 ISZERO ISZERO DUP2 MSTORE RETURN JUMPDEST CALLVALUE PUSH2 0x75A JUMPI PUSH1 0x20 CALLDATASIZE PUSH1 0x3 NOT ADD SLT PUSH2 0x75A JUMPI PUSH1 0x1 PUSH1 0x1 PUSH1 0xA0 SHL SUB PUSH2 0x24CD PUSH2 0x3AEC JUMP JUMPDEST AND PUSH0 MSTORE PUSH1 0xA PUSH1 0x20 MSTORE PUSH2 0x79C PUSH2 0xC7D PUSH1 0x40 PUSH0 KECCAK256 PUSH2 0x44DA JUMP JUMPDEST CALLVALUE PUSH2 0x75A JUMPI PUSH1 0x20 CALLDATASIZE PUSH1 0x3 NOT ADD SLT PUSH2 0x75A JUMPI PUSH0 PUSH2 0x200 PUSH1 0x40 MLOAD PUSH2 0x2505 DUP2 PUSH2 0x3B50 JUMP JUMPDEST DUP3 DUP2 MSTORE DUP3 PUSH1 0x20 DUP3 ADD MSTORE PUSH1 0x60 PUSH1 0x40 DUP3 ADD MSTORE DUP3 PUSH1 0x60 DUP3 ADD MSTORE DUP3 PUSH1 0x80 DUP3 ADD MSTORE PUSH1 0x60 PUSH1 0xA0 DUP3 ADD MSTORE PUSH1 0x60 PUSH1 0xC0 DUP3 ADD MSTORE DUP3 PUSH1 0xE0 DUP3 ADD MSTORE DUP3 PUSH2 0x100 DUP3 ADD MSTORE DUP3 PUSH2 0x120 DUP3 ADD MSTORE DUP3 PUSH2 0x140 DUP3 ADD MSTORE DUP3 PUSH2 0x160 DUP3 ADD MSTORE PUSH1 0x60 PUSH2 0x180 DUP3 ADD MSTORE DUP3 PUSH2 0x1A0 DUP3 ADD MSTORE DUP3 PUSH2 0x1C0 DUP3 ADD MSTORE PUSH1 0x60 PUSH2 0x1E0 DUP3 ADD MSTORE ADD MSTORE PUSH1 0x4 CALLDATALOAD PUSH0 MSTORE PUSH0 PUSH1 0x20 MSTORE PUSH1 0x40 PUSH0 KECCAK256 PUSH1 0x1 DUP1 PUSH1 0xA0 SHL SUB PUSH1 0x1 DUP3 ADD SLOAD AND SWAP1 DUP2 ISZERO PUSH2 0x27A9 JUMPI PUSH1 0xE PUSH2 0x267D SWAP2 PUSH1 0x40 MLOAD SWAP4 PUSH2 0x25A5 DUP6 PUSH2 0x3B50 JUMP JUMPDEST DUP2 SLOAD DUP6 MSTORE PUSH1 0x20 DUP6 ADD MSTORE PUSH2 0x25BA PUSH1 0x2 DUP3 ADD PUSH2 0x3C17 JUMP JUMPDEST PUSH1 0x40 DUP6 ADD MSTORE PUSH1 0x3 DUP2 ADD SLOAD PUSH1 0x60 DUP6 ADD MSTORE PUSH1 0x4 DUP2 ADD SLOAD PUSH1 0x80 DUP6 ADD MSTORE PUSH2 0x25DF PUSH1 0x5 DUP3 ADD PUSH2 0x3C17 JUMP JUMPDEST PUSH1 0xA0 DUP6 ADD MSTORE PUSH2 0x25F0 PUSH1 0x6 DUP3 ADD PUSH2 0x3C17 JUMP JUMPDEST PUSH1 0xC0 DUP6 ADD MSTORE PUSH1 0x7 DUP2 ADD SLOAD PUSH1 0xE0 DUP6 ADD MSTORE PUSH1 0x8 DUP2 ADD SLOAD PUSH2 0x100 DUP6 ADD MSTORE PUSH1 0x9 DUP2 ADD SLOAD PUSH2 0x120 DUP6 ADD MSTORE PUSH1 0xA DUP2 ADD SLOAD PUSH2 0x140 DUP6 ADD MSTORE PUSH1 0xB DUP2 ADD SLOAD PUSH2 0x160 DUP6 ADD MSTORE PUSH2 0x2637 PUSH1 0xC DUP3 ADD PUSH2 0x3C17 JUMP JUMPDEST PUSH2 0x180 DUP6 ADD MSTORE PUSH1 0xFF PUSH1 0xD DUP3 ADD SLOAD DUP2 DUP2 AND ISZERO ISZERO PUSH2 0x1A0 DUP8 ADD MSTORE PUSH1 0x8 SHR AND ISZERO ISZERO PUSH2 0x1C0 DUP6 ADD MSTORE PUSH2 0x2666 DUP3 DUP3 ADD PUSH2 0x4485 JUMP JUMPDEST PUSH2 0x1E0 DUP6 ADD MSTORE PUSH1 0xF DUP2 ADD SLOAD PUSH2 0x200 DUP6 ADD MSTORE ADD PUSH2 0x4485 JUMP JUMPDEST PUSH2 0x79C PUSH1 0x40 MLOAD SWAP3 DUP4 SWAP3 PUSH1 0x40 DUP5 MSTORE DUP2 MLOAD PUSH1 0x40 DUP6 ADD MSTORE PUSH1 0x1 DUP1 PUSH1 0xA0 SHL SUB PUSH1 0x20 DUP4 ADD MLOAD AND PUSH1 0x60 DUP6 ADD MSTORE PUSH2 0x200 PUSH2 0x2793 PUSH2 0x2761 PUSH2 0x270E PUSH2 0x26F7 PUSH2 0x26CD PUSH1 0x40 DUP9 ADD MLOAD PUSH2 0x220 PUSH1 0x80 DUP13 ADD MSTORE PUSH2 0x260 DUP12 ADD SWAP1 PUSH2 0x3CB8 JUMP JUMPDEST PUSH1 0x60 DUP9 ADD MLOAD PUSH1 0xA0 DUP12 ADD MSTORE PUSH1 0x80 DUP9 ADD MLOAD PUSH1 0xC0 DUP12 ADD MSTORE PUSH1 0xA0 DUP9 ADD MLOAD PUSH1 0x3F NOT DUP12 DUP4 SUB ADD PUSH1 0xE0 DUP13 ADD MSTORE PUSH2 0x3CB8 JUMP JUMPDEST PUSH1 0xC0 DUP8 ADD MLOAD DUP10 DUP3 SUB PUSH1 0x3F NOT ADD PUSH2 0x100 DUP12 ADD MSTORE PUSH2 0x3CB8 JUMP JUMPDEST PUSH1 0xE0 DUP7 ADD MLOAD PUSH2 0x120 DUP10 ADD MSTORE PUSH2 0x100 DUP7 ADD MLOAD PUSH2 0x140 DUP10 ADD MSTORE PUSH2 0x120 DUP7 ADD MLOAD PUSH2 0x160 DUP10 ADD MSTORE PUSH2 0x140 DUP7 ADD MLOAD PUSH2 0x180 DUP10 ADD MSTORE PUSH2 0x160 DUP7 ADD MLOAD PUSH2 0x1A0 DUP10 ADD MSTORE PUSH2 0x180 DUP7 ADD MLOAD PUSH1 0x3F NOT DUP10 DUP4 SUB ADD PUSH2 0x1C0 DUP11 ADD MSTORE PUSH2 0x3CB8 JUMP JUMPDEST PUSH2 0x1A0 DUP6 ADD MLOAD ISZERO ISZERO PUSH2 0x1E0 DUP9 ADD MSTORE PUSH2 0x1C0 DUP6 ADD MLOAD ISZERO ISZERO DUP4 DUP9 ADD MSTORE PUSH2 0x1E0 DUP6 ADD MLOAD PUSH1 0x3F NOT DUP9 DUP4 SUB ADD PUSH2 0x220 DUP10 ADD MSTORE PUSH2 0x3DCC JUMP JUMPDEST SWAP3 ADD MLOAD PUSH2 0x240 DUP6 ADD MSTORE DUP4 DUP3 SUB PUSH1 0x20 DUP6 ADD MSTORE PUSH2 0x3DCC JUMP JUMPDEST PUSH1 0x40 MLOAD PUSH3 0x461BCD PUSH1 0xE5 SHL DUP2 MSTORE PUSH1 0x20 PUSH1 0x4 DUP3 ADD MSTORE PUSH1 0x12 PUSH1 0x24 DUP3 ADD MSTORE PUSH18 0x10D85B5C185A59DB881B9BDD08199BDD5B99 PUSH1 0x72 SHL PUSH1 0x44 DUP3 ADD MSTORE PUSH1 0x64 SWAP1 REVERT JUMPDEST CALLVALUE PUSH2 0x75A JUMPI PUSH2 0x120 CALLDATASIZE PUSH1 0x3 NOT ADD SLT PUSH2 0x75A JUMPI PUSH1 0x4 CALLDATALOAD PUSH1 0x1 PUSH1 0x1 PUSH1 0x40 SHL SUB DUP2 GT PUSH2 0x75A JUMPI PUSH2 0x2814 SWAP1 CALLDATASIZE SWAP1 PUSH1 0x4 ADD PUSH2 0x3D11 JUMP JUMPDEST PUSH1 0x24 CALLDATALOAD PUSH1 0x1 PUSH1 0x1 PUSH1 0x40 SHL SUB DUP2 GT PUSH2 0x75A JUMPI PUSH2 0x2833 SWAP1 CALLDATASIZE SWAP1 PUSH1 0x4 ADD PUSH2 0x3D11 JUMP JUMPDEST SWAP1 PUSH1 0xD PUSH1 0x44 CALLDATALOAD LT ISZERO PUSH2 0x75A JUMPI PUSH1 0x64 CALLDATALOAD PUSH1 0x1 PUSH1 0x1 PUSH1 0x40 SHL SUB DUP2 GT PUSH2 0x75A JUMPI PUSH2 0x285E SWAP1 CALLDATASIZE SWAP1 PUSH1 0x4 ADD PUSH2 0x3D11 JUMP JUMPDEST SWAP2 PUSH1 0x84 CALLDATALOAD PUSH1 0x1 PUSH1 0x1 PUSH1 0x40 SHL SUB DUP2 GT PUSH2 0x75A JUMPI PUSH2 0x287E SWAP1 CALLDATASIZE SWAP1 PUSH1 0x4 ADD PUSH2 0x3D11 JUMP JUMPDEST SWAP3 PUSH1 0xA4 CALLDATALOAD PUSH1 0x1 PUSH1 0x1 PUSH1 0x40 SHL SUB DUP2 GT PUSH2 0x75A JUMPI PUSH2 0x289E SWAP1 CALLDATASIZE SWAP1 PUSH1 0x4 ADD PUSH2 0x3D11 JUMP JUMPDEST PUSH1 0xC4 CALLDATALOAD PUSH1 0x1 PUSH1 0x1 PUSH1 0x40 SHL SUB DUP2 GT PUSH2 0x75A JUMPI PUSH2 0x28BD SWAP1 CALLDATASIZE SWAP1 PUSH1 0x4 ADD PUSH2 0x3D11 JUMP JUMPDEST SWAP5 PUSH1 0xE4 CALLDATALOAD PUSH1 0x1 PUSH1 0x1 PUSH1 0x40 SHL SUB DUP2 GT PUSH2 0x75A JUMPI PUSH2 0x28DD SWAP1 CALLDATASIZE SWAP1 PUSH1 0x4 ADD PUSH2 0x3D6E JUMP JUMPDEST SWAP3 PUSH2 0x104 CALLDATALOAD PUSH1 0x1 PUSH1 0x1 PUSH1 0x40 SHL SUB DUP2 GT PUSH2 0x75A JUMPI PUSH2 0x28FE SWAP1 CALLDATASIZE SWAP1 PUSH1 0x4 ADD PUSH2 0x3D6E JUMP JUMPDEST SWAP5 PUSH2 0x290A PUSH1 0xF SLOAD PUSH2 0x40DB JUMP JUMPDEST DUP1 PUSH1 0xF SSTORE PUSH0 MSTORE PUSH1 0x3 PUSH1 0x20 MSTORE PUSH1 0x40 PUSH0 KECCAK256 SWAP7 DUP1 MLOAD SWAP1 PUSH1 0x1 PUSH1 0x1 PUSH1 0x40 SHL SUB DUP3 GT PUSH2 0x58E JUMPI DUP2 SWAP1 PUSH2 0x2941 DUP3 PUSH2 0x293B DUP13 SLOAD PUSH2 0x3B18 JUMP JUMPDEST DUP13 PUSH2 0x4125 JUMP JUMPDEST PUSH1 0x20 SWAP1 PUSH1 0x1F DUP4 GT PUSH1 0x1 EQ PUSH2 0x2F50 JUMPI PUSH0 SWAP3 PUSH2 0x2F45 JUMPI JUMPDEST POP POP DUP2 PUSH1 0x1 SHL SWAP2 PUSH0 NOT SWAP1 PUSH1 0x3 SHL SHR NOT AND OR DUP8 SSTORE JUMPDEST PUSH1 0x1 DUP8 ADD DUP1 SLOAD PUSH1 0x1 PUSH1 0x1 PUSH1 0xA0 SHL SUB NOT AND CALLER OR SWAP1 SSTORE DUP1 MLOAD SWAP1 PUSH1 0x1 PUSH1 0x1 PUSH1 0x40 SHL SUB DUP3 GT PUSH2 0x58E JUMPI DUP2 SWAP1 PUSH2 0x29AB DUP3 PUSH2 0x29A2 PUSH1 0x2 DUP13 ADD SLOAD PUSH2 0x3B18 JUMP JUMPDEST PUSH1 0x2 DUP13 ADD PUSH2 0x4125 JUMP JUMPDEST PUSH1 0x20 SWAP1 PUSH1 0x1F DUP4 GT PUSH1 0x1 EQ PUSH2 0x2ED7 JUMPI PUSH0 SWAP3 PUSH2 0x2ECC JUMPI JUMPDEST POP POP DUP2 PUSH1 0x1 SHL SWAP2 PUSH0 NOT SWAP1 PUSH1 0x3 SHL SHR NOT AND OR PUSH1 0x2 DUP8 ADD SSTORE JUMPDEST PUSH1 0x3 DUP7 ADD PUSH1 0xFF NOT DUP2 SLOAD AND PUSH1 0xFF PUSH1 0x44 CALLDATALOAD AND OR SWAP1 SSTORE DUP1 MLOAD SWAP1 PUSH1 0x1 PUSH1 0x1 PUSH1 0x40 SHL SUB DUP3 GT PUSH2 0x58E JUMPI DUP2 SWAP1 PUSH2 0x2A17 DUP3 PUSH2 0x2A0E PUSH1 0x4 DUP12 ADD SLOAD PUSH2 0x3B18 JUMP JUMPDEST PUSH1 0x4 DUP12 ADD PUSH2 0x4125 JUMP JUMPDEST PUSH1 0x20 SWAP1 PUSH1 0x1F DUP4 GT PUSH1 0x1 EQ PUSH2 0x2E5E JUMPI PUSH0 SWAP3 PUSH2 0x2E53 JUMPI JUMPDEST POP POP DUP2 PUSH1 0x1 SHL SWAP2 PUSH0 NOT SWAP1 PUSH1 0x3 SHL SHR NOT AND OR PUSH1 0x4 DUP7 ADD SSTORE JUMPDEST DUP1 MLOAD SWAP1 PUSH1 0x1 PUSH1 0x1 PUSH1 0x40 SHL SUB DUP3 GT PUSH2 0x58E JUMPI DUP2 SWAP1 PUSH2 0x2A70 DUP3 PUSH2 0x2A67 PUSH1 0x5 DUP11 ADD SLOAD PUSH2 0x3B18 JUMP JUMPDEST PUSH1 0x5 DUP11 ADD PUSH2 0x4125 JUMP JUMPDEST PUSH1 0x20 SWAP1 PUSH1 0x1F DUP4 GT PUSH1 0x1 EQ PUSH2 0x2DE5 JUMPI PUSH0 SWAP3 PUSH2 0x2DDA JUMPI JUMPDEST POP POP DUP2 PUSH1 0x1 SHL SWAP2 PUSH0 NOT SWAP1 PUSH1 0x3 SHL SHR NOT AND OR PUSH1 0x5 DUP6 ADD SSTORE JUMPDEST DUP1 MLOAD SWAP1 PUSH1 0x1 PUSH1 0x1 PUSH1 0x40 SHL SUB DUP3 GT PUSH2 0x58E JUMPI DUP2 SWAP1 PUSH2 0x2AC9 DUP3 PUSH2 0x2AC0 PUSH1 0x6 DUP10 ADD SLOAD PUSH2 0x3B18 JUMP JUMPDEST PUSH1 0x6 DUP10 ADD PUSH2 0x4125 JUMP JUMPDEST PUSH1 0x20 SWAP1 PUSH1 0x1F DUP4 GT PUSH1 0x1 EQ PUSH2 0x2D6C JUMPI PUSH0 SWAP3 PUSH2 0x2D61 JUMPI JUMPDEST POP POP DUP2 PUSH1 0x1 SHL SWAP2 PUSH0 NOT SWAP1 PUSH1 0x3 SHL SHR NOT AND OR PUSH1 0x6 DUP5 ADD SSTORE JUMPDEST DUP4 MLOAD PUSH1 0x1 PUSH1 0x1 PUSH1 0x40 SHL SUB DUP2 GT PUSH2 0x58E JUMPI PUSH2 0x2B1F DUP2 PUSH2 0x2B16 PUSH1 0x7 DUP8 ADD SLOAD PUSH2 0x3B18 JUMP JUMPDEST PUSH1 0x7 DUP8 ADD PUSH2 0x4125 JUMP JUMPDEST PUSH1 0x20 PUSH1 0x1F DUP3 GT PUSH1 0x1 EQ PUSH2 0x2CF3 JUMPI DUP2 SWAP3 SWAP4 SWAP5 SWAP6 PUSH0 SWAP3 PUSH2 0x2CE8 JUMPI JUMPDEST POP POP DUP2 PUSH1 0x1 SHL SWAP2 PUSH0 NOT SWAP1 PUSH1 0x3 SHL SHR NOT AND OR PUSH1 0x7 DUP5 ADD SSTORE SWAP2 SWAP1 SWAP2 JUMPDEST PUSH1 0x9 DUP3 ADD SWAP3 PUSH0 JUMPDEST DUP3 MLOAD DUP2 LT ISZERO PUSH2 0x2C1D JUMPI PUSH2 0x2B6C DUP2 DUP5 PUSH2 0x419C JUMP JUMPDEST MLOAD PUSH0 MSTORE PUSH0 PUSH1 0x20 MSTORE CALLER PUSH1 0x1 DUP1 PUSH1 0xA0 SHL SUB PUSH1 0x1 PUSH1 0x40 PUSH0 KECCAK256 ADD SLOAD AND SUB PUSH2 0x2BD8 JUMPI DUP1 PUSH2 0x2BA1 PUSH2 0x2B9A PUSH2 0x2BD3 SWAP4 DUP7 PUSH2 0x419C JUMP JUMPDEST MLOAD DUP8 PUSH2 0x4168 JUMP JUMPDEST PUSH1 0xF SLOAD PUSH0 MSTORE PUSH1 0x4 PUSH1 0x20 MSTORE PUSH1 0x40 PUSH0 KECCAK256 PUSH2 0x2BB9 DUP3 DUP7 PUSH2 0x419C JUMP JUMPDEST MLOAD PUSH0 MSTORE PUSH1 0x20 MSTORE PUSH1 0x40 PUSH0 KECCAK256 PUSH1 0x1 PUSH1 0xFF NOT DUP3 SLOAD AND OR SWAP1 SSTORE PUSH2 0x40DB JUMP JUMPDEST PUSH2 0x2B59 JUMP JUMPDEST PUSH1 0x40 MLOAD PUSH3 0x461BCD PUSH1 0xE5 SHL DUP2 MSTORE PUSH1 0x20 PUSH1 0x4 DUP3 ADD MSTORE PUSH1 0x1C PUSH1 0x24 DUP3 ADD MSTORE PUSH32 0x43616E20616464206F6E6C79206F776E65642063616D706169676E7300000000 PUSH1 0x44 DUP3 ADD MSTORE PUSH1 0x64 SWAP1 REVERT JUMPDEST POP PUSH1 0xA DUP4 ADD SWAP1 PUSH0 JUMPDEST DUP2 MLOAD DUP2 LT ISZERO PUSH2 0x2CD0 JUMPI PUSH2 0x2C38 DUP2 DUP4 PUSH2 0x419C JUMP JUMPDEST MLOAD PUSH0 MSTORE PUSH1 0x1 PUSH1 0x20 MSTORE CALLER PUSH1 0x1 DUP1 PUSH1 0xA0 SHL SUB PUSH1 0x1 PUSH1 0x40 PUSH0 KECCAK256 ADD SLOAD AND SUB PUSH2 0x2C8B JUMPI DUP1 PUSH2 0x2C6E PUSH2 0x2C67 PUSH2 0x2C86 SWAP4 DUP6 PUSH2 0x419C JUMP JUMPDEST MLOAD DUP6 PUSH2 0x4168 JUMP JUMPDEST PUSH1 0xF SLOAD PUSH0 MSTORE PUSH1 0x5 PUSH1 0x20 MSTORE PUSH1 0x40 PUSH0 KECCAK256 PUSH2 0x2BB9 DUP3 DUP6 PUSH2 0x419C JUMP JUMPDEST PUSH2 0x2C25 JUMP JUMPDEST PUSH1 0x40 MLOAD PUSH3 0x461BCD PUSH1 0xE5 SHL DUP2 MSTORE PUSH1 0x20 PUSH1 0x4 DUP3 ADD MSTORE PUSH1 0x19 PUSH1 0x24 DUP3 ADD MSTORE PUSH32 0x43616E20616464206F6E6C79206F776E6564206576656E747300000000000000 PUSH1 0x44 DUP3 ADD MSTORE PUSH1 0x64 SWAP1 REVERT JUMPDEST CALLER PUSH0 MSTORE PUSH1 0xB PUSH1 0x20 MSTORE PUSH2 0x22 PUSH1 0x40 PUSH0 KECCAK256 PUSH1 0xF SLOAD SWAP1 PUSH2 0x4168 JUMP JUMPDEST ADD MLOAD SWAP1 POP DUP6 DUP1 PUSH2 0x2B38 JUMP JUMPDEST PUSH1 0x7 DUP6 ADD PUSH0 MSTORE PUSH1 0x20 PUSH0 KECCAK256 SWAP1 PUSH0 JUMPDEST PUSH1 0x1F NOT DUP5 AND DUP2 LT PUSH2 0x2D49 JUMPI POP PUSH1 0x1 SWAP4 SWAP5 SWAP6 SWAP7 DUP4 PUSH1 0x1F NOT DUP2 AND LT PUSH2 0x2D31 JUMPI JUMPDEST POP POP POP DUP2 SHL ADD PUSH1 0x7 DUP5 ADD SSTORE SWAP2 SWAP1 SWAP2 PUSH2 0x2B52 JUMP JUMPDEST ADD MLOAD PUSH0 NOT PUSH1 0xF8 DUP5 PUSH1 0x3 SHL AND SHR NOT AND SWAP1 SSTORE DUP6 DUP1 DUP1 PUSH2 0x2D1E JUMP JUMPDEST SWAP1 SWAP2 PUSH1 0x20 PUSH1 0x1 DUP2 SWAP3 DUP6 DUP12 ADD MLOAD DUP2 SSTORE ADD SWAP4 ADD SWAP2 ADD PUSH2 0x2D00 JUMP JUMPDEST ADD MLOAD SWAP1 POP DUP7 DUP1 PUSH2 0x2ADE JUMP JUMPDEST SWAP3 POP PUSH1 0x6 DUP7 ADD PUSH0 MSTORE PUSH1 0x20 PUSH0 KECCAK256 SWAP1 PUSH0 SWAP4 JUMPDEST PUSH1 0x1F NOT DUP5 AND DUP6 LT PUSH2 0x2DBF JUMPI PUSH1 0x1 SWAP5 POP DUP4 PUSH1 0x1F NOT DUP2 AND LT PUSH2 0x2DA7 JUMPI JUMPDEST POP POP POP DUP2 SHL ADD PUSH1 0x6 DUP5 ADD SSTORE PUSH2 0x2AF5 JUMP JUMPDEST ADD MLOAD PUSH0 NOT PUSH1 0xF8 DUP5 PUSH1 0x3 SHL AND SHR NOT AND SWAP1 SSTORE DUP7 DUP1 DUP1 PUSH2 0x2D97 JUMP JUMPDEST DUP2 DUP2 ADD MLOAD DUP4 SSTORE PUSH1 0x20 SWAP5 DUP6 ADD SWAP5 PUSH1 0x1 SWAP1 SWAP4 ADD SWAP3 SWAP1 SWAP2 ADD SWAP1 PUSH2 0x2D7C JUMP JUMPDEST ADD MLOAD SWAP1 POP DUP8 DUP1 PUSH2 0x2A85 JUMP JUMPDEST SWAP3 POP PUSH1 0x5 DUP8 ADD PUSH0 MSTORE PUSH1 0x20 PUSH0 KECCAK256 SWAP1 PUSH0 SWAP4 JUMPDEST PUSH1 0x1F NOT DUP5 AND DUP6 LT PUSH2 0x2E38 JUMPI PUSH1 0x1 SWAP5 POP DUP4 PUSH1 0x1F NOT DUP2 AND LT PUSH2 0x2E20 JUMPI JUMPDEST POP POP POP DUP2 SHL ADD PUSH1 0x5 DUP6 ADD SSTORE PUSH2 0x2A9C JUMP JUMPDEST ADD MLOAD PUSH0 NOT PUSH1 0xF8 DUP5 PUSH1 0x3 SHL AND SHR NOT AND SWAP1 SSTORE DUP8 DUP1 DUP1 PUSH2 0x2E10 JUMP JUMPDEST DUP2 DUP2 ADD MLOAD DUP4 SSTORE PUSH1 0x20 SWAP5 DUP6 ADD SWAP5 PUSH1 0x1 SWAP1 SWAP4 ADD SWAP3 SWAP1 SWAP2 ADD SWAP1 PUSH2 0x2DF5 JUMP JUMPDEST ADD MLOAD SWAP1 POP DUP9 DUP1 PUSH2 0x2A2C JUMP JUMPDEST SWAP3 POP PUSH1 0x4 DUP9 ADD PUSH0 MSTORE PUSH1 0x20 PUSH0 KECCAK256 SWAP1 PUSH0 SWAP4 JUMPDEST PUSH1 0x1F NOT DUP5 AND DUP6 LT PUSH2 0x2EB1 JUMPI PUSH1 0x1 SWAP5 POP DUP4 PUSH1 0x1F NOT DUP2 AND LT PUSH2 0x2E99 JUMPI JUMPDEST POP POP POP DUP2 SHL ADD PUSH1 0x4 DUP7 ADD SSTORE PUSH2 0x2A43 JUMP JUMPDEST ADD MLOAD PUSH0 NOT PUSH1 0xF8 DUP5 PUSH1 0x3 SHL AND SHR NOT AND SWAP1 SSTORE DUP9 DUP1 DUP1 PUSH2 0x2E89 JUMP JUMPDEST DUP2 DUP2 ADD MLOAD DUP4 SSTORE PUSH1 0x20 SWAP5 DUP6 ADD SWAP5 PUSH1 0x1 SWAP1 SWAP4 ADD SWAP3 SWAP1 SWAP2 ADD SWAP1 PUSH2 0x2E6E JUMP JUMPDEST ADD MLOAD SWAP1 POP DUP10 DUP1 PUSH2 0x29C0 JUMP JUMPDEST SWAP3 POP PUSH1 0x2 DUP10 ADD PUSH0 MSTORE PUSH1 0x20 PUSH0 KECCAK256 SWAP1 PUSH0 SWAP4 JUMPDEST PUSH1 0x1F NOT DUP5 AND DUP6 LT PUSH2 0x2F2A JUMPI PUSH1 0x1 SWAP5 POP DUP4 PUSH1 0x1F NOT DUP2 AND LT PUSH2 0x2F12 JUMPI JUMPDEST POP POP POP DUP2 SHL ADD PUSH1 0x2 DUP8 ADD SSTORE PUSH2 0x29D7 JUMP JUMPDEST ADD MLOAD PUSH0 NOT PUSH1 0xF8 DUP5 PUSH1 0x3 SHL AND SHR NOT AND SWAP1 SSTORE DUP10 DUP1 DUP1 PUSH2 0x2F02 JUMP JUMPDEST DUP2 DUP2 ADD MLOAD DUP4 SSTORE PUSH1 0x20 SWAP5 DUP6 ADD SWAP5 PUSH1 0x1 SWAP1 SWAP4 ADD SWAP3 SWAP1 SWAP2 ADD SWAP1 PUSH2 0x2EE7 JUMP JUMPDEST ADD MLOAD SWAP1 POP DUP11 DUP1 PUSH2 0x2956 JUMP JUMPDEST SWAP3 POP DUP10 PUSH0 MSTORE PUSH1 0x20 PUSH0 KECCAK256 SWAP1 PUSH0 SWAP4 JUMPDEST PUSH1 0x1F NOT DUP5 AND DUP6 LT PUSH2 0x2F9D JUMPI PUSH1 0x1 SWAP5 POP DUP4 PUSH1 0x1F NOT DUP2 AND LT PUSH2 0x2F85 JUMPI JUMPDEST POP POP POP DUP2 SHL ADD DUP8 SSTORE PUSH2 0x296A JUMP JUMPDEST ADD MLOAD PUSH0 NOT PUSH1 0xF8 DUP5 PUSH1 0x3 SHL AND SHR NOT AND SWAP1 SSTORE DUP11 DUP1 DUP1 PUSH2 0x2F78 JUMP JUMPDEST DUP2 DUP2 ADD MLOAD DUP4 SSTORE PUSH1 0x20 SWAP5 DUP6 ADD SWAP5 PUSH1 0x1 SWAP1 SWAP4 ADD SWAP3 SWAP1 SWAP2 ADD SWAP1 PUSH2 0x2F5D JUMP JUMPDEST CALLVALUE PUSH2 0x75A JUMPI PUSH2 0x140 CALLDATASIZE PUSH1 0x3 NOT ADD SLT PUSH2 0x75A JUMPI PUSH1 0x4 CALLDATALOAD PUSH1 0x1 PUSH1 0x1 PUSH1 0x40 SHL SUB DUP2 GT PUSH2 0x75A JUMPI PUSH2 0x2FE9 SWAP1 CALLDATASIZE SWAP1 PUSH1 0x4 ADD PUSH2 0x3D11 JUMP JUMPDEST PUSH1 0x64 CALLDATALOAD PUSH1 0x1 PUSH1 0x1 PUSH1 0x40 SHL SUB DUP2 GT PUSH2 0x75A JUMPI PUSH2 0x3008 SWAP1 CALLDATASIZE SWAP1 PUSH1 0x4 ADD PUSH2 0x3D11 JUMP JUMPDEST SWAP1 PUSH1 0x84 CALLDATALOAD PUSH1 0x1 PUSH1 0x1 PUSH1 0x40 SHL SUB DUP2 GT PUSH2 0x75A JUMPI PUSH2 0x3028 SWAP1 CALLDATASIZE SWAP1 PUSH1 0x4 ADD PUSH2 0x3D11 JUMP JUMPDEST SWAP1 PUSH2 0x124 CALLDATALOAD PUSH1 0x1 PUSH1 0x1 PUSH1 0x40 SHL SUB DUP2 GT PUSH2 0x75A JUMPI PUSH2 0x3049 SWAP1 CALLDATASIZE SWAP1 PUSH1 0x4 ADD PUSH2 0x3D6E JUMP JUMPDEST PUSH2 0x3057 TIMESTAMP PUSH1 0x24 CALLDATALOAD LT ISZERO PUSH2 0x403A JUMP JUMPDEST PUSH2 0x3066 PUSH1 0x24 CALLDATALOAD PUSH1 0x44 CALLDATALOAD GT PUSH2 0x4085 JUMP JUMPDEST CALLER PUSH0 MSTORE PUSH1 0x2 PUSH1 0x20 MSTORE PUSH1 0xA4 CALLDATALOAD PUSH1 0x2 PUSH1 0x40 PUSH0 KECCAK256 ADD SLOAD LT PUSH2 0x342A JUMPI CALLER PUSH0 MSTORE PUSH1 0x2 PUSH1 0x20 MSTORE PUSH1 0x2 PUSH1 0x40 PUSH0 KECCAK256 ADD PUSH2 0x309A PUSH1 0xA4 CALLDATALOAD DUP3 SLOAD PUSH2 0x402D JUMP JUMPDEST SWAP1 SSTORE PUSH2 0x30A7 PUSH1 0xE SLOAD PUSH2 0x40DB JUMP JUMPDEST SWAP2 DUP3 PUSH1 0xE SSTORE DUP3 PUSH0 MSTORE PUSH1 0x1 PUSH1 0x20 MSTORE PUSH1 0x40 PUSH0 KECCAK256 SWAP3 DUP4 SSTORE PUSH1 0x1 DUP4 ADD CALLER PUSH1 0x1 PUSH1 0x1 PUSH1 0x60 SHL SUB PUSH1 0xA0 SHL DUP3 SLOAD AND OR SWAP1 SSTORE DUP1 MLOAD SWAP1 PUSH1 0x1 PUSH1 0x1 PUSH1 0x40 SHL SUB DUP3 GT PUSH2 0x58E JUMPI DUP2 SWAP1 PUSH2 0x30FE DUP3 PUSH2 0x30F5 PUSH1 0x2 DUP9 ADD SLOAD PUSH2 0x3B18 JUMP JUMPDEST PUSH1 0x2 DUP9 ADD PUSH2 0x4125 JUMP JUMPDEST PUSH1 0x20 SWAP1 PUSH1 0x1F DUP4 GT PUSH1 0x1 EQ PUSH2 0x33BC JUMPI PUSH0 SWAP3 PUSH2 0x33B1 JUMPI JUMPDEST POP POP DUP2 PUSH1 0x1 SHL SWAP2 PUSH0 NOT SWAP1 PUSH1 0x3 SHL SHR NOT AND OR PUSH1 0x2 DUP4 ADD SSTORE JUMPDEST PUSH1 0x24 CALLDATALOAD PUSH1 0x3 DUP4 ADD SSTORE PUSH1 0x44 CALLDATALOAD PUSH1 0x4 DUP4 ADD SSTORE DUP4 MLOAD PUSH1 0x1 PUSH1 0x1 PUSH1 0x40 SHL SUB DUP2 GT PUSH2 0x58E JUMPI PUSH2 0x3164 DUP2 PUSH2 0x315B PUSH1 0x5 DUP7 ADD SLOAD PUSH2 0x3B18 JUMP JUMPDEST PUSH1 0x5 DUP7 ADD PUSH2 0x4125 JUMP JUMPDEST PUSH1 0x20 PUSH1 0x1F DUP3 GT PUSH1 0x1 EQ PUSH2 0x3346 JUMPI DUP2 SWAP3 SWAP4 SWAP5 SWAP6 PUSH0 SWAP3 PUSH2 0x333B JUMPI JUMPDEST POP POP DUP2 PUSH1 0x1 SHL SWAP2 PUSH0 NOT SWAP1 PUSH1 0x3 SHL SHR NOT AND OR PUSH1 0x5 DUP4 ADD SSTORE JUMPDEST DUP3 MLOAD PUSH1 0x1 PUSH1 0x1 PUSH1 0x40 SHL SUB DUP2 GT PUSH2 0x58E JUMPI PUSH2 0x31BE DUP2 PUSH2 0x31B5 PUSH1 0x6 DUP7 ADD SLOAD PUSH2 0x3B18 JUMP JUMPDEST PUSH1 0x6 DUP7 ADD PUSH2 0x4125 JUMP JUMPDEST PUSH1 0x20 PUSH1 0x1F DUP3 GT PUSH1 0x1 EQ PUSH2 0x32D1 JUMPI DUP2 SWAP3 SWAP4 SWAP5 PUSH0 SWAP3 PUSH2 0x32C6 JUMPI JUMPDEST POP POP DUP2 PUSH1 0x1 SHL SWAP2 PUSH0 NOT SWAP1 PUSH1 0x3 SHL SHR NOT AND OR PUSH1 0x6 DUP4 ADD SSTORE JUMPDEST PUSH1 0xA4 CALLDATALOAD PUSH1 0x7 DUP4 ADD SSTORE PUSH1 0xC4 CALLDATALOAD PUSH1 0x8 DUP4 ADD SSTORE PUSH1 0xE4 CALLDATALOAD PUSH1 0x9 DUP4 ADD SSTORE PUSH2 0x104 CALLDATALOAD PUSH1 0xA DUP4 ADD SSTORE PUSH1 0xB DUP3 ADD DUP2 MLOAD SWAP2 PUSH1 0x1 PUSH1 0x1 PUSH1 0x40 SHL SUB DUP4 GT PUSH2 0x58E JUMPI PUSH1 0x1 PUSH1 0x40 SHL DUP4 GT PUSH2 0x58E JUMPI PUSH1 0x20 SWAP1 DUP3 SLOAD DUP5 DUP5 SSTORE DUP1 DUP6 LT PUSH2 0x32AB JUMPI JUMPDEST POP ADD SWAP1 PUSH0 MSTORE PUSH1 0x20 PUSH0 KECCAK256 PUSH0 JUMPDEST DUP4 DUP2 LT PUSH2 0x3297 JUMPI DUP5 CALLER PUSH0 MSTORE PUSH1 0xA PUSH1 0x20 MSTORE PUSH2 0x3268 PUSH1 0x40 PUSH0 KECCAK256 DUP3 SLOAD SWAP1 PUSH2 0x4168 JUMP JUMPDEST SLOAD PUSH1 0x40 MLOAD SWAP1 DUP2 MSTORE PUSH32 0xE43349C008949CF6B65249356E6F918D4AAA0CA79F2B1166DF4A4A98C9C16DE2 PUSH1 0x20 CALLER SWAP3 LOG2 STOP JUMPDEST PUSH1 0x1 SWAP1 PUSH1 0x20 DUP5 MLOAD SWAP5 ADD SWAP4 DUP2 DUP5 ADD SSTORE ADD PUSH2 0x3249 JUMP JUMPDEST PUSH2 0x32C0 SWAP1 DUP5 PUSH0 MSTORE DUP6 DUP5 PUSH0 KECCAK256 SWAP2 DUP3 ADD SWAP2 ADD PUSH2 0x40E9 JUMP JUMPDEST DUP6 PUSH2 0x323E JUMP JUMPDEST ADD MLOAD SWAP1 POP DUP5 DUP1 PUSH2 0x31D6 JUMP JUMPDEST PUSH1 0x6 DUP5 ADD PUSH0 MSTORE PUSH1 0x20 PUSH0 KECCAK256 SWAP1 PUSH0 JUMPDEST PUSH1 0x1F NOT DUP5 AND DUP2 LT PUSH2 0x3323 JUMPI POP PUSH1 0x1 SWAP4 SWAP5 SWAP6 DUP4 PUSH1 0x1F NOT DUP2 AND LT PUSH2 0x330B JUMPI JUMPDEST POP POP POP DUP2 SHL ADD PUSH1 0x6 DUP4 ADD SSTORE PUSH2 0x31ED JUMP JUMPDEST ADD MLOAD PUSH0 NOT PUSH1 0xF8 DUP5 PUSH1 0x3 SHL AND SHR NOT AND SWAP1 SSTORE DUP5 DUP1 DUP1 PUSH2 0x32FB JUMP JUMPDEST SWAP1 SWAP2 PUSH1 0x20 PUSH1 0x1 DUP2 SWAP3 DUP6 DUP11 ADD MLOAD DUP2 SSTORE ADD SWAP4 ADD SWAP2 ADD PUSH2 0x32DE JUMP JUMPDEST ADD MLOAD SWAP1 POP DUP6 DUP1 PUSH2 0x317D JUMP JUMPDEST PUSH1 0x5 DUP5 ADD PUSH0 MSTORE PUSH1 0x20 PUSH0 KECCAK256 SWAP1 PUSH0 JUMPDEST PUSH1 0x1F NOT DUP5 AND DUP2 LT PUSH2 0x3399 JUMPI POP PUSH1 0x1 SWAP4 SWAP5 SWAP6 SWAP7 DUP4 PUSH1 0x1F NOT DUP2 AND LT PUSH2 0x3381 JUMPI JUMPDEST POP POP POP DUP2 SHL ADD PUSH1 0x5 DUP4 ADD SSTORE PUSH2 0x3194 JUMP JUMPDEST ADD MLOAD PUSH0 NOT PUSH1 0xF8 DUP5 PUSH1 0x3 SHL AND SHR NOT AND SWAP1 SSTORE DUP6 DUP1 DUP1 PUSH2 0x3371 JUMP JUMPDEST SWAP1 SWAP2 PUSH1 0x20 PUSH1 0x1 DUP2 SWAP3 DUP6 DUP12 ADD MLOAD DUP2 SSTORE ADD SWAP4 ADD SWAP2 ADD PUSH2 0x3353 JUMP JUMPDEST ADD MLOAD SWAP1 POP DUP7 DUP1 PUSH2 0x3113 JUMP JUMPDEST SWAP3 POP PUSH1 0x2 DUP6 ADD PUSH0 MSTORE PUSH1 0x20 PUSH0 KECCAK256 SWAP1 PUSH0 SWAP4 JUMPDEST PUSH1 0x1F NOT DUP5 AND DUP6 LT PUSH2 0x340F JUMPI PUSH1 0x1 SWAP5 POP DUP4 PUSH1 0x1F NOT DUP2 AND LT PUSH2 0x33F7 JUMPI JUMPDEST POP POP POP DUP2 SHL ADD PUSH1 0x2 DUP4 ADD SSTORE PUSH2 0x312A JUMP JUMPDEST ADD MLOAD PUSH0 NOT PUSH1 0xF8 DUP5 PUSH1 0x3 SHL AND SHR NOT AND SWAP1 SSTORE DUP7 DUP1 DUP1 PUSH2 0x33E7 JUMP JUMPDEST DUP2 DUP2 ADD MLOAD DUP4 SSTORE PUSH1 0x20 SWAP5 DUP6 ADD SWAP5 PUSH1 0x1 SWAP1 SWAP4 ADD SWAP3 SWAP1 SWAP2 ADD SWAP1 PUSH2 0x33CC JUMP JUMPDEST PUSH1 0x40 MLOAD PUSH3 0x461BCD PUSH1 0xE5 SHL DUP2 MSTORE PUSH1 0x20 PUSH1 0x4 DUP3 ADD MSTORE PUSH1 0x23 PUSH1 0x24 DUP3 ADD MSTORE PUSH32 0x496E73756666696369656E742061737365747320746F20637265617465206576 PUSH1 0x44 DUP3 ADD MSTORE PUSH3 0x195B9D PUSH1 0xEA SHL PUSH1 0x64 DUP3 ADD MSTORE PUSH1 0x84 SWAP1 REVERT JUMPDEST CALLVALUE PUSH2 0x75A JUMPI PUSH1 0x20 DUP1 PUSH1 0x3 NOT CALLDATASIZE ADD SLT PUSH2 0x75A JUMPI PUSH1 0x4 CALLDATALOAD SWAP1 DUP2 PUSH0 MSTORE PUSH1 0x1 DUP2 MSTORE PUSH1 0x40 PUSH0 KECCAK256 PUSH2 0x34B7 PUSH1 0x3 SWAP2 PUSH2 0xCCA PUSH1 0x4 DUP5 DUP4 ADD SLOAD SWAP3 ADD SLOAD SWAP2 TIMESTAMP LT ISZERO PUSH2 0x41B0 JUMP JUMPDEST CALLER PUSH0 MSTORE PUSH1 0x2 DUP3 MSTORE PUSH1 0x1 DUP1 PUSH1 0xA0 SHL SUB PUSH2 0x34D6 DUP2 PUSH1 0x40 PUSH0 KECCAK256 SLOAD AND ISZERO ISZERO PUSH2 0x4241 JUMP JUMPDEST CALLER PUSH0 MSTORE PUSH1 0x7 DUP4 MSTORE PUSH1 0x40 PUSH0 KECCAK256 DUP5 PUSH0 MSTORE DUP4 MSTORE PUSH1 0xFF SWAP1 DUP2 PUSH1 0x40 PUSH0 KECCAK256 SLOAD AND PUSH2 0x369C JUMPI CALLER PUSH0 MSTORE PUSH1 0x2 DUP5 MSTORE PUSH1 0x40 PUSH0 KECCAK256 SLOAD AND ISZERO PUSH2 0x368E JUMPI JUMPDEST DUP4 PUSH0 MSTORE PUSH1 0x1 DUP4 MSTORE PUSH1 0x40 PUSH0 KECCAK256 SWAP2 PUSH0 SWAP2 PUSH0 SWAP2 PUSH1 0xB DUP6 ADD DUP1 SLOAD SWAP4 JUMPDEST DUP5 DUP2 LT PUSH2 0x363F JUMPI POP POP POP POP POP PUSH1 0x9 DUP3 ADD SLOAD GT PUSH2 0x35FA JUMPI PUSH2 0x3543 SWAP1 PUSH1 0xC CALLER SWAP2 ADD PUSH2 0x4283 JUMP JUMPDEST CALLER PUSH0 MSTORE PUSH1 0x2 DUP2 MSTORE PUSH2 0x355A DUP3 PUSH1 0x7 PUSH1 0x40 PUSH0 KECCAK256 ADD PUSH2 0x4168 JUMP JUMPDEST PUSH2 0x3563 DUP3 PUSH2 0x4442 JUMP JUMPDEST DUP1 PUSH2 0x35B1 JUMPI JUMPDEST POP CALLER PUSH0 MSTORE PUSH1 0x7 DUP2 MSTORE PUSH1 0x40 PUSH0 KECCAK256 SWAP1 DUP3 PUSH0 MSTORE MSTORE PUSH1 0x40 PUSH0 KECCAK256 PUSH1 0x1 PUSH1 0xFF NOT DUP3 SLOAD AND OR SWAP1 SSTORE CALLER SWAP1 PUSH32 0xF11149736E591E4B965F3E9E625EAF62F393D637814B49899D9E8E0374CD0F9E PUSH0 DUP1 LOG3 STOP JUMPDEST PUSH0 MSTORE PUSH1 0xC DUP2 MSTORE PUSH1 0x40 PUSH0 KECCAK256 CALLER PUSH0 MSTORE DUP2 MSTORE PUSH1 0x40 PUSH0 KECCAK256 PUSH1 0x1 DUP2 ADD PUSH2 0x35D2 DUP2 SLOAD PUSH2 0x40DB JUMP JUMPDEST SWAP1 SSTORE DUP3 PUSH0 MSTORE PUSH1 0x1 DUP3 MSTORE PUSH2 0x35F2 PUSH1 0x2 PUSH1 0x8 PUSH1 0x40 PUSH0 KECCAK256 ADD SLOAD SWAP3 ADD SWAP2 DUP3 SLOAD PUSH2 0x3E87 JUMP JUMPDEST SWAP1 SSTORE DUP3 PUSH2 0x3569 JUMP JUMPDEST PUSH1 0x40 MLOAD PUSH3 0x461BCD PUSH1 0xE5 SHL DUP2 MSTORE PUSH1 0x4 DUP2 ADD DUP4 SWAP1 MSTORE PUSH1 0x1E PUSH1 0x24 DUP3 ADD MSTORE PUSH32 0x4E6F7420656E6F7567682063616D706169676E7320636F6D706C657465640000 PUSH1 0x44 DUP3 ADD MSTORE PUSH1 0x64 SWAP1 REVERT JUMPDEST PUSH2 0x3649 DUP2 DUP4 PUSH2 0x3E5E JUMP JUMPDEST SWAP1 SLOAD SWAP1 DUP5 SHL SHR CALLER PUSH0 MSTORE PUSH1 0x6 DUP10 MSTORE PUSH1 0x40 PUSH0 KECCAK256 SWAP1 PUSH0 MSTORE DUP9 MSTORE DUP4 PUSH1 0x40 PUSH0 KECCAK256 SLOAD AND PUSH2 0x3679 JUMPI JUMPDEST PUSH2 0x3674 SWAP1 PUSH2 0x40DB JUMP JUMPDEST PUSH2 0x351F JUMP JUMPDEST SWAP5 PUSH2 0x3686 PUSH2 0x3674 SWAP2 PUSH2 0x40DB JUMP JUMPDEST SWAP6 SWAP1 POP PUSH2 0x366B JUMP JUMPDEST PUSH2 0x3697 CALLER PUSH2 0x42D8 JUMP JUMPDEST PUSH2 0x3507 JUMP JUMPDEST PUSH1 0x40 MLOAD PUSH3 0x461BCD PUSH1 0xE5 SHL DUP2 MSTORE PUSH1 0x4 DUP2 ADD DUP6 SWAP1 MSTORE PUSH1 0x19 PUSH1 0x24 DUP3 ADD MSTORE PUSH32 0x416C7265616479206A6F696E65642074686973206576656E7400000000000000 PUSH1 0x44 DUP3 ADD MSTORE PUSH1 0x64 SWAP1 REVERT JUMPDEST CALLVALUE PUSH2 0x75A JUMPI PUSH0 CALLDATASIZE PUSH1 0x3 NOT ADD SLT PUSH2 0x75A JUMPI PUSH1 0x20 PUSH1 0xF SLOAD PUSH1 0x40 MLOAD SWAP1 DUP2 MSTORE RETURN JUMPDEST CALLVALUE PUSH2 0x75A JUMPI PUSH1 0x20 DUP1 PUSH1 0x3 NOT CALLDATASIZE ADD SLT PUSH2 0x75A JUMPI PUSH1 0x4 CALLDATALOAD DUP1 ISZERO PUSH2 0x37C4 JUMPI PUSH0 DUP1 DUP1 DUP1 SWAP4 CALLER DUP3 MSTORE PUSH1 0x2 DUP7 MSTORE PUSH2 0x3738 DUP2 PUSH1 0x2 PUSH1 0x40 DUP6 KECCAK256 ADD SLOAD LT ISZERO PUSH2 0x3FEA JUMP JUMPDEST CALLER DUP3 MSTORE PUSH1 0x2 DUP7 MSTORE PUSH1 0x2 PUSH1 0x40 DUP4 KECCAK256 ADD PUSH2 0x3751 DUP3 DUP3 SLOAD PUSH2 0x402D JUMP JUMPDEST SWAP1 SSTORE CALLER GAS CALL RETURNDATASIZE ISZERO PUSH2 0x37BF JUMPI RETURNDATASIZE PUSH2 0x3766 DUP2 PUSH2 0x3CF6 JUMP JUMPDEST SWAP1 PUSH2 0x3774 PUSH1 0x40 MLOAD SWAP3 DUP4 PUSH2 0x3BF6 JUMP JUMPDEST DUP2 MSTORE PUSH0 DUP4 RETURNDATASIZE SWAP3 ADD RETURNDATACOPY JUMPDEST ISZERO PUSH2 0x3784 JUMPI STOP JUMPDEST PUSH1 0x64 SWAP1 PUSH1 0x40 MLOAD SWAP1 PUSH3 0x461BCD PUSH1 0xE5 SHL DUP3 MSTORE PUSH1 0x4 DUP3 ADD MSTORE PUSH1 0x14 PUSH1 0x24 DUP3 ADD MSTORE PUSH20 0x2330B4B632B2103A379039B2B7321022BA3432B9 PUSH1 0x61 SHL PUSH1 0x44 DUP3 ADD MSTORE REVERT JUMPDEST PUSH2 0x377D JUMP JUMPDEST PUSH1 0x64 DUP3 PUSH1 0x40 MLOAD SWAP1 PUSH3 0x461BCD PUSH1 0xE5 SHL DUP3 MSTORE DUP1 PUSH1 0x4 DUP4 ADD MSTORE PUSH1 0x24 DUP3 ADD MSTORE PUSH32 0x416D6F756E74206D7573742062652067726561746572207468616E207A65726F PUSH1 0x44 DUP3 ADD MSTORE REVERT JUMPDEST CALLVALUE PUSH2 0x75A JUMPI PUSH1 0x40 CALLDATASIZE PUSH1 0x3 NOT ADD SLT PUSH2 0x75A JUMPI PUSH1 0x1 PUSH1 0x1 PUSH1 0xA0 SHL SUB PUSH2 0x3828 PUSH2 0x3AEC JUMP JUMPDEST AND PUSH0 MSTORE PUSH1 0x7 PUSH1 0x20 MSTORE PUSH1 0x40 PUSH0 KECCAK256 PUSH1 0x24 CALLDATALOAD PUSH0 MSTORE PUSH1 0x20 MSTORE PUSH1 0x20 PUSH1 0xFF PUSH1 0x40 PUSH0 KECCAK256 SLOAD AND PUSH1 0x40 MLOAD SWAP1 ISZERO ISZERO DUP2 MSTORE RETURN JUMPDEST CALLVALUE PUSH2 0x75A JUMPI PUSH1 0x20 CALLDATASIZE PUSH1 0x3 NOT ADD SLT PUSH2 0x75A JUMPI PUSH1 0x4 CALLDATALOAD PUSH0 MSTORE PUSH0 PUSH1 0x20 MSTORE PUSH1 0x40 PUSH0 KECCAK256 DUP1 SLOAD SWAP1 PUSH1 0x1 PUSH1 0xA0 SHL PUSH1 0x1 SWAP1 SUB PUSH1 0x1 DUP3 ADD SLOAD AND SWAP1 PUSH1 0x2 DUP2 ADD PUSH2 0x388E SWAP1 PUSH2 0x3C17 JUMP JUMPDEST SWAP3 PUSH1 0x3 DUP3 ADD SLOAD SWAP1 PUSH1 0x4 DUP4 ADD SLOAD SWAP1 PUSH1 0x5 DUP5 ADD PUSH2 0x38A8 SWAP1 PUSH2 0x3C17 JUMP JUMPDEST SWAP1 PUSH2 0x38B5 PUSH1 0x6 DUP7 ADD PUSH2 0x3C17 JUMP JUMPDEST SWAP2 PUSH1 0x7 DUP7 ADD SLOAD SWAP3 PUSH1 0x8 DUP8 ADD SLOAD PUSH1 0x9 DUP9 ADD SLOAD SWAP2 PUSH1 0xA DUP10 ADD SLOAD SWAP4 PUSH1 0xB DUP11 ADD SLOAD SWAP6 PUSH1 0xC DUP12 ADD PUSH2 0x38E0 SWAP1 PUSH2 0x3C17 JUMP JUMPDEST SWAP9 PUSH1 0xD DUP13 ADD SLOAD SWAP12 PUSH1 0xF ADD SLOAD SWAP11 PUSH1 0x40 MLOAD SWAP15 DUP16 SWAP15 DUP16 SWAP5 DUP6 MSTORE PUSH1 0x20 DUP6 ADD MSTORE PUSH2 0x200 DUP1 PUSH1 0x40 DUP7 ADD MSTORE DUP5 ADD PUSH2 0x390F SWAP2 PUSH2 0x3CB8 JUMP JUMPDEST SWAP3 PUSH1 0x60 ADD MSTORE PUSH1 0x80 DUP14 ADD MSTORE DUP12 DUP2 SUB PUSH1 0xA0 DUP14 ADD MSTORE PUSH2 0x392A SWAP2 PUSH2 0x3CB8 JUMP JUMPDEST DUP11 DUP2 SUB PUSH1 0xC0 DUP13 ADD MSTORE PUSH2 0x393B SWAP2 PUSH2 0x3CB8 JUMP JUMPDEST SWAP5 PUSH1 0xE0 DUP11 ADD MSTORE PUSH2 0x100 DUP10 ADD MSTORE PUSH2 0x120 DUP9 ADD MSTORE PUSH2 0x140 DUP8 ADD MSTORE PUSH2 0x160 DUP7 ADD MSTORE DUP5 DUP2 SUB PUSH2 0x180 DUP7 ADD MSTORE PUSH2 0x396B SWAP2 PUSH2 0x3CB8 JUMP JUMPDEST SWAP2 PUSH1 0xFF DUP2 AND ISZERO ISZERO PUSH2 0x1A0 DUP6 ADD MSTORE PUSH1 0x8 SHR PUSH1 0xFF AND ISZERO ISZERO PUSH2 0x1C0 DUP5 ADD MSTORE PUSH2 0x1E0 DUP4 ADD MSTORE SUB SWAP1 RETURN JUMPDEST CALLVALUE PUSH2 0x75A JUMPI PUSH1 0x20 CALLDATASIZE PUSH1 0x3 NOT ADD SLT PUSH2 0x75A JUMPI PUSH1 0x4 CALLDATALOAD PUSH0 SWAP1 DUP2 MSTORE PUSH1 0x1 PUSH1 0x20 DUP2 DUP2 MSTORE PUSH1 0x40 SWAP1 SWAP3 KECCAK256 DUP1 SLOAD SWAP2 DUP2 ADD SLOAD PUSH1 0x1 PUSH1 0x1 PUSH1 0xA0 SHL SUB AND PUSH2 0x39CF PUSH1 0x2 DUP4 ADD PUSH2 0x3C17 JUMP JUMPDEST SWAP2 PUSH1 0x3 DUP2 ADD SLOAD SWAP3 PUSH2 0x3A5B PUSH1 0x4 DUP4 ADD SLOAD SWAP5 PUSH2 0x3A4D PUSH2 0x39EE PUSH1 0x5 DUP7 ADD PUSH2 0x3C17 JUMP JUMPDEST SWAP2 PUSH2 0x39FB PUSH1 0x6 DUP8 ADD PUSH2 0x3C17 JUMP JUMPDEST SWAP3 PUSH1 0x7 DUP8 ADD SLOAD SWAP9 PUSH2 0x3A35 PUSH1 0x8 DUP10 ADD SLOAD SWAP8 PUSH1 0xA PUSH1 0x9 DUP12 ADD SLOAD SWAP11 ADD SLOAD SWAP11 PUSH1 0x40 MLOAD SWAP15 DUP16 SWAP15 DUP16 SWAP1 DUP2 MSTORE ADD MSTORE PUSH1 0x40 DUP14 PUSH2 0x160 SWAP2 DUP3 SWAP2 ADD MSTORE DUP14 ADD SWAP1 PUSH2 0x3CB8 JUMP JUMPDEST SWAP3 PUSH1 0x60 DUP13 ADD MSTORE PUSH1 0x80 DUP12 ADD MSTORE DUP10 DUP3 SUB PUSH1 0xA0 DUP12 ADD MSTORE PUSH2 0x3CB8 JUMP JUMPDEST SWAP1 DUP8 DUP3 SUB PUSH1 0xC0 DUP10 ADD MSTORE PUSH2 0x3CB8 JUMP JUMPDEST SWAP4 PUSH1 0xE0 DUP7 ADD MSTORE PUSH2 0x100 DUP6 ADD MSTORE PUSH2 0x120 DUP5 ADD MSTORE PUSH2 0x140 DUP4 ADD MSTORE SUB SWAP1 RETURN JUMPDEST CALLVALUE PUSH2 0x75A JUMPI PUSH0 CALLDATASIZE PUSH1 0x3 NOT ADD SLT PUSH2 0x75A JUMPI PUSH1 0xD SLOAD PUSH1 0xE SLOAD PUSH1 0xF SLOAD PUSH1 0x40 DUP1 MLOAD SWAP4 DUP5 MSTORE PUSH1 0x20 DUP5 ADD SWAP3 SWAP1 SWAP3 MSTORE SWAP1 DUP3 ADD MSTORE PUSH1 0x60 SWAP1 RETURN JUMPDEST CALLVALUE PUSH2 0x75A JUMPI PUSH1 0x40 CALLDATASIZE PUSH1 0x3 NOT ADD SLT PUSH2 0x75A JUMPI PUSH1 0x20 SWAP1 PUSH1 0x1 PUSH1 0x1 PUSH1 0xA0 SHL SUB PUSH2 0x3ACC PUSH2 0x3AEC JUMP JUMPDEST AND PUSH0 MSTORE PUSH1 0x6 DUP3 MSTORE PUSH1 0x40 PUSH0 KECCAK256 PUSH1 0x24 CALLDATALOAD PUSH0 MSTORE DUP3 MSTORE PUSH1 0xFF PUSH1 0x40 PUSH0 KECCAK256 SLOAD AND ISZERO ISZERO DUP2 MSTORE RETURN JUMPDEST PUSH1 0x4 CALLDATALOAD SWAP1 PUSH1 0x1 PUSH1 0x1 PUSH1 0xA0 SHL SUB DUP3 AND DUP3 SUB PUSH2 0x75A JUMPI JUMP JUMPDEST PUSH1 0x24 CALLDATALOAD SWAP1 PUSH1 0x1 PUSH1 0x1 PUSH1 0xA0 SHL SUB DUP3 AND DUP3 SUB PUSH2 0x75A JUMPI JUMP JUMPDEST SWAP1 PUSH1 0x1 DUP3 DUP2 SHR SWAP3 AND DUP1 ISZERO PUSH2 0x3B46 JUMPI JUMPDEST PUSH1 0x20 DUP4 LT EQ PUSH2 0x3B32 JUMPI JUMP JUMPDEST PUSH4 0x4E487B71 PUSH1 0xE0 SHL PUSH0 MSTORE PUSH1 0x22 PUSH1 0x4 MSTORE PUSH1 0x24 PUSH0 REVERT JUMPDEST SWAP2 PUSH1 0x7F AND SWAP2 PUSH2 0x3B27 JUMP JUMPDEST PUSH2 0x220 DUP2 ADD SWAP1 DUP2 LT PUSH1 0x1 PUSH1 0x1 PUSH1 0x40 SHL SUB DUP3 GT OR PUSH2 0x58E JUMPI PUSH1 0x40 MSTORE JUMP JUMPDEST PUSH1 0x60 DUP2 ADD SWAP1 DUP2 LT PUSH1 0x1 PUSH1 0x1 PUSH1 0x40 SHL SUB DUP3 GT OR PUSH2 0x58E JUMPI PUSH1 0x40 MSTORE JUMP JUMPDEST PUSH2 0x1A0 DUP2 ADD SWAP1 DUP2 LT PUSH1 0x1 PUSH1 0x1 PUSH1 0x40 SHL SUB DUP3 GT OR PUSH2 0x58E JUMPI PUSH1 0x40 MSTORE JUMP JUMPDEST PUSH2 0x100 DUP2 ADD SWAP1 DUP2 LT PUSH1 0x1 PUSH1 0x1 PUSH1 0x40 SHL SUB DUP3 GT OR PUSH2 0x58E JUMPI PUSH1 0x40 MSTORE JUMP JUMPDEST PUSH2 0x160 DUP2 ADD SWAP1 DUP2 LT PUSH1 0x1 PUSH1 0x1 PUSH1 0x40 SHL SUB DUP3 GT OR PUSH2 0x58E JUMPI PUSH1 0x40 MSTORE JUMP JUMPDEST PUSH1 0x20 DUP2 ADD SWAP1 DUP2 LT PUSH1 0x1 PUSH1 0x1 PUSH1 0x40 SHL SUB DUP3 GT OR PUSH2 0x58E JUMPI PUSH1 0x40 MSTORE JUMP JUMPDEST SWAP1 PUSH1 0x1F DUP1 NOT SWAP2 ADD AND DUP2 ADD SWAP1 DUP2 LT PUSH1 0x1 PUSH1 0x1 PUSH1 0x40 SHL SUB DUP3 GT OR PUSH2 0x58E JUMPI PUSH1 0x40 MSTORE JUMP JUMPDEST SWAP1 PUSH1 0x40 MLOAD SWAP2 DUP3 PUSH0 DUP3 SLOAD SWAP3 PUSH2 0x3C2A DUP5 PUSH2 0x3B18 JUMP JUMPDEST SWAP1 DUP2 DUP5 MSTORE PUSH1 0x1 SWAP5 DUP6 DUP2 AND SWAP1 DUP2 PUSH0 EQ PUSH2 0x3C95 JUMPI POP PUSH1 0x1 EQ PUSH2 0x3C55 JUMPI JUMPDEST POP POP PUSH2 0x3C53 SWAP3 POP SUB DUP4 PUSH2 0x3BF6 JUMP JUMPDEST JUMP JUMPDEST SWAP1 SWAP4 SWAP2 POP PUSH0 MSTORE PUSH1 0x20 SWAP1 DUP2 PUSH0 KECCAK256 SWAP4 PUSH0 SWAP2 JUMPDEST DUP2 DUP4 LT PUSH2 0x3C7D JUMPI POP POP PUSH2 0x3C53 SWAP4 POP DUP3 ADD ADD PUSH0 DUP1 PUSH2 0x3C45 JUMP JUMPDEST DUP6 SLOAD DUP9 DUP5 ADD DUP6 ADD MSTORE SWAP5 DUP6 ADD SWAP5 DUP8 SWAP5 POP SWAP2 DUP4 ADD SWAP2 PUSH2 0x3C65 JUMP JUMPDEST SWAP2 POP POP PUSH2 0x3C53 SWAP5 POP PUSH1 0x20 SWAP3 POP PUSH1 0xFF NOT AND DUP3 DUP5 ADD MSTORE ISZERO ISZERO PUSH1 0x5 SHL DUP3 ADD ADD PUSH0 DUP1 PUSH2 0x3C45 JUMP JUMPDEST SWAP2 SWAP1 DUP3 MLOAD SWAP3 DUP4 DUP3 MSTORE PUSH0 JUMPDEST DUP5 DUP2 LT PUSH2 0x3CE2 JUMPI POP POP DUP3 PUSH0 PUSH1 0x20 DUP1 SWAP5 SWAP6 DUP5 ADD ADD MSTORE PUSH1 0x1F DUP1 NOT SWAP2 ADD AND ADD ADD SWAP1 JUMP JUMPDEST PUSH1 0x20 DUP2 DUP4 ADD DUP2 ADD MLOAD DUP5 DUP4 ADD DUP3 ADD MSTORE ADD PUSH2 0x3CC2 JUMP JUMPDEST PUSH1 0x1 PUSH1 0x1 PUSH1 0x40 SHL SUB DUP2 GT PUSH2 0x58E JUMPI PUSH1 0x1F ADD PUSH1 0x1F NOT AND PUSH1 0x20 ADD SWAP1 JUMP JUMPDEST DUP2 PUSH1 0x1F DUP3 ADD SLT ISZERO PUSH2 0x75A JUMPI DUP1 CALLDATALOAD SWAP1 PUSH2 0x3D28 DUP3 PUSH2 0x3CF6 JUMP JUMPDEST SWAP3 PUSH2 0x3D36 PUSH1 0x40 MLOAD SWAP5 DUP6 PUSH2 0x3BF6 JUMP JUMPDEST DUP3 DUP5 MSTORE PUSH1 0x20 DUP4 DUP4 ADD ADD GT PUSH2 0x75A JUMPI DUP2 PUSH0 SWAP3 PUSH1 0x20 DUP1 SWAP4 ADD DUP4 DUP7 ADD CALLDATACOPY DUP4 ADD ADD MSTORE SWAP1 JUMP JUMPDEST PUSH1 0x1 PUSH1 0x1 PUSH1 0x40 SHL SUB DUP2 GT PUSH2 0x58E JUMPI PUSH1 0x5 SHL PUSH1 0x20 ADD SWAP1 JUMP JUMPDEST DUP2 PUSH1 0x1F DUP3 ADD SLT ISZERO PUSH2 0x75A JUMPI DUP1 CALLDATALOAD SWAP2 PUSH2 0x3D85 DUP4 PUSH2 0x3D57 JUMP JUMPDEST SWAP3 PUSH2 0x3D93 PUSH1 0x40 MLOAD SWAP5 DUP6 PUSH2 0x3BF6 JUMP JUMPDEST DUP1 DUP5 MSTORE PUSH1 0x20 SWAP3 DUP4 DUP1 DUP7 ADD SWAP3 PUSH1 0x5 SHL DUP3 ADD ADD SWAP3 DUP4 GT PUSH2 0x75A JUMPI DUP4 ADD SWAP1 JUMPDEST DUP3 DUP3 LT PUSH2 0x3DBD JUMPI POP POP POP POP SWAP1 JUMP JUMPDEST DUP2 CALLDATALOAD DUP2 MSTORE SWAP1 DUP4 ADD SWAP1 DUP4 ADD PUSH2 0x3DAF JUMP JUMPDEST SWAP1 DUP2 MLOAD DUP1 DUP3 MSTORE PUSH1 0x20 DUP1 DUP1 SWAP4 ADD SWAP4 ADD SWAP2 PUSH0 JUMPDEST DUP3 DUP2 LT PUSH2 0x3DEB JUMPI POP POP POP POP SWAP1 JUMP JUMPDEST DUP4 MLOAD PUSH1 0x1 PUSH1 0x1 PUSH1 0xA0 SHL SUB AND DUP6 MSTORE SWAP4 DUP2 ADD SWAP4 SWAP3 DUP2 ADD SWAP3 PUSH1 0x1 ADD PUSH2 0x3DDD JUMP JUMPDEST SWAP1 DUP2 MLOAD DUP1 DUP3 MSTORE PUSH1 0x20 DUP1 DUP1 SWAP4 ADD SWAP4 ADD SWAP2 PUSH0 JUMPDEST DUP3 DUP2 LT PUSH2 0x3E27 JUMPI POP POP POP POP SWAP1 JUMP JUMPDEST DUP4 MLOAD DUP6 MSTORE SWAP4 DUP2 ADD SWAP4 SWAP3 DUP2 ADD SWAP3 PUSH1 0x1 ADD PUSH2 0x3E19 JUMP JUMPDEST PUSH1 0x40 SWAP1 PUSH1 0x3 NOT ADD SLT PUSH2 0x75A JUMPI PUSH1 0x4 CALLDATALOAD SWAP1 PUSH1 0x24 CALLDATALOAD SWAP1 JUMP JUMPDEST SWAP1 PUSH1 0xD DUP3 LT ISZERO PUSH2 0x1FD4 JUMPI MSTORE JUMP JUMPDEST DUP1 SLOAD DUP3 LT ISZERO PUSH2 0x3E73 JUMPI PUSH0 MSTORE PUSH1 0x20 PUSH0 KECCAK256 ADD SWAP1 PUSH0 SWAP1 JUMP JUMPDEST PUSH4 0x4E487B71 PUSH1 0xE0 SHL PUSH0 MSTORE PUSH1 0x32 PUSH1 0x4 MSTORE PUSH1 0x24 PUSH0 REVERT JUMPDEST SWAP2 SWAP1 DUP3 ADD DUP1 SWAP3 GT PUSH2 0x7C5 JUMPI JUMP JUMPDEST CALLER PUSH0 SWAP1 DUP2 MSTORE PUSH1 0x2 PUSH1 0x20 SWAP1 DUP2 MSTORE PUSH1 0x40 DUP1 DUP4 KECCAK256 DUP1 SLOAD SWAP1 SWAP4 SWAP1 PUSH1 0x1 PUSH1 0x1 PUSH1 0xA0 SHL SUB AND PUSH2 0x3FD5 JUMPI PUSH32 0x48CAC28AD4DC618E15F4C2DD5E97751182F166DE97B25618318B2112AA951A2F SWAP3 SWAP4 POP CALLER DUP2 MSTORE PUSH1 0x2 DUP5 MSTORE PUSH1 0x7 DUP3 DUP3 KECCAK256 CALLER PUSH1 0x1 PUSH1 0x1 PUSH1 0x60 SHL SUB PUSH1 0xA0 SHL DUP3 SLOAD AND OR DUP2 SSTORE PUSH0 PUSH1 0x1 DUP3 ADD PUSH2 0x3F11 PUSH2 0x3F0B DUP3 SLOAD PUSH2 0x3B18 JUMP JUMPDEST DUP3 PUSH2 0x40FF JUMP JUMPDEST SSTORE CALLVALUE PUSH1 0x2 DUP3 ADD SSTORE DUP3 PUSH1 0x3 DUP3 ADD SSTORE PUSH1 0x1 PUSH1 0x4 DUP3 ADD SSTORE DUP3 DUP5 MLOAD PUSH2 0x3F31 DUP2 PUSH2 0x3BDB JUMP JUMPDEST MSTORE PUSH1 0x5 DUP2 ADD DUP1 SLOAD DUP5 DUP3 SSTORE DUP1 PUSH2 0x3FBD JUMPI JUMPDEST POP DUP4 MSTORE DUP3 DUP5 MLOAD PUSH2 0x3F50 DUP2 PUSH2 0x3BDB JUMP JUMPDEST MSTORE PUSH1 0x6 DUP2 ADD DUP1 SLOAD DUP5 DUP3 SSTORE DUP1 PUSH2 0x3FA5 JUMPI JUMPDEST POP DUP4 MSTORE DUP3 DUP5 MLOAD PUSH2 0x3F6F DUP2 PUSH2 0x3BDB JUMP JUMPDEST MSTORE ADD DUP1 SLOAD DUP3 DUP3 SSTORE DUP1 PUSH2 0x3F8D JUMPI JUMPDEST POP DUP2 MSTORE DUP2 MLOAD SWAP4 DUP1 DUP6 MSTORE DUP5 ADD MSTORE CALLER SWAP3 LOG2 JUMP JUMPDEST DUP2 DUP4 MSTORE DUP6 DUP4 KECCAK256 PUSH2 0x3F9F SWAP2 DUP2 ADD SWAP1 PUSH2 0x40E9 JUMP JUMPDEST PUSH0 PUSH2 0x3F7C JUMP JUMPDEST DUP2 DUP6 MSTORE DUP8 DUP6 KECCAK256 PUSH2 0x3FB7 SWAP2 DUP2 ADD SWAP1 PUSH2 0x40E9 JUMP JUMPDEST PUSH0 PUSH2 0x3F60 JUMP JUMPDEST DUP2 DUP6 MSTORE DUP8 DUP6 KECCAK256 PUSH2 0x3FCF SWAP2 DUP2 ADD SWAP1 PUSH2 0x40E9 JUMP JUMPDEST PUSH0 PUSH2 0x3F41 JUMP JUMPDEST POP POP POP PUSH1 0x2 ADD PUSH2 0x3FE6 CALLVALUE DUP3 SLOAD PUSH2 0x3E87 JUMP JUMPDEST SWAP1 SSTORE JUMP JUMPDEST ISZERO PUSH2 0x3FF1 JUMPI JUMP JUMPDEST PUSH1 0x40 MLOAD PUSH3 0x461BCD PUSH1 0xE5 SHL DUP2 MSTORE PUSH1 0x20 PUSH1 0x4 DUP3 ADD MSTORE PUSH1 0x14 PUSH1 0x24 DUP3 ADD MSTORE PUSH20 0x496E73756666696369656E742062616C616E6365 PUSH1 0x60 SHL PUSH1 0x44 DUP3 ADD MSTORE PUSH1 0x64 SWAP1 REVERT JUMPDEST SWAP2 SWAP1 DUP3 SUB SWAP2 DUP3 GT PUSH2 0x7C5 JUMPI JUMP JUMPDEST ISZERO PUSH2 0x4041 JUMPI JUMP JUMPDEST PUSH1 0x64 PUSH1 0x40 MLOAD PUSH3 0x461BCD PUSH1 0xE5 SHL DUP2 MSTORE PUSH1 0x20 PUSH1 0x4 DUP3 ADD MSTORE PUSH1 0x20 PUSH1 0x24 DUP3 ADD MSTORE PUSH32 0x53746172742074696D65206D75737420626520696E2074686520667574757265 PUSH1 0x44 DUP3 ADD MSTORE REVERT JUMPDEST ISZERO PUSH2 0x408C JUMPI JUMP JUMPDEST PUSH1 0x40 MLOAD PUSH3 0x461BCD PUSH1 0xE5 SHL DUP2 MSTORE PUSH1 0x20 PUSH1 0x4 DUP3 ADD MSTORE PUSH1 0x21 PUSH1 0x24 DUP3 ADD MSTORE PUSH32 0x456E642074696D65206D7573742062652061667465722073746172742074696D PUSH1 0x44 DUP3 ADD MSTORE PUSH1 0x65 PUSH1 0xF8 SHL PUSH1 0x64 DUP3 ADD MSTORE PUSH1 0x84 SWAP1 REVERT JUMPDEST PUSH0 NOT DUP2 EQ PUSH2 0x7C5 JUMPI PUSH1 0x1 ADD SWAP1 JUMP JUMPDEST DUP2 DUP2 LT PUSH2 0x40F4 JUMPI POP POP JUMP JUMPDEST PUSH0 DUP2 SSTORE PUSH1 0x1 ADD PUSH2 0x40E9 JUMP JUMPDEST SWAP1 PUSH1 0x1F DUP2 GT PUSH2 0x410C JUMPI POP POP JUMP JUMPDEST PUSH2 0x3C53 SWAP2 PUSH0 MSTORE PUSH1 0x1F PUSH1 0x20 PUSH0 KECCAK256 SWAP2 ADD PUSH1 0x5 SHR DUP2 ADD SWAP1 PUSH2 0x40E9 JUMP JUMPDEST SWAP2 SWAP1 PUSH1 0x1F DUP2 GT PUSH2 0x4134 JUMPI POP POP POP JUMP JUMPDEST PUSH2 0x3C53 SWAP3 PUSH0 MSTORE PUSH1 0x20 PUSH0 KECCAK256 SWAP1 PUSH1 0x20 PUSH1 0x1F DUP5 ADD PUSH1 0x5 SHR DUP4 ADD SWAP4 LT PUSH2 0x415E JUMPI JUMPDEST PUSH1 0x1F ADD PUSH1 0x5 SHR ADD SWAP1 PUSH2 0x40E9 JUMP JUMPDEST SWAP1 SWAP2 POP DUP2 SWAP1 PUSH2 0x4151 JUMP JUMPDEST DUP1 SLOAD PUSH1 0x1 PUSH1 0x40 SHL DUP2 LT ISZERO PUSH2 0x58E JUMPI PUSH2 0x4185 SWAP2 PUSH1 0x1 DUP3 ADD DUP2 SSTORE PUSH2 0x3E5E JUMP JUMPDEST DUP2 SWAP3 SWAP2 SLOAD SWAP1 PUSH1 0x3 SHL SWAP2 DUP3 SHL SWAP2 PUSH0 NOT SWAP1 SHL NOT AND OR SWAP1 SSTORE JUMP JUMPDEST DUP1 MLOAD DUP3 LT ISZERO PUSH2 0x3E73 JUMPI PUSH1 0x20 SWAP2 PUSH1 0x5 SHL ADD ADD SWAP1 JUMP JUMPDEST ISZERO PUSH2 0x41B7 JUMPI JUMP JUMPDEST PUSH1 0x40 MLOAD PUSH3 0x461BCD PUSH1 0xE5 SHL DUP2 MSTORE PUSH1 0x20 PUSH1 0x4 DUP3 ADD MSTORE PUSH1 0x18 PUSH1 0x24 DUP3 ADD MSTORE PUSH32 0x5468697320686173206E6F742073746172746564207965740000000000000000 PUSH1 0x44 DUP3 ADD MSTORE PUSH1 0x64 SWAP1 REVERT JUMPDEST ISZERO PUSH2 0x4203 JUMPI JUMP JUMPDEST PUSH1 0x40 MLOAD PUSH3 0x461BCD PUSH1 0xE5 SHL DUP2 MSTORE PUSH1 0x20 PUSH1 0x4 DUP3 ADD MSTORE PUSH1 0x16 PUSH1 0x24 DUP3 ADD MSTORE PUSH22 0x151A1A5CC81A185CC8185B1C9958591E48195B991959 PUSH1 0x52 SHL PUSH1 0x44 DUP3 ADD MSTORE PUSH1 0x64 SWAP1 REVERT JUMPDEST ISZERO PUSH2 0x4248 JUMPI JUMP JUMPDEST PUSH1 0x40 MLOAD PUSH3 0x461BCD PUSH1 0xE5 SHL DUP2 MSTORE PUSH1 0x20 PUSH1 0x4 DUP3 ADD MSTORE PUSH1 0x13 PUSH1 0x24 DUP3 ADD MSTORE PUSH19 0x155CD95C88191BD95CC81B9BDD08195E1A5CDD PUSH1 0x6A SHL PUSH1 0x44 DUP3 ADD MSTORE PUSH1 0x64 SWAP1 REVERT JUMPDEST SWAP1 DUP2 SLOAD SWAP2 PUSH1 0x1 PUSH1 0x40 SHL DUP4 LT ISZERO PUSH2 0x58E JUMPI DUP3 PUSH2 0x14B8 SWAP2 PUSH1 0x1 PUSH2 0x3C53 SWAP6 ADD DUP2 SSTORE PUSH2 0x3E5E JUMP JUMPDEST SWAP1 PUSH2 0x42B0 DUP3 PUSH2 0x3D57 JUMP JUMPDEST PUSH2 0x42BD PUSH1 0x40 MLOAD SWAP2 DUP3 PUSH2 0x3BF6 JUMP JUMPDEST DUP3 DUP2 MSTORE DUP1 SWAP3 PUSH2 0x42CE PUSH1 0x1F NOT SWAP2 PUSH2 0x3D57 JUMP JUMPDEST ADD SWAP1 PUSH1 0x20 CALLDATASIZE SWAP2 ADD CALLDATACOPY JUMP JUMPDEST PUSH1 0x1 DUP1 PUSH1 0xA0 SHL SUB AND PUSH32 0x48CAC28AD4DC618E15F4C2DD5E97751182F166DE97B25618318B2112AA951A2F PUSH0 DUP3 DUP2 MSTORE PUSH1 0x20 PUSH1 0x2 DUP2 MSTORE PUSH1 0x40 SWAP2 PUSH1 0x7 DUP4 DUP3 KECCAK256 DUP7 PUSH1 0x1 PUSH1 0x1 PUSH1 0x60 SHL SUB PUSH1 0xA0 SHL DUP3 SLOAD AND OR DUP2 SSTORE PUSH0 PUSH1 0x1 DUP3 ADD PUSH2 0x4337 PUSH2 0x3F0B DUP3 SLOAD PUSH2 0x3B18 JUMP JUMPDEST SSTORE DUP3 PUSH1 0x2 DUP3 ADD SSTORE DUP3 PUSH1 0x3 DUP3 ADD SSTORE PUSH1 0x1 PUSH1 0x4 DUP3 ADD SSTORE DUP3 DUP6 MLOAD PUSH2 0x4357 DUP2 PUSH2 0x3BDB JUMP JUMPDEST MSTORE PUSH1 0x5 DUP2 ADD DUP1 SLOAD DUP5 DUP3 SSTORE DUP1 PUSH2 0x43E1 JUMPI JUMPDEST POP DUP4 MSTORE DUP3 DUP6 MLOAD PUSH2 0x4376 DUP2 PUSH2 0x3BDB JUMP JUMPDEST MSTORE PUSH1 0x6 DUP2 ADD DUP1 SLOAD DUP5 DUP3 SSTORE DUP1 PUSH2 0x43C9 JUMPI JUMPDEST POP DUP4 MSTORE DUP3 DUP6 MLOAD PUSH2 0x4395 DUP2 PUSH2 0x3BDB JUMP JUMPDEST MSTORE ADD DUP1 SLOAD DUP3 DUP3 SSTORE DUP1 PUSH2 0x43B1 JUMPI JUMPDEST POP DUP2 MSTORE DUP3 MLOAD SWAP2 DUP1 DUP4 MSTORE DUP3 ADD MSTORE LOG2 JUMP JUMPDEST DUP2 DUP4 MSTORE DUP4 DUP4 KECCAK256 PUSH2 0x43C3 SWAP2 DUP2 ADD SWAP1 PUSH2 0x40E9 JUMP JUMPDEST PUSH0 PUSH2 0x43A2 JUMP JUMPDEST DUP2 DUP6 MSTORE DUP6 DUP6 KECCAK256 PUSH2 0x43DB SWAP2 DUP2 ADD SWAP1 PUSH2 0x40E9 JUMP JUMPDEST PUSH0 PUSH2 0x4386 JUMP JUMPDEST DUP2 DUP6 MSTORE DUP6 DUP6 KECCAK256 PUSH2 0x43F3 SWAP2 DUP2 ADD SWAP1 PUSH2 0x40E9 JUMP JUMPDEST PUSH0 PUSH2 0x4367 JUMP JUMPDEST PUSH1 0xF SLOAD SWAP1 PUSH1 0x1 JUMPDEST DUP3 DUP2 GT ISZERO PUSH2 0x440F JUMPI POP POP POP PUSH0 SWAP1 JUMP JUMPDEST PUSH1 0xFF PUSH0 DUP3 DUP2 MSTORE PUSH1 0x20 SWAP1 PUSH1 0x4 DUP3 MSTORE PUSH1 0x40 SWAP2 DUP3 DUP3 KECCAK256 SWAP1 DUP7 DUP4 MSTORE MSTORE KECCAK256 SLOAD AND PUSH2 0x443C JUMPI PUSH2 0x4437 SWAP1 PUSH2 0x40DB JUMP JUMPDEST PUSH2 0x4400 JUMP JUMPDEST SWAP2 POP POP SWAP1 JUMP JUMPDEST PUSH1 0xF SLOAD SWAP1 PUSH1 0x1 JUMPDEST DUP3 DUP2 GT ISZERO PUSH2 0x4458 JUMPI POP POP POP PUSH0 SWAP1 JUMP JUMPDEST PUSH1 0xFF PUSH0 DUP3 DUP2 MSTORE PUSH1 0x20 SWAP1 PUSH1 0x5 DUP3 MSTORE PUSH1 0x40 SWAP2 DUP3 DUP3 KECCAK256 SWAP1 DUP7 DUP4 MSTORE MSTORE KECCAK256 SLOAD AND PUSH2 0x443C JUMPI PUSH2 0x4480 SWAP1 PUSH2 0x40DB JUMP JUMPDEST PUSH2 0x4449 JUMP JUMPDEST SWAP1 PUSH1 0x40 MLOAD SWAP2 DUP3 DUP2 SLOAD SWAP2 DUP3 DUP3 MSTORE PUSH1 0x20 SWAP3 DUP4 DUP4 ADD SWAP2 PUSH0 MSTORE DUP4 PUSH0 KECCAK256 SWAP4 PUSH0 SWAP1 JUMPDEST DUP3 DUP3 LT PUSH2 0x44B7 JUMPI POP POP POP PUSH2 0x3C53 SWAP3 POP SUB DUP4 PUSH2 0x3BF6 JUMP JUMPDEST DUP6 SLOAD PUSH1 0x1 PUSH1 0x1 PUSH1 0xA0 SHL SUB AND DUP5 MSTORE PUSH1 0x1 SWAP6 DUP7 ADD SWAP6 DUP9 SWAP6 POP SWAP4 DUP2 ADD SWAP4 SWAP1 SWAP2 ADD SWAP1 PUSH2 0x44A1 JUMP JUMPDEST SWAP1 PUSH1 0x40 MLOAD SWAP2 DUP3 DUP2 SLOAD SWAP2 DUP3 DUP3 MSTORE PUSH1 0x20 SWAP3 DUP4 DUP4 ADD SWAP2 PUSH0 MSTORE DUP4 PUSH0 KECCAK256 SWAP4 PUSH0 SWAP1 JUMPDEST DUP3 DUP3 LT PUSH2 0x450C JUMPI POP POP POP PUSH2 0x3C53 SWAP3 POP SUB DUP4 PUSH2 0x3BF6 JUMP JUMPDEST DUP6 SLOAD DUP5 MSTORE PUSH1 0x1 SWAP6 DUP7 ADD SWAP6 DUP9 SWAP6 POP SWAP4 DUP2 ADD SWAP4 SWAP1 SWAP2 ADD SWAP1 PUSH2 0x44F6 JUMP INVALID LOG2 PUSH5 0x6970667358 0x22 SLT KECCAK256 SDIV CODESIZE 0xE5 PUSH7 0xC5B458DC9FA705 POP 0xB4 PUSH26 0xCC62D9D1203D6290E1E25714879776A702AE64736F6C63430008 EQ STOP CALLER "},"methodIdentifiers":{"campaignCount()":"7274e30d","campaignInSpace(uint256,uint256)":"74bb1272","campaigns(uint256)":"141961bc","campaignsByCreator(address,uint256)":"bff78481","createCampaign(string,uint256,uint256,string,string,uint256,uint256,uint256,uint256,uint256,string,bool)":"ff76154f","createEvent(string,uint256,uint256,string,string,uint256,uint256,uint256,uint256,uint256[])":"467069eb","createSpace(string,string,uint8,string,string,string,string,uint256[],uint256[])":"488793c7","deposit()":"d0e30db0","editCampaign(uint256,string,string,string,uint256,uint256,uint256,uint256,uint256,string,bool)":"dafaba4f","editEvent(uint256,string,string,string,uint256,uint256,uint256,uint256,uint256[])":"c9e4f141","eventCount()":"71be2e4a","eventInSpace(uint256,uint256)":"5710d6c0","events(uint256)":"0b791430","eventsByHost(address,uint256)":"a460bc07","finalizeRandomSelection(uint256)":"b76fc16b","getAllCampaignIDs()":"e2b08208","getAllEventIDs()":"7f3a4b3d","getAllSpaceIDs()":"8b903d57","getCampaign(uint256)":"5598f8cc","getCampaignParticipants(uint256)":"8c6ab238","getCampaignsByCreator(address)":"d5b8d84a","getEvent(uint256)":"6d1884e0","getEventParticipants(uint256)":"b50e0182","getEventsByHost(address)":"562c512e","getLeaderboardEntry(uint256,address)":"5e9df36c","getSpace(uint256)":"70e10431","getSpacesByCreator(address)":"aa2399b7","getTotalCounts()":"045af334","getUser(address)":"6f77926b","joinCampaign(uint256)":"d4a82a58","joinEvent(uint256)":"38d361e2","joinSpace(uint256)":"8be9e3c8","spaceCount()":"319ae4b2","spaceLeaderboard(uint256,address)":"834e415c","spaces(uint256)":"7586353b","spacesByCreator(address,uint256)":"c2cd39cf","updateUserName(string)":"af9036a1","userJoinedCampaign(address,uint256)":"03986a31","userJoinedEvent(address,uint256)":"16dc287a","userJoinedSpace(address,uint256)":"cf407595","users(address)":"a87430ba","withdraw(uint256)":"2e1a7d4d"}}}}}