{
  "_format": "hh-sol-artifact-1",
  "contractName": "CampaignContract",
  "sourceName": "src/contracts/Taskon.sol",
  "abi": [
    {
      "inputs": [],
      "stateMutability": "nonpayable",
      "type": "constructor"
    },
    {
      "anonymous": false,
      "inputs": [
        {
          "indexed": false,
          "internalType": "uint256",
          "name": "id",
          "type": "uint256"
        },
        {
          "indexed": true,
          "internalType": "address",
          "name": "creator",
          "type": "address"
        }
      ],
      "name": "CampaignCreated",
      "type": "event"
    },
    {
      "anonymous": false,
      "inputs": [
        {
          "indexed": false,
          "internalType": "uint256",
          "name": "id",
          "type": "uint256"
        },
        {
          "indexed": true,
          "internalType": "address",
          "name": "host",
          "type": "address"
        }
      ],
      "name": "EventCreated",
      "type": "event"
    },
    {
      "anonymous": false,
      "inputs": [
        {
          "indexed": true,
          "internalType": "uint256",
          "name": "campaignId",
          "type": "uint256"
        },
        {
          "indexed": true,
          "internalType": "address",
          "name": "user",
          "type": "address"
        }
      ],
      "name": "JoinedCampaign",
      "type": "event"
    },
    {
      "anonymous": false,
      "inputs": [
        {
          "indexed": true,
          "internalType": "uint256",
          "name": "eventId",
          "type": "uint256"
        },
        {
          "indexed": true,
          "internalType": "address",
          "name": "user",
          "type": "address"
        }
      ],
      "name": "JoinedEvent",
      "type": "event"
    },
    {
      "anonymous": false,
      "inputs": [
        {
          "indexed": true,
          "internalType": "uint256",
          "name": "spaceId",
          "type": "uint256"
        },
        {
          "indexed": true,
          "internalType": "address",
          "name": "user",
          "type": "address"
        }
      ],
      "name": "JoinedSpace",
      "type": "event"
    },
    {
      "anonymous": false,
      "inputs": [
        {
          "indexed": false,
          "internalType": "uint256",
          "name": "id",
          "type": "uint256"
        },
        {
          "indexed": true,
          "internalType": "address",
          "name": "creator",
          "type": "address"
        }
      ],
      "name": "SpaceCreated",
      "type": "event"
    },
    {
      "anonymous": false,
      "inputs": [
        {
          "indexed": true,
          "internalType": "address",
          "name": "userAddress",
          "type": "address"
        },
        {
          "indexed": false,
          "internalType": "string",
          "name": "name",
          "type": "string"
        }
      ],
      "name": "UserRegistered",
      "type": "event"
    },
    {
      "anonymous": false,
      "inputs": [
        {
          "indexed": true,
          "internalType": "address",
          "name": "userAddress",
          "type": "address"
        },
        {
          "indexed": false,
          "internalType": "string",
          "name": "name",
          "type": "string"
        }
      ],
      "name": "UserUpdated",
      "type": "event"
    },
    {
      "inputs": [],
      "name": "campaignCount",
      "outputs": [
        {
          "internalType": "uint256",
          "name": "",
          "type": "uint256"
        }
      ],
      "stateMutability": "view",
      "type": "function"
    },
    {
      "inputs": [
        {
          "internalType": "uint256",
          "name": "",
          "type": "uint256"
        },
        {
          "internalType": "uint256",
          "name": "",
          "type": "uint256"
        }
      ],
      "name": "campaignInSpace",
      "outputs": [
        {
          "internalType": "bool",
          "name": "",
          "type": "bool"
        }
      ],
      "stateMutability": "view",
      "type": "function"
    },
    {
      "inputs": [
        {
          "internalType": "uint256",
          "name": "",
          "type": "uint256"
        }
      ],
      "name": "campaigns",
      "outputs": [
        {
          "internalType": "uint256",
          "name": "id",
          "type": "uint256"
        },
        {
          "internalType": "address",
          "name": "creator",
          "type": "address"
        },
        {
          "internalType": "string",
          "name": "name",
          "type": "string"
        },
        {
          "internalType": "uint256",
          "name": "startTimestamp",
          "type": "uint256"
        },
        {
          "internalType": "uint256",
          "name": "endTimestamp",
          "type": "uint256"
        },
        {
          "internalType": "string",
          "name": "image",
          "type": "string"
        },
        {
          "internalType": "string",
          "name": "description",
          "type": "string"
        },
        {
          "internalType": "uint256",
          "name": "tokenReward",
          "type": "uint256"
        },
        {
          "internalType": "uint256",
          "name": "points",
          "type": "uint256"
        },
        {
          "internalType": "uint256",
          "name": "minimumLevel",
          "type": "uint256"
        },
        {
          "internalType": "uint256",
          "name": "minimumBalance",
          "type": "uint256"
        },
        {
          "internalType": "uint256",
          "name": "numberOfWinners",
          "type": "uint256"
        },
        {
          "internalType": "string",
          "name": "tasksURL",
          "type": "string"
        },
        {
          "internalType": "bool",
          "name": "tasks",
          "type": "bool"
        },
        {
          "internalType": "bool",
          "name": "visibility",
          "type": "bool"
        },
        {
          "internalType": "uint256",
          "name": "randomnessBlockNumber",
          "type": "uint256"
        }
      ],
      "stateMutability": "view",
      "type": "function"
    },
    {
      "inputs": [
        {
          "internalType": "address",
          "name": "",
          "type": "address"
        },
        {
          "internalType": "uint256",
          "name": "",
          "type": "uint256"
        }
      ],
      "name": "campaignsByCreator",
      "outputs": [
        {
          "internalType": "uint256",
          "name": "",
          "type": "uint256"
        }
      ],
      "stateMutability": "view",
      "type": "function"
    },
    {
      "inputs": [
        {
          "internalType": "string",
          "name": "name",
          "type": "string"
        },
        {
          "internalType": "uint256",
          "name": "startTimestamp",
          "type": "uint256"
        },
        {
          "internalType": "uint256",
          "name": "endTimestamp",
          "type": "uint256"
        },
        {
          "internalType": "string",
          "name": "image",
          "type": "string"
        },
        {
          "internalType": "string",
          "name": "description",
          "type": "string"
        },
        {
          "internalType": "uint256",
          "name": "tokenReward",
          "type": "uint256"
        },
        {
          "internalType": "uint256",
          "name": "points",
          "type": "uint256"
        },
        {
          "internalType": "uint256",
          "name": "minimumLevel",
          "type": "uint256"
        },
        {
          "internalType": "uint256",
          "name": "minimumBalance",
          "type": "uint256"
        },
        {
          "internalType": "uint256",
          "name": "numberOfWinners",
          "type": "uint256"
        },
        {
          "internalType": "string",
          "name": "tasksURL",
          "type": "string"
        },
        {
          "internalType": "bool",
          "name": "visibility",
          "type": "bool"
        }
      ],
      "name": "createCampaign",
      "outputs": [],
      "stateMutability": "nonpayable",
      "type": "function"
    },
    {
      "inputs": [
        {
          "internalType": "string",
          "name": "name",
          "type": "string"
        },
        {
          "internalType": "uint256",
          "name": "startTimestamp",
          "type": "uint256"
        },
        {
          "internalType": "uint256",
          "name": "endTimestamp",
          "type": "uint256"
        },
        {
          "internalType": "string",
          "name": "image",
          "type": "string"
        },
        {
          "internalType": "string",
          "name": "description",
          "type": "string"
        },
        {
          "internalType": "uint256",
          "name": "tokenReward",
          "type": "uint256"
        },
        {
          "internalType": "uint256",
          "name": "points",
          "type": "uint256"
        },
        {
          "internalType": "uint256",
          "name": "minimumCampaign",
          "type": "uint256"
        },
        {
          "internalType": "uint256",
          "name": "numberOfWinners",
          "type": "uint256"
        },
        {
          "internalType": "uint256[]",
          "name": "campaignIds",
          "type": "uint256[]"
        }
      ],
      "name": "createEvent",
      "outputs": [],
      "stateMutability": "nonpayable",
      "type": "function"
    },
    {
      "inputs": [
        {
          "internalType": "string",
          "name": "name",
          "type": "string"
        },
        {
          "internalType": "string",
          "name": "image",
          "type": "string"
        },
        {
          "internalType": "enum CampaignContract.ProjectCategory",
          "name": "category",
          "type": "uint8"
        },
        {
          "internalType": "string",
          "name": "officialWebsite",
          "type": "string"
        },
        {
          "internalType": "string",
          "name": "discordLink",
          "type": "string"
        },
        {
          "internalType": "string",
          "name": "telegramLink",
          "type": "string"
        },
        {
          "internalType": "string",
          "name": "description",
          "type": "string"
        },
        {
          "internalType": "uint256[]",
          "name": "campaignIds",
          "type": "uint256[]"
        },
        {
          "internalType": "uint256[]",
          "name": "eventIds",
          "type": "uint256[]"
        }
      ],
      "name": "createSpace",
      "outputs": [],
      "stateMutability": "nonpayable",
      "type": "function"
    },
    {
      "inputs": [],
      "name": "deposit",
      "outputs": [],
      "stateMutability": "payable",
      "type": "function"
    },
    {
      "inputs": [
        {
          "internalType": "uint256",
          "name": "campaignId",
          "type": "uint256"
        },
        {
          "internalType": "string",
          "name": "newName",
          "type": "string"
        },
        {
          "internalType": "string",
          "name": "newImage",
          "type": "string"
        },
        {
          "internalType": "string",
          "name": "newDescription",
          "type": "string"
        },
        {
          "internalType": "uint256",
          "name": "newTokenReward",
          "type": "uint256"
        },
        {
          "internalType": "uint256",
          "name": "newPoints",
          "type": "uint256"
        },
        {
          "internalType": "uint256",
          "name": "newMinimumLevel",
          "type": "uint256"
        },
        {
          "internalType": "uint256",
          "name": "newMinimumBalance",
          "type": "uint256"
        },
        {
          "internalType": "uint256",
          "name": "newNumberOfWinners",
          "type": "uint256"
        },
        {
          "internalType": "string",
          "name": "newTasksURL",
          "type": "string"
        },
        {
          "internalType": "bool",
          "name": "newVisibility",
          "type": "bool"
        }
      ],
      "name": "editCampaign",
      "outputs": [],
      "stateMutability": "nonpayable",
      "type": "function"
    },
    {
      "inputs": [
        {
          "internalType": "uint256",
          "name": "eventId",
          "type": "uint256"
        },
        {
          "internalType": "string",
          "name": "newName",
          "type": "string"
        },
        {
          "internalType": "string",
          "name": "newImage",
          "type": "string"
        },
        {
          "internalType": "string",
          "name": "newDescription",
          "type": "string"
        },
        {
          "internalType": "uint256",
          "name": "newTokenReward",
          "type": "uint256"
        },
        {
          "internalType": "uint256",
          "name": "newPoints",
          "type": "uint256"
        },
        {
          "internalType": "uint256",
          "name": "newMinimumCampaign",
          "type": "uint256"
        },
        {
          "internalType": "uint256",
          "name": "newNumberOfWinners",
          "type": "uint256"
        },
        {
          "internalType": "uint256[]",
          "name": "newCampaignIds",
          "type": "uint256[]"
        }
      ],
      "name": "editEvent",
      "outputs": [],
      "stateMutability": "nonpayable",
      "type": "function"
    },
    {
      "inputs": [],
      "name": "eventCount",
      "outputs": [
        {
          "internalType": "uint256",
          "name": "",
          "type": "uint256"
        }
      ],
      "stateMutability": "view",
      "type": "function"
    },
    {
      "inputs": [
        {
          "internalType": "uint256",
          "name": "",
          "type": "uint256"
        },
        {
          "internalType": "uint256",
          "name": "",
          "type": "uint256"
        }
      ],
      "name": "eventInSpace",
      "outputs": [
        {
          "internalType": "bool",
          "name": "",
          "type": "bool"
        }
      ],
      "stateMutability": "view",
      "type": "function"
    },
    {
      "inputs": [
        {
          "internalType": "uint256",
          "name": "",
          "type": "uint256"
        }
      ],
      "name": "events",
      "outputs": [
        {
          "internalType": "uint256",
          "name": "id",
          "type": "uint256"
        },
        {
          "internalType": "address",
          "name": "host",
          "type": "address"
        },
        {
          "internalType": "string",
          "name": "name",
          "type": "string"
        },
        {
          "internalType": "uint256",
          "name": "startTimestamp",
          "type": "uint256"
        },
        {
          "internalType": "uint256",
          "name": "endTimestamp",
          "type": "uint256"
        },
        {
          "internalType": "string",
          "name": "image",
          "type": "string"
        },
        {
          "internalType": "string",
          "name": "description",
          "type": "string"
        },
        {
          "internalType": "uint256",
          "name": "tokenReward",
          "type": "uint256"
        },
        {
          "internalType": "uint256",
          "name": "points",
          "type": "uint256"
        },
        {
          "internalType": "uint256",
          "name": "minimumCampaign",
          "type": "uint256"
        },
        {
          "internalType": "uint256",
          "name": "numberOfWinners",
          "type": "uint256"
        }
      ],
      "stateMutability": "view",
      "type": "function"
    },
    {
      "inputs": [
        {
          "internalType": "address",
          "name": "",
          "type": "address"
        },
        {
          "internalType": "uint256",
          "name": "",
          "type": "uint256"
        }
      ],
      "name": "eventsByHost",
      "outputs": [
        {
          "internalType": "uint256",
          "name": "",
          "type": "uint256"
        }
      ],
      "stateMutability": "view",
      "type": "function"
    },
    {
      "inputs": [
        {
          "internalType": "uint256",
          "name": "campaignId",
          "type": "uint256"
        }
      ],
      "name": "finalizeRandomSelection",
      "outputs": [],
      "stateMutability": "nonpayable",
      "type": "function"
    },
    {
      "inputs": [],
      "name": "getAllCampaignIDs",
      "outputs": [
        {
          "internalType": "uint256[]",
          "name": "",
          "type": "uint256[]"
        }
      ],
      "stateMutability": "view",
      "type": "function"
    },
    {
      "inputs": [],
      "name": "getAllEventIDs",
      "outputs": [
        {
          "internalType": "uint256[]",
          "name": "",
          "type": "uint256[]"
        }
      ],
      "stateMutability": "view",
      "type": "function"
    },
    {
      "inputs": [],
      "name": "getAllSpaceIDs",
      "outputs": [
        {
          "internalType": "uint256[]",
          "name": "",
          "type": "uint256[]"
        }
      ],
      "stateMutability": "view",
      "type": "function"
    },
    {
      "inputs": [
        {
          "internalType": "uint256",
          "name": "campaignId",
          "type": "uint256"
        }
      ],
      "name": "getCampaign",
      "outputs": [
        {
          "components": [
            {
              "internalType": "uint256",
              "name": "id",
              "type": "uint256"
            },
            {
              "internalType": "address",
              "name": "creator",
              "type": "address"
            },
            {
              "internalType": "string",
              "name": "name",
              "type": "string"
            },
            {
              "internalType": "uint256",
              "name": "startTimestamp",
              "type": "uint256"
            },
            {
              "internalType": "uint256",
              "name": "endTimestamp",
              "type": "uint256"
            },
            {
              "internalType": "string",
              "name": "image",
              "type": "string"
            },
            {
              "internalType": "string",
              "name": "description",
              "type": "string"
            },
            {
              "internalType": "uint256",
              "name": "tokenReward",
              "type": "uint256"
            },
            {
              "internalType": "uint256",
              "name": "points",
              "type": "uint256"
            },
            {
              "internalType": "uint256",
              "name": "minimumLevel",
              "type": "uint256"
            },
            {
              "internalType": "uint256",
              "name": "minimumBalance",
              "type": "uint256"
            },
            {
              "internalType": "uint256",
              "name": "numberOfWinners",
              "type": "uint256"
            },
            {
              "internalType": "string",
              "name": "tasksURL",
              "type": "string"
            },
            {
              "internalType": "bool",
              "name": "tasks",
              "type": "bool"
            },
            {
              "internalType": "bool",
              "name": "visibility",
              "type": "bool"
            },
            {
              "internalType": "address[]",
              "name": "participants",
              "type": "address[]"
            },
            {
              "internalType": "uint256",
              "name": "randomnessBlockNumber",
              "type": "uint256"
            }
          ],
          "internalType": "struct CampaignContract.Campaign",
          "name": "",
          "type": "tuple"
        },
        {
          "internalType": "address[]",
          "name": "",
          "type": "address[]"
        }
      ],
      "stateMutability": "view",
      "type": "function"
    },
    {
      "inputs": [
        {
          "internalType": "uint256",
          "name": "campaignId",
          "type": "uint256"
        }
      ],
      "name": "getCampaignParticipants",
      "outputs": [
        {
          "internalType": "address[]",
          "name": "",
          "type": "address[]"
        }
      ],
      "stateMutability": "view",
      "type": "function"
    },
    {
      "inputs": [
        {
          "internalType": "address",
          "name": "creator",
          "type": "address"
        }
      ],
      "name": "getCampaignsByCreator",
      "outputs": [
        {
          "internalType": "uint256[]",
          "name": "",
          "type": "uint256[]"
        }
      ],
      "stateMutability": "view",
      "type": "function"
    },
    {
      "inputs": [
        {
          "internalType": "uint256",
          "name": "eventId",
          "type": "uint256"
        }
      ],
      "name": "getEvent",
      "outputs": [
        {
          "components": [
            {
              "internalType": "uint256",
              "name": "id",
              "type": "uint256"
            },
            {
              "internalType": "address",
              "name": "host",
              "type": "address"
            },
            {
              "internalType": "string",
              "name": "name",
              "type": "string"
            },
            {
              "internalType": "uint256",
              "name": "startTimestamp",
              "type": "uint256"
            },
            {
              "internalType": "uint256",
              "name": "endTimestamp",
              "type": "uint256"
            },
            {
              "internalType": "string",
              "name": "image",
              "type": "string"
            },
            {
              "internalType": "string",
              "name": "description",
              "type": "string"
            },
            {
              "internalType": "uint256",
              "name": "tokenReward",
              "type": "uint256"
            },
            {
              "internalType": "uint256",
              "name": "points",
              "type": "uint256"
            },
            {
              "internalType": "uint256",
              "name": "minimumCampaign",
              "type": "uint256"
            },
            {
              "internalType": "uint256",
              "name": "numberOfWinners",
              "type": "uint256"
            },
            {
              "internalType": "uint256[]",
              "name": "campaignIds",
              "type": "uint256[]"
            },
            {
              "internalType": "address[]",
              "name": "participants",
              "type": "address[]"
            }
          ],
          "internalType": "struct CampaignContract.Event",
          "name": "",
          "type": "tuple"
        },
        {
          "internalType": "uint256[]",
          "name": "",
          "type": "uint256[]"
        },
        {
          "internalType": "address[]",
          "name": "",
          "type": "address[]"
        }
      ],
      "stateMutability": "view",
      "type": "function"
    },
    {
      "inputs": [
        {
          "internalType": "uint256",
          "name": "eventId",
          "type": "uint256"
        }
      ],
      "name": "getEventParticipants",
      "outputs": [
        {
          "internalType": "address[]",
          "name": "",
          "type": "address[]"
        }
      ],
      "stateMutability": "view",
      "type": "function"
    },
    {
      "inputs": [
        {
          "internalType": "address",
          "name": "host",
          "type": "address"
        }
      ],
      "name": "getEventsByHost",
      "outputs": [
        {
          "internalType": "uint256[]",
          "name": "",
          "type": "uint256[]"
        }
      ],
      "stateMutability": "view",
      "type": "function"
    },
    {
      "inputs": [
        {
          "internalType": "uint256",
          "name": "spaceId",
          "type": "uint256"
        },
        {
          "internalType": "address",
          "name": "userAddress",
          "type": "address"
        }
      ],
      "name": "getLeaderboardEntry",
      "outputs": [
        {
          "components": [
            {
              "internalType": "uint256",
              "name": "campaignsJoined",
              "type": "uint256"
            },
            {
              "internalType": "uint256",
              "name": "eventsJoined",
              "type": "uint256"
            },
            {
              "internalType": "uint256",
              "name": "totalPoints",
              "type": "uint256"
            }
          ],
          "internalType": "struct CampaignContract.LeaderboardEntry",
          "name": "",
          "type": "tuple"
        }
      ],
      "stateMutability": "view",
      "type": "function"
    },
    {
      "inputs": [
        {
          "internalType": "uint256",
          "name": "spaceId",
          "type": "uint256"
        }
      ],
      "name": "getSpace",
      "outputs": [
        {
          "components": [
            {
              "internalType": "string",
              "name": "name",
              "type": "string"
            },
            {
              "internalType": "address",
              "name": "creator",
              "type": "address"
            },
            {
              "internalType": "string",
              "name": "image",
              "type": "string"
            },
            {
              "internalType": "enum CampaignContract.ProjectCategory",
              "name": "category",
              "type": "uint8"
            },
            {
              "internalType": "string",
              "name": "officialWebsite",
              "type": "string"
            },
            {
              "internalType": "string",
              "name": "discordLink",
              "type": "string"
            },
            {
              "internalType": "string",
              "name": "telegramLink",
              "type": "string"
            },
            {
              "internalType": "string",
              "name": "description",
              "type": "string"
            },
            {
              "internalType": "address[]",
              "name": "followers",
              "type": "address[]"
            },
            {
              "internalType": "uint256[]",
              "name": "campaigns",
              "type": "uint256[]"
            },
            {
              "internalType": "uint256[]",
              "name": "events",
              "type": "uint256[]"
            }
          ],
          "internalType": "struct CampaignContract.Space",
          "name": "",
          "type": "tuple"
        },
        {
          "internalType": "address[]",
          "name": "",
          "type": "address[]"
        },
        {
          "internalType": "uint256[]",
          "name": "",
          "type": "uint256[]"
        },
        {
          "internalType": "uint256[]",
          "name": "",
          "type": "uint256[]"
        }
      ],
      "stateMutability": "view",
      "type": "function"
    },
    {
      "inputs": [
        {
          "internalType": "address",
          "name": "creator",
          "type": "address"
        }
      ],
      "name": "getSpacesByCreator",
      "outputs": [
        {
          "internalType": "uint256[]",
          "name": "",
          "type": "uint256[]"
        }
      ],
      "stateMutability": "view",
      "type": "function"
    },
    {
      "inputs": [],
      "name": "getTotalCounts",
      "outputs": [
        {
          "internalType": "uint256",
          "name": "",
          "type": "uint256"
        },
        {
          "internalType": "uint256",
          "name": "",
          "type": "uint256"
        },
        {
          "internalType": "uint256",
          "name": "",
          "type": "uint256"
        }
      ],
      "stateMutability": "view",
      "type": "function"
    },
    {
      "inputs": [
        {
          "internalType": "address",
          "name": "userAddress",
          "type": "address"
        }
      ],
      "name": "getUser",
      "outputs": [
        {
          "components": [
            {
              "internalType": "address",
              "name": "userAddress",
              "type": "address"
            },
            {
              "internalType": "string",
              "name": "name",
              "type": "string"
            },
            {
              "internalType": "uint256",
              "name": "assets",
              "type": "uint256"
            },
            {
              "internalType": "uint256",
              "name": "points",
              "type": "uint256"
            },
            {
              "internalType": "uint256",
              "name": "level",
              "type": "uint256"
            },
            {
              "internalType": "uint256[]",
              "name": "spaceJoined",
              "type": "uint256[]"
            },
            {
              "internalType": "uint256[]",
              "name": "campaignsJoined",
              "type": "uint256[]"
            },
            {
              "internalType": "uint256[]",
              "name": "eventsJoined",
              "type": "uint256[]"
            }
          ],
          "internalType": "struct CampaignContract.User",
          "name": "",
          "type": "tuple"
        }
      ],
      "stateMutability": "view",
      "type": "function"
    },
    {
      "inputs": [
        {
          "internalType": "uint256",
          "name": "campaignId",
          "type": "uint256"
        }
      ],
      "name": "joinCampaign",
      "outputs": [],
      "stateMutability": "nonpayable",
      "type": "function"
    },
    {
      "inputs": [
        {
          "internalType": "uint256",
          "name": "eventId",
          "type": "uint256"
        }
      ],
      "name": "joinEvent",
      "outputs": [],
      "stateMutability": "nonpayable",
      "type": "function"
    },
    {
      "inputs": [
        {
          "internalType": "uint256",
          "name": "spaceId",
          "type": "uint256"
        }
      ],
      "name": "joinSpace",
      "outputs": [],
      "stateMutability": "nonpayable",
      "type": "function"
    },
    {
      "inputs": [],
      "name": "spaceCount",
      "outputs": [
        {
          "internalType": "uint256",
          "name": "",
          "type": "uint256"
        }
      ],
      "stateMutability": "view",
      "type": "function"
    },
    {
      "inputs": [
        {
          "internalType": "uint256",
          "name": "",
          "type": "uint256"
        },
        {
          "internalType": "address",
          "name": "",
          "type": "address"
        }
      ],
      "name": "spaceLeaderboard",
      "outputs": [
        {
          "internalType": "uint256",
          "name": "campaignsJoined",
          "type": "uint256"
        },
        {
          "internalType": "uint256",
          "name": "eventsJoined",
          "type": "uint256"
        },
        {
          "internalType": "uint256",
          "name": "totalPoints",
          "type": "uint256"
        }
      ],
      "stateMutability": "view",
      "type": "function"
    },
    {
      "inputs": [
        {
          "internalType": "uint256",
          "name": "",
          "type": "uint256"
        }
      ],
      "name": "spaces",
      "outputs": [
        {
          "internalType": "string",
          "name": "name",
          "type": "string"
        },
        {
          "internalType": "address",
          "name": "creator",
          "type": "address"
        },
        {
          "internalType": "string",
          "name": "image",
          "type": "string"
        },
        {
          "internalType": "enum CampaignContract.ProjectCategory",
          "name": "category",
          "type": "uint8"
        },
        {
          "internalType": "string",
          "name": "officialWebsite",
          "type": "string"
        },
        {
          "internalType": "string",
          "name": "discordLink",
          "type": "string"
        },
        {
          "internalType": "string",
          "name": "telegramLink",
          "type": "string"
        },
        {
          "internalType": "string",
          "name": "description",
          "type": "string"
        }
      ],
      "stateMutability": "view",
      "type": "function"
    },
    {
      "inputs": [
        {
          "internalType": "address",
          "name": "",
          "type": "address"
        },
        {
          "internalType": "uint256",
          "name": "",
          "type": "uint256"
        }
      ],
      "name": "spacesByCreator",
      "outputs": [
        {
          "internalType": "uint256",
          "name": "",
          "type": "uint256"
        }
      ],
      "stateMutability": "view",
      "type": "function"
    },
    {
      "inputs": [
        {
          "internalType": "string",
          "name": "newName",
          "type": "string"
        }
      ],
      "name": "updateUserName",
      "outputs": [],
      "stateMutability": "nonpayable",
      "type": "function"
    },
    {
      "inputs": [
        {
          "internalType": "address",
          "name": "",
          "type": "address"
        },
        {
          "internalType": "uint256",
          "name": "",
          "type": "uint256"
        }
      ],
      "name": "userJoinedCampaign",
      "outputs": [
        {
          "internalType": "bool",
          "name": "",
          "type": "bool"
        }
      ],
      "stateMutability": "view",
      "type": "function"
    },
    {
      "inputs": [
        {
          "internalType": "address",
          "name": "",
          "type": "address"
        },
        {
          "internalType": "uint256",
          "name": "",
          "type": "uint256"
        }
      ],
      "name": "userJoinedEvent",
      "outputs": [
        {
          "internalType": "bool",
          "name": "",
          "type": "bool"
        }
      ],
      "stateMutability": "view",
      "type": "function"
    },
    {
      "inputs": [
        {
          "internalType": "address",
          "name": "",
          "type": "address"
        },
        {
          "internalType": "uint256",
          "name": "",
          "type": "uint256"
        }
      ],
      "name": "userJoinedSpace",
      "outputs": [
        {
          "internalType": "bool",
          "name": "",
          "type": "bool"
        }
      ],
      "stateMutability": "view",
      "type": "function"
    },
    {
      "inputs": [
        {
          "internalType": "address",
          "name": "",
          "type": "address"
        }
      ],
      "name": "users",
      "outputs": [
        {
          "internalType": "address",
          "name": "userAddress",
          "type": "address"
        },
        {
          "internalType": "string",
          "name": "name",
          "type": "string"
        },
        {
          "internalType": "uint256",
          "name": "assets",
          "type": "uint256"
        },
        {
          "internalType": "uint256",
          "name": "points",
          "type": "uint256"
        },
        {
          "internalType": "uint256",
          "name": "level",
          "type": "uint256"
        }
      ],
      "stateMutability": "view",
      "type": "function"
    },
    {
      "inputs": [
        {
          "internalType": "uint256",
          "name": "amount",
          "type": "uint256"
        }
      ],
      "name": "withdraw",
      "outputs": [],
      "stateMutability": "nonpayable",
      "type": "function"
    },
    {
      "stateMutability": "payable",
      "type": "receive"
    }
  ],
  "bytecode": "0x608080604052346100165761455c908161001b8239f35b5f80fdfe6080806040526004361015610024575b50361561001a575f80fd5b610022613e94565b005b5f3560e01c90816303986a3114613aa857508063045af33414613a775780630b79143014613990578063141961bc1461385057806316dc287a146138075780632e1a7d4d146136fe578063319ae4b2146136e157806338d361e21461347b578063467069eb14612fb8578063488793c7146127e35780635598f8cc146124e4578063562c512e146124ac5780635710d6c0146124785780635e9df36c146123e65780636d1884e0146121505780636f77926b14611fe857806370e1043114611d2657806371be2e4a14611d095780637274e30d14611cec57806374bb127214611cb85780637586353b14611bb85780637f3a4b3d14611b5b578063834e415c14611af65780638b903d5714611a995780638be9e3c8146119905780638c6ab23814611964578063a460bc071461191b578063a87430ba1461189b578063aa2399b714611863578063af9036a1146116a8578063b50e018214611667578063b76fc16b14611344578063bff78481146112fb578063c2cd39cf146112a4578063c9e4f14114610f07578063cf40759514610ebe578063d0e30db014610eab578063d4a82a5814610c91578063d5b8d84a14610c45578063dafaba4f146107d9578063e2b082081461075e5763ff76154f146101fe575f61000f565b3461075a5761018036600319011261075a576004356001600160401b03811161075a5761022f903690600401613d11565b6064356001600160401b03811161075a5761024e903690600401613d11565b906084356001600160401b03811161075a5761026e903690600401613d11565b90610144356001600160401b03811161075a5761028f903690600401613d11565b90610164351515610164350361075a576102ad42602435101561403a565b6102bc60243560443511614085565b335f52600260205260a435600260405f2001541061070657335f526002602052600260405f20016102f060a435825461402d565b90556102fd600d546140db565b9081600d55815f525f60205260405f2091825560018201336001600160601b0360a01b8254161790558051906001600160401b03821161058e5781906103538261034a6002870154613b18565b60028701614125565b602090601f8311600114610698575f9261068d575b50508160011b915f199060031b1c19161760028201555b6024356003820155604435600482015583516001600160401b03811161058e576103b9816103b06005850154613b18565b60058501614125565b6020601f82116001146106225781929394955f92610617575b50508160011b915f199060031b1c19161760058201555b82516001600160401b03811161058e576104138161040a6006850154613b18565b60068501614125565b6020601f82116001146105ad57819293945f926105a2575b50508160011b915f199060031b1c19161760068201555b60a435600782015560c435600882015560e435600982015561010435600a82015561012435600b820155600c810182516001600160401b03811161058e576104948161048e8454613b18565b84614125565b6020601f821160011461052c57819293945f92610521575b50508160011b915f199060031b1c19161790555b600d8101805461ff00191661016435151560081b61ff0016179055335f5260096020526104f260405f20825490614168565b546040519081527f633109eec20320eded000fc1e2634211aa7e92ba3f5b15faf6dcdafca05094e460203392a2005b015190505f806104ac565b601f19821690835f5260205f20915f5b8181106105765750958360019596971061055e575b505050811b0190556104c0565b01515f1960f88460031b161c191690555f8080610551565b9192602060018192868b01518155019401920161053c565b634e487b7160e01b5f52604160045260245ffd5b015190505f8061042b565b600683015f5260205f20905f5b601f19841681106105ff5750600193949583601f198116106105e7575b505050811b016006820155610442565b01515f1960f88460031b161c191690555f80806105d7565b9091602060018192858a0151815501930191016105ba565b015190505f806103d2565b600583015f5260205f20905f5b601f1984168110610675575060019394959683601f1981161061065d575b505050811b0160058201556103e9565b01515f1960f88460031b161c191690555f808061064d565b9091602060018192858b01518155019301910161062f565b015190505f80610368565b9250600284015f5260205f20905f935b601f19841685106106eb576001945083601f198116106106d3575b505050811b01600282015561037f565b01515f1960f88460031b161c191690555f80806106c3565b818101518355602094850194600190930192909101906106a8565b60405162461bcd60e51b815260206004820152602660248201527f496e73756666696369656e742061737365747320746f2063726561746520636160448201526536b830b4b3b760d11b6064820152608490fd5b5f80fd5b3461075a575f36600319011261075a57600d5461077a816142a6565b9060015b818111156107a0576040516020808252819061079c90820186613e08565b0390f35b5f198101908082116107c557806107ba6107c0938661419c565b526140db565b61077e565b634e487b7160e01b5f52601160045260245ffd5b3461075a5761016036600319011261075a576001600160401b036024803582811161075a5761080c903690600401613d11565b9060443583811161075a57610825903690600401613d11565b9060643584811161075a5761083e903690600401613d11565b926101243585811161075a57610858903690600401613d11565b936101443594851515860361075a576004355f526020915f835260405f209560019460018060a01b0386890154163303610bf157805160028901918b8211610bde5781906108b0826108aa8654613b18565b86614125565b8790601f8311600114610b7f575f92610b74575b50505f19600383901b1c191690871b1790555b805160058801918a8211610b615781906108f5826108aa8654613b18565b8690601f8311600114610b02575f92610af7575b50505f19600383901b1c191690861b1790555b80516006870191898211610ae457819061093a826108aa8654613b18565b8590601f8311600114610a85575f92610a7a575b50505f19600383901b1c191690851b1790555b608435600786015560a435600886015560c435600986015560e435600a86015561010435600b860155600c8501938151978811610a6757506109a7876108aa8654613b18565b81601f88116001146109fd57509580600d9594938193610022995f946109f2575b50501b915f199060031b1c19161790555b019061ff00825491151560081b169061ff001916179055565b0151925089806109c8565b9190601f198816855f52835f20935f905b828210610a5057505091600d9695949391896100229a9410610a38575b505050811b0190556109d9565b01515f1960f88460031b161c19169055878080610a2b565b808786978294978701518155019601940190610a0e565b634e487b7160e01b5f9081526041600452fd5b015190508a8061094e565b90879350601f19831691855f52875f20925f5b89828210610ace5750508411610ab6575b505050811b019055610961565b01515f1960f88460031b161c191690558a8080610aa9565b8385015186558b97909501949384019301610a98565b86634e487b7160e01b5f5260416004525ffd5b015190508b80610909565b90889350601f19831691855f52885f20925f5b8a828210610b4b5750508411610b33575b505050811b01905561091c565b01515f1960f88460031b161c191690558b8080610b26565b8385015186558c97909501949384019301610b15565b87634e487b7160e01b5f5260416004525ffd5b015190508c806108c4565b90899350601f19831691855f52895f20925f5b8b828210610bc85750508411610bb0575b505050811b0190556108d7565b01515f1960f88460031b161c191690558c8080610ba3565b8385015186558d97909501949384019301610b92565b88634e487b7160e01b5f5260416004525ffd5b60405162461bcd60e51b8152600481018690526027818901527f4f6e6c79207468652063726561746f722063616e20656469742074686973206360448201526630b6b830b4b3b760c91b6064820152608490fd5b3461075a57602036600319011261075a576001600160a01b03610c66613aec565b165f52600960205261079c610c7d60405f206144da565b604051918291602083526020830190613e08565b3461075a5760208060031936011261075a5760043590815f525f8152610cd260405f20610cca60046003830154920154914210156141b0565b4211156141fc565b335f526002808252610d0460018060a01b038060405f20541615610e9d575b335f5282845260405f2054161515614241565b335f526006825260405f20835f52825260ff60405f205416610e5857825f525f825260405f20335f52818352600460405f200154600982015411610e1e57610d6c90335f52828452610d628360405f200154600a8301541115613fea565b600e339101614283565b335f52808252610d8283600660405f2001614168565b610d8b836143f9565b80610dda575b5050335f526006815260405f2090825f525260405f20600160ff1982541617905533907f0a8cb7ec996af5cd17d263f3dcdf80ca63fb4cef1b4312a18c70c8f533597f3b5f80a3005b5f52600c825260405f20335f528252610e1560405f2091610dfb83546140db565b8355845f525f8452600860405f2001549201918254613e87565b90558280610d91565b60405162461bcd60e51b815260048101849052601260248201527155736572206c6576656c20746f6f206c6f7760701b6044820152606490fd5b60405162461bcd60e51b815260048101839052601c60248201527f416c7265616479206a6f696e656420746869732063616d706169676e000000006044820152606490fd5b610ea6336142d8565b610cf1565b5f36600319011261075a57610022613e94565b3461075a57604036600319011261075a576001600160a01b03610edf613aec565b165f52600860205260405f206024355f52602052602060ff60405f2054166040519015158152f35b3461075a5761012036600319011261075a5760246001600160401b03813581811161075a57610f3a903690600401613d11565b9160443582811161075a57610f53903690600401613d11565b60643583811161075a57610f6b903690600401613d11565b936101043584811161075a57610f85903690600401613d6e565b906004355f5260019560209387855260405f209260018060a01b03898501541633036112565780516002850191898211610bde578190610fc9826108aa8654613b18565b8890601f83116001146111ee575f926111e3575b50505f19600383901b1c1916908a1b1790555b80516005840191888211610b6157819061100e826108aa8654613b18565b8790601f8311600114611184575f92611179575b50505f19600383901b1c191690891b1790555b80516006830191878211610ae457611057826110518554613b18565b85614125565b8590601f831160011461111557600b949392915f918361110a575b50505f19600383901b1c191690891b1790555b608435600782015560a435600882015560c435600982015560e435600a82015501928151948511610a6757600160401b8511610a675750819083548585558086106110ef575b5001915f52805f205f5b8481106110de57005b8351828201559282019285016110d5565b61110490855f5286845f2091820191016140e9565b866110cb565b015190508a80611072565b9392918991601f19821690845f52885f20915f5b8a8282106111635750509683600b981061114b575b505050811b019055611085565b01515f1960f88460031b161c191690558a808061113e565b838a015185558e96909401939283019201611129565b015190508a80611022565b908b9350601f19831691855f52895f20925f5b8b8282106111cd57505084116111b5575b505050811b019055611035565b01515f1960f88460031b161c191690558a80806111a8565b8385015186558f97909501949384019301611197565b015190508b80610fdd565b908c9350601f19831691855f528a5f20925f5b8c828210611237575050841161121f575b505050811b019055610ff0565b01515f1960f88460031b161c191690558b8080611212565b91929395968291958786015181550195019301908e9594939291611201565b60405162461bcd60e51b8152600481018790526021818901527f4f6e6c792074686520686f73742063616e20656469742074686973206576656e6044820152601d60fa1b6064820152608490fd5b3461075a57604036600319011261075a576112bd613aec565b6001600160a01b03165f908152600b602052604090208054602435919082101561075a576020916112ed91613e5e565b90546040519160031b1c8152f35b3461075a57604036600319011261075a57611314613aec565b6001600160a01b03165f9081526009602052604090208054602435919082101561075a576020916112ed91613e5e565b3461075a57602036600319011261075a576004355f525f60205260405f20600481015442111561162257600f810154804311156115dd57600e8201549182156115a65781401561156157600b8101549283158015611558575b611550575b505f5b8381106113ae57005b604051602081019084408252826040820152604081526113cd81613b6c565b51902090600e830154801561153c576113eb818406600e8601613e5e565b905460018060a01b03818360031b1c165f52600260205260405f206007870154891561153c576114228a6002840192048254613e87565b9055611438600360088901549201918254613e87565b905560018060a01b039160031b1c165f52600260205260405f20606460038201540490600a808311611533575b506004018054821161152b575b5050600e8401545f1993908481019081116107c5576114d79261149b6114b892600e8901613e5e565b905460039190911b1c6001600160a01b03169206600e8701613e5e565b90919082549060031b9160018060a01b03809116831b921b1916179055565b600e8301549182156115175761151292016114f581600e8601613e5e565b81549060018060a01b039060031b1b19169055600e8401556140db565b6113a5565b634e487b7160e01b5f52603160045260245ffd5b558680611472565b91506004611465565b634e487b7160e01b5f52601260045260245ffd5b9250836113a2565b5080841161139d565b60405162461bcd60e51b815260206004820152601760248201527f426c6f636b68617368206e6f7420617661696c61626c650000000000000000006044820152606490fd5b60405162461bcd60e51b815260206004820152600f60248201526e4e6f207061727469636970616e747360881b6044820152606490fd5b60405162461bcd60e51b815260206004820152601c60248201527f52616e646f6d6e65737320626c6f636b206e6f742072656163686564000000006044820152606490fd5b60405162461bcd60e51b815260206004820152601a60248201527f43616d706169676e20686173206e6f7420656e646564207965740000000000006044820152606490fd5b3461075a57602036600319011261075a576004355f52600160205261079c611694600c60405f2001614485565b604051918291602083526020830190613dcc565b3461075a5760208060031936011261075a576001600160401b0360043581811161075a576116da903690600401613d11565b335f9081526002845260409020546116fc906001600160a01b03161515614241565b80511561181e57335f526002835260018060405f200190825193841161058e5761172a8461048e8454613b18565b84601f851160011461179b5793808061178b9594937fd6136f3cad7c60bfc24bbf1548f39f766ca8bce104bf9adde3deb6237dec51df975f93611790575b501b915f199060031b1c19161790555b6040519182918583523395830190613cb8565b0390a2005b860151925089611768565b601f19851690835f52865f20915f5b8882821061180a5750509186917fd6136f3cad7c60bfc24bbf1548f39f766ca8bce104bf9adde3deb6237dec51df9761178b97969594106117f2575b5050811b019055611778565b8501515f1960f88460031b161c1916905587806117e6565b8784015185559385019392830192016117aa565b60405162461bcd60e51b815260048101849052601860248201527f4e6577206e616d652063616e6e6f7420626520656d70747900000000000000006044820152606490fd5b3461075a57602036600319011261075a576001600160a01b03611884613aec565b165f52600b60205261079c610c7d60405f206144da565b3461075a57602036600319011261075a576001600160a01b03806118bd613aec565b165f52600260205260405f20908154166118d960018301613c17565b916002810154906004600382015491015490611907604051958695865260a0602087015260a0860190613cb8565b926040850152606084015260808301520390f35b3461075a57604036600319011261075a57611934613aec565b6001600160a01b03165f908152600a602052604090208054602435919082101561075a576020916112ed91613e5e565b3461075a57602036600319011261075a576004355f525f60205261079c611694600e60405f2001614485565b3461075a5760208060031936011261075a5760043590335f52600281526119c460018060a01b0360405f2054161515614241565b335f526008815260405f20825f52815260ff60405f205416611a5557815f52600381526119f733600860405f2001614283565b335f5260028152611a0e82600560405f2001614168565b335f526008815260405f2090825f525260405f20600160ff1982541617905533907f54b395d5e852d463801b391aac280c017d177c680b3b860fe2b47266a86bcb5f5f80a3005b6064906040519062461bcd60e51b82526004820152601960248201527f416c7265616479206a6f696e65642074686973207370616365000000000000006044820152fd5b3461075a575f36600319011261075a57600f54611ab5816142a6565b9060015b81811115611ad7576040516020808252819061079c90820186613e08565b5f198101908082116107c557806107ba611af1938661419c565b611ab9565b3461075a57604036600319011261075a57611b0f613b02565b6004355f52600c60205260405f209060018060a01b03165f5260205260405f20805461079c60026001840154930154604051938493846040919493926060820195825260208201520152565b3461075a575f36600319011261075a57600e54611b77816142a6565b9060015b81811115611b99576040516020808252819061079c90820186613e08565b5f198101908082116107c557806107ba611bb3938661419c565b611b7b565b3461075a57602036600319011261075a576004355f52600360205260405f20611be081613c17565b60018201546001600160a01b031691611bfb60028201613c17565b90600381015460ff1660048201611c1190613c17565b611c1d60058401613c17565b91611c2a60068501613c17565b93600701611c3790613c17565b94604051978897610100808a528901611c4f91613cb8565b9060208901528781036040890152611c6691613cb8565b9060608701611c7491613e51565b8581036080870152611c8591613cb8565b84810360a0860152611c9691613cb8565b83810360c0850152611ca791613cb8565b82810360e084015261079c91613cb8565b3461075a57611cc636613e3b565b905f52600460205260405f20905f52602052602060ff60405f2054166040519015158152f35b3461075a575f36600319011261075a576020600d54604051908152f35b3461075a575f36600319011261075a576020600e54604051908152f35b3461075a57602036600319011261075a576060610140604051611d4881613bbf565b8281525f60208201528260408201525f838201528260808201528260a08201528260c08201528260e0820152826101008201528261012082015201526004355f52600360205260405f20604051611d9e81613bbf565b611da782613c17565b815260018201546001600160a01b03166020820152611dc860028301613c17565b604082015260ff600383015416600d811015611fd457611faa9261079c916060840152611df760048201613c17565b6080840152611e0860058201613c17565b60a0840152611e1960068201613c17565b60c0840152611e2a60078201613c17565b60e0840152611e3b60088201614485565b610100840152611e4d600982016144da565b610120840152611e5f600a82016144da565b610140840152611fc6611e7460088301614485565b91611fb8611e90600a611e89600985016144da565b93016144da565b9360405197889760808952610140611f95611f7d611f65611f4c8d611f35611f1e611ef5611ecc8a5161016060808701526101e0860190613cb8565b60208b01516001600160a01b031660a086015260408b0151858203607f190160c0870152613cb8565b611f0760608b015160e0860190613e51565b60808a0151848203607f1901610100860152613cb8565b60a0890151838203607f1901610120850152613cb8565b9060c08801519087607f1982850301910152613cb8565b8d60e087015190610160607f1982850301910152613cb8565b6101008501518d8203607f19016101808f0152613dcc565b6101208401518c8203607f19016101a08e0152613e08565b910151898203607f19016101c08b0152613e08565b908782036020890152613dcc565b908582036040870152613e08565b908382036060850152613e08565b634e487b7160e01b5f52602160045260245ffd5b3461075a5760208060031936011261075a57612002613aec565b61079c60e060405161201381613ba3565b5f8152606091818387819401525f60408201525f838201525f60808201528260a08201528260c0820152015260018060a01b038093165f526002845260405f209060405161206081613ba3565b84835416815261214061207560018501613c17565b9387830194855261212f600282015494604085019586526003830154818601908152600484015490608087019182526120b0600586016144da565b9260a088019384526121086120da60076120cc60068a016144da565b9860c08c01998a52016144da565b9a60e08a019b8c526040519e8f9e8f9b828d525116908b0152516101206101009a8b60408201520190613cb8565b9851908c01525160808b01525160a08a01525194601f1995868a83030160c08b0152613e08565b9051848883030160e0890152613e08565b9251918584030190850152613e08565b3461075a57602036600319011261075a57606061018060405161217281613b87565b5f81525f60208201528260408201525f838201525f60808201528260a08201528260c08201525f60e08201525f6101008201525f6101208201525f6101408201528261016082015201526004355f52600160205260405f2060018060a01b0360018201541680156123af5761079c61239392604051926121f184613b87565b81548452602084015261220660028201613c17565b6040840152600381015460608401526004810154608084015261222b60058201613c17565b60a084015261223c60068201613c17565b60c0840152600781015460e084015260088101546101008401526009810154610120840152600a810154610140840152612278600b82016144da565b61016084015261228a600c8201614485565b6101808401526123a16122ab600c6122a4600b85016144da565b9301614485565b91604051958695606087528051606088015260018060a01b03602082015116608088015261018061237e6123396123226122f78b6101a060a060408901519201526102008d0190613cb8565b606086015160c08d0152608086015160e08d015260a08601518c8203605f19016101008e0152613cb8565b60c08501518b8203605f19016101208d0152613cb8565b60e08401516101408b01526101008401516101608b0152610120840151838b01526101408401516101a08b0152610160840151605f198b8303016101c08c0152613e08565b910151878203605f19016101e0890152613dcc565b908582036020870152613e08565b908382036040850152613dcc565b60405162461bcd60e51b815260206004820152600f60248201526e115d995b9d081b9bdd08199bdd5b99608a1b6044820152606490fd5b3461075a57604036600319011261075a576123ff613b02565b5f6040805161240d81613b6c565b82815282602082015201526004355f52600c60205260405f209060018060a01b03165f52602052606060405f2060405161244681613b6c565b815491828252604060026001830154926020850193845201549201918252604051928352516020830152516040820152f35b3461075a5761248636613e3b565b905f52600560205260405f20905f52602052602060ff60405f2054166040519015158152f35b3461075a57602036600319011261075a576001600160a01b036124cd613aec565b165f52600a60205261079c610c7d60405f206144da565b3461075a57602036600319011261075a575f61020060405161250581613b50565b82815282602082015260606040820152826060820152826080820152606060a0820152606060c08201528260e0820152826101008201528261012082015282610140820152826101608201526060610180820152826101a0820152826101c082015260606101e082015201526004355f525f60205260405f2060018060a01b036001820154169081156127a957600e61267d91604051936125a585613b50565b8154855260208501526125ba60028201613c17565b604085015260038101546060850152600481015460808501526125df60058201613c17565b60a08501526125f060068201613c17565b60c0850152600781015460e085015260088101546101008501526009810154610120850152600a810154610140850152600b810154610160850152612637600c8201613c17565b61018085015260ff600d82015481811615156101a087015260081c1615156101c0850152612666828201614485565b6101e0850152600f81015461020085015201614485565b61079c604051928392604084528151604085015260018060a01b03602083015116606085015261020061279361276161270e6126f76126cd604088015161022060808c01526102608b0190613cb8565b606088015160a08b0152608088015160c08b015260a0880151603f198b83030160e08c0152613cb8565b60c0870151898203603f19016101008b0152613cb8565b60e08601516101208901526101008601516101408901526101208601516101608901526101408601516101808901526101608601516101a0890152610180860151603f19898303016101c08a0152613cb8565b6101a085015115156101e08801526101c08501511515838801526101e0850151603f1988830301610220890152613dcc565b9201516102408501528382036020850152613dcc565b60405162461bcd60e51b815260206004820152601260248201527110d85b5c185a59db881b9bdd08199bdd5b9960721b6044820152606490fd5b3461075a5761012036600319011261075a576004356001600160401b03811161075a57612814903690600401613d11565b6024356001600160401b03811161075a57612833903690600401613d11565b90600d604435101561075a576064356001600160401b03811161075a5761285e903690600401613d11565b916084356001600160401b03811161075a5761287e903690600401613d11565b9260a4356001600160401b03811161075a5761289e903690600401613d11565b60c4356001600160401b03811161075a576128bd903690600401613d11565b9460e4356001600160401b03811161075a576128dd903690600401613d6e565b92610104356001600160401b03811161075a576128fe903690600401613d6e565b9461290a600f546140db565b80600f555f52600360205260405f20968051906001600160401b03821161058e5781906129418261293b8c54613b18565b8c614125565b602090601f8311600114612f50575f92612f45575b50508160011b915f199060031b1c19161787555b6001870180546001600160a01b031916331790558051906001600160401b03821161058e5781906129ab826129a260028c0154613b18565b60028c01614125565b602090601f8311600114612ed7575f92612ecc575b50508160011b915f199060031b1c19161760028701555b6003860160ff1981541660ff604435161790558051906001600160401b03821161058e578190612a1782612a0e60048b0154613b18565b60048b01614125565b602090601f8311600114612e5e575f92612e53575b50508160011b915f199060031b1c19161760048601555b8051906001600160401b03821161058e578190612a7082612a6760058a0154613b18565b60058a01614125565b602090601f8311600114612de5575f92612dda575b50508160011b915f199060031b1c19161760058501555b8051906001600160401b03821161058e578190612ac982612ac06006890154613b18565b60068901614125565b602090601f8311600114612d6c575f92612d61575b50508160011b915f199060031b1c19161760068401555b83516001600160401b03811161058e57612b1f81612b166007870154613b18565b60078701614125565b6020601f8211600114612cf35781929394955f92612ce8575b50508160011b915f199060031b1c19161760078401559190915b60098201925f5b8251811015612c1d57612b6c818461419c565b515f525f6020523360018060a01b03600160405f2001541603612bd85780612ba1612b9a612bd3938661419c565b5187614168565b600f545f52600460205260405f20612bb9828661419c565b515f5260205260405f20600160ff198254161790556140db565b612b59565b60405162461bcd60e51b815260206004820152601c60248201527f43616e20616464206f6e6c79206f776e65642063616d706169676e73000000006044820152606490fd5b50600a8301905f5b8151811015612cd057612c38818361419c565b515f5260016020523360018060a01b03600160405f2001541603612c8b5780612c6e612c67612c86938561419c565b5185614168565b600f545f52600560205260405f20612bb9828561419c565b612c25565b60405162461bcd60e51b815260206004820152601960248201527f43616e20616464206f6e6c79206f776e6564206576656e7473000000000000006044820152606490fd5b335f52600b60205261002260405f20600f5490614168565b015190508580612b38565b600785015f5260205f20905f5b601f1984168110612d49575060019394959683601f19811610612d31575b505050811b016007840155919091612b52565b01515f1960f88460031b161c19169055858080612d1e565b9091602060018192858b015181550193019101612d00565b015190508680612ade565b9250600686015f5260205f20905f935b601f1984168510612dbf576001945083601f19811610612da7575b505050811b016006840155612af5565b01515f1960f88460031b161c19169055868080612d97565b81810151835560209485019460019093019290910190612d7c565b015190508780612a85565b9250600587015f5260205f20905f935b601f1984168510612e38576001945083601f19811610612e20575b505050811b016005850155612a9c565b01515f1960f88460031b161c19169055878080612e10565b81810151835560209485019460019093019290910190612df5565b015190508880612a2c565b9250600488015f5260205f20905f935b601f1984168510612eb1576001945083601f19811610612e99575b505050811b016004860155612a43565b01515f1960f88460031b161c19169055888080612e89565b81810151835560209485019460019093019290910190612e6e565b0151905089806129c0565b9250600289015f5260205f20905f935b601f1984168510612f2a576001945083601f19811610612f12575b505050811b0160028701556129d7565b01515f1960f88460031b161c19169055898080612f02565b81810151835560209485019460019093019290910190612ee7565b015190508a80612956565b9250895f5260205f20905f935b601f1984168510612f9d576001945083601f19811610612f85575b505050811b01875561296a565b01515f1960f88460031b161c191690558a8080612f78565b81810151835560209485019460019093019290910190612f5d565b3461075a5761014036600319011261075a576004356001600160401b03811161075a57612fe9903690600401613d11565b6064356001600160401b03811161075a57613008903690600401613d11565b906084356001600160401b03811161075a57613028903690600401613d11565b90610124356001600160401b03811161075a57613049903690600401613d6e565b61305742602435101561403a565b61306660243560443511614085565b335f52600260205260a435600260405f2001541061342a57335f526002602052600260405f200161309a60a435825461402d565b90556130a7600e546140db565b9182600e55825f52600160205260405f2092835560018301336001600160601b0360a01b8254161790558051906001600160401b03821161058e5781906130fe826130f56002880154613b18565b60028801614125565b602090601f83116001146133bc575f926133b1575b50508160011b915f199060031b1c19161760028301555b6024356003830155604435600483015583516001600160401b03811161058e576131648161315b6005860154613b18565b60058601614125565b6020601f82116001146133465781929394955f9261333b575b50508160011b915f199060031b1c19161760058301555b82516001600160401b03811161058e576131be816131b56006860154613b18565b60068601614125565b6020601f82116001146132d157819293945f926132c6575b50508160011b915f199060031b1c19161760068301555b60a435600783015560c435600883015560e435600983015561010435600a830155600b82018151916001600160401b03831161058e57600160401b831161058e5760209082548484558085106132ab575b5001905f5260205f205f5b8381106132975784335f52600a60205261326860405f20825490614168565b546040519081527fe43349c008949cf6b65249356e6f918d4aaa0ca79f2b1166df4a4a98c9c16de260203392a2005b600190602084519401938184015501613249565b6132c090845f5285845f2091820191016140e9565b8561323e565b0151905084806131d6565b600684015f5260205f20905f5b601f19841681106133235750600193949583601f1981161061330b575b505050811b0160068301556131ed565b01515f1960f88460031b161c191690558480806132fb565b9091602060018192858a0151815501930191016132de565b01519050858061317d565b600584015f5260205f20905f5b601f1984168110613399575060019394959683601f19811610613381575b505050811b016005830155613194565b01515f1960f88460031b161c19169055858080613371565b9091602060018192858b015181550193019101613353565b015190508680613113565b9250600285015f5260205f20905f935b601f198416851061340f576001945083601f198116106133f7575b505050811b01600283015561312a565b01515f1960f88460031b161c191690558680806133e7565b818101518355602094850194600190930192909101906133cc565b60405162461bcd60e51b815260206004820152602360248201527f496e73756666696369656e742061737365747320746f20637265617465206576604482015262195b9d60ea1b6064820152608490fd5b3461075a5760208060031936011261075a5760043590815f526001815260405f206134b7600391610cca600484830154920154914210156141b0565b335f526002825260018060a01b036134d68160405f2054161515614241565b335f526007835260405f20845f52835260ff908160405f20541661369c57335f526002845260405f2054161561368e575b835f526001835260405f20915f915f91600b85018054935b84811061363f5750505050506009820154116135fa5761354390600c339101614283565b335f526002815261355a82600760405f2001614168565b61356382614442565b806135b1575b50335f526007815260405f2090825f525260405f20600160ff1982541617905533907ff11149736e591e4b965f3e9e625eaf62f393d637814b49899d9e8e0374cd0f9e5f80a3005b5f52600c815260405f20335f52815260405f20600181016135d281546140db565b9055825f52600182526135f26002600860405f2001549201918254613e87565b905582613569565b60405162461bcd60e51b815260048101839052601e60248201527f4e6f7420656e6f7567682063616d706169676e7320636f6d706c6574656400006044820152606490fd5b6136498183613e5e565b905490841b1c335f526006895260405f20905f5288528360405f205416613679575b613674906140db565b61351f565b94613686613674916140db565b95905061366b565b613697336142d8565b613507565b60405162461bcd60e51b815260048101859052601960248201527f416c7265616479206a6f696e65642074686973206576656e74000000000000006044820152606490fd5b3461075a575f36600319011261075a576020600f54604051908152f35b3461075a5760208060031936011261075a5760043580156137c4575f80808093338252600286526137388160026040852001541015613fea565b338252600286526002604083200161375182825461402d565b9055335af13d156137bf573d61376681613cf6565b906137746040519283613bf6565b81525f833d92013e5b1561378457005b6064906040519062461bcd60e51b8252600482015260146024820152732330b4b632b2103a379039b2b7321022ba3432b960611b6044820152fd5b61377d565b6064826040519062461bcd60e51b825280600483015260248201527f416d6f756e74206d7573742062652067726561746572207468616e207a65726f6044820152fd5b3461075a57604036600319011261075a576001600160a01b03613828613aec565b165f52600760205260405f206024355f52602052602060ff60405f2054166040519015158152f35b3461075a57602036600319011261075a576004355f525f60205260405f20805490600160a01b60019003600182015416906002810161388e90613c17565b92600382015490600483015490600584016138a890613c17565b906138b560068601613c17565b916007860154926008870154600988015491600a89015493600b8a015495600c8b016138e090613c17565b98600d8c01549b600f01549a6040519e8f9e8f9485526020850152610200806040860152840161390f91613cb8565b926060015260808d01528b810360a08d015261392a91613cb8565b8a810360c08c015261393b91613cb8565b9460e08a015261010089015261012088015261014087015261016086015284810361018086015261396b91613cb8565b9160ff811615156101a085015260081c60ff1615156101c08401526101e08301520390f35b3461075a57602036600319011261075a576004355f9081526001602081815260409092208054918101546001600160a01b03166139cf60028301613c17565b91600381015492613a5b600483015494613a4d6139ee60058601613c17565b916139fb60068701613c17565b92600787015498613a35600889015497600a60098b01549a01549a6040519e8f9e8f908152015260408d61016091829101528d0190613cb8565b9260608c015260808b015289820360a08b0152613cb8565b9087820360c0890152613cb8565b9360e08601526101008501526101208401526101408301520390f35b3461075a575f36600319011261075a57600d54600e54600f5460408051938452602084019290925290820152606090f35b3461075a57604036600319011261075a576020906001600160a01b03613acc613aec565b165f526006825260405f206024355f52825260ff60405f20541615158152f35b600435906001600160a01b038216820361075a57565b602435906001600160a01b038216820361075a57565b90600182811c92168015613b46575b6020831014613b3257565b634e487b7160e01b5f52602260045260245ffd5b91607f1691613b27565b61022081019081106001600160401b0382111761058e57604052565b606081019081106001600160401b0382111761058e57604052565b6101a081019081106001600160401b0382111761058e57604052565b61010081019081106001600160401b0382111761058e57604052565b61016081019081106001600160401b0382111761058e57604052565b602081019081106001600160401b0382111761058e57604052565b90601f801991011681019081106001600160401b0382111761058e57604052565b9060405191825f825492613c2a84613b18565b9081845260019485811690815f14613c955750600114613c55575b5050613c5392500383613bf6565b565b909391505f52602090815f20935f915b818310613c7d575050613c5393508201015f80613c45565b85548884018501529485019487945091830191613c65565b915050613c5394506020925060ff191682840152151560051b8201015f80613c45565b91908251928382525f5b848110613ce2575050825f602080949584010152601f8019910116010190565b602081830181015184830182015201613cc2565b6001600160401b03811161058e57601f01601f191660200190565b81601f8201121561075a57803590613d2882613cf6565b92613d366040519485613bf6565b8284526020838301011161075a57815f926020809301838601378301015290565b6001600160401b03811161058e5760051b60200190565b81601f8201121561075a57803591613d8583613d57565b92613d936040519485613bf6565b808452602092838086019260051b82010192831161075a578301905b828210613dbd575050505090565b81358152908301908301613daf565b9081518082526020808093019301915f5b828110613deb575050505090565b83516001600160a01b031685529381019392810192600101613ddd565b9081518082526020808093019301915f5b828110613e27575050505090565b835185529381019392810192600101613e19565b604090600319011261075a576004359060243590565b90600d821015611fd45752565b8054821015613e73575f5260205f2001905f90565b634e487b7160e01b5f52603260045260245ffd5b919082018092116107c557565b335f90815260026020908152604080832080549093906001600160a01b0316613fd5577f48cac28ad4dc618e15f4c2dd5e97751182f166de97b25618318b2112aa951a2f929350338152600284526007828220336001600160601b0360a01b8254161781555f60018201613f11613f0b8254613b18565b826140ff565b5534600282015582600382015560016004820155828451613f3181613bdb565b5260058101805484825580613fbd575b508352828451613f5081613bdb565b5260068101805484825580613fa5575b508352828451613f6f81613bdb565b5201805482825580613f8d575b5081528151938085528401523392a2565b818352858320613f9f918101906140e9565b5f613f7c565b818552878520613fb7918101906140e9565b5f613f60565b818552878520613fcf918101906140e9565b5f613f41565b505050600201613fe6348254613e87565b9055565b15613ff157565b60405162461bcd60e51b8152602060048201526014602482015273496e73756666696369656e742062616c616e636560601b6044820152606490fd5b919082039182116107c557565b1561404157565b606460405162461bcd60e51b815260206004820152602060248201527f53746172742074696d65206d75737420626520696e20746865206675747572656044820152fd5b1561408c57565b60405162461bcd60e51b815260206004820152602160248201527f456e642074696d65206d7573742062652061667465722073746172742074696d6044820152606560f81b6064820152608490fd5b5f1981146107c55760010190565b8181106140f4575050565b5f81556001016140e9565b90601f811161410c575050565b613c53915f52601f60205f20910160051c8101906140e9565b9190601f811161413457505050565b613c53925f5260205f20906020601f840160051c8301931061415e575b601f0160051c01906140e9565b9091508190614151565b8054600160401b81101561058e5761418591600182018155613e5e565b819291549060031b91821b915f19901b1916179055565b8051821015613e735760209160051b010190565b156141b757565b60405162461bcd60e51b815260206004820152601860248201527f5468697320686173206e6f7420737461727465642079657400000000000000006044820152606490fd5b1561420357565b60405162461bcd60e51b8152602060048201526016602482015275151a1a5cc81a185cc8185b1c9958591e48195b99195960521b6044820152606490fd5b1561424857565b60405162461bcd60e51b8152602060048201526013602482015272155cd95c88191bd95cc81b9bdd08195e1a5cdd606a1b6044820152606490fd5b90815491600160401b83101561058e57826114b8916001613c5395018155613e5e565b906142b082613d57565b6142bd6040519182613bf6565b82815280926142ce601f1991613d57565b0190602036910137565b60018060a01b03167f48cac28ad4dc618e15f4c2dd5e97751182f166de97b25618318b2112aa951a2f5f8281526020600281526040916007838220866001600160601b0360a01b8254161781555f60018201614337613f0b8254613b18565b558260028201558260038201556001600482015582855161435781613bdb565b52600581018054848255806143e1575b50835282855161437681613bdb565b52600681018054848255806143c9575b50835282855161439581613bdb565b52018054828255806143b1575b508152825191808352820152a2565b8183528383206143c3918101906140e9565b5f6143a2565b8185528585206143db918101906140e9565b5f614386565b8185528585206143f3918101906140e9565b5f614367565b600f549060015b8281111561440f575050505f90565b60ff5f82815260209060048252604091828220908683525220541661443c57614437906140db565b614400565b91505090565b600f549060015b82811115614458575050505f90565b60ff5f82815260209060058252604091828220908683525220541661443c57614480906140db565b614449565b906040519182815491828252602092838301915f52835f20935f905b8282106144b757505050613c5392500383613bf6565b85546001600160a01b0316845260019586019588955093810193909101906144a1565b906040519182815491828252602092838301915f52835f20935f905b82821061450c57505050613c5392500383613bf6565b8554845260019586019588955093810193909101906144f656fea26469706673582212200538e566c5b458dc9fa70550b479cc62d9d1203d6290e1e25714879776a702ae64736f6c63430008140033",
  "linkReferences": {},
  "deployedLinkReferences": {}
}