{
  "_format": "hh-sol-artifact-1",
  "contractName": "Taskon",
  "sourceName": "src/contracts/Taskon.sol",
  "abi": [
    {
      "inputs": [],
      "stateMutability": "nonpayable",
      "type": "constructor"
    },
    {
      "anonymous": false,
      "inputs": [
        {
          "indexed": false,
          "internalType": "uint256",
          "name": "id",
          "type": "uint256"
        },
        {
          "indexed": true,
          "internalType": "address",
          "name": "creator",
          "type": "address"
        }
      ],
      "name": "CampaignCreated",
      "type": "event"
    },
    {
      "anonymous": false,
      "inputs": [
        {
          "indexed": false,
          "internalType": "uint256",
          "name": "id",
          "type": "uint256"
        },
        {
          "indexed": true,
          "internalType": "address",
          "name": "host",
          "type": "address"
        }
      ],
      "name": "EventCreated",
      "type": "event"
    },
    {
      "anonymous": false,
      "inputs": [
        {
          "indexed": true,
          "internalType": "uint256",
          "name": "campaignId",
          "type": "uint256"
        },
        {
          "indexed": true,
          "internalType": "address",
          "name": "user",
          "type": "address"
        }
      ],
      "name": "JoinedCampaign",
      "type": "event"
    },
    {
      "anonymous": false,
      "inputs": [
        {
          "indexed": true,
          "internalType": "uint256",
          "name": "eventId",
          "type": "uint256"
        },
        {
          "indexed": true,
          "internalType": "address",
          "name": "user",
          "type": "address"
        }
      ],
      "name": "JoinedEvent",
      "type": "event"
    },
    {
      "anonymous": false,
      "inputs": [
        {
          "indexed": true,
          "internalType": "uint256",
          "name": "spaceId",
          "type": "uint256"
        },
        {
          "indexed": true,
          "internalType": "address",
          "name": "user",
          "type": "address"
        }
      ],
      "name": "JoinedSpace",
      "type": "event"
    },
    {
      "anonymous": false,
      "inputs": [
        {
          "indexed": false,
          "internalType": "uint256",
          "name": "id",
          "type": "uint256"
        },
        {
          "indexed": true,
          "internalType": "address",
          "name": "creator",
          "type": "address"
        }
      ],
      "name": "SpaceCreated",
      "type": "event"
    },
    {
      "anonymous": false,
      "inputs": [
        {
          "indexed": true,
          "internalType": "address",
          "name": "userAddress",
          "type": "address"
        },
        {
          "indexed": false,
          "internalType": "string",
          "name": "name",
          "type": "string"
        }
      ],
      "name": "UserRegistered",
      "type": "event"
    },
    {
      "anonymous": false,
      "inputs": [
        {
          "indexed": true,
          "internalType": "address",
          "name": "userAddress",
          "type": "address"
        },
        {
          "indexed": false,
          "internalType": "string",
          "name": "name",
          "type": "string"
        }
      ],
      "name": "UserUpdated",
      "type": "event"
    },
    {
      "inputs": [],
      "name": "campaignCount",
      "outputs": [
        {
          "internalType": "uint256",
          "name": "",
          "type": "uint256"
        }
      ],
      "stateMutability": "view",
      "type": "function"
    },
    {
      "inputs": [
        {
          "internalType": "uint256",
          "name": "",
          "type": "uint256"
        },
        {
          "internalType": "uint256",
          "name": "",
          "type": "uint256"
        }
      ],
      "name": "campaignInSpace",
      "outputs": [
        {
          "internalType": "bool",
          "name": "",
          "type": "bool"
        }
      ],
      "stateMutability": "view",
      "type": "function"
    },
    {
      "inputs": [
        {
          "internalType": "uint256",
          "name": "",
          "type": "uint256"
        }
      ],
      "name": "campaigns",
      "outputs": [
        {
          "internalType": "uint256",
          "name": "id",
          "type": "uint256"
        },
        {
          "internalType": "address",
          "name": "creator",
          "type": "address"
        },
        {
          "internalType": "string",
          "name": "name",
          "type": "string"
        },
        {
          "internalType": "uint256",
          "name": "startTimestamp",
          "type": "uint256"
        },
        {
          "internalType": "uint256",
          "name": "endTimestamp",
          "type": "uint256"
        },
        {
          "internalType": "string",
          "name": "image",
          "type": "string"
        },
        {
          "internalType": "string",
          "name": "description",
          "type": "string"
        },
        {
          "internalType": "uint256",
          "name": "tokenReward",
          "type": "uint256"
        },
        {
          "internalType": "uint256",
          "name": "points",
          "type": "uint256"
        },
        {
          "internalType": "uint256",
          "name": "minimumLevel",
          "type": "uint256"
        },
        {
          "internalType": "uint256",
          "name": "minimumBalance",
          "type": "uint256"
        },
        {
          "internalType": "uint256",
          "name": "numberOfWinners",
          "type": "uint256"
        },
        {
          "internalType": "string",
          "name": "tasksURL",
          "type": "string"
        },
        {
          "internalType": "bool",
          "name": "tasks",
          "type": "bool"
        },
        {
          "internalType": "bool",
          "name": "visibility",
          "type": "bool"
        },
        {
          "internalType": "uint256",
          "name": "randomnessBlockNumber",
          "type": "uint256"
        }
      ],
      "stateMutability": "view",
      "type": "function"
    },
    {
      "inputs": [
        {
          "internalType": "string",
          "name": "name",
          "type": "string"
        },
        {
          "internalType": "uint256",
          "name": "startTimestamp",
          "type": "uint256"
        },
        {
          "internalType": "uint256",
          "name": "endTimestamp",
          "type": "uint256"
        },
        {
          "internalType": "string",
          "name": "image",
          "type": "string"
        },
        {
          "internalType": "string",
          "name": "description",
          "type": "string"
        },
        {
          "internalType": "uint256",
          "name": "tokenReward",
          "type": "uint256"
        },
        {
          "internalType": "uint256",
          "name": "points",
          "type": "uint256"
        },
        {
          "internalType": "uint256",
          "name": "minimumLevel",
          "type": "uint256"
        },
        {
          "internalType": "uint256",
          "name": "minimumBalance",
          "type": "uint256"
        },
        {
          "internalType": "uint256",
          "name": "numberOfWinners",
          "type": "uint256"
        },
        {
          "internalType": "string",
          "name": "tasksURL",
          "type": "string"
        },
        {
          "internalType": "bool",
          "name": "visibility",
          "type": "bool"
        }
      ],
      "name": "createCampaign",
      "outputs": [],
      "stateMutability": "nonpayable",
      "type": "function"
    },
    {
      "inputs": [
        {
          "internalType": "string",
          "name": "name",
          "type": "string"
        },
        {
          "internalType": "uint256",
          "name": "startTimestamp",
          "type": "uint256"
        },
        {
          "internalType": "uint256",
          "name": "endTimestamp",
          "type": "uint256"
        },
        {
          "internalType": "string",
          "name": "image",
          "type": "string"
        },
        {
          "internalType": "string",
          "name": "description",
          "type": "string"
        },
        {
          "internalType": "uint256",
          "name": "tokenReward",
          "type": "uint256"
        },
        {
          "internalType": "uint256",
          "name": "points",
          "type": "uint256"
        },
        {
          "internalType": "uint256",
          "name": "minimumCampaign",
          "type": "uint256"
        },
        {
          "internalType": "uint256",
          "name": "numberOfWinners",
          "type": "uint256"
        },
        {
          "internalType": "uint256[]",
          "name": "campaignIds",
          "type": "uint256[]"
        }
      ],
      "name": "createEvent",
      "outputs": [],
      "stateMutability": "nonpayable",
      "type": "function"
    },
    {
      "inputs": [
        {
          "internalType": "string",
          "name": "name",
          "type": "string"
        },
        {
          "internalType": "string",
          "name": "image",
          "type": "string"
        },
        {
          "internalType": "enum Taskon.ProjectCategory",
          "name": "category",
          "type": "uint8"
        },
        {
          "internalType": "string",
          "name": "officialWebsite",
          "type": "string"
        },
        {
          "internalType": "string",
          "name": "discordLink",
          "type": "string"
        },
        {
          "internalType": "string",
          "name": "telegramLink",
          "type": "string"
        },
        {
          "internalType": "string",
          "name": "description",
          "type": "string"
        },
        {
          "internalType": "uint256[]",
          "name": "campaignIds",
          "type": "uint256[]"
        },
        {
          "internalType": "uint256[]",
          "name": "eventIds",
          "type": "uint256[]"
        }
      ],
      "name": "createSpace",
      "outputs": [],
      "stateMutability": "nonpayable",
      "type": "function"
    },
    {
      "inputs": [],
      "name": "deposit",
      "outputs": [],
      "stateMutability": "payable",
      "type": "function"
    },
    {
      "inputs": [
        {
          "internalType": "uint256",
          "name": "campaignId",
          "type": "uint256"
        },
        {
          "internalType": "string",
          "name": "newName",
          "type": "string"
        },
        {
          "internalType": "string",
          "name": "newImage",
          "type": "string"
        },
        {
          "internalType": "string",
          "name": "newDescription",
          "type": "string"
        },
        {
          "internalType": "uint256",
          "name": "newTokenReward",
          "type": "uint256"
        },
        {
          "internalType": "uint256",
          "name": "newPoints",
          "type": "uint256"
        },
        {
          "internalType": "uint256",
          "name": "newMinimumLevel",
          "type": "uint256"
        },
        {
          "internalType": "uint256",
          "name": "newMinimumBalance",
          "type": "uint256"
        },
        {
          "internalType": "uint256",
          "name": "newNumberOfWinners",
          "type": "uint256"
        },
        {
          "internalType": "string",
          "name": "newTasksURL",
          "type": "string"
        },
        {
          "internalType": "bool",
          "name": "newVisibility",
          "type": "bool"
        }
      ],
      "name": "editCampaign",
      "outputs": [],
      "stateMutability": "nonpayable",
      "type": "function"
    },
    {
      "inputs": [
        {
          "internalType": "uint256",
          "name": "eventId",
          "type": "uint256"
        },
        {
          "internalType": "string",
          "name": "newName",
          "type": "string"
        },
        {
          "internalType": "string",
          "name": "newImage",
          "type": "string"
        },
        {
          "internalType": "string",
          "name": "newDescription",
          "type": "string"
        },
        {
          "internalType": "uint256",
          "name": "newTokenReward",
          "type": "uint256"
        },
        {
          "internalType": "uint256",
          "name": "newPoints",
          "type": "uint256"
        },
        {
          "internalType": "uint256",
          "name": "newMinimumCampaign",
          "type": "uint256"
        },
        {
          "internalType": "uint256",
          "name": "newNumberOfWinners",
          "type": "uint256"
        },
        {
          "internalType": "uint256[]",
          "name": "newCampaignIds",
          "type": "uint256[]"
        }
      ],
      "name": "editEvent",
      "outputs": [],
      "stateMutability": "nonpayable",
      "type": "function"
    },
    {
      "inputs": [],
      "name": "eventCount",
      "outputs": [
        {
          "internalType": "uint256",
          "name": "",
          "type": "uint256"
        }
      ],
      "stateMutability": "view",
      "type": "function"
    },
    {
      "inputs": [
        {
          "internalType": "uint256",
          "name": "",
          "type": "uint256"
        },
        {
          "internalType": "uint256",
          "name": "",
          "type": "uint256"
        }
      ],
      "name": "eventInSpace",
      "outputs": [
        {
          "internalType": "bool",
          "name": "",
          "type": "bool"
        }
      ],
      "stateMutability": "view",
      "type": "function"
    },
    {
      "inputs": [
        {
          "internalType": "uint256",
          "name": "",
          "type": "uint256"
        }
      ],
      "name": "events",
      "outputs": [
        {
          "internalType": "uint256",
          "name": "id",
          "type": "uint256"
        },
        {
          "internalType": "address",
          "name": "host",
          "type": "address"
        },
        {
          "internalType": "string",
          "name": "name",
          "type": "string"
        },
        {
          "internalType": "uint256",
          "name": "startTimestamp",
          "type": "uint256"
        },
        {
          "internalType": "uint256",
          "name": "endTimestamp",
          "type": "uint256"
        },
        {
          "internalType": "string",
          "name": "image",
          "type": "string"
        },
        {
          "internalType": "string",
          "name": "description",
          "type": "string"
        },
        {
          "internalType": "uint256",
          "name": "tokenReward",
          "type": "uint256"
        },
        {
          "internalType": "uint256",
          "name": "points",
          "type": "uint256"
        },
        {
          "internalType": "uint256",
          "name": "minimumCampaign",
          "type": "uint256"
        },
        {
          "internalType": "uint256",
          "name": "numberOfWinners",
          "type": "uint256"
        }
      ],
      "stateMutability": "view",
      "type": "function"
    },
    {
      "inputs": [],
      "name": "getAllCampaignIDs",
      "outputs": [
        {
          "internalType": "uint256[]",
          "name": "",
          "type": "uint256[]"
        }
      ],
      "stateMutability": "view",
      "type": "function"
    },
    {
      "inputs": [],
      "name": "getAllEventIDs",
      "outputs": [
        {
          "internalType": "uint256[]",
          "name": "",
          "type": "uint256[]"
        }
      ],
      "stateMutability": "view",
      "type": "function"
    },
    {
      "inputs": [],
      "name": "getAllSpaceIDs",
      "outputs": [
        {
          "internalType": "uint256[]",
          "name": "",
          "type": "uint256[]"
        }
      ],
      "stateMutability": "view",
      "type": "function"
    },
    {
      "inputs": [
        {
          "internalType": "uint256",
          "name": "campaignId",
          "type": "uint256"
        }
      ],
      "name": "getCampaign",
      "outputs": [
        {
          "components": [
            {
              "internalType": "uint256",
              "name": "id",
              "type": "uint256"
            },
            {
              "internalType": "address",
              "name": "creator",
              "type": "address"
            },
            {
              "internalType": "string",
              "name": "name",
              "type": "string"
            },
            {
              "internalType": "uint256",
              "name": "startTimestamp",
              "type": "uint256"
            },
            {
              "internalType": "uint256",
              "name": "endTimestamp",
              "type": "uint256"
            },
            {
              "internalType": "string",
              "name": "image",
              "type": "string"
            },
            {
              "internalType": "string",
              "name": "description",
              "type": "string"
            },
            {
              "internalType": "uint256",
              "name": "tokenReward",
              "type": "uint256"
            },
            {
              "internalType": "uint256",
              "name": "points",
              "type": "uint256"
            },
            {
              "internalType": "uint256",
              "name": "minimumLevel",
              "type": "uint256"
            },
            {
              "internalType": "uint256",
              "name": "minimumBalance",
              "type": "uint256"
            },
            {
              "internalType": "uint256",
              "name": "numberOfWinners",
              "type": "uint256"
            },
            {
              "internalType": "string",
              "name": "tasksURL",
              "type": "string"
            },
            {
              "internalType": "bool",
              "name": "tasks",
              "type": "bool"
            },
            {
              "internalType": "bool",
              "name": "visibility",
              "type": "bool"
            },
            {
              "internalType": "address[]",
              "name": "participants",
              "type": "address[]"
            },
            {
              "internalType": "uint256",
              "name": "randomnessBlockNumber",
              "type": "uint256"
            }
          ],
          "internalType": "struct Taskon.Campaign",
          "name": "",
          "type": "tuple"
        },
        {
          "internalType": "address[]",
          "name": "",
          "type": "address[]"
        }
      ],
      "stateMutability": "view",
      "type": "function"
    },
    {
      "inputs": [
        {
          "internalType": "uint256",
          "name": "campaignId",
          "type": "uint256"
        }
      ],
      "name": "getCampaignParticipants",
      "outputs": [
        {
          "internalType": "address[]",
          "name": "",
          "type": "address[]"
        }
      ],
      "stateMutability": "view",
      "type": "function"
    },
    {
      "inputs": [
        {
          "internalType": "uint256",
          "name": "eventId",
          "type": "uint256"
        }
      ],
      "name": "getEvent",
      "outputs": [
        {
          "components": [
            {
              "internalType": "uint256",
              "name": "id",
              "type": "uint256"
            },
            {
              "internalType": "address",
              "name": "host",
              "type": "address"
            },
            {
              "internalType": "string",
              "name": "name",
              "type": "string"
            },
            {
              "internalType": "uint256",
              "name": "startTimestamp",
              "type": "uint256"
            },
            {
              "internalType": "uint256",
              "name": "endTimestamp",
              "type": "uint256"
            },
            {
              "internalType": "string",
              "name": "image",
              "type": "string"
            },
            {
              "internalType": "string",
              "name": "description",
              "type": "string"
            },
            {
              "internalType": "uint256",
              "name": "tokenReward",
              "type": "uint256"
            },
            {
              "internalType": "uint256",
              "name": "points",
              "type": "uint256"
            },
            {
              "internalType": "uint256",
              "name": "minimumCampaign",
              "type": "uint256"
            },
            {
              "internalType": "uint256",
              "name": "numberOfWinners",
              "type": "uint256"
            },
            {
              "internalType": "uint256[]",
              "name": "campaignIds",
              "type": "uint256[]"
            },
            {
              "internalType": "address[]",
              "name": "participants",
              "type": "address[]"
            }
          ],
          "internalType": "struct Taskon.Event",
          "name": "",
          "type": "tuple"
        },
        {
          "internalType": "uint256[]",
          "name": "",
          "type": "uint256[]"
        },
        {
          "internalType": "address[]",
          "name": "",
          "type": "address[]"
        }
      ],
      "stateMutability": "view",
      "type": "function"
    },
    {
      "inputs": [
        {
          "internalType": "uint256",
          "name": "eventId",
          "type": "uint256"
        }
      ],
      "name": "getEventParticipants",
      "outputs": [
        {
          "internalType": "address[]",
          "name": "",
          "type": "address[]"
        }
      ],
      "stateMutability": "view",
      "type": "function"
    },
    {
      "inputs": [
        {
          "internalType": "uint256",
          "name": "spaceId",
          "type": "uint256"
        },
        {
          "internalType": "address",
          "name": "userAddress",
          "type": "address"
        }
      ],
      "name": "getLeaderboardEntry",
      "outputs": [
        {
          "components": [
            {
              "internalType": "uint256",
              "name": "campaignsJoined",
              "type": "uint256"
            },
            {
              "internalType": "uint256",
              "name": "eventsJoined",
              "type": "uint256"
            },
            {
              "internalType": "uint256",
              "name": "totalPoints",
              "type": "uint256"
            }
          ],
          "internalType": "struct Taskon.LeaderboardEntry",
          "name": "",
          "type": "tuple"
        }
      ],
      "stateMutability": "view",
      "type": "function"
    },
    {
      "inputs": [
        {
          "internalType": "uint256",
          "name": "spaceId",
          "type": "uint256"
        }
      ],
      "name": "getSpace",
      "outputs": [
        {
          "components": [
            {
              "internalType": "string",
              "name": "name",
              "type": "string"
            },
            {
              "internalType": "address",
              "name": "creator",
              "type": "address"
            },
            {
              "internalType": "string",
              "name": "image",
              "type": "string"
            },
            {
              "internalType": "enum Taskon.ProjectCategory",
              "name": "category",
              "type": "uint8"
            },
            {
              "internalType": "string",
              "name": "officialWebsite",
              "type": "string"
            },
            {
              "internalType": "string",
              "name": "discordLink",
              "type": "string"
            },
            {
              "internalType": "string",
              "name": "telegramLink",
              "type": "string"
            },
            {
              "internalType": "string",
              "name": "description",
              "type": "string"
            },
            {
              "internalType": "address[]",
              "name": "followers",
              "type": "address[]"
            },
            {
              "internalType": "uint256[]",
              "name": "campaigns",
              "type": "uint256[]"
            },
            {
              "internalType": "uint256[]",
              "name": "events",
              "type": "uint256[]"
            }
          ],
          "internalType": "struct Taskon.Space",
          "name": "",
          "type": "tuple"
        },
        {
          "internalType": "address[]",
          "name": "",
          "type": "address[]"
        },
        {
          "internalType": "uint256[]",
          "name": "",
          "type": "uint256[]"
        },
        {
          "internalType": "uint256[]",
          "name": "",
          "type": "uint256[]"
        }
      ],
      "stateMutability": "view",
      "type": "function"
    },
    {
      "inputs": [],
      "name": "getTotalCounts",
      "outputs": [
        {
          "internalType": "uint256",
          "name": "",
          "type": "uint256"
        },
        {
          "internalType": "uint256",
          "name": "",
          "type": "uint256"
        },
        {
          "internalType": "uint256",
          "name": "",
          "type": "uint256"
        }
      ],
      "stateMutability": "view",
      "type": "function"
    },
    {
      "inputs": [
        {
          "internalType": "address",
          "name": "userAddress",
          "type": "address"
        }
      ],
      "name": "getUser",
      "outputs": [
        {
          "components": [
            {
              "internalType": "address",
              "name": "userAddress",
              "type": "address"
            },
            {
              "internalType": "string",
              "name": "name",
              "type": "string"
            },
            {
              "internalType": "uint256",
              "name": "assets",
              "type": "uint256"
            },
            {
              "internalType": "uint256",
              "name": "points",
              "type": "uint256"
            },
            {
              "internalType": "uint256",
              "name": "level",
              "type": "uint256"
            },
            {
              "internalType": "uint256[]",
              "name": "spaceJoined",
              "type": "uint256[]"
            },
            {
              "internalType": "uint256[]",
              "name": "campaignsJoined",
              "type": "uint256[]"
            },
            {
              "internalType": "uint256[]",
              "name": "eventsJoined",
              "type": "uint256[]"
            }
          ],
          "internalType": "struct Taskon.User",
          "name": "",
          "type": "tuple"
        }
      ],
      "stateMutability": "view",
      "type": "function"
    },
    {
      "inputs": [
        {
          "internalType": "uint256",
          "name": "campaignId",
          "type": "uint256"
        }
      ],
      "name": "joinCampaign",
      "outputs": [],
      "stateMutability": "nonpayable",
      "type": "function"
    },
    {
      "inputs": [
        {
          "internalType": "uint256",
          "name": "eventId",
          "type": "uint256"
        }
      ],
      "name": "joinEvent",
      "outputs": [],
      "stateMutability": "nonpayable",
      "type": "function"
    },
    {
      "inputs": [
        {
          "internalType": "uint256",
          "name": "spaceId",
          "type": "uint256"
        }
      ],
      "name": "joinSpace",
      "outputs": [],
      "stateMutability": "nonpayable",
      "type": "function"
    },
    {
      "inputs": [],
      "name": "spaceCount",
      "outputs": [
        {
          "internalType": "uint256",
          "name": "",
          "type": "uint256"
        }
      ],
      "stateMutability": "view",
      "type": "function"
    },
    {
      "inputs": [
        {
          "internalType": "uint256",
          "name": "",
          "type": "uint256"
        },
        {
          "internalType": "address",
          "name": "",
          "type": "address"
        }
      ],
      "name": "spaceLeaderboard",
      "outputs": [
        {
          "internalType": "uint256",
          "name": "campaignsJoined",
          "type": "uint256"
        },
        {
          "internalType": "uint256",
          "name": "eventsJoined",
          "type": "uint256"
        },
        {
          "internalType": "uint256",
          "name": "totalPoints",
          "type": "uint256"
        }
      ],
      "stateMutability": "view",
      "type": "function"
    },
    {
      "inputs": [
        {
          "internalType": "uint256",
          "name": "",
          "type": "uint256"
        }
      ],
      "name": "spaces",
      "outputs": [
        {
          "internalType": "string",
          "name": "name",
          "type": "string"
        },
        {
          "internalType": "address",
          "name": "creator",
          "type": "address"
        },
        {
          "internalType": "string",
          "name": "image",
          "type": "string"
        },
        {
          "internalType": "enum Taskon.ProjectCategory",
          "name": "category",
          "type": "uint8"
        },
        {
          "internalType": "string",
          "name": "officialWebsite",
          "type": "string"
        },
        {
          "internalType": "string",
          "name": "discordLink",
          "type": "string"
        },
        {
          "internalType": "string",
          "name": "telegramLink",
          "type": "string"
        },
        {
          "internalType": "string",
          "name": "description",
          "type": "string"
        }
      ],
      "stateMutability": "view",
      "type": "function"
    },
    {
      "inputs": [
        {
          "internalType": "string",
          "name": "newName",
          "type": "string"
        }
      ],
      "name": "updateUserName",
      "outputs": [],
      "stateMutability": "nonpayable",
      "type": "function"
    },
    {
      "inputs": [
        {
          "internalType": "address",
          "name": "",
          "type": "address"
        },
        {
          "internalType": "uint256",
          "name": "",
          "type": "uint256"
        }
      ],
      "name": "userJoinedCampaign",
      "outputs": [
        {
          "internalType": "bool",
          "name": "",
          "type": "bool"
        }
      ],
      "stateMutability": "view",
      "type": "function"
    },
    {
      "inputs": [
        {
          "internalType": "address",
          "name": "",
          "type": "address"
        },
        {
          "internalType": "uint256",
          "name": "",
          "type": "uint256"
        }
      ],
      "name": "userJoinedEvent",
      "outputs": [
        {
          "internalType": "bool",
          "name": "",
          "type": "bool"
        }
      ],
      "stateMutability": "view",
      "type": "function"
    },
    {
      "inputs": [
        {
          "internalType": "address",
          "name": "",
          "type": "address"
        },
        {
          "internalType": "uint256",
          "name": "",
          "type": "uint256"
        }
      ],
      "name": "userJoinedSpace",
      "outputs": [
        {
          "internalType": "bool",
          "name": "",
          "type": "bool"
        }
      ],
      "stateMutability": "view",
      "type": "function"
    },
    {
      "inputs": [
        {
          "internalType": "address",
          "name": "",
          "type": "address"
        }
      ],
      "name": "users",
      "outputs": [
        {
          "internalType": "address",
          "name": "userAddress",
          "type": "address"
        },
        {
          "internalType": "string",
          "name": "name",
          "type": "string"
        },
        {
          "internalType": "uint256",
          "name": "assets",
          "type": "uint256"
        },
        {
          "internalType": "uint256",
          "name": "points",
          "type": "uint256"
        },
        {
          "internalType": "uint256",
          "name": "level",
          "type": "uint256"
        }
      ],
      "stateMutability": "view",
      "type": "function"
    },
    {
      "inputs": [
        {
          "internalType": "uint256",
          "name": "amount",
          "type": "uint256"
        }
      ],
      "name": "withdraw",
      "outputs": [],
      "stateMutability": "nonpayable",
      "type": "function"
    },
    {
      "stateMutability": "payable",
      "type": "receive"
    }
  ],
  "bytecode": "0x6080806040523461001657613f9d908161001b8239f35b5f80fdfe6080806040526004361015610024575b50361561001a575f80fd5b610022613894565b005b5f3560e01c90816303986a31146134d157508063045af334146134a05780630b791430146133b9578063141961bc1461327957806316dc287a146132305780632e1a7d4d14613127578063319ae4b21461310a57806338d361e214612ea4578063467069eb146129f8578063488793c7146122395780635598f8cc14611f7b5780635710d6c014611f475780635e9df36c14611eb55780636d1884e014611c5c5780636f77926b14611af457806370e104311461183257806371be2e4a146118155780637274e30d146117f857806374bb1272146117c45780637586353b146116c45780637f3a4b3d14611667578063834e415c146116025780638b903d57146115a55780638be9e3c81461149c5780638c6ab23814611470578063a87430ba146113f0578063af9036a114611235578063b50e0182146111f4578063c9e4f14114610e57578063cf40759514610e0e578063d0e30db014610dfb578063d4a82a5814610be1578063dafaba4f14610775578063e2b08208146106fa5763ff76154f146101b1575f61000f565b346106f6576101803660031901126106f6576004356001600160401b0381116106f6576101e290369060040161373a565b6064356001600160401b0381116106f65761020190369060040161373a565b906084356001600160401b0381116106f65761022190369060040161373a565b90610144356001600160401b0381116106f65761024290369060040161373a565b9061016435151561016435036106f657610260426024351015613a3a565b61026f60243560443511613a85565b335f52600260205260a435600260405f200154106106a257335f526002602052600260405f20016102a360a4358254613a2d565b90556102b0600a54613adb565b9081600a55815f525f60205260405f2091825560018201336001600160601b0360a01b8254161790558051906001600160401b03821161052a578190610306826102fd6002870154613541565b60028701613b25565b602090601f8311600114610634575f92610629575b50508160011b915f199060031b1c19161760028201555b6024356003820155604435600482015583516001600160401b03811161052a5761036c816103636005850154613541565b60058501613b25565b6020601f82116001146105be5781929394955f926105b3575b50508160011b915f199060031b1c19161760058201555b82516001600160401b03811161052a576103c6816103bd6006850154613541565b60068501613b25565b6020601f821160011461054957819293945f9261053e575b50508160011b915f199060031b1c19161760068201555b60a435600782015560c435600882015560e435600982015561010435600a82015561012435600b820155600c810182516001600160401b03811161052a57610447816104418454613541565b84613b25565b6020601f82116001146104c857819293945f926104bd575b50508160011b915f199060031b1c19161790555b600d8101805461ff00191661016435151560081b61ff0016179055546040519081527f633109eec20320eded000fc1e2634211aa7e92ba3f5b15faf6dcdafca05094e460203392a2005b015190505f8061045f565b601f19821690835f5260205f20915f5b818110610512575095836001959697106104fa575b505050811b019055610473565b01515f1960f88460031b161c191690555f80806104ed565b9192602060018192868b0151815501940192016104d8565b634e487b7160e01b5f52604160045260245ffd5b015190505f806103de565b600683015f5260205f20905f5b601f198416811061059b5750600193949583601f19811610610583575b505050811b0160068201556103f5565b01515f1960f88460031b161c191690555f8080610573565b9091602060018192858a015181550193019101610556565b015190505f80610385565b600583015f5260205f20905f5b601f1984168110610611575060019394959683601f198116106105f9575b505050811b01600582015561039c565b01515f1960f88460031b161c191690555f80806105e9565b9091602060018192858b0151815501930191016105cb565b015190505f8061031b565b9250600284015f5260205f20905f935b601f1984168510610687576001945083601f1981161061066f575b505050811b016002820155610332565b01515f1960f88460031b161c191690555f808061065f565b81810151835560209485019460019093019290910190610644565b60405162461bcd60e51b815260206004820152602660248201527f496e73756666696369656e742061737365747320746f2063726561746520636160448201526536b830b4b3b760d11b6064820152608490fd5b5f80fd5b346106f6575f3660031901126106f657600a5461071681613ce7565b9060015b8181111561073c576040516020808252819061073890820186613847565b0390f35b5f19810190808211610761578061075661075c9386613b68565b52613adb565b61071a565b634e487b7160e01b5f52601160045260245ffd5b346106f6576101603660031901126106f6576001600160401b03602480358281116106f6576107a890369060040161373a565b906044358381116106f6576107c190369060040161373a565b906064358481116106f6576107da90369060040161373a565b92610124358581116106f6576107f490369060040161373a565b93610144359485151586036106f6576004355f526020915f835260405f209560019460018060a01b0386890154163303610b8d57805160028901918b8211610b7a57819061084c826108468654613541565b86613b25565b8790601f8311600114610b1b575f92610b10575b50505f19600383901b1c191690871b1790555b805160058801918a8211610afd578190610891826108468654613541565b8690601f8311600114610a9e575f92610a93575b50505f19600383901b1c191690861b1790555b80516006870191898211610a805781906108d6826108468654613541565b8590601f8311600114610a21575f92610a16575b50505f19600383901b1c191690851b1790555b608435600786015560a435600886015560c435600986015560e435600a86015561010435600b860155600c8501938151978811610a035750610943876108468654613541565b81601f881160011461099957509580600d9594938193610022995f9461098e575b50501b915f199060031b1c19161790555b019061ff00825491151560081b169061ff001916179055565b015192508980610964565b9190601f198816855f52835f20935f905b8282106109ec57505091600d9695949391896100229a94106109d4575b505050811b019055610975565b01515f1960f88460031b161c191690558780806109c7565b8087869782949787015181550196019401906109aa565b634e487b7160e01b5f9081526041600452fd5b015190508a806108ea565b90879350601f19831691855f52875f20925f5b89828210610a6a5750508411610a52575b505050811b0190556108fd565b01515f1960f88460031b161c191690558a8080610a45565b8385015186558b97909501949384019301610a34565b86634e487b7160e01b5f5260416004525ffd5b015190508b806108a5565b90889350601f19831691855f52885f20925f5b8a828210610ae75750508411610acf575b505050811b0190556108b8565b01515f1960f88460031b161c191690558b8080610ac2565b8385015186558c97909501949384019301610ab1565b87634e487b7160e01b5f5260416004525ffd5b015190508c80610860565b90899350601f19831691855f52895f20925f5b8b828210610b645750508411610b4c575b505050811b019055610873565b01515f1960f88460031b161c191690558c8080610b3f565b8385015186558d97909501949384019301610b2e565b88634e487b7160e01b5f5260416004525ffd5b60405162461bcd60e51b8152600481018690526027818901527f4f6e6c79207468652063726561746f722063616e20656469742074686973206360448201526630b6b830b4b3b760c91b6064820152608490fd5b346106f6576020806003193601126106f65760043590815f525f8152610c2260405f20610c1a6004600383015492015491421015613bd9565b421115613c25565b335f526002808252610c5460018060a01b038060405f20541615610ded575b335f5282845260405f2054161515613c6a565b335f526006825260405f20835f52825260ff60405f205416610da857825f525f825260405f20335f52818352600460405f200154600982015411610d6e57610cbc90335f52828452610cb28360405f200154600a83015411156139ea565b600e339101613cac565b335f52808252610cd283600660405f2001613ba5565b610cdb83613e3a565b80610d2a575b5050335f526006815260405f2090825f525260405f20600160ff1982541617905533907f0a8cb7ec996af5cd17d263f3dcdf80ca63fb4cef1b4312a18c70c8f533597f3b5f80a3005b5f526009825260405f20335f528252610d6560405f2091610d4b8354613adb565b8355845f525f8452600860405f2001549201918254613887565b90558280610ce1565b60405162461bcd60e51b815260048101849052601260248201527155736572206c6576656c20746f6f206c6f7760701b6044820152606490fd5b60405162461bcd60e51b815260048101839052601c60248201527f416c7265616479206a6f696e656420746869732063616d706169676e000000006044820152606490fd5b610df633613d19565b610c41565b5f3660031901126106f657610022613894565b346106f65760403660031901126106f6576001600160a01b03610e2f613515565b165f52600860205260405f206024355f52602052602060ff60405f2054166040519015158152f35b346106f6576101203660031901126106f65760246001600160401b0381358181116106f657610e8a90369060040161373a565b916044358281116106f657610ea390369060040161373a565b6064358381116106f657610ebb90369060040161373a565b93610104358481116106f657610ed5903690600401613797565b906004355f5260019560209387855260405f209260018060a01b03898501541633036111a65780516002850191898211610b7a578190610f19826108468654613541565b8890601f831160011461113e575f92611133575b50505f19600383901b1c1916908a1b1790555b80516005840191888211610afd578190610f5e826108468654613541565b8790601f83116001146110d4575f926110c9575b50505f19600383901b1c191690891b1790555b80516006830191878211610a8057610fa782610fa18554613541565b85613b25565b8590601f831160011461106557600b949392915f918361105a575b50505f19600383901b1c191690891b1790555b608435600782015560a435600882015560c435600982015560e435600a82015501928151948511610a0357600160401b8511610a0357508190835485855580861061103f575b5001915f52805f205f5b84811061102e57005b835182820155928201928501611025565b61105490855f5286845f209182019101613ae9565b8661101b565b015190508a80610fc2565b9392918991601f19821690845f52885f20915f5b8a8282106110b35750509683600b981061109b575b505050811b019055610fd5565b01515f1960f88460031b161c191690558a808061108e565b838a015185558e96909401939283019201611079565b015190508a80610f72565b908b9350601f19831691855f52895f20925f5b8b82821061111d5750508411611105575b505050811b019055610f85565b01515f1960f88460031b161c191690558a80806110f8565b8385015186558f979095019493840193016110e7565b015190508b80610f2d565b908c9350601f19831691855f528a5f20925f5b8c828210611187575050841161116f575b505050811b019055610f40565b01515f1960f88460031b161c191690558b8080611162565b91929395968291958786015181550195019301908e9594939291611151565b60405162461bcd60e51b8152600481018790526021818901527f4f6e6c792074686520686f73742063616e20656469742074686973206576656e6044820152601d60fa1b6064820152608490fd5b346106f65760203660031901126106f6576004355f526001602052610738611221600c60405f2001613ec6565b6040519182916020835260208301906137f5565b346106f6576020806003193601126106f6576001600160401b036004358181116106f65761126790369060040161373a565b335f908152600284526040902054611289906001600160a01b03161515613c6a565b8051156113ab57335f526002835260018060405f200190825193841161052a576112b7846104418454613541565b84601f8511600114611328579380806113189594937fd6136f3cad7c60bfc24bbf1548f39f766ca8bce104bf9adde3deb6237dec51df975f9361131d575b501b915f199060031b1c19161790555b60405191829185835233958301906136e1565b0390a2005b8601519250896112f5565b601f19851690835f52865f20915f5b888282106113975750509186917fd6136f3cad7c60bfc24bbf1548f39f766ca8bce104bf9adde3deb6237dec51df97611318979695941061137f575b5050811b019055611305565b8501515f1960f88460031b161c191690558780611373565b878401518555938501939283019201611337565b60405162461bcd60e51b815260048101849052601860248201527f4e6577206e616d652063616e6e6f7420626520656d70747900000000000000006044820152606490fd5b346106f65760203660031901126106f6576001600160a01b0380611412613515565b165f52600260205260405f209081541661142e60018301613640565b91600281015490600460038201549101549061145c604051958695865260a0602087015260a08601906136e1565b926040850152606084015260808301520390f35b346106f65760203660031901126106f6576004355f525f602052610738611221600e60405f2001613ec6565b346106f6576020806003193601126106f65760043590335f52600281526114d060018060a01b0360405f2054161515613c6a565b335f526008815260405f20825f52815260ff60405f20541661156157815f526003815261150333600860405f2001613cac565b335f526002815261151a82600560405f2001613ba5565b335f526008815260405f2090825f525260405f20600160ff1982541617905533907f54b395d5e852d463801b391aac280c017d177c680b3b860fe2b47266a86bcb5f5f80a3005b6064906040519062461bcd60e51b82526004820152601960248201527f416c7265616479206a6f696e65642074686973207370616365000000000000006044820152fd5b346106f6575f3660031901126106f657600c546115c181613ce7565b9060015b818111156115e3576040516020808252819061073890820186613847565b5f1981019080821161076157806107566115fd9386613b68565b6115c5565b346106f65760403660031901126106f65761161b61352b565b6004355f52600960205260405f209060018060a01b03165f5260205260405f20805461073860026001840154930154604051938493846040919493926060820195825260208201520152565b346106f6575f3660031901126106f657600b5461168381613ce7565b9060015b818111156116a5576040516020808252819061073890820186613847565b5f1981019080821161076157806107566116bf9386613b68565b611687565b346106f65760203660031901126106f6576004355f52600360205260405f206116ec81613640565b60018201546001600160a01b03169161170760028201613640565b90600381015460ff166004820161171d90613640565b61172960058401613640565b9161173660068501613640565b9360070161174390613640565b94604051978897610100808a52890161175b916136e1565b9060208901528781036040890152611772916136e1565b90606087016117809161387a565b8581036080870152611791916136e1565b84810360a08601526117a2916136e1565b83810360c08501526117b3916136e1565b82810360e0840152610738916136e1565b346106f6576117d236613831565b905f52600460205260405f20905f52602052602060ff60405f2054166040519015158152f35b346106f6575f3660031901126106f6576020600a54604051908152f35b346106f6575f3660031901126106f6576020600b54604051908152f35b346106f65760203660031901126106f6576060610140604051611854816135e8565b8281525f60208201528260408201525f838201528260808201528260a08201528260c08201528260e0820152826101008201528261012082015201526004355f52600360205260405f206040516118aa816135e8565b6118b382613640565b815260018201546001600160a01b031660208201526118d460028301613640565b604082015260ff600383015416600d811015611ae057611ab69261073891606084015261190360048201613640565b608084015261191460058201613640565b60a084015261192560068201613640565b60c084015261193660078201613640565b60e084015261194760088201613ec6565b61010084015261195960098201613f1b565b61012084015261196b600a8201613f1b565b610140840152611ad261198060088301613ec6565b91611ac461199c600a61199560098501613f1b565b9301613f1b565b9360405197889760808952610140611aa1611a89611a71611a588d611a41611a2a611a016119d88a5161016060808701526101e08601906136e1565b60208b01516001600160a01b031660a086015260408b0151858203607f190160c08701526136e1565b611a1360608b015160e086019061387a565b60808a0151848203607f19016101008601526136e1565b60a0890151838203607f19016101208501526136e1565b9060c08801519087607f19828503019101526136e1565b8d60e087015190610160607f19828503019101526136e1565b6101008501518d8203607f19016101808f01526137f5565b6101208401518c8203607f19016101a08e0152613847565b910151898203607f19016101c08b0152613847565b9087820360208901526137f5565b908582036040870152613847565b908382036060850152613847565b634e487b7160e01b5f52602160045260245ffd5b346106f6576020806003193601126106f657611b0e613515565b61073860e0604051611b1f816135cc565b5f8152606091818387819401525f60408201525f838201525f60808201528260a08201528260c0820152015260018060a01b038093165f526002845260405f2090604051611b6c816135cc565b848354168152611c4c611b8160018501613640565b93878301948552611c3b60028201549460408501958652600383015481860190815260048401549060808701918252611bbc60058601613f1b565b9260a08801938452611c14611be66007611bd860068a01613f1b565b9860c08c01998a5201613f1b565b9a60e08a019b8c526040519e8f9e8f9b828d525116908b0152516101206101009a8b604082015201906136e1565b9851908c01525160808b01525160a08a01525194601f1995868a83030160c08b0152613847565b9051848883030160e0890152613847565b9251918584030190850152613847565b346106f65760203660031901126106f6576060610180604051611c7e816135b0565b5f81525f60208201528260408201525f838201525f60808201528260a08201528260c08201525f60e08201525f6101008201525f6101208201525f6101408201528261016082015201526004355f526001602052611e9960405f2061073860405191611ce9836135b0565b8054835260018101546001600160a01b03166020840152611d0c60028201613640565b60408401526003810154606084015260048101546080840152611d3160058201613640565b60a0840152611d4260068201613640565b60c0840152600781015460e084015260088101546101008401526009810154610120840152600a810154610140840152611d7e600b8201613f1b565b610160840152611d90600c8201613ec6565b610180840152611ea7611db1600c611daa600b8501613f1b565b9301613ec6565b91604051958695606087528051606088015260018060a01b036020820151166080880152610180611e84611e3f611e28611dfd8b6101a060a060408901519201526102008d01906136e1565b606086015160c08d0152608086015160e08d015260a08601518c8203605f19016101008e01526136e1565b60c08501518b8203605f19016101208d01526136e1565b60e08401516101408b01526101008401516101608b0152610120840151838b01526101408401516101a08b0152610160840151605f198b8303016101c08c0152613847565b910151878203605f19016101e08901526137f5565b908582036020870152613847565b9083820360408501526137f5565b346106f65760403660031901126106f657611ece61352b565b5f60408051611edc81613595565b82815282602082015201526004355f52600960205260405f209060018060a01b03165f52602052606060405f20604051611f1581613595565b815491828252604060026001830154926020850193845201549201918252604051928352516020830152516040820152f35b346106f657611f5536613831565b905f52600560205260405f20905f52602052602060ff60405f2054166040519015158152f35b346106f65760203660031901126106f6575f610200604051611f9c81613579565b82815282602082015260606040820152826060820152826080820152606060a0820152606060c08201528260e0820152826101008201528261012082015282610140820152826101608201526060610180820152826101a0820152826101c082015260606101e082015201526004355f525f60205260405f2061210d600e6040519261202784613579565b8054845260018101546001600160a01b0316602085015261204a60028201613640565b6040850152600381015460608501526004810154608085015261206f60058201613640565b60a085015261208060068201613640565b60c0850152600781015460e085015260088101546101008501526009810154610120850152600a810154610140850152600b8101546101608501526120c7600c8201613640565b61018085015260ff600d82015481811615156101a087015260081c1615156101c08501526120f6828201613ec6565b6101e0850152600f81015461020085015201613ec6565b610738604051928392604084528151604085015260018060a01b0360208301511660608501526102006122236121f161219e61218761215d604088015161022060808c01526102608b01906136e1565b606088015160a08b0152608088015160c08b015260a0880151603f198b83030160e08c01526136e1565b60c0870151898203603f19016101008b01526136e1565b60e08601516101208901526101008601516101408901526101208601516101608901526101408601516101808901526101608601516101a0890152610180860151603f19898303016101c08a01526136e1565b6101a085015115156101e08801526101c08501511515838801526101e0850151603f19888303016102208901526137f5565b92015161024085015283820360208501526137f5565b346106f6576101203660031901126106f6576004356001600160401b0381116106f65761226a90369060040161373a565b6024356001600160401b0381116106f65761228990369060040161373a565b90600d60443510156106f6576064356001600160401b0381116106f6576122b490369060040161373a565b916084356001600160401b0381116106f6576122d490369060040161373a565b9260a4356001600160401b0381116106f6576122f490369060040161373a565b60c4356001600160401b0381116106f65761231390369060040161373a565b9460e4356001600160401b0381116106f657612333903690600401613797565b92610104356001600160401b0381116106f657612354903690600401613797565b94612360600c54613adb565b80600c555f52600360205260405f20968051906001600160401b03821161052a578190612397826123918c54613541565b8c613b25565b602090601f8311600114612990575f92612985575b50508160011b915f199060031b1c19161787555b6001870180546001600160a01b031916331790558051906001600160401b03821161052a578190612401826123f860028c0154613541565b60028c01613b25565b602090601f8311600114612917575f9261290c575b50508160011b915f199060031b1c19161760028701555b60ff1960038701541660ff604435161760038701558051906001600160401b03821161052a57819061246f8261246660048b0154613541565b60048b01613b25565b602090601f831160011461289e575f92612893575b50508160011b915f199060031b1c19161760048601555b8051906001600160401b03821161052a5781906124c8826124bf60058a0154613541565b60058a01613b25565b602090601f8311600114612825575f9261281a575b50508160011b915f199060031b1c19161760058501555b8051906001600160401b03821161052a578190612521826125186006890154613541565b60068901613b25565b602090601f83116001146127ac575f926127a1575b50508160011b915f199060031b1c19161760068401555b83516001600160401b03811161052a576125778161256e6007870154613541565b60078701613b25565b6020601f82116001146127335781929394955f92612728575b50508160011b915f199060031b1c19161760078401559190915b60098201925f5b8251811015612675576125c48184613b68565b515f525f6020523360018060a01b03600160405f200154160361263057806125f96125f261262b9386613b68565b5187613ba5565b600c545f52600460205260405f206126118286613b68565b515f5260205260405f20600160ff19825416179055613adb565b6125b1565b60405162461bcd60e51b815260206004820152601c60248201527f43616e20616464206f6e6c79206f776e65642063616d706169676e73000000006044820152606490fd5b50600a8301905f5b8151811015610022576126908183613b68565b515f5260016020523360018060a01b03600160405f20015416036126e357806126c66126bf6126de9385613b68565b5185613ba5565b600c545f52600560205260405f206126118285613b68565b61267d565b60405162461bcd60e51b815260206004820152601960248201527f43616e20616464206f6e6c79206f776e6564206576656e7473000000000000006044820152606490fd5b015190508580612590565b600785015f5260205f20905f5b601f1984168110612789575060019394959683601f19811610612771575b505050811b0160078401559190916125aa565b01515f1960f88460031b161c1916905585808061275e565b9091602060018192858b015181550193019101612740565b015190508680612536565b9250600686015f5260205f20905f935b601f19841685106127ff576001945083601f198116106127e7575b505050811b01600684015561254d565b01515f1960f88460031b161c191690558680806127d7565b818101518355602094850194600190930192909101906127bc565b0151905087806124dd565b9250600587015f5260205f20905f935b601f1984168510612878576001945083601f19811610612860575b505050811b0160058501556124f4565b01515f1960f88460031b161c19169055878080612850565b81810151835560209485019460019093019290910190612835565b015190508880612484565b9250600488015f5260205f20905f935b601f19841685106128f1576001945083601f198116106128d9575b505050811b01600486015561249b565b01515f1960f88460031b161c191690558880806128c9565b818101518355602094850194600190930192909101906128ae565b015190508980612416565b9250600289015f5260205f20905f935b601f198416851061296a576001945083601f19811610612952575b505050811b01600287015561242d565b01515f1960f88460031b161c19169055898080612942565b81810151835560209485019460019093019290910190612927565b015190508a806123ac565b9250895f5260205f20905f935b601f19841685106129dd576001945083601f198116106129c5575b505050811b0187556123c0565b01515f1960f88460031b161c191690558a80806129b8565b8181015183556020948501946001909301929091019061299d565b346106f6576101403660031901126106f6576004356001600160401b0381116106f657612a2990369060040161373a565b6064356001600160401b0381116106f657612a4890369060040161373a565b906084356001600160401b0381116106f657612a6890369060040161373a565b90610124356001600160401b0381116106f657612a89903690600401613797565b612a97426024351015613a3a565b612aa660243560443511613a85565b335f52600260205260a435600260405f20015410612e5357335f526002602052600260405f2001612ada60a4358254613a2d565b9055612ae7600b54613adb565b9182600b55825f52600160205260405f2092835560018301336001600160601b0360a01b8254161790558051906001600160401b03821161052a578190612b3e82612b356002880154613541565b60028801613b25565b602090601f8311600114612de5575f92612dda575b50508160011b915f199060031b1c19161760028301555b6024356003830155604435600483015583516001600160401b03811161052a57612ba481612b9b6005860154613541565b60058601613b25565b6020601f8211600114612d6f5781929394955f92612d64575b50508160011b915f199060031b1c19161760058301555b82516001600160401b03811161052a57612bfe81612bf56006860154613541565b60068601613b25565b6020601f8211600114612cfa57819293945f92612cef575b50508160011b915f199060031b1c19161760068301555b60a435600783015560c435600883015560e435600983015561010435600a830155600b82018151916001600160401b03831161052a57600160401b831161052a576020908254848455808510612cd4575b5001905f5260205f205f5b838110612cc05784546040519081527fe43349c008949cf6b65249356e6f918d4aaa0ca79f2b1166df4a4a98c9c16de260203392a2005b600190602084519401938184015501612c89565b612ce990845f5285845f209182019101613ae9565b85612c7e565b015190508480612c16565b600684015f5260205f20905f5b601f1984168110612d4c5750600193949583601f19811610612d34575b505050811b016006830155612c2d565b01515f1960f88460031b161c19169055848080612d24565b9091602060018192858a015181550193019101612d07565b015190508580612bbd565b600584015f5260205f20905f5b601f1984168110612dc2575060019394959683601f19811610612daa575b505050811b016005830155612bd4565b01515f1960f88460031b161c19169055858080612d9a565b9091602060018192858b015181550193019101612d7c565b015190508680612b53565b9250600285015f5260205f20905f935b601f1984168510612e38576001945083601f19811610612e20575b505050811b016002830155612b6a565b01515f1960f88460031b161c19169055868080612e10565b81810151835560209485019460019093019290910190612df5565b60405162461bcd60e51b815260206004820152602360248201527f496e73756666696369656e742061737365747320746f20637265617465206576604482015262195b9d60ea1b6064820152608490fd5b346106f6576020806003193601126106f65760043590815f526001815260405f20612ee0600391610c1a60048483015492015491421015613bd9565b335f526002825260018060a01b03612eff8160405f2054161515613c6a565b335f526007835260405f20845f52835260ff908160405f2054166130c557335f526002845260405f205416156130b7575b835f526001835260405f20915f915f91600b85018054935b84811061306857505050505060098201541161302357612f6c90600c339101613cac565b335f5260028152612f8382600760405f2001613ba5565b612f8c82613e83565b80612fda575b50335f526007815260405f2090825f525260405f20600160ff1982541617905533907ff11149736e591e4b965f3e9e625eaf62f393d637814b49899d9e8e0374cd0f9e5f80a3005b5f526009815260405f20335f52815260405f2060018101612ffb8154613adb565b9055825f526001825261301b6002600860405f2001549201918254613887565b905582612f92565b60405162461bcd60e51b815260048101839052601e60248201527f4e6f7420656e6f7567682063616d706169676e7320636f6d706c6574656400006044820152606490fd5b6130728183613b90565b905490841b1c335f526006895260405f20905f5288528360405f2054166130a2575b61309d90613adb565b612f48565b946130af61309d91613adb565b959050613094565b6130c033613d19565b612f30565b60405162461bcd60e51b815260048101859052601960248201527f416c7265616479206a6f696e65642074686973206576656e74000000000000006044820152606490fd5b346106f6575f3660031901126106f6576020600c54604051908152f35b346106f6576020806003193601126106f65760043580156131ed575f808080933382526002865261316181600260408520015410156139ea565b338252600286526002604083200161317a828254613a2d565b9055335af13d156131e8573d61318f8161371f565b9061319d604051928361361f565b81525f833d92013e5b156131ad57005b6064906040519062461bcd60e51b8252600482015260146024820152732330b4b632b2103a379039b2b7321022ba3432b960611b6044820152fd5b6131a6565b6064826040519062461bcd60e51b825280600483015260248201527f416d6f756e74206d7573742062652067726561746572207468616e207a65726f6044820152fd5b346106f65760403660031901126106f6576001600160a01b03613251613515565b165f52600760205260405f206024355f52602052602060ff60405f2054166040519015158152f35b346106f65760203660031901126106f6576004355f525f60205260405f20805490600160a01b6001900360018201541690600281016132b790613640565b92600382015490600483015490600584016132d190613640565b906132de60068601613640565b916007860154926008870154600988015491600a89015493600b8a015495600c8b0161330990613640565b98600d8c01549b600f01549a6040519e8f9e8f94855260208501526102008060408601528401613338916136e1565b926060015260808d01528b810360a08d0152613353916136e1565b8a810360c08c0152613364916136e1565b9460e08a0152610100890152610120880152610140870152610160860152848103610180860152613394916136e1565b9160ff811615156101a085015260081c60ff1615156101c08401526101e08301520390f35b346106f65760203660031901126106f6576004355f9081526001602081815260409092208054918101546001600160a01b03166133f860028301613640565b9160038101549261348460048301549461347661341760058601613640565b9161342460068701613640565b9260078701549861345e600889015497600a60098b01549a01549a6040519e8f9e8f908152015260408d61016091829101528d01906136e1565b9260608c015260808b015289820360a08b01526136e1565b9087820360c08901526136e1565b9360e08601526101008501526101208401526101408301520390f35b346106f6575f3660031901126106f657600a54600b54600c5460408051938452602084019290925290820152606090f35b346106f65760403660031901126106f6576020906001600160a01b036134f5613515565b165f526006825260405f206024355f52825260ff60405f20541615158152f35b600435906001600160a01b03821682036106f657565b602435906001600160a01b03821682036106f657565b90600182811c9216801561356f575b602083101461355b57565b634e487b7160e01b5f52602260045260245ffd5b91607f1691613550565b61022081019081106001600160401b0382111761052a57604052565b606081019081106001600160401b0382111761052a57604052565b6101a081019081106001600160401b0382111761052a57604052565b61010081019081106001600160401b0382111761052a57604052565b61016081019081106001600160401b0382111761052a57604052565b602081019081106001600160401b0382111761052a57604052565b90601f801991011681019081106001600160401b0382111761052a57604052565b9060405191825f82549261365384613541565b9081845260019485811690815f146136be575060011461367e575b505061367c9250038361361f565b565b909391505f52602090815f20935f915b8183106136a657505061367c93508201015f8061366e565b8554888401850152948501948794509183019161368e565b91505061367c94506020925060ff191682840152151560051b8201015f8061366e565b91908251928382525f5b84811061370b575050825f602080949584010152601f8019910116010190565b6020818301810151848301820152016136eb565b6001600160401b03811161052a57601f01601f191660200190565b81601f820112156106f6578035906137518261371f565b9261375f604051948561361f565b828452602083830101116106f657815f926020809301838601378301015290565b6001600160401b03811161052a5760051b60200190565b81601f820112156106f6578035916137ae83613780565b926137bc604051948561361f565b808452602092838086019260051b8201019283116106f6578301905b8282106137e6575050505090565b813581529083019083016137d8565b9081518082526020808093019301915f5b828110613814575050505090565b83516001600160a01b031685529381019392810192600101613806565b60409060031901126106f6576004359060243590565b9081518082526020808093019301915f5b828110613866575050505090565b835185529381019392810192600101613858565b90600d821015611ae05752565b9190820180921161076157565b335f90815260026020908152604080832080549093906001600160a01b03166139d5577f48cac28ad4dc618e15f4c2dd5e97751182f166de97b25618318b2112aa951a2f929350338152600284526007828220336001600160601b0360a01b8254161781555f6001820161391161390b8254613541565b82613aff565b553460028201558260038201556001600482015582845161393181613604565b52600581018054848255806139bd575b50835282845161395081613604565b52600681018054848255806139a5575b50835282845161396f81613604565b520180548282558061398d575b5081528151938085528401523392a2565b81835285832061399f91810190613ae9565b5f61397c565b8185528785206139b791810190613ae9565b5f613960565b8185528785206139cf91810190613ae9565b5f613941565b5050506002016139e6348254613887565b9055565b156139f157565b60405162461bcd60e51b8152602060048201526014602482015273496e73756666696369656e742062616c616e636560601b6044820152606490fd5b9190820391821161076157565b15613a4157565b606460405162461bcd60e51b815260206004820152602060248201527f53746172742074696d65206d75737420626520696e20746865206675747572656044820152fd5b15613a8c57565b60405162461bcd60e51b815260206004820152602160248201527f456e642074696d65206d7573742062652061667465722073746172742074696d6044820152606560f81b6064820152608490fd5b5f1981146107615760010190565b818110613af4575050565b5f8155600101613ae9565b90601f8111613b0c575050565b61367c915f52601f60205f20910160051c810190613ae9565b9190601f8111613b3457505050565b61367c925f5260205f20906020601f840160051c83019310613b5e575b601f0160051c0190613ae9565b9091508190613b51565b8051821015613b7c5760209160051b010190565b634e487b7160e01b5f52603260045260245ffd5b8054821015613b7c575f5260205f2001905f90565b8054600160401b81101561052a57613bc291600182018155613b90565b819291549060031b91821b915f19901b1916179055565b15613be057565b60405162461bcd60e51b815260206004820152601860248201527f5468697320686173206e6f7420737461727465642079657400000000000000006044820152606490fd5b15613c2c57565b60405162461bcd60e51b8152602060048201526016602482015275151a1a5cc81a185cc8185b1c9958591e48195b99195960521b6044820152606490fd5b15613c7157565b60405162461bcd60e51b8152602060048201526013602482015272155cd95c88191bd95cc81b9bdd08195e1a5cdd606a1b6044820152606490fd5b8054600160401b81101561052a57613cc991600182018155613b90565b819291549060031b9160018060a01b03809116831b921b1916179055565b90613cf182613780565b613cfe604051918261361f565b8281528092613d0f601f1991613780565b0190602036910137565b60018060a01b03167f48cac28ad4dc618e15f4c2dd5e97751182f166de97b25618318b2112aa951a2f5f8281526020600281526040916007838220866001600160601b0360a01b8254161781555f60018201613d7861390b8254613541565b5582600282015582600382015560016004820155828551613d9881613604565b5260058101805484825580613e22575b508352828551613db781613604565b5260068101805484825580613e0a575b508352828551613dd681613604565b5201805482825580613df2575b508152825191808352820152a2565b818352838320613e0491810190613ae9565b5f613de3565b818552858520613e1c91810190613ae9565b5f613dc7565b818552858520613e3491810190613ae9565b5f613da8565b600c549060015b82811115613e50575050505f90565b60ff5f828152602090600482526040918282209086835252205416613e7d57613e7890613adb565b613e41565b91505090565b600c549060015b82811115613e99575050505f90565b60ff5f828152602090600582526040918282209086835252205416613e7d57613ec190613adb565b613e8a565b906040519182815491828252602092838301915f52835f20935f905b828210613ef85750505061367c9250038361361f565b85546001600160a01b031684526001958601958895509381019390910190613ee2565b906040519182815491828252602092838301915f52835f20935f905b828210613f4d5750505061367c9250038361361f565b855484526001958601958895509381019390910190613f3756fea2646970667358221220d5ac690125b78ddbbbcf6fafbfd74b63a68db9c347e3d15f275d023f9b043fc164736f6c63430008140033",
  "linkReferences": {},
  "deployedLinkReferences": {}
}